{
	"contracts/Struct/EmployeeRegistry.sol": {
		"employeeRegistry": {
			"abi": [
				{
					"inputs": [
						{
							"internalType": "uint256",
							"name": "",
							"type": "uint256"
						}
					],
					"name": "emp",
					"outputs": [
						{
							"internalType": "uint256",
							"name": "id",
							"type": "uint256"
						},
						{
							"internalType": "string",
							"name": "name",
							"type": "string"
						},
						{
							"internalType": "uint256",
							"name": "salary",
							"type": "uint256"
						}
					],
					"stateMutability": "view",
					"type": "function"
				},
				{
					"inputs": [
						{
							"internalType": "uint256",
							"name": "index",
							"type": "uint256"
						}
					],
					"name": "getEmployee",
					"outputs": [
						{
							"components": [
								{
									"internalType": "uint256",
									"name": "id",
									"type": "uint256"
								},
								{
									"internalType": "string",
									"name": "name",
									"type": "string"
								},
								{
									"internalType": "uint256",
									"name": "salary",
									"type": "uint256"
								}
							],
							"internalType": "struct employeeRegistry.Employee",
							"name": "",
							"type": "tuple"
						}
					],
					"stateMutability": "view",
					"type": "function"
				},
				{
					"inputs": [
						{
							"internalType": "uint256",
							"name": "index",
							"type": "uint256"
						},
						{
							"internalType": "uint256",
							"name": "Employee_Id",
							"type": "uint256"
						},
						{
							"internalType": "string",
							"name": "Employee_Name",
							"type": "string"
						},
						{
							"internalType": "uint256",
							"name": "Employee_Salary",
							"type": "uint256"
						}
					],
					"name": "insert",
					"outputs": [],
					"stateMutability": "nonpayable",
					"type": "function"
				}
			],
			"devdoc": {
				"kind": "dev",
				"methods": {},
				"version": 1
			},
			"evm": {
				"assembly": "    /* \"contracts/Struct/EmployeeRegistry.sol\":72:654  contract employeeRegistry{... */\n  mstore(0x40, 0x80)\n  callvalue\n  dup1\n  iszero\n  tag_1\n  jumpi\n  0x00\n  dup1\n  revert\ntag_1:\n  pop\n  dataSize(sub_0)\n  dup1\n  dataOffset(sub_0)\n  0x00\n  codecopy\n  0x00\n  return\nstop\n\nsub_0: assembly {\n        /* \"contracts/Struct/EmployeeRegistry.sol\":72:654  contract employeeRegistry{... */\n      mstore(0x40, 0x80)\n      callvalue\n      dup1\n      iszero\n      tag_1\n      jumpi\n      0x00\n      dup1\n      revert\n    tag_1:\n      pop\n      jumpi(tag_2, lt(calldatasize, 0x04))\n      shr(0xe0, calldataload(0x00))\n      dup1\n      0xaaefce39\n      eq\n      tag_3\n      jumpi\n      dup1\n      0xbca9a5c5\n      eq\n      tag_4\n      jumpi\n      dup1\n      0xdbe7e257\n      eq\n      tag_5\n      jumpi\n    tag_2:\n      0x00\n      dup1\n      revert\n        /* \"contracts/Struct/EmployeeRegistry.sol\":269:517  function insert(uint index, uint256 Employee_Id, string calldata Employee_Name , uint256 Employee_Salary) public {... */\n    tag_3:\n      tag_6\n      0x04\n      dup1\n      calldatasize\n      sub\n      dup2\n      add\n      swap1\n      tag_7\n      swap2\n      swap1\n      tag_8\n      jump\t// in\n    tag_7:\n      tag_9\n      jump\t// in\n    tag_6:\n      stop\n        /* \"contracts/Struct/EmployeeRegistry.sol\":542:651  function getEmployee(uint256 index) public view returns(Employee memory){... */\n    tag_4:\n      tag_10\n      0x04\n      dup1\n      calldatasize\n      sub\n      dup2\n      add\n      swap1\n      tag_11\n      swap2\n      swap1\n      tag_12\n      jump\t// in\n    tag_11:\n      tag_13\n      jump\t// in\n    tag_10:\n      mload(0x40)\n      tag_14\n      swap2\n      swap1\n      tag_15\n      jump\t// in\n    tag_14:\n      mload(0x40)\n      dup1\n      swap2\n      sub\n      swap1\n      return\n        /* \"contracts/Struct/EmployeeRegistry.sol\":239:260  Employee[] public emp */\n    tag_5:\n      tag_16\n      0x04\n      dup1\n      calldatasize\n      sub\n      dup2\n      add\n      swap1\n      tag_17\n      swap2\n      swap1\n      tag_12\n      jump\t// in\n    tag_17:\n      tag_18\n      jump\t// in\n    tag_16:\n      mload(0x40)\n      tag_19\n      swap4\n      swap3\n      swap2\n      swap1\n      tag_20\n      jump\t// in\n    tag_19:\n      mload(0x40)\n      dup1\n      swap2\n      sub\n      swap1\n      return\n        /* \"contracts/Struct/EmployeeRegistry.sol\":269:517  function insert(uint index, uint256 Employee_Id, string calldata Employee_Name , uint256 Employee_Salary) public {... */\n    tag_9:\n        /* \"contracts/Struct/EmployeeRegistry.sol\":409:420  Employee_Id */\n      dup4\n        /* \"contracts/Struct/EmployeeRegistry.sol\":393:396  emp */\n      0x00\n        /* \"contracts/Struct/EmployeeRegistry.sol\":397:402  index */\n      dup7\n        /* \"contracts/Struct/EmployeeRegistry.sol\":393:403  emp[index] */\n      dup2\n      sload\n      dup2\n      lt\n      tag_22\n      jumpi\n      tag_23\n      tag_24\n      jump\t// in\n    tag_23:\n    tag_22:\n      swap1\n      0x00\n      mstore\n      keccak256(0x00, 0x20)\n      swap1\n      0x03\n      mul\n      add\n        /* \"contracts/Struct/EmployeeRegistry.sol\":393:406  emp[index].id */\n      0x00\n      add\n        /* \"contracts/Struct/EmployeeRegistry.sol\":393:420  emp[index].id = Employee_Id */\n      dup2\n      swap1\n      sstore\n      pop\n        /* \"contracts/Struct/EmployeeRegistry.sol\":449:462  Employee_Name */\n      dup3\n      dup3\n        /* \"contracts/Struct/EmployeeRegistry.sol\":431:434  emp */\n      0x00\n        /* \"contracts/Struct/EmployeeRegistry.sol\":435:440  index */\n      dup8\n        /* \"contracts/Struct/EmployeeRegistry.sol\":431:441  emp[index] */\n      dup2\n      sload\n      dup2\n      lt\n      tag_26\n      jumpi\n      tag_27\n      tag_24\n      jump\t// in\n    tag_27:\n    tag_26:\n      swap1\n      0x00\n      mstore\n      keccak256(0x00, 0x20)\n      swap1\n      0x03\n      mul\n      add\n        /* \"contracts/Struct/EmployeeRegistry.sol\":431:446  emp[index].name */\n      0x01\n      add\n        /* \"contracts/Struct/EmployeeRegistry.sol\":431:462  emp[index].name = Employee_Name */\n      swap2\n      dup3\n      tag_29\n      swap3\n      swap2\n      swap1\n      tag_30\n      jump\t// in\n    tag_29:\n      pop\n        /* \"contracts/Struct/EmployeeRegistry.sol\":493:508  Employee_Salary */\n      dup1\n        /* \"contracts/Struct/EmployeeRegistry.sol\":473:476  emp */\n      0x00\n        /* \"contracts/Struct/EmployeeRegistry.sol\":477:482  index */\n      dup7\n        /* \"contracts/Struct/EmployeeRegistry.sol\":473:483  emp[index] */\n      dup2\n      sload\n      dup2\n      lt\n      tag_31\n      jumpi\n      tag_32\n      tag_24\n      jump\t// in\n    tag_32:\n    tag_31:\n      swap1\n      0x00\n      mstore\n      keccak256(0x00, 0x20)\n      swap1\n      0x03\n      mul\n      add\n        /* \"contracts/Struct/EmployeeRegistry.sol\":473:490  emp[index].salary */\n      0x02\n      add\n        /* \"contracts/Struct/EmployeeRegistry.sol\":473:508  emp[index].salary = Employee_Salary */\n      dup2\n      swap1\n      sstore\n      pop\n        /* \"contracts/Struct/EmployeeRegistry.sol\":269:517  function insert(uint index, uint256 Employee_Id, string calldata Employee_Name , uint256 Employee_Salary) public {... */\n      pop\n      pop\n      pop\n      pop\n      pop\n      jump\t// out\n        /* \"contracts/Struct/EmployeeRegistry.sol\":542:651  function getEmployee(uint256 index) public view returns(Employee memory){... */\n    tag_13:\n        /* \"contracts/Struct/EmployeeRegistry.sol\":598:613  Employee memory */\n      tag_34\n      tag_35\n      jump\t// in\n    tag_34:\n        /* \"contracts/Struct/EmployeeRegistry.sol\":633:636  emp */\n      0x00\n        /* \"contracts/Struct/EmployeeRegistry.sol\":637:642  index */\n      dup3\n        /* \"contracts/Struct/EmployeeRegistry.sol\":633:643  emp[index] */\n      dup2\n      sload\n      dup2\n      lt\n      tag_37\n      jumpi\n      tag_38\n      tag_24\n      jump\t// in\n    tag_38:\n    tag_37:\n      swap1\n      0x00\n      mstore\n      keccak256(0x00, 0x20)\n      swap1\n      0x03\n      mul\n      add\n        /* \"contracts/Struct/EmployeeRegistry.sol\":625:643  return  emp[index] */\n      mload(0x40)\n      dup1\n      0x60\n      add\n      0x40\n      mstore\n      swap1\n      dup2\n      0x00\n      dup3\n      add\n      sload\n      dup2\n      mstore\n      0x20\n      add\n      0x01\n      dup3\n      add\n      dup1\n      sload\n      tag_40\n      swap1\n      tag_41\n      jump\t// in\n    tag_40:\n      dup1\n      0x1f\n      add\n      0x20\n      dup1\n      swap2\n      div\n      mul\n      0x20\n      add\n      mload(0x40)\n      swap1\n      dup2\n      add\n      0x40\n      mstore\n      dup1\n      swap3\n      swap2\n      swap1\n      dup2\n      dup2\n      mstore\n      0x20\n      add\n      dup3\n      dup1\n      sload\n      tag_42\n      swap1\n      tag_41\n      jump\t// in\n    tag_42:\n      dup1\n      iszero\n      tag_43\n      jumpi\n      dup1\n      0x1f\n      lt\n      tag_44\n      jumpi\n      0x0100\n      dup1\n      dup4\n      sload\n      div\n      mul\n      dup4\n      mstore\n      swap2\n      0x20\n      add\n      swap2\n      jump(tag_43)\n    tag_44:\n      dup3\n      add\n      swap2\n      swap1\n      0x00\n      mstore\n      keccak256(0x00, 0x20)\n      swap1\n    tag_45:\n      dup2\n      sload\n      dup2\n      mstore\n      swap1\n      0x01\n      add\n      swap1\n      0x20\n      add\n      dup1\n      dup4\n      gt\n      tag_45\n      jumpi\n      dup3\n      swap1\n      sub\n      0x1f\n      and\n      dup3\n      add\n      swap2\n    tag_43:\n      pop\n      pop\n      pop\n      pop\n      pop\n      dup2\n      mstore\n      0x20\n      add\n      0x02\n      dup3\n      add\n      sload\n      dup2\n      mstore\n      pop\n      pop\n      swap1\n      pop\n        /* \"contracts/Struct/EmployeeRegistry.sol\":542:651  function getEmployee(uint256 index) public view returns(Employee memory){... */\n      swap2\n      swap1\n      pop\n      jump\t// out\n        /* \"contracts/Struct/EmployeeRegistry.sol\":239:260  Employee[] public emp */\n    tag_18:\n      0x00\n      dup2\n      dup2\n      sload\n      dup2\n      lt\n      tag_46\n      jumpi\n      0x00\n      dup1\n      revert\n    tag_46:\n      swap1\n      0x00\n      mstore\n      keccak256(0x00, 0x20)\n      swap1\n      0x03\n      mul\n      add\n      0x00\n      swap2\n      pop\n      swap1\n      pop\n      dup1\n      0x00\n      add\n      sload\n      swap1\n      dup1\n      0x01\n      add\n      dup1\n      sload\n      tag_48\n      swap1\n      tag_41\n      jump\t// in\n    tag_48:\n      dup1\n      0x1f\n      add\n      0x20\n      dup1\n      swap2\n      div\n      mul\n      0x20\n      add\n      mload(0x40)\n      swap1\n      dup2\n      add\n      0x40\n      mstore\n      dup1\n      swap3\n      swap2\n      swap1\n      dup2\n      dup2\n      mstore\n      0x20\n      add\n      dup3\n      dup1\n      sload\n      tag_49\n      swap1\n      tag_41\n      jump\t// in\n    tag_49:\n      dup1\n      iszero\n      tag_50\n      jumpi\n      dup1\n      0x1f\n      lt\n      tag_51\n      jumpi\n      0x0100\n      dup1\n      dup4\n      sload\n      div\n      mul\n      dup4\n      mstore\n      swap2\n      0x20\n      add\n      swap2\n      jump(tag_50)\n    tag_51:\n      dup3\n      add\n      swap2\n      swap1\n      0x00\n      mstore\n      keccak256(0x00, 0x20)\n      swap1\n    tag_52:\n      dup2\n      sload\n      dup2\n      mstore\n      swap1\n      0x01\n      add\n      swap1\n      0x20\n      add\n      dup1\n      dup4\n      gt\n      tag_52\n      jumpi\n      dup3\n      swap1\n      sub\n      0x1f\n      and\n      dup3\n      add\n      swap2\n    tag_50:\n      pop\n      pop\n      pop\n      pop\n      pop\n      swap1\n      dup1\n      0x02\n      add\n      sload\n      swap1\n      pop\n      dup4\n      jump\t// out\n    tag_35:\n      mload(0x40)\n      dup1\n      0x60\n      add\n      0x40\n      mstore\n      dup1\n      0x00\n      dup2\n      mstore\n      0x20\n      add\n      0x60\n      dup2\n      mstore\n      0x20\n      add\n      0x00\n      dup2\n      mstore\n      pop\n      swap1\n      jump\t// out\n        /* \"#utility.yul\":88:205   */\n    tag_54:\n        /* \"#utility.yul\":197:198   */\n      0x00\n        /* \"#utility.yul\":194:195   */\n      dup1\n        /* \"#utility.yul\":187:199   */\n      revert\n        /* \"#utility.yul\":211:328   */\n    tag_55:\n        /* \"#utility.yul\":320:321   */\n      0x00\n        /* \"#utility.yul\":317:318   */\n      dup1\n        /* \"#utility.yul\":310:322   */\n      revert\n        /* \"#utility.yul\":334:411   */\n    tag_56:\n        /* \"#utility.yul\":371:378   */\n      0x00\n        /* \"#utility.yul\":400:405   */\n      dup2\n        /* \"#utility.yul\":389:405   */\n      swap1\n      pop\n        /* \"#utility.yul\":334:411   */\n      swap2\n      swap1\n      pop\n      jump\t// out\n        /* \"#utility.yul\":417:539   */\n    tag_57:\n        /* \"#utility.yul\":490:514   */\n      tag_97\n        /* \"#utility.yul\":508:513   */\n      dup2\n        /* \"#utility.yul\":490:514   */\n      tag_56\n      jump\t// in\n    tag_97:\n        /* \"#utility.yul\":483:488   */\n      dup2\n        /* \"#utility.yul\":480:515   */\n      eq\n        /* \"#utility.yul\":470:533   */\n      tag_98\n      jumpi\n        /* \"#utility.yul\":529:530   */\n      0x00\n        /* \"#utility.yul\":526:527   */\n      dup1\n        /* \"#utility.yul\":519:531   */\n      revert\n        /* \"#utility.yul\":470:533   */\n    tag_98:\n        /* \"#utility.yul\":417:539   */\n      pop\n      jump\t// out\n        /* \"#utility.yul\":545:684   */\n    tag_58:\n        /* \"#utility.yul\":591:596   */\n      0x00\n        /* \"#utility.yul\":629:635   */\n      dup2\n        /* \"#utility.yul\":616:636   */\n      calldataload\n        /* \"#utility.yul\":607:636   */\n      swap1\n      pop\n        /* \"#utility.yul\":645:678   */\n      tag_100\n        /* \"#utility.yul\":672:677   */\n      dup2\n        /* \"#utility.yul\":645:678   */\n      tag_57\n      jump\t// in\n    tag_100:\n        /* \"#utility.yul\":545:684   */\n      swap3\n      swap2\n      pop\n      pop\n      jump\t// out\n        /* \"#utility.yul\":690:807   */\n    tag_59:\n        /* \"#utility.yul\":799:800   */\n      0x00\n        /* \"#utility.yul\":796:797   */\n      dup1\n        /* \"#utility.yul\":789:801   */\n      revert\n        /* \"#utility.yul\":813:930   */\n    tag_60:\n        /* \"#utility.yul\":922:923   */\n      0x00\n        /* \"#utility.yul\":919:920   */\n      dup1\n        /* \"#utility.yul\":912:924   */\n      revert\n        /* \"#utility.yul\":936:1053   */\n    tag_61:\n        /* \"#utility.yul\":1045:1046   */\n      0x00\n        /* \"#utility.yul\":1042:1043   */\n      dup1\n        /* \"#utility.yul\":1035:1047   */\n      revert\n        /* \"#utility.yul\":1073:1626   */\n    tag_62:\n        /* \"#utility.yul\":1131:1139   */\n      0x00\n        /* \"#utility.yul\":1141:1147   */\n      dup1\n        /* \"#utility.yul\":1191:1194   */\n      dup4\n        /* \"#utility.yul\":1184:1188   */\n      0x1f\n        /* \"#utility.yul\":1176:1182   */\n      dup5\n        /* \"#utility.yul\":1172:1189   */\n      add\n        /* \"#utility.yul\":1168:1195   */\n      slt\n        /* \"#utility.yul\":1158:1280   */\n      tag_105\n      jumpi\n        /* \"#utility.yul\":1199:1278   */\n      tag_106\n      tag_59\n      jump\t// in\n    tag_106:\n        /* \"#utility.yul\":1158:1280   */\n    tag_105:\n        /* \"#utility.yul\":1312:1318   */\n      dup3\n        /* \"#utility.yul\":1299:1319   */\n      calldataload\n        /* \"#utility.yul\":1289:1319   */\n      swap1\n      pop\n        /* \"#utility.yul\":1342:1360   */\n      0xffffffffffffffff\n        /* \"#utility.yul\":1334:1340   */\n      dup2\n        /* \"#utility.yul\":1331:1361   */\n      gt\n        /* \"#utility.yul\":1328:1445   */\n      iszero\n      tag_107\n      jumpi\n        /* \"#utility.yul\":1364:1443   */\n      tag_108\n      tag_60\n      jump\t// in\n    tag_108:\n        /* \"#utility.yul\":1328:1445   */\n    tag_107:\n        /* \"#utility.yul\":1478:1482   */\n      0x20\n        /* \"#utility.yul\":1470:1476   */\n      dup4\n        /* \"#utility.yul\":1466:1483   */\n      add\n        /* \"#utility.yul\":1454:1483   */\n      swap2\n      pop\n        /* \"#utility.yul\":1532:1535   */\n      dup4\n        /* \"#utility.yul\":1524:1528   */\n      0x01\n        /* \"#utility.yul\":1516:1522   */\n      dup3\n        /* \"#utility.yul\":1512:1529   */\n      mul\n        /* \"#utility.yul\":1502:1510   */\n      dup4\n        /* \"#utility.yul\":1498:1530   */\n      add\n        /* \"#utility.yul\":1495:1536   */\n      gt\n        /* \"#utility.yul\":1492:1620   */\n      iszero\n      tag_109\n      jumpi\n        /* \"#utility.yul\":1539:1618   */\n      tag_110\n      tag_61\n      jump\t// in\n    tag_110:\n        /* \"#utility.yul\":1492:1620   */\n    tag_109:\n        /* \"#utility.yul\":1073:1626   */\n      swap3\n      pop\n      swap3\n      swap1\n      pop\n      jump\t// out\n        /* \"#utility.yul\":1632:2597   */\n    tag_8:\n        /* \"#utility.yul\":1730:1736   */\n      0x00\n        /* \"#utility.yul\":1738:1744   */\n      dup1\n        /* \"#utility.yul\":1746:1752   */\n      0x00\n        /* \"#utility.yul\":1754:1760   */\n      dup1\n        /* \"#utility.yul\":1762:1768   */\n      0x00\n        /* \"#utility.yul\":1811:1814   */\n      0x80\n        /* \"#utility.yul\":1799:1808   */\n      dup7\n        /* \"#utility.yul\":1790:1797   */\n      dup9\n        /* \"#utility.yul\":1786:1809   */\n      sub\n        /* \"#utility.yul\":1782:1815   */\n      slt\n        /* \"#utility.yul\":1779:1899   */\n      iszero\n      tag_112\n      jumpi\n        /* \"#utility.yul\":1818:1897   */\n      tag_113\n      tag_54\n      jump\t// in\n    tag_113:\n        /* \"#utility.yul\":1779:1899   */\n    tag_112:\n        /* \"#utility.yul\":1938:1939   */\n      0x00\n        /* \"#utility.yul\":1963:2016   */\n      tag_114\n        /* \"#utility.yul\":2008:2015   */\n      dup9\n        /* \"#utility.yul\":1999:2005   */\n      dup3\n        /* \"#utility.yul\":1988:1997   */\n      dup10\n        /* \"#utility.yul\":1984:2006   */\n      add\n        /* \"#utility.yul\":1963:2016   */\n      tag_58\n      jump\t// in\n    tag_114:\n        /* \"#utility.yul\":1953:2016   */\n      swap6\n      pop\n        /* \"#utility.yul\":1909:2026   */\n      pop\n        /* \"#utility.yul\":2065:2067   */\n      0x20\n        /* \"#utility.yul\":2091:2144   */\n      tag_115\n        /* \"#utility.yul\":2136:2143   */\n      dup9\n        /* \"#utility.yul\":2127:2133   */\n      dup3\n        /* \"#utility.yul\":2116:2125   */\n      dup10\n        /* \"#utility.yul\":2112:2134   */\n      add\n        /* \"#utility.yul\":2091:2144   */\n      tag_58\n      jump\t// in\n    tag_115:\n        /* \"#utility.yul\":2081:2144   */\n      swap5\n      pop\n        /* \"#utility.yul\":2036:2154   */\n      pop\n        /* \"#utility.yul\":2221:2223   */\n      0x40\n        /* \"#utility.yul\":2210:2219   */\n      dup7\n        /* \"#utility.yul\":2206:2224   */\n      add\n        /* \"#utility.yul\":2193:2225   */\n      calldataload\n        /* \"#utility.yul\":2252:2270   */\n      0xffffffffffffffff\n        /* \"#utility.yul\":2244:2250   */\n      dup2\n        /* \"#utility.yul\":2241:2271   */\n      gt\n        /* \"#utility.yul\":2238:2355   */\n      iszero\n      tag_116\n      jumpi\n        /* \"#utility.yul\":2274:2353   */\n      tag_117\n      tag_55\n      jump\t// in\n    tag_117:\n        /* \"#utility.yul\":2238:2355   */\n    tag_116:\n        /* \"#utility.yul\":2387:2452   */\n      tag_118\n        /* \"#utility.yul\":2444:2451   */\n      dup9\n        /* \"#utility.yul\":2435:2441   */\n      dup3\n        /* \"#utility.yul\":2424:2433   */\n      dup10\n        /* \"#utility.yul\":2420:2442   */\n      add\n        /* \"#utility.yul\":2387:2452   */\n      tag_62\n      jump\t// in\n    tag_118:\n        /* \"#utility.yul\":2369:2452   */\n      swap4\n      pop\n      swap4\n      pop\n        /* \"#utility.yul\":2164:2462   */\n      pop\n        /* \"#utility.yul\":2501:2503   */\n      0x60\n        /* \"#utility.yul\":2527:2580   */\n      tag_119\n        /* \"#utility.yul\":2572:2579   */\n      dup9\n        /* \"#utility.yul\":2563:2569   */\n      dup3\n        /* \"#utility.yul\":2552:2561   */\n      dup10\n        /* \"#utility.yul\":2548:2570   */\n      add\n        /* \"#utility.yul\":2527:2580   */\n      tag_58\n      jump\t// in\n    tag_119:\n        /* \"#utility.yul\":2517:2580   */\n      swap2\n      pop\n        /* \"#utility.yul\":2472:2590   */\n      pop\n        /* \"#utility.yul\":1632:2597   */\n      swap3\n      swap6\n      pop\n      swap3\n      swap6\n      swap1\n      swap4\n      pop\n      jump\t// out\n        /* \"#utility.yul\":2603:2932   */\n    tag_12:\n        /* \"#utility.yul\":2662:2668   */\n      0x00\n        /* \"#utility.yul\":2711:2713   */\n      0x20\n        /* \"#utility.yul\":2699:2708   */\n      dup3\n        /* \"#utility.yul\":2690:2697   */\n      dup5\n        /* \"#utility.yul\":2686:2709   */\n      sub\n        /* \"#utility.yul\":2682:2714   */\n      slt\n        /* \"#utility.yul\":2679:2798   */\n      iszero\n      tag_121\n      jumpi\n        /* \"#utility.yul\":2717:2796   */\n      tag_122\n      tag_54\n      jump\t// in\n    tag_122:\n        /* \"#utility.yul\":2679:2798   */\n    tag_121:\n        /* \"#utility.yul\":2837:2838   */\n      0x00\n        /* \"#utility.yul\":2862:2915   */\n      tag_123\n        /* \"#utility.yul\":2907:2914   */\n      dup5\n        /* \"#utility.yul\":2898:2904   */\n      dup3\n        /* \"#utility.yul\":2887:2896   */\n      dup6\n        /* \"#utility.yul\":2883:2905   */\n      add\n        /* \"#utility.yul\":2862:2915   */\n      tag_58\n      jump\t// in\n    tag_123:\n        /* \"#utility.yul\":2852:2915   */\n      swap2\n      pop\n        /* \"#utility.yul\":2808:2925   */\n      pop\n        /* \"#utility.yul\":2603:2932   */\n      swap3\n      swap2\n      pop\n      pop\n      jump\t// out\n        /* \"#utility.yul\":2938:3046   */\n    tag_63:\n        /* \"#utility.yul\":3015:3039   */\n      tag_125\n        /* \"#utility.yul\":3033:3038   */\n      dup2\n        /* \"#utility.yul\":3015:3039   */\n      tag_56\n      jump\t// in\n    tag_125:\n        /* \"#utility.yul\":3010:3013   */\n      dup3\n        /* \"#utility.yul\":3003:3040   */\n      mstore\n        /* \"#utility.yul\":2938:3046   */\n      pop\n      pop\n      jump\t// out\n        /* \"#utility.yul\":3052:3151   */\n    tag_64:\n        /* \"#utility.yul\":3104:3110   */\n      0x00\n        /* \"#utility.yul\":3138:3143   */\n      dup2\n        /* \"#utility.yul\":3132:3144   */\n      mload\n        /* \"#utility.yul\":3122:3144   */\n      swap1\n      pop\n        /* \"#utility.yul\":3052:3151   */\n      swap2\n      swap1\n      pop\n      jump\t// out\n        /* \"#utility.yul\":3157:3316   */\n    tag_65:\n        /* \"#utility.yul\":3231:3242   */\n      0x00\n        /* \"#utility.yul\":3265:3271   */\n      dup3\n        /* \"#utility.yul\":3260:3263   */\n      dup3\n        /* \"#utility.yul\":3253:3272   */\n      mstore\n        /* \"#utility.yul\":3305:3309   */\n      0x20\n        /* \"#utility.yul\":3300:3303   */\n      dup3\n        /* \"#utility.yul\":3296:3310   */\n      add\n        /* \"#utility.yul\":3281:3310   */\n      swap1\n      pop\n        /* \"#utility.yul\":3157:3316   */\n      swap3\n      swap2\n      pop\n      pop\n      jump\t// out\n        /* \"#utility.yul\":3322:3461   */\n    tag_66:\n        /* \"#utility.yul\":3411:3417   */\n      dup3\n        /* \"#utility.yul\":3406:3409   */\n      dup2\n        /* \"#utility.yul\":3401:3404   */\n      dup4\n        /* \"#utility.yul\":3395:3418   */\n      mcopy\n        /* \"#utility.yul\":3452:3453   */\n      0x00\n        /* \"#utility.yul\":3443:3449   */\n      dup4\n        /* \"#utility.yul\":3438:3441   */\n      dup4\n        /* \"#utility.yul\":3434:3450   */\n      add\n        /* \"#utility.yul\":3427:3454   */\n      mstore\n        /* \"#utility.yul\":3322:3461   */\n      pop\n      pop\n      pop\n      jump\t// out\n        /* \"#utility.yul\":3467:3569   */\n    tag_67:\n        /* \"#utility.yul\":3508:3514   */\n      0x00\n        /* \"#utility.yul\":3559:3561   */\n      0x1f\n        /* \"#utility.yul\":3555:3562   */\n      not\n        /* \"#utility.yul\":3550:3552   */\n      0x1f\n        /* \"#utility.yul\":3543:3548   */\n      dup4\n        /* \"#utility.yul\":3539:3553   */\n      add\n        /* \"#utility.yul\":3535:3563   */\n      and\n        /* \"#utility.yul\":3525:3563   */\n      swap1\n      pop\n        /* \"#utility.yul\":3467:3569   */\n      swap2\n      swap1\n      pop\n      jump\t// out\n        /* \"#utility.yul\":3575:3932   */\n    tag_68:\n        /* \"#utility.yul\":3653:3656   */\n      0x00\n        /* \"#utility.yul\":3681:3720   */\n      tag_131\n        /* \"#utility.yul\":3714:3719   */\n      dup3\n        /* \"#utility.yul\":3681:3720   */\n      tag_64\n      jump\t// in\n    tag_131:\n        /* \"#utility.yul\":3736:3797   */\n      tag_132\n        /* \"#utility.yul\":3790:3796   */\n      dup2\n        /* \"#utility.yul\":3785:3788   */\n      dup6\n        /* \"#utility.yul\":3736:3797   */\n      tag_65\n      jump\t// in\n    tag_132:\n        /* \"#utility.yul\":3729:3797   */\n      swap4\n      pop\n        /* \"#utility.yul\":3806:3871   */\n      tag_133\n        /* \"#utility.yul\":3864:3870   */\n      dup2\n        /* \"#utility.yul\":3859:3862   */\n      dup6\n        /* \"#utility.yul\":3852:3856   */\n      0x20\n        /* \"#utility.yul\":3845:3850   */\n      dup7\n        /* \"#utility.yul\":3841:3857   */\n      add\n        /* \"#utility.yul\":3806:3871   */\n      tag_66\n      jump\t// in\n    tag_133:\n        /* \"#utility.yul\":3896:3925   */\n      tag_134\n        /* \"#utility.yul\":3918:3924   */\n      dup2\n        /* \"#utility.yul\":3896:3925   */\n      tag_67\n      jump\t// in\n    tag_134:\n        /* \"#utility.yul\":3891:3894   */\n      dup5\n        /* \"#utility.yul\":3887:3926   */\n      add\n        /* \"#utility.yul\":3880:3926   */\n      swap2\n      pop\n        /* \"#utility.yul\":3657:3932   */\n      pop\n        /* \"#utility.yul\":3575:3932   */\n      swap3\n      swap2\n      pop\n      pop\n      jump\t// out\n        /* \"#utility.yul\":4014:4790   */\n    tag_69:\n        /* \"#utility.yul\":4129:4132   */\n      0x00\n        /* \"#utility.yul\":4165:4169   */\n      0x60\n        /* \"#utility.yul\":4160:4163   */\n      dup4\n        /* \"#utility.yul\":4156:4170   */\n      add\n        /* \"#utility.yul\":4250:4254   */\n      0x00\n        /* \"#utility.yul\":4243:4248   */\n      dup4\n        /* \"#utility.yul\":4239:4255   */\n      add\n        /* \"#utility.yul\":4233:4256   */\n      mload\n        /* \"#utility.yul\":4269:4332   */\n      tag_136\n        /* \"#utility.yul\":4326:4330   */\n      0x00\n        /* \"#utility.yul\":4321:4324   */\n      dup7\n        /* \"#utility.yul\":4317:4331   */\n      add\n        /* \"#utility.yul\":4303:4315   */\n      dup3\n        /* \"#utility.yul\":4269:4332   */\n      tag_63\n      jump\t// in\n    tag_136:\n        /* \"#utility.yul\":4180:4342   */\n      pop\n        /* \"#utility.yul\":4424:4428   */\n      0x20\n        /* \"#utility.yul\":4417:4422   */\n      dup4\n        /* \"#utility.yul\":4413:4429   */\n      add\n        /* \"#utility.yul\":4407:4430   */\n      mload\n        /* \"#utility.yul\":4477:4480   */\n      dup5\n        /* \"#utility.yul\":4471:4475   */\n      dup3\n        /* \"#utility.yul\":4467:4481   */\n      sub\n        /* \"#utility.yul\":4460:4464   */\n      0x20\n        /* \"#utility.yul\":4455:4458   */\n      dup7\n        /* \"#utility.yul\":4451:4465   */\n      add\n        /* \"#utility.yul\":4444:4482   */\n      mstore\n        /* \"#utility.yul\":4503:4576   */\n      tag_137\n        /* \"#utility.yul\":4571:4575   */\n      dup3\n        /* \"#utility.yul\":4557:4569   */\n      dup3\n        /* \"#utility.yul\":4503:4576   */\n      tag_68\n      jump\t// in\n    tag_137:\n        /* \"#utility.yul\":4495:4576   */\n      swap2\n      pop\n        /* \"#utility.yul\":4352:4587   */\n      pop\n        /* \"#utility.yul\":4671:4675   */\n      0x40\n        /* \"#utility.yul\":4664:4669   */\n      dup4\n        /* \"#utility.yul\":4660:4676   */\n      add\n        /* \"#utility.yul\":4654:4677   */\n      mload\n        /* \"#utility.yul\":4690:4753   */\n      tag_138\n        /* \"#utility.yul\":4747:4751   */\n      0x40\n        /* \"#utility.yul\":4742:4745   */\n      dup7\n        /* \"#utility.yul\":4738:4752   */\n      add\n        /* \"#utility.yul\":4724:4736   */\n      dup3\n        /* \"#utility.yul\":4690:4753   */\n      tag_63\n      jump\t// in\n    tag_138:\n        /* \"#utility.yul\":4597:4763   */\n      pop\n        /* \"#utility.yul\":4780:4784   */\n      dup1\n        /* \"#utility.yul\":4773:4784   */\n      swap2\n      pop\n        /* \"#utility.yul\":4134:4790   */\n      pop\n        /* \"#utility.yul\":4014:4790   */\n      swap3\n      swap2\n      pop\n      pop\n      jump\t// out\n        /* \"#utility.yul\":4796:5161   */\n    tag_15:\n        /* \"#utility.yul\":4935:4939   */\n      0x00\n        /* \"#utility.yul\":4973:4975   */\n      0x20\n        /* \"#utility.yul\":4962:4971   */\n      dup3\n        /* \"#utility.yul\":4958:4976   */\n      add\n        /* \"#utility.yul\":4950:4976   */\n      swap1\n      pop\n        /* \"#utility.yul\":5022:5031   */\n      dup2\n        /* \"#utility.yul\":5016:5020   */\n      dup2\n        /* \"#utility.yul\":5012:5032   */\n      sub\n        /* \"#utility.yul\":5008:5009   */\n      0x00\n        /* \"#utility.yul\":4997:5006   */\n      dup4\n        /* \"#utility.yul\":4993:5010   */\n      add\n        /* \"#utility.yul\":4986:5033   */\n      mstore\n        /* \"#utility.yul\":5050:5154   */\n      tag_140\n        /* \"#utility.yul\":5149:5153   */\n      dup2\n        /* \"#utility.yul\":5140:5146   */\n      dup5\n        /* \"#utility.yul\":5050:5154   */\n      tag_69\n      jump\t// in\n    tag_140:\n        /* \"#utility.yul\":5042:5154   */\n      swap1\n      pop\n        /* \"#utility.yul\":4796:5161   */\n      swap3\n      swap2\n      pop\n      pop\n      jump\t// out\n        /* \"#utility.yul\":5167:5285   */\n    tag_70:\n        /* \"#utility.yul\":5254:5278   */\n      tag_142\n        /* \"#utility.yul\":5272:5277   */\n      dup2\n        /* \"#utility.yul\":5254:5278   */\n      tag_56\n      jump\t// in\n    tag_142:\n        /* \"#utility.yul\":5249:5252   */\n      dup3\n        /* \"#utility.yul\":5242:5279   */\n      mstore\n        /* \"#utility.yul\":5167:5285   */\n      pop\n      pop\n      jump\t// out\n        /* \"#utility.yul\":5291:5460   */\n    tag_71:\n        /* \"#utility.yul\":5375:5386   */\n      0x00\n        /* \"#utility.yul\":5409:5415   */\n      dup3\n        /* \"#utility.yul\":5404:5407   */\n      dup3\n        /* \"#utility.yul\":5397:5416   */\n      mstore\n        /* \"#utility.yul\":5449:5453   */\n      0x20\n        /* \"#utility.yul\":5444:5447   */\n      dup3\n        /* \"#utility.yul\":5440:5454   */\n      add\n        /* \"#utility.yul\":5425:5454   */\n      swap1\n      pop\n        /* \"#utility.yul\":5291:5460   */\n      swap3\n      swap2\n      pop\n      pop\n      jump\t// out\n        /* \"#utility.yul\":5466:5843   */\n    tag_72:\n        /* \"#utility.yul\":5554:5557   */\n      0x00\n        /* \"#utility.yul\":5582:5621   */\n      tag_145\n        /* \"#utility.yul\":5615:5620   */\n      dup3\n        /* \"#utility.yul\":5582:5621   */\n      tag_64\n      jump\t// in\n    tag_145:\n        /* \"#utility.yul\":5637:5708   */\n      tag_146\n        /* \"#utility.yul\":5701:5707   */\n      dup2\n        /* \"#utility.yul\":5696:5699   */\n      dup6\n        /* \"#utility.yul\":5637:5708   */\n      tag_71\n      jump\t// in\n    tag_146:\n        /* \"#utility.yul\":5630:5708   */\n      swap4\n      pop\n        /* \"#utility.yul\":5717:5782   */\n      tag_147\n        /* \"#utility.yul\":5775:5781   */\n      dup2\n        /* \"#utility.yul\":5770:5773   */\n      dup6\n        /* \"#utility.yul\":5763:5767   */\n      0x20\n        /* \"#utility.yul\":5756:5761   */\n      dup7\n        /* \"#utility.yul\":5752:5768   */\n      add\n        /* \"#utility.yul\":5717:5782   */\n      tag_66\n      jump\t// in\n    tag_147:\n        /* \"#utility.yul\":5807:5836   */\n      tag_148\n        /* \"#utility.yul\":5829:5835   */\n      dup2\n        /* \"#utility.yul\":5807:5836   */\n      tag_67\n      jump\t// in\n    tag_148:\n        /* \"#utility.yul\":5802:5805   */\n      dup5\n        /* \"#utility.yul\":5798:5837   */\n      add\n        /* \"#utility.yul\":5791:5837   */\n      swap2\n      pop\n        /* \"#utility.yul\":5558:5843   */\n      pop\n        /* \"#utility.yul\":5466:5843   */\n      swap3\n      swap2\n      pop\n      pop\n      jump\t// out\n        /* \"#utility.yul\":5849:6382   */\n    tag_20:\n        /* \"#utility.yul\":6018:6022   */\n      0x00\n        /* \"#utility.yul\":6056:6058   */\n      0x60\n        /* \"#utility.yul\":6045:6054   */\n      dup3\n        /* \"#utility.yul\":6041:6059   */\n      add\n        /* \"#utility.yul\":6033:6059   */\n      swap1\n      pop\n        /* \"#utility.yul\":6069:6140   */\n      tag_150\n        /* \"#utility.yul\":6137:6138   */\n      0x00\n        /* \"#utility.yul\":6126:6135   */\n      dup4\n        /* \"#utility.yul\":6122:6139   */\n      add\n        /* \"#utility.yul\":6113:6119   */\n      dup7\n        /* \"#utility.yul\":6069:6140   */\n      tag_70\n      jump\t// in\n    tag_150:\n        /* \"#utility.yul\":6187:6196   */\n      dup2\n        /* \"#utility.yul\":6181:6185   */\n      dup2\n        /* \"#utility.yul\":6177:6197   */\n      sub\n        /* \"#utility.yul\":6172:6174   */\n      0x20\n        /* \"#utility.yul\":6161:6170   */\n      dup4\n        /* \"#utility.yul\":6157:6175   */\n      add\n        /* \"#utility.yul\":6150:6198   */\n      mstore\n        /* \"#utility.yul\":6215:6293   */\n      tag_151\n        /* \"#utility.yul\":6288:6292   */\n      dup2\n        /* \"#utility.yul\":6279:6285   */\n      dup6\n        /* \"#utility.yul\":6215:6293   */\n      tag_72\n      jump\t// in\n    tag_151:\n        /* \"#utility.yul\":6207:6293   */\n      swap1\n      pop\n        /* \"#utility.yul\":6303:6375   */\n      tag_152\n        /* \"#utility.yul\":6371:6373   */\n      0x40\n        /* \"#utility.yul\":6360:6369   */\n      dup4\n        /* \"#utility.yul\":6356:6374   */\n      add\n        /* \"#utility.yul\":6347:6353   */\n      dup5\n        /* \"#utility.yul\":6303:6375   */\n      tag_70\n      jump\t// in\n    tag_152:\n        /* \"#utility.yul\":5849:6382   */\n      swap5\n      swap4\n      pop\n      pop\n      pop\n      pop\n      jump\t// out\n        /* \"#utility.yul\":6388:6568   */\n    tag_24:\n        /* \"#utility.yul\":6436:6513   */\n      0x4e487b7100000000000000000000000000000000000000000000000000000000\n        /* \"#utility.yul\":6433:6434   */\n      0x00\n        /* \"#utility.yul\":6426:6514   */\n      mstore\n        /* \"#utility.yul\":6533:6537   */\n      0x32\n        /* \"#utility.yul\":6530:6531   */\n      0x04\n        /* \"#utility.yul\":6523:6538   */\n      mstore\n        /* \"#utility.yul\":6557:6561   */\n      0x24\n        /* \"#utility.yul\":6554:6555   */\n      0x00\n        /* \"#utility.yul\":6547:6562   */\n      revert\n        /* \"#utility.yul\":6574:6671   */\n    tag_73:\n        /* \"#utility.yul\":6633:6639   */\n      0x00\n        /* \"#utility.yul\":6661:6664   */\n      dup3\n        /* \"#utility.yul\":6651:6664   */\n      swap1\n      pop\n        /* \"#utility.yul\":6574:6671   */\n      swap3\n      swap2\n      pop\n      pop\n      jump\t// out\n        /* \"#utility.yul\":6677:6857   */\n    tag_74:\n        /* \"#utility.yul\":6725:6802   */\n      0x4e487b7100000000000000000000000000000000000000000000000000000000\n        /* \"#utility.yul\":6722:6723   */\n      0x00\n        /* \"#utility.yul\":6715:6803   */\n      mstore\n        /* \"#utility.yul\":6822:6826   */\n      0x41\n        /* \"#utility.yul\":6819:6820   */\n      0x04\n        /* \"#utility.yul\":6812:6827   */\n      mstore\n        /* \"#utility.yul\":6846:6850   */\n      0x24\n        /* \"#utility.yul\":6843:6844   */\n      0x00\n        /* \"#utility.yul\":6836:6851   */\n      revert\n        /* \"#utility.yul\":6863:7043   */\n    tag_75:\n        /* \"#utility.yul\":6911:6988   */\n      0x4e487b7100000000000000000000000000000000000000000000000000000000\n        /* \"#utility.yul\":6908:6909   */\n      0x00\n        /* \"#utility.yul\":6901:6989   */\n      mstore\n        /* \"#utility.yul\":7008:7012   */\n      0x22\n        /* \"#utility.yul\":7005:7006   */\n      0x04\n        /* \"#utility.yul\":6998:7013   */\n      mstore\n        /* \"#utility.yul\":7032:7036   */\n      0x24\n        /* \"#utility.yul\":7029:7030   */\n      0x00\n        /* \"#utility.yul\":7022:7037   */\n      revert\n        /* \"#utility.yul\":7049:7369   */\n    tag_41:\n        /* \"#utility.yul\":7093:7099   */\n      0x00\n        /* \"#utility.yul\":7130:7131   */\n      0x02\n        /* \"#utility.yul\":7124:7128   */\n      dup3\n        /* \"#utility.yul\":7120:7132   */\n      div\n        /* \"#utility.yul\":7110:7132   */\n      swap1\n      pop\n        /* \"#utility.yul\":7177:7178   */\n      0x01\n        /* \"#utility.yul\":7171:7175   */\n      dup3\n        /* \"#utility.yul\":7167:7179   */\n      and\n        /* \"#utility.yul\":7198:7216   */\n      dup1\n        /* \"#utility.yul\":7188:7269   */\n      tag_158\n      jumpi\n        /* \"#utility.yul\":7254:7258   */\n      0x7f\n        /* \"#utility.yul\":7246:7252   */\n      dup3\n        /* \"#utility.yul\":7242:7259   */\n      and\n        /* \"#utility.yul\":7232:7259   */\n      swap2\n      pop\n        /* \"#utility.yul\":7188:7269   */\n    tag_158:\n        /* \"#utility.yul\":7316:7318   */\n      0x20\n        /* \"#utility.yul\":7308:7314   */\n      dup3\n        /* \"#utility.yul\":7305:7319   */\n      lt\n        /* \"#utility.yul\":7285:7303   */\n      dup2\n        /* \"#utility.yul\":7282:7320   */\n      sub\n        /* \"#utility.yul\":7279:7363   */\n      tag_159\n      jumpi\n        /* \"#utility.yul\":7335:7353   */\n      tag_160\n      tag_75\n      jump\t// in\n    tag_160:\n        /* \"#utility.yul\":7279:7363   */\n    tag_159:\n        /* \"#utility.yul\":7100:7369   */\n      pop\n        /* \"#utility.yul\":7049:7369   */\n      swap2\n      swap1\n      pop\n      jump\t// out\n        /* \"#utility.yul\":7375:7516   */\n    tag_76:\n        /* \"#utility.yul\":7424:7428   */\n      0x00\n        /* \"#utility.yul\":7447:7450   */\n      dup2\n        /* \"#utility.yul\":7439:7450   */\n      swap1\n      pop\n        /* \"#utility.yul\":7470:7473   */\n      dup2\n        /* \"#utility.yul\":7467:7468   */\n      0x00\n        /* \"#utility.yul\":7460:7474   */\n      mstore\n        /* \"#utility.yul\":7504:7508   */\n      0x20\n        /* \"#utility.yul\":7501:7502   */\n      0x00\n        /* \"#utility.yul\":7491:7509   */\n      keccak256\n        /* \"#utility.yul\":7483:7509   */\n      swap1\n      pop\n        /* \"#utility.yul\":7375:7516   */\n      swap2\n      swap1\n      pop\n      jump\t// out\n        /* \"#utility.yul\":7522:7615   */\n    tag_77:\n        /* \"#utility.yul\":7559:7565   */\n      0x00\n        /* \"#utility.yul\":7606:7608   */\n      0x20\n        /* \"#utility.yul\":7601:7603   */\n      0x1f\n        /* \"#utility.yul\":7594:7599   */\n      dup4\n        /* \"#utility.yul\":7590:7604   */\n      add\n        /* \"#utility.yul\":7586:7609   */\n      div\n        /* \"#utility.yul\":7576:7609   */\n      swap1\n      pop\n        /* \"#utility.yul\":7522:7615   */\n      swap2\n      swap1\n      pop\n      jump\t// out\n        /* \"#utility.yul\":7621:7728   */\n    tag_78:\n        /* \"#utility.yul\":7665:7673   */\n      0x00\n        /* \"#utility.yul\":7715:7720   */\n      dup3\n        /* \"#utility.yul\":7709:7713   */\n      dup3\n        /* \"#utility.yul\":7705:7721   */\n      shl\n        /* \"#utility.yul\":7684:7721   */\n      swap1\n      pop\n        /* \"#utility.yul\":7621:7728   */\n      swap3\n      swap2\n      pop\n      pop\n      jump\t// out\n        /* \"#utility.yul\":7734:8127   */\n    tag_79:\n        /* \"#utility.yul\":7803:7809   */\n      0x00\n        /* \"#utility.yul\":7853:7854   */\n      0x08\n        /* \"#utility.yul\":7841:7851   */\n      dup4\n        /* \"#utility.yul\":7837:7855   */\n      mul\n        /* \"#utility.yul\":7876:7973   */\n      tag_165\n        /* \"#utility.yul\":7906:7972   */\n      0xffffffffffffffffffffffffffffffffffffffffffffffffffffffffffffffff\n        /* \"#utility.yul\":7895:7904   */\n      dup3\n        /* \"#utility.yul\":7876:7973   */\n      tag_78\n      jump\t// in\n    tag_165:\n        /* \"#utility.yul\":7994:8033   */\n      tag_166\n        /* \"#utility.yul\":8024:8032   */\n      dup7\n        /* \"#utility.yul\":8013:8022   */\n      dup4\n        /* \"#utility.yul\":7994:8033   */\n      tag_78\n      jump\t// in\n    tag_166:\n        /* \"#utility.yul\":7982:8033   */\n      swap6\n      pop\n        /* \"#utility.yul\":8066:8070   */\n      dup1\n        /* \"#utility.yul\":8062:8071   */\n      not\n        /* \"#utility.yul\":8055:8060   */\n      dup5\n        /* \"#utility.yul\":8051:8072   */\n      and\n        /* \"#utility.yul\":8042:8072   */\n      swap4\n      pop\n        /* \"#utility.yul\":8115:8119   */\n      dup1\n        /* \"#utility.yul\":8105:8113   */\n      dup7\n        /* \"#utility.yul\":8101:8120   */\n      and\n        /* \"#utility.yul\":8094:8099   */\n      dup5\n        /* \"#utility.yul\":8091:8121   */\n      or\n        /* \"#utility.yul\":8081:8121   */\n      swap3\n      pop\n        /* \"#utility.yul\":7810:8127   */\n      pop\n      pop\n        /* \"#utility.yul\":7734:8127   */\n      swap4\n      swap3\n      pop\n      pop\n      pop\n      jump\t// out\n        /* \"#utility.yul\":8133:8193   */\n    tag_80:\n        /* \"#utility.yul\":8161:8164   */\n      0x00\n        /* \"#utility.yul\":8182:8187   */\n      dup2\n        /* \"#utility.yul\":8175:8187   */\n      swap1\n      pop\n        /* \"#utility.yul\":8133:8193   */\n      swap2\n      swap1\n      pop\n      jump\t// out\n        /* \"#utility.yul\":8199:8341   */\n    tag_81:\n        /* \"#utility.yul\":8249:8258   */\n      0x00\n        /* \"#utility.yul\":8282:8335   */\n      tag_169\n        /* \"#utility.yul\":8300:8334   */\n      tag_170\n        /* \"#utility.yul\":8309:8333   */\n      tag_171\n        /* \"#utility.yul\":8327:8332   */\n      dup5\n        /* \"#utility.yul\":8309:8333   */\n      tag_56\n      jump\t// in\n    tag_171:\n        /* \"#utility.yul\":8300:8334   */\n      tag_80\n      jump\t// in\n    tag_170:\n        /* \"#utility.yul\":8282:8335   */\n      tag_56\n      jump\t// in\n    tag_169:\n        /* \"#utility.yul\":8269:8335   */\n      swap1\n      pop\n        /* \"#utility.yul\":8199:8341   */\n      swap2\n      swap1\n      pop\n      jump\t// out\n        /* \"#utility.yul\":8347:8422   */\n    tag_82:\n        /* \"#utility.yul\":8390:8393   */\n      0x00\n        /* \"#utility.yul\":8411:8416   */\n      dup2\n        /* \"#utility.yul\":8404:8416   */\n      swap1\n      pop\n        /* \"#utility.yul\":8347:8422   */\n      swap2\n      swap1\n      pop\n      jump\t// out\n        /* \"#utility.yul\":8428:8697   */\n    tag_83:\n        /* \"#utility.yul\":8538:8577   */\n      tag_174\n        /* \"#utility.yul\":8569:8576   */\n      dup4\n        /* \"#utility.yul\":8538:8577   */\n      tag_81\n      jump\t// in\n    tag_174:\n        /* \"#utility.yul\":8599:8690   */\n      tag_175\n        /* \"#utility.yul\":8648:8689   */\n      tag_176\n        /* \"#utility.yul\":8672:8688   */\n      dup3\n        /* \"#utility.yul\":8648:8689   */\n      tag_82\n      jump\t// in\n    tag_176:\n        /* \"#utility.yul\":8640:8646   */\n      dup5\n        /* \"#utility.yul\":8633:8637   */\n      dup5\n        /* \"#utility.yul\":8627:8638   */\n      sload\n        /* \"#utility.yul\":8599:8690   */\n      tag_79\n      jump\t// in\n    tag_175:\n        /* \"#utility.yul\":8593:8597   */\n      dup3\n        /* \"#utility.yul\":8586:8691   */\n      sstore\n        /* \"#utility.yul\":8504:8697   */\n      pop\n        /* \"#utility.yul\":8428:8697   */\n      pop\n      pop\n      pop\n      jump\t// out\n        /* \"#utility.yul\":8703:8776   */\n    tag_84:\n        /* \"#utility.yul\":8748:8751   */\n      0x00\n        /* \"#utility.yul\":8703:8776   */\n      swap1\n      jump\t// out\n        /* \"#utility.yul\":8782:8971   */\n    tag_85:\n        /* \"#utility.yul\":8859:8891   */\n      tag_179\n      tag_84\n      jump\t// in\n    tag_179:\n        /* \"#utility.yul\":8900:8965   */\n      tag_180\n        /* \"#utility.yul\":8958:8964   */\n      dup2\n        /* \"#utility.yul\":8950:8956   */\n      dup5\n        /* \"#utility.yul\":8944:8948   */\n      dup5\n        /* \"#utility.yul\":8900:8965   */\n      tag_83\n      jump\t// in\n    tag_180:\n        /* \"#utility.yul\":8835:8971   */\n      pop\n        /* \"#utility.yul\":8782:8971   */\n      pop\n      pop\n      jump\t// out\n        /* \"#utility.yul\":8977:9163   */\n    tag_86:\n        /* \"#utility.yul\":9037:9157   */\n    tag_182:\n        /* \"#utility.yul\":9054:9057   */\n      dup2\n        /* \"#utility.yul\":9047:9052   */\n      dup2\n        /* \"#utility.yul\":9044:9058   */\n      lt\n        /* \"#utility.yul\":9037:9157   */\n      iszero\n      tag_184\n      jumpi\n        /* \"#utility.yul\":9108:9147   */\n      tag_185\n        /* \"#utility.yul\":9145:9146   */\n      0x00\n        /* \"#utility.yul\":9138:9143   */\n      dup3\n        /* \"#utility.yul\":9108:9147   */\n      tag_85\n      jump\t// in\n    tag_185:\n        /* \"#utility.yul\":9081:9082   */\n      0x01\n        /* \"#utility.yul\":9074:9079   */\n      dup2\n        /* \"#utility.yul\":9070:9083   */\n      add\n        /* \"#utility.yul\":9061:9083   */\n      swap1\n      pop\n        /* \"#utility.yul\":9037:9157   */\n      jump(tag_182)\n    tag_184:\n        /* \"#utility.yul\":8977:9163   */\n      pop\n      pop\n      jump\t// out\n        /* \"#utility.yul\":9169:9712   */\n    tag_87:\n        /* \"#utility.yul\":9270:9272   */\n      0x1f\n        /* \"#utility.yul\":9265:9268   */\n      dup3\n        /* \"#utility.yul\":9262:9273   */\n      gt\n        /* \"#utility.yul\":9259:9705   */\n      iszero\n      tag_187\n      jumpi\n        /* \"#utility.yul\":9304:9342   */\n      tag_188\n        /* \"#utility.yul\":9336:9341   */\n      dup2\n        /* \"#utility.yul\":9304:9342   */\n      tag_76\n      jump\t// in\n    tag_188:\n        /* \"#utility.yul\":9388:9417   */\n      tag_189\n        /* \"#utility.yul\":9406:9416   */\n      dup5\n        /* \"#utility.yul\":9388:9417   */\n      tag_77\n      jump\t// in\n    tag_189:\n        /* \"#utility.yul\":9378:9386   */\n      dup2\n        /* \"#utility.yul\":9374:9418   */\n      add\n        /* \"#utility.yul\":9571:9573   */\n      0x20\n        /* \"#utility.yul\":9559:9569   */\n      dup6\n        /* \"#utility.yul\":9556:9574   */\n      lt\n        /* \"#utility.yul\":9553:9602   */\n      iszero\n      tag_190\n      jumpi\n        /* \"#utility.yul\":9592:9600   */\n      dup2\n        /* \"#utility.yul\":9577:9600   */\n      swap1\n      pop\n        /* \"#utility.yul\":9553:9602   */\n    tag_190:\n        /* \"#utility.yul\":9615:9695   */\n      tag_191\n        /* \"#utility.yul\":9671:9693   */\n      tag_192\n        /* \"#utility.yul\":9689:9692   */\n      dup6\n        /* \"#utility.yul\":9671:9693   */\n      tag_77\n      jump\t// in\n    tag_192:\n        /* \"#utility.yul\":9661:9669   */\n      dup4\n        /* \"#utility.yul\":9657:9694   */\n      add\n        /* \"#utility.yul\":9644:9655   */\n      dup3\n        /* \"#utility.yul\":9615:9695   */\n      tag_86\n      jump\t// in\n    tag_191:\n        /* \"#utility.yul\":9274:9705   */\n      pop\n      pop\n        /* \"#utility.yul\":9259:9705   */\n    tag_187:\n        /* \"#utility.yul\":9169:9712   */\n      pop\n      pop\n      pop\n      jump\t// out\n        /* \"#utility.yul\":9718:9835   */\n    tag_88:\n        /* \"#utility.yul\":9772:9780   */\n      0x00\n        /* \"#utility.yul\":9822:9827   */\n      dup3\n        /* \"#utility.yul\":9816:9820   */\n      dup3\n        /* \"#utility.yul\":9812:9828   */\n      shr\n        /* \"#utility.yul\":9791:9828   */\n      swap1\n      pop\n        /* \"#utility.yul\":9718:9835   */\n      swap3\n      swap2\n      pop\n      pop\n      jump\t// out\n        /* \"#utility.yul\":9841:10010   */\n    tag_89:\n        /* \"#utility.yul\":9885:9891   */\n      0x00\n        /* \"#utility.yul\":9918:9969   */\n      tag_195\n        /* \"#utility.yul\":9966:9967   */\n      0x00\n        /* \"#utility.yul\":9962:9968   */\n      not\n        /* \"#utility.yul\":9954:9959   */\n      dup5\n        /* \"#utility.yul\":9951:9952   */\n      0x08\n        /* \"#utility.yul\":9947:9960   */\n      mul\n        /* \"#utility.yul\":9918:9969   */\n      tag_88\n      jump\t// in\n    tag_195:\n        /* \"#utility.yul\":9914:9970   */\n      not\n        /* \"#utility.yul\":9999:10003   */\n      dup1\n        /* \"#utility.yul\":9993:9997   */\n      dup4\n        /* \"#utility.yul\":9989:10004   */\n      and\n        /* \"#utility.yul\":9979:10004   */\n      swap2\n      pop\n        /* \"#utility.yul\":9892:10010   */\n      pop\n        /* \"#utility.yul\":9841:10010   */\n      swap3\n      swap2\n      pop\n      pop\n      jump\t// out\n        /* \"#utility.yul\":10015:10310   */\n    tag_90:\n        /* \"#utility.yul\":10091:10095   */\n      0x00\n        /* \"#utility.yul\":10237:10266   */\n      tag_197\n        /* \"#utility.yul\":10262:10265   */\n      dup4\n        /* \"#utility.yul\":10256:10260   */\n      dup4\n        /* \"#utility.yul\":10237:10266   */\n      tag_89\n      jump\t// in\n    tag_197:\n        /* \"#utility.yul\":10229:10266   */\n      swap2\n      pop\n        /* \"#utility.yul\":10299:10302   */\n      dup3\n        /* \"#utility.yul\":10296:10297   */\n      0x02\n        /* \"#utility.yul\":10292:10303   */\n      mul\n        /* \"#utility.yul\":10286:10290   */\n      dup3\n        /* \"#utility.yul\":10283:10304   */\n      or\n        /* \"#utility.yul\":10275:10304   */\n      swap1\n      pop\n        /* \"#utility.yul\":10015:10310   */\n      swap3\n      swap2\n      pop\n      pop\n      jump\t// out\n        /* \"#utility.yul\":10315:11718   */\n    tag_30:\n        /* \"#utility.yul\":10439:10483   */\n      tag_199\n        /* \"#utility.yul\":10479:10482   */\n      dup4\n        /* \"#utility.yul\":10474:10477   */\n      dup4\n        /* \"#utility.yul\":10439:10483   */\n      tag_73\n      jump\t// in\n    tag_199:\n        /* \"#utility.yul\":10548:10566   */\n      0xffffffffffffffff\n        /* \"#utility.yul\":10540:10546   */\n      dup2\n        /* \"#utility.yul\":10537:10567   */\n      gt\n        /* \"#utility.yul\":10534:10590   */\n      iszero\n      tag_200\n      jumpi\n        /* \"#utility.yul\":10570:10588   */\n      tag_201\n      tag_74\n      jump\t// in\n    tag_201:\n        /* \"#utility.yul\":10534:10590   */\n    tag_200:\n        /* \"#utility.yul\":10614:10652   */\n      tag_202\n        /* \"#utility.yul\":10646:10650   */\n      dup3\n        /* \"#utility.yul\":10640:10651   */\n      sload\n        /* \"#utility.yul\":10614:10652   */\n      tag_41\n      jump\t// in\n    tag_202:\n        /* \"#utility.yul\":10699:10766   */\n      tag_203\n        /* \"#utility.yul\":10759:10765   */\n      dup3\n        /* \"#utility.yul\":10751:10757   */\n      dup3\n        /* \"#utility.yul\":10745:10749   */\n      dup6\n        /* \"#utility.yul\":10699:10766   */\n      tag_87\n      jump\t// in\n    tag_203:\n        /* \"#utility.yul\":10793:10794   */\n      0x00\n        /* \"#utility.yul\":10822:10824   */\n      0x1f\n        /* \"#utility.yul\":10814:10820   */\n      dup4\n        /* \"#utility.yul\":10811:10825   */\n      gt\n        /* \"#utility.yul\":10839:10840   */\n      0x01\n        /* \"#utility.yul\":10834:11466   */\n      dup2\n      eq\n      tag_205\n      jumpi\n        /* \"#utility.yul\":11510:11511   */\n      0x00\n        /* \"#utility.yul\":11527:11533   */\n      dup5\n        /* \"#utility.yul\":11524:11608   */\n      iszero\n      tag_206\n      jumpi\n        /* \"#utility.yul\":11583:11592   */\n      dup3\n        /* \"#utility.yul\":11578:11581   */\n      dup8\n        /* \"#utility.yul\":11574:11593   */\n      add\n        /* \"#utility.yul\":11561:11594   */\n      calldataload\n        /* \"#utility.yul\":11552:11594   */\n      swap1\n      pop\n        /* \"#utility.yul\":11524:11608   */\n    tag_206:\n        /* \"#utility.yul\":11634:11701   */\n      tag_207\n        /* \"#utility.yul\":11694:11700   */\n      dup6\n        /* \"#utility.yul\":11687:11692   */\n      dup3\n        /* \"#utility.yul\":11634:11701   */\n      tag_90\n      jump\t// in\n    tag_207:\n        /* \"#utility.yul\":11628:11632   */\n      dup7\n        /* \"#utility.yul\":11621:11702   */\n      sstore\n        /* \"#utility.yul\":11483:11712   */\n      pop\n        /* \"#utility.yul\":10804:11712   */\n      jump(tag_204)\n        /* \"#utility.yul\":10834:11466   */\n    tag_205:\n        /* \"#utility.yul\":10886:10890   */\n      0x1f\n        /* \"#utility.yul\":10882:10891   */\n      not\n        /* \"#utility.yul\":10874:10880   */\n      dup5\n        /* \"#utility.yul\":10870:10892   */\n      and\n        /* \"#utility.yul\":10920:10957   */\n      tag_208\n        /* \"#utility.yul\":10952:10956   */\n      dup7\n        /* \"#utility.yul\":10920:10957   */\n      tag_76\n      jump\t// in\n    tag_208:\n        /* \"#utility.yul\":10979:10980   */\n      0x00\n        /* \"#utility.yul\":10993:11208   */\n    tag_209:\n        /* \"#utility.yul\":11007:11014   */\n      dup3\n        /* \"#utility.yul\":11004:11005   */\n      dup2\n        /* \"#utility.yul\":11001:11015   */\n      lt\n        /* \"#utility.yul\":10993:11208   */\n      iszero\n      tag_211\n      jumpi\n        /* \"#utility.yul\":11093:11102   */\n      dup5\n        /* \"#utility.yul\":11088:11091   */\n      dup10\n        /* \"#utility.yul\":11084:11103   */\n      add\n        /* \"#utility.yul\":11071:11104   */\n      calldataload\n        /* \"#utility.yul\":11063:11069   */\n      dup3\n        /* \"#utility.yul\":11056:11105   */\n      sstore\n        /* \"#utility.yul\":11144:11145   */\n      0x01\n        /* \"#utility.yul\":11136:11142   */\n      dup3\n        /* \"#utility.yul\":11132:11146   */\n      add\n        /* \"#utility.yul\":11122:11146   */\n      swap2\n      pop\n        /* \"#utility.yul\":11191:11193   */\n      0x20\n        /* \"#utility.yul\":11180:11189   */\n      dup6\n        /* \"#utility.yul\":11176:11194   */\n      add\n        /* \"#utility.yul\":11163:11194   */\n      swap5\n      pop\n        /* \"#utility.yul\":11030:11034   */\n      0x20\n        /* \"#utility.yul\":11027:11028   */\n      dup2\n        /* \"#utility.yul\":11023:11035   */\n      add\n        /* \"#utility.yul\":11018:11035   */\n      swap1\n      pop\n        /* \"#utility.yul\":10993:11208   */\n      jump(tag_209)\n    tag_211:\n        /* \"#utility.yul\":11236:11242   */\n      dup7\n        /* \"#utility.yul\":11227:11234   */\n      dup4\n        /* \"#utility.yul\":11224:11243   */\n      lt\n        /* \"#utility.yul\":11221:11407   */\n      iszero\n      tag_212\n      jumpi\n        /* \"#utility.yul\":11301:11310   */\n      dup5\n        /* \"#utility.yul\":11296:11299   */\n      dup10\n        /* \"#utility.yul\":11292:11311   */\n      add\n        /* \"#utility.yul\":11279:11312   */\n      calldataload\n        /* \"#utility.yul\":11344:11392   */\n      tag_213\n        /* \"#utility.yul\":11386:11390   */\n      0x1f\n        /* \"#utility.yul\":11378:11384   */\n      dup10\n        /* \"#utility.yul\":11374:11391   */\n      and\n        /* \"#utility.yul\":11363:11372   */\n      dup3\n        /* \"#utility.yul\":11344:11392   */\n      tag_89\n      jump\t// in\n    tag_213:\n        /* \"#utility.yul\":11336:11342   */\n      dup4\n        /* \"#utility.yul\":11329:11393   */\n      sstore\n        /* \"#utility.yul\":11244:11407   */\n      pop\n        /* \"#utility.yul\":11221:11407   */\n    tag_212:\n        /* \"#utility.yul\":11453:11454   */\n      0x01\n        /* \"#utility.yul\":11449:11450   */\n      0x02\n        /* \"#utility.yul\":11441:11447   */\n      dup9\n        /* \"#utility.yul\":11437:11451   */\n      mul\n        /* \"#utility.yul\":11433:11455   */\n      add\n        /* \"#utility.yul\":11427:11431   */\n      dup9\n        /* \"#utility.yul\":11420:11456   */\n      sstore\n        /* \"#utility.yul\":10841:11466   */\n      pop\n      pop\n      pop\n        /* \"#utility.yul\":10804:11712   */\n    tag_204:\n      pop\n        /* \"#utility.yul\":10414:11718   */\n      pop\n      pop\n      pop\n        /* \"#utility.yul\":10315:11718   */\n      pop\n      pop\n      pop\n      jump\t// out\n\n    auxdata: 0xa2646970667358221220ad198ebabef2f8f638d544271068834782fa3c4e0075b7c0a553dddcf240eda964736f6c634300081a0033\n}\n",
				"bytecode": {
					"linkReferences": {},
					"object": "6080604052348015600e575f80fd5b506109278061001c5f395ff3fe608060405234801561000f575f80fd5b506004361061003f575f3560e01c8063aaefce3914610043578063bca9a5c51461005f578063dbe7e2571461008f575b5f80fd5b61005d60048036038101906100589190610398565b6100c1565b005b6100796004803603810190610074919061041c565b610147565b6040516100869190610513565b60405180910390f35b6100a960048036038101906100a4919061041c565b610223565b6040516100b89392919061058a565b60405180910390f35b835f86815481106100d5576100d46105c6565b5b905f5260205f2090600302015f018190555082825f87815481106100fc576100fb6105c6565b5b905f5260205f2090600302016001019182610118929190610824565b50805f868154811061012d5761012c6105c6565b5b905f5260205f209060030201600201819055505050505050565b61014f6102dd565b5f8281548110610162576101616105c6565b5b905f5260205f2090600302016040518060600160405290815f820154815260200160018201805461019290610657565b80601f01602080910402602001604051908101604052809291908181526020018280546101be90610657565b80156102095780601f106101e057610100808354040283529160200191610209565b820191905f5260205f20905b8154815290600101906020018083116101ec57829003601f168201915b505050505081526020016002820154815250509050919050565b5f8181548110610231575f80fd5b905f5260205f2090600302015f91509050805f01549080600101805461025690610657565b80601f016020809104026020016040519081016040528092919081815260200182805461028290610657565b80156102cd5780601f106102a4576101008083540402835291602001916102cd565b820191905f5260205f20905b8154815290600101906020018083116102b057829003601f168201915b5050505050908060020154905083565b60405180606001604052805f8152602001606081526020015f81525090565b5f80fd5b5f80fd5b5f819050919050565b61031681610304565b8114610320575f80fd5b50565b5f813590506103318161030d565b92915050565b5f80fd5b5f80fd5b5f80fd5b5f8083601f84011261035857610357610337565b5b8235905067ffffffffffffffff8111156103755761037461033b565b5b6020830191508360018202830111156103915761039061033f565b5b9250929050565b5f805f805f608086880312156103b1576103b06102fc565b5b5f6103be88828901610323565b95505060206103cf88828901610323565b945050604086013567ffffffffffffffff8111156103f0576103ef610300565b5b6103fc88828901610343565b9350935050606061040f88828901610323565b9150509295509295909350565b5f60208284031215610431576104306102fc565b5b5f61043e84828501610323565b91505092915050565b61045081610304565b82525050565b5f81519050919050565b5f82825260208201905092915050565b8281835e5f83830152505050565b5f601f19601f8301169050919050565b5f61049882610456565b6104a28185610460565b93506104b2818560208601610470565b6104bb8161047e565b840191505092915050565b5f606083015f8301516104db5f860182610447565b50602083015184820360208601526104f3828261048e565b91505060408301516105086040860182610447565b508091505092915050565b5f6020820190508181035f83015261052b81846104c6565b905092915050565b61053c81610304565b82525050565b5f82825260208201905092915050565b5f61055c82610456565b6105668185610542565b9350610576818560208601610470565b61057f8161047e565b840191505092915050565b5f60608201905061059d5f830186610533565b81810360208301526105af8185610552565b90506105be6040830184610533565b949350505050565b7f4e487b71000000000000000000000000000000000000000000000000000000005f52603260045260245ffd5b5f82905092915050565b7f4e487b71000000000000000000000000000000000000000000000000000000005f52604160045260245ffd5b7f4e487b71000000000000000000000000000000000000000000000000000000005f52602260045260245ffd5b5f600282049050600182168061066e57607f821691505b6020821081036106815761068061062a565b5b50919050565b5f819050815f5260205f209050919050565b5f6020601f8301049050919050565b5f82821b905092915050565b5f600883026106e37fffffffffffffffffffffffffffffffffffffffffffffffffffffffffffffffff826106a8565b6106ed86836106a8565b95508019841693508086168417925050509392505050565b5f819050919050565b5f61072861072361071e84610304565b610705565b610304565b9050919050565b5f819050919050565b6107418361070e565b61075561074d8261072f565b8484546106b4565b825550505050565b5f90565b61076961075d565b610774818484610738565b505050565b5b818110156107975761078c5f82610761565b60018101905061077a565b5050565b601f8211156107dc576107ad81610687565b6107b684610699565b810160208510156107c5578190505b6107d96107d185610699565b830182610779565b50505b505050565b5f82821c905092915050565b5f6107fc5f19846008026107e1565b1980831691505092915050565b5f61081483836107ed565b9150826002028217905092915050565b61082e83836105f3565b67ffffffffffffffff811115610847576108466105fd565b5b6108518254610657565b61085c82828561079b565b5f601f831160018114610889575f8415610877578287013590505b6108818582610809565b8655506108e8565b601f19841661089786610687565b5f5b828110156108be57848901358255600182019150602085019450602081019050610899565b868310156108db57848901356108d7601f8916826107ed565b8355505b6001600288020188555050505b5050505050505056fea2646970667358221220ad198ebabef2f8f638d544271068834782fa3c4e0075b7c0a553dddcf240eda964736f6c634300081a0033",
					"opcodes": "PUSH1 0x80 PUSH1 0x40 MSTORE CALLVALUE DUP1 ISZERO PUSH1 0xE JUMPI PUSH0 DUP1 REVERT JUMPDEST POP PUSH2 0x927 DUP1 PUSH2 0x1C PUSH0 CODECOPY PUSH0 RETURN INVALID PUSH1 0x80 PUSH1 0x40 MSTORE CALLVALUE DUP1 ISZERO PUSH2 0xF JUMPI PUSH0 DUP1 REVERT JUMPDEST POP PUSH1 0x4 CALLDATASIZE LT PUSH2 0x3F JUMPI PUSH0 CALLDATALOAD PUSH1 0xE0 SHR DUP1 PUSH4 0xAAEFCE39 EQ PUSH2 0x43 JUMPI DUP1 PUSH4 0xBCA9A5C5 EQ PUSH2 0x5F JUMPI DUP1 PUSH4 0xDBE7E257 EQ PUSH2 0x8F JUMPI JUMPDEST PUSH0 DUP1 REVERT JUMPDEST PUSH2 0x5D PUSH1 0x4 DUP1 CALLDATASIZE SUB DUP2 ADD SWAP1 PUSH2 0x58 SWAP2 SWAP1 PUSH2 0x398 JUMP JUMPDEST PUSH2 0xC1 JUMP JUMPDEST STOP JUMPDEST PUSH2 0x79 PUSH1 0x4 DUP1 CALLDATASIZE SUB DUP2 ADD SWAP1 PUSH2 0x74 SWAP2 SWAP1 PUSH2 0x41C JUMP JUMPDEST PUSH2 0x147 JUMP JUMPDEST PUSH1 0x40 MLOAD PUSH2 0x86 SWAP2 SWAP1 PUSH2 0x513 JUMP JUMPDEST PUSH1 0x40 MLOAD DUP1 SWAP2 SUB SWAP1 RETURN JUMPDEST PUSH2 0xA9 PUSH1 0x4 DUP1 CALLDATASIZE SUB DUP2 ADD SWAP1 PUSH2 0xA4 SWAP2 SWAP1 PUSH2 0x41C JUMP JUMPDEST PUSH2 0x223 JUMP JUMPDEST PUSH1 0x40 MLOAD PUSH2 0xB8 SWAP4 SWAP3 SWAP2 SWAP1 PUSH2 0x58A JUMP JUMPDEST PUSH1 0x40 MLOAD DUP1 SWAP2 SUB SWAP1 RETURN JUMPDEST DUP4 PUSH0 DUP7 DUP2 SLOAD DUP2 LT PUSH2 0xD5 JUMPI PUSH2 0xD4 PUSH2 0x5C6 JUMP JUMPDEST JUMPDEST SWAP1 PUSH0 MSTORE PUSH1 0x20 PUSH0 KECCAK256 SWAP1 PUSH1 0x3 MUL ADD PUSH0 ADD DUP2 SWAP1 SSTORE POP DUP3 DUP3 PUSH0 DUP8 DUP2 SLOAD DUP2 LT PUSH2 0xFC JUMPI PUSH2 0xFB PUSH2 0x5C6 JUMP JUMPDEST JUMPDEST SWAP1 PUSH0 MSTORE PUSH1 0x20 PUSH0 KECCAK256 SWAP1 PUSH1 0x3 MUL ADD PUSH1 0x1 ADD SWAP2 DUP3 PUSH2 0x118 SWAP3 SWAP2 SWAP1 PUSH2 0x824 JUMP JUMPDEST POP DUP1 PUSH0 DUP7 DUP2 SLOAD DUP2 LT PUSH2 0x12D JUMPI PUSH2 0x12C PUSH2 0x5C6 JUMP JUMPDEST JUMPDEST SWAP1 PUSH0 MSTORE PUSH1 0x20 PUSH0 KECCAK256 SWAP1 PUSH1 0x3 MUL ADD PUSH1 0x2 ADD DUP2 SWAP1 SSTORE POP POP POP POP POP POP JUMP JUMPDEST PUSH2 0x14F PUSH2 0x2DD JUMP JUMPDEST PUSH0 DUP3 DUP2 SLOAD DUP2 LT PUSH2 0x162 JUMPI PUSH2 0x161 PUSH2 0x5C6 JUMP JUMPDEST JUMPDEST SWAP1 PUSH0 MSTORE PUSH1 0x20 PUSH0 KECCAK256 SWAP1 PUSH1 0x3 MUL ADD PUSH1 0x40 MLOAD DUP1 PUSH1 0x60 ADD PUSH1 0x40 MSTORE SWAP1 DUP2 PUSH0 DUP3 ADD SLOAD DUP2 MSTORE PUSH1 0x20 ADD PUSH1 0x1 DUP3 ADD DUP1 SLOAD PUSH2 0x192 SWAP1 PUSH2 0x657 JUMP JUMPDEST DUP1 PUSH1 0x1F ADD PUSH1 0x20 DUP1 SWAP2 DIV MUL PUSH1 0x20 ADD PUSH1 0x40 MLOAD SWAP1 DUP2 ADD PUSH1 0x40 MSTORE DUP1 SWAP3 SWAP2 SWAP1 DUP2 DUP2 MSTORE PUSH1 0x20 ADD DUP3 DUP1 SLOAD PUSH2 0x1BE SWAP1 PUSH2 0x657 JUMP JUMPDEST DUP1 ISZERO PUSH2 0x209 JUMPI DUP1 PUSH1 0x1F LT PUSH2 0x1E0 JUMPI PUSH2 0x100 DUP1 DUP4 SLOAD DIV MUL DUP4 MSTORE SWAP2 PUSH1 0x20 ADD SWAP2 PUSH2 0x209 JUMP JUMPDEST DUP3 ADD SWAP2 SWAP1 PUSH0 MSTORE PUSH1 0x20 PUSH0 KECCAK256 SWAP1 JUMPDEST DUP2 SLOAD DUP2 MSTORE SWAP1 PUSH1 0x1 ADD SWAP1 PUSH1 0x20 ADD DUP1 DUP4 GT PUSH2 0x1EC JUMPI DUP3 SWAP1 SUB PUSH1 0x1F AND DUP3 ADD SWAP2 JUMPDEST POP POP POP POP POP DUP2 MSTORE PUSH1 0x20 ADD PUSH1 0x2 DUP3 ADD SLOAD DUP2 MSTORE POP POP SWAP1 POP SWAP2 SWAP1 POP JUMP JUMPDEST PUSH0 DUP2 DUP2 SLOAD DUP2 LT PUSH2 0x231 JUMPI PUSH0 DUP1 REVERT JUMPDEST SWAP1 PUSH0 MSTORE PUSH1 0x20 PUSH0 KECCAK256 SWAP1 PUSH1 0x3 MUL ADD PUSH0 SWAP2 POP SWAP1 POP DUP1 PUSH0 ADD SLOAD SWAP1 DUP1 PUSH1 0x1 ADD DUP1 SLOAD PUSH2 0x256 SWAP1 PUSH2 0x657 JUMP JUMPDEST DUP1 PUSH1 0x1F ADD PUSH1 0x20 DUP1 SWAP2 DIV MUL PUSH1 0x20 ADD PUSH1 0x40 MLOAD SWAP1 DUP2 ADD PUSH1 0x40 MSTORE DUP1 SWAP3 SWAP2 SWAP1 DUP2 DUP2 MSTORE PUSH1 0x20 ADD DUP3 DUP1 SLOAD PUSH2 0x282 SWAP1 PUSH2 0x657 JUMP JUMPDEST DUP1 ISZERO PUSH2 0x2CD JUMPI DUP1 PUSH1 0x1F LT PUSH2 0x2A4 JUMPI PUSH2 0x100 DUP1 DUP4 SLOAD DIV MUL DUP4 MSTORE SWAP2 PUSH1 0x20 ADD SWAP2 PUSH2 0x2CD JUMP JUMPDEST DUP3 ADD SWAP2 SWAP1 PUSH0 MSTORE PUSH1 0x20 PUSH0 KECCAK256 SWAP1 JUMPDEST DUP2 SLOAD DUP2 MSTORE SWAP1 PUSH1 0x1 ADD SWAP1 PUSH1 0x20 ADD DUP1 DUP4 GT PUSH2 0x2B0 JUMPI DUP3 SWAP1 SUB PUSH1 0x1F AND DUP3 ADD SWAP2 JUMPDEST POP POP POP POP POP SWAP1 DUP1 PUSH1 0x2 ADD SLOAD SWAP1 POP DUP4 JUMP JUMPDEST PUSH1 0x40 MLOAD DUP1 PUSH1 0x60 ADD PUSH1 0x40 MSTORE DUP1 PUSH0 DUP2 MSTORE PUSH1 0x20 ADD PUSH1 0x60 DUP2 MSTORE PUSH1 0x20 ADD PUSH0 DUP2 MSTORE POP SWAP1 JUMP JUMPDEST PUSH0 DUP1 REVERT JUMPDEST PUSH0 DUP1 REVERT JUMPDEST PUSH0 DUP2 SWAP1 POP SWAP2 SWAP1 POP JUMP JUMPDEST PUSH2 0x316 DUP2 PUSH2 0x304 JUMP JUMPDEST DUP2 EQ PUSH2 0x320 JUMPI PUSH0 DUP1 REVERT JUMPDEST POP JUMP JUMPDEST PUSH0 DUP2 CALLDATALOAD SWAP1 POP PUSH2 0x331 DUP2 PUSH2 0x30D JUMP JUMPDEST SWAP3 SWAP2 POP POP JUMP JUMPDEST PUSH0 DUP1 REVERT JUMPDEST PUSH0 DUP1 REVERT JUMPDEST PUSH0 DUP1 REVERT JUMPDEST PUSH0 DUP1 DUP4 PUSH1 0x1F DUP5 ADD SLT PUSH2 0x358 JUMPI PUSH2 0x357 PUSH2 0x337 JUMP JUMPDEST JUMPDEST DUP3 CALLDATALOAD SWAP1 POP PUSH8 0xFFFFFFFFFFFFFFFF DUP2 GT ISZERO PUSH2 0x375 JUMPI PUSH2 0x374 PUSH2 0x33B JUMP JUMPDEST JUMPDEST PUSH1 0x20 DUP4 ADD SWAP2 POP DUP4 PUSH1 0x1 DUP3 MUL DUP4 ADD GT ISZERO PUSH2 0x391 JUMPI PUSH2 0x390 PUSH2 0x33F JUMP JUMPDEST JUMPDEST SWAP3 POP SWAP3 SWAP1 POP JUMP JUMPDEST PUSH0 DUP1 PUSH0 DUP1 PUSH0 PUSH1 0x80 DUP7 DUP9 SUB SLT ISZERO PUSH2 0x3B1 JUMPI PUSH2 0x3B0 PUSH2 0x2FC JUMP JUMPDEST JUMPDEST PUSH0 PUSH2 0x3BE DUP9 DUP3 DUP10 ADD PUSH2 0x323 JUMP JUMPDEST SWAP6 POP POP PUSH1 0x20 PUSH2 0x3CF DUP9 DUP3 DUP10 ADD PUSH2 0x323 JUMP JUMPDEST SWAP5 POP POP PUSH1 0x40 DUP7 ADD CALLDATALOAD PUSH8 0xFFFFFFFFFFFFFFFF DUP2 GT ISZERO PUSH2 0x3F0 JUMPI PUSH2 0x3EF PUSH2 0x300 JUMP JUMPDEST JUMPDEST PUSH2 0x3FC DUP9 DUP3 DUP10 ADD PUSH2 0x343 JUMP JUMPDEST SWAP4 POP SWAP4 POP POP PUSH1 0x60 PUSH2 0x40F DUP9 DUP3 DUP10 ADD PUSH2 0x323 JUMP JUMPDEST SWAP2 POP POP SWAP3 SWAP6 POP SWAP3 SWAP6 SWAP1 SWAP4 POP JUMP JUMPDEST PUSH0 PUSH1 0x20 DUP3 DUP5 SUB SLT ISZERO PUSH2 0x431 JUMPI PUSH2 0x430 PUSH2 0x2FC JUMP JUMPDEST JUMPDEST PUSH0 PUSH2 0x43E DUP5 DUP3 DUP6 ADD PUSH2 0x323 JUMP JUMPDEST SWAP2 POP POP SWAP3 SWAP2 POP POP JUMP JUMPDEST PUSH2 0x450 DUP2 PUSH2 0x304 JUMP JUMPDEST DUP3 MSTORE POP POP JUMP JUMPDEST PUSH0 DUP2 MLOAD SWAP1 POP SWAP2 SWAP1 POP JUMP JUMPDEST PUSH0 DUP3 DUP3 MSTORE PUSH1 0x20 DUP3 ADD SWAP1 POP SWAP3 SWAP2 POP POP JUMP JUMPDEST DUP3 DUP2 DUP4 MCOPY PUSH0 DUP4 DUP4 ADD MSTORE POP POP POP JUMP JUMPDEST PUSH0 PUSH1 0x1F NOT PUSH1 0x1F DUP4 ADD AND SWAP1 POP SWAP2 SWAP1 POP JUMP JUMPDEST PUSH0 PUSH2 0x498 DUP3 PUSH2 0x456 JUMP JUMPDEST PUSH2 0x4A2 DUP2 DUP6 PUSH2 0x460 JUMP JUMPDEST SWAP4 POP PUSH2 0x4B2 DUP2 DUP6 PUSH1 0x20 DUP7 ADD PUSH2 0x470 JUMP JUMPDEST PUSH2 0x4BB DUP2 PUSH2 0x47E JUMP JUMPDEST DUP5 ADD SWAP2 POP POP SWAP3 SWAP2 POP POP JUMP JUMPDEST PUSH0 PUSH1 0x60 DUP4 ADD PUSH0 DUP4 ADD MLOAD PUSH2 0x4DB PUSH0 DUP7 ADD DUP3 PUSH2 0x447 JUMP JUMPDEST POP PUSH1 0x20 DUP4 ADD MLOAD DUP5 DUP3 SUB PUSH1 0x20 DUP7 ADD MSTORE PUSH2 0x4F3 DUP3 DUP3 PUSH2 0x48E JUMP JUMPDEST SWAP2 POP POP PUSH1 0x40 DUP4 ADD MLOAD PUSH2 0x508 PUSH1 0x40 DUP7 ADD DUP3 PUSH2 0x447 JUMP JUMPDEST POP DUP1 SWAP2 POP POP SWAP3 SWAP2 POP POP JUMP JUMPDEST PUSH0 PUSH1 0x20 DUP3 ADD SWAP1 POP DUP2 DUP2 SUB PUSH0 DUP4 ADD MSTORE PUSH2 0x52B DUP2 DUP5 PUSH2 0x4C6 JUMP JUMPDEST SWAP1 POP SWAP3 SWAP2 POP POP JUMP JUMPDEST PUSH2 0x53C DUP2 PUSH2 0x304 JUMP JUMPDEST DUP3 MSTORE POP POP JUMP JUMPDEST PUSH0 DUP3 DUP3 MSTORE PUSH1 0x20 DUP3 ADD SWAP1 POP SWAP3 SWAP2 POP POP JUMP JUMPDEST PUSH0 PUSH2 0x55C DUP3 PUSH2 0x456 JUMP JUMPDEST PUSH2 0x566 DUP2 DUP6 PUSH2 0x542 JUMP JUMPDEST SWAP4 POP PUSH2 0x576 DUP2 DUP6 PUSH1 0x20 DUP7 ADD PUSH2 0x470 JUMP JUMPDEST PUSH2 0x57F DUP2 PUSH2 0x47E JUMP JUMPDEST DUP5 ADD SWAP2 POP POP SWAP3 SWAP2 POP POP JUMP JUMPDEST PUSH0 PUSH1 0x60 DUP3 ADD SWAP1 POP PUSH2 0x59D PUSH0 DUP4 ADD DUP7 PUSH2 0x533 JUMP JUMPDEST DUP2 DUP2 SUB PUSH1 0x20 DUP4 ADD MSTORE PUSH2 0x5AF DUP2 DUP6 PUSH2 0x552 JUMP JUMPDEST SWAP1 POP PUSH2 0x5BE PUSH1 0x40 DUP4 ADD DUP5 PUSH2 0x533 JUMP JUMPDEST SWAP5 SWAP4 POP POP POP POP JUMP JUMPDEST PUSH32 0x4E487B7100000000000000000000000000000000000000000000000000000000 PUSH0 MSTORE PUSH1 0x32 PUSH1 0x4 MSTORE PUSH1 0x24 PUSH0 REVERT JUMPDEST PUSH0 DUP3 SWAP1 POP SWAP3 SWAP2 POP POP JUMP JUMPDEST PUSH32 0x4E487B7100000000000000000000000000000000000000000000000000000000 PUSH0 MSTORE PUSH1 0x41 PUSH1 0x4 MSTORE PUSH1 0x24 PUSH0 REVERT JUMPDEST PUSH32 0x4E487B7100000000000000000000000000000000000000000000000000000000 PUSH0 MSTORE PUSH1 0x22 PUSH1 0x4 MSTORE PUSH1 0x24 PUSH0 REVERT JUMPDEST PUSH0 PUSH1 0x2 DUP3 DIV SWAP1 POP PUSH1 0x1 DUP3 AND DUP1 PUSH2 0x66E JUMPI PUSH1 0x7F DUP3 AND SWAP2 POP JUMPDEST PUSH1 0x20 DUP3 LT DUP2 SUB PUSH2 0x681 JUMPI PUSH2 0x680 PUSH2 0x62A JUMP JUMPDEST JUMPDEST POP SWAP2 SWAP1 POP JUMP JUMPDEST PUSH0 DUP2 SWAP1 POP DUP2 PUSH0 MSTORE PUSH1 0x20 PUSH0 KECCAK256 SWAP1 POP SWAP2 SWAP1 POP JUMP JUMPDEST PUSH0 PUSH1 0x20 PUSH1 0x1F DUP4 ADD DIV SWAP1 POP SWAP2 SWAP1 POP JUMP JUMPDEST PUSH0 DUP3 DUP3 SHL SWAP1 POP SWAP3 SWAP2 POP POP JUMP JUMPDEST PUSH0 PUSH1 0x8 DUP4 MUL PUSH2 0x6E3 PUSH32 0xFFFFFFFFFFFFFFFFFFFFFFFFFFFFFFFFFFFFFFFFFFFFFFFFFFFFFFFFFFFFFFFF DUP3 PUSH2 0x6A8 JUMP JUMPDEST PUSH2 0x6ED DUP7 DUP4 PUSH2 0x6A8 JUMP JUMPDEST SWAP6 POP DUP1 NOT DUP5 AND SWAP4 POP DUP1 DUP7 AND DUP5 OR SWAP3 POP POP POP SWAP4 SWAP3 POP POP POP JUMP JUMPDEST PUSH0 DUP2 SWAP1 POP SWAP2 SWAP1 POP JUMP JUMPDEST PUSH0 PUSH2 0x728 PUSH2 0x723 PUSH2 0x71E DUP5 PUSH2 0x304 JUMP JUMPDEST PUSH2 0x705 JUMP JUMPDEST PUSH2 0x304 JUMP JUMPDEST SWAP1 POP SWAP2 SWAP1 POP JUMP JUMPDEST PUSH0 DUP2 SWAP1 POP SWAP2 SWAP1 POP JUMP JUMPDEST PUSH2 0x741 DUP4 PUSH2 0x70E JUMP JUMPDEST PUSH2 0x755 PUSH2 0x74D DUP3 PUSH2 0x72F JUMP JUMPDEST DUP5 DUP5 SLOAD PUSH2 0x6B4 JUMP JUMPDEST DUP3 SSTORE POP POP POP POP JUMP JUMPDEST PUSH0 SWAP1 JUMP JUMPDEST PUSH2 0x769 PUSH2 0x75D JUMP JUMPDEST PUSH2 0x774 DUP2 DUP5 DUP5 PUSH2 0x738 JUMP JUMPDEST POP POP POP JUMP JUMPDEST JUMPDEST DUP2 DUP2 LT ISZERO PUSH2 0x797 JUMPI PUSH2 0x78C PUSH0 DUP3 PUSH2 0x761 JUMP JUMPDEST PUSH1 0x1 DUP2 ADD SWAP1 POP PUSH2 0x77A JUMP JUMPDEST POP POP JUMP JUMPDEST PUSH1 0x1F DUP3 GT ISZERO PUSH2 0x7DC JUMPI PUSH2 0x7AD DUP2 PUSH2 0x687 JUMP JUMPDEST PUSH2 0x7B6 DUP5 PUSH2 0x699 JUMP JUMPDEST DUP2 ADD PUSH1 0x20 DUP6 LT ISZERO PUSH2 0x7C5 JUMPI DUP2 SWAP1 POP JUMPDEST PUSH2 0x7D9 PUSH2 0x7D1 DUP6 PUSH2 0x699 JUMP JUMPDEST DUP4 ADD DUP3 PUSH2 0x779 JUMP JUMPDEST POP POP JUMPDEST POP POP POP JUMP JUMPDEST PUSH0 DUP3 DUP3 SHR SWAP1 POP SWAP3 SWAP2 POP POP JUMP JUMPDEST PUSH0 PUSH2 0x7FC PUSH0 NOT DUP5 PUSH1 0x8 MUL PUSH2 0x7E1 JUMP JUMPDEST NOT DUP1 DUP4 AND SWAP2 POP POP SWAP3 SWAP2 POP POP JUMP JUMPDEST PUSH0 PUSH2 0x814 DUP4 DUP4 PUSH2 0x7ED JUMP JUMPDEST SWAP2 POP DUP3 PUSH1 0x2 MUL DUP3 OR SWAP1 POP SWAP3 SWAP2 POP POP JUMP JUMPDEST PUSH2 0x82E DUP4 DUP4 PUSH2 0x5F3 JUMP JUMPDEST PUSH8 0xFFFFFFFFFFFFFFFF DUP2 GT ISZERO PUSH2 0x847 JUMPI PUSH2 0x846 PUSH2 0x5FD JUMP JUMPDEST JUMPDEST PUSH2 0x851 DUP3 SLOAD PUSH2 0x657 JUMP JUMPDEST PUSH2 0x85C DUP3 DUP3 DUP6 PUSH2 0x79B JUMP JUMPDEST PUSH0 PUSH1 0x1F DUP4 GT PUSH1 0x1 DUP2 EQ PUSH2 0x889 JUMPI PUSH0 DUP5 ISZERO PUSH2 0x877 JUMPI DUP3 DUP8 ADD CALLDATALOAD SWAP1 POP JUMPDEST PUSH2 0x881 DUP6 DUP3 PUSH2 0x809 JUMP JUMPDEST DUP7 SSTORE POP PUSH2 0x8E8 JUMP JUMPDEST PUSH1 0x1F NOT DUP5 AND PUSH2 0x897 DUP7 PUSH2 0x687 JUMP JUMPDEST PUSH0 JUMPDEST DUP3 DUP2 LT ISZERO PUSH2 0x8BE JUMPI DUP5 DUP10 ADD CALLDATALOAD DUP3 SSTORE PUSH1 0x1 DUP3 ADD SWAP2 POP PUSH1 0x20 DUP6 ADD SWAP5 POP PUSH1 0x20 DUP2 ADD SWAP1 POP PUSH2 0x899 JUMP JUMPDEST DUP7 DUP4 LT ISZERO PUSH2 0x8DB JUMPI DUP5 DUP10 ADD CALLDATALOAD PUSH2 0x8D7 PUSH1 0x1F DUP10 AND DUP3 PUSH2 0x7ED JUMP JUMPDEST DUP4 SSTORE POP JUMPDEST PUSH1 0x1 PUSH1 0x2 DUP9 MUL ADD DUP9 SSTORE POP POP POP JUMPDEST POP POP POP POP POP POP POP JUMP INVALID LOG2 PUSH5 0x6970667358 0x22 SLT KECCAK256 0xAD NOT DUP15 0xBA 0xBE CALLCODE 0xF8 0xF6 CODESIZE 0xD5 PREVRANDAO 0x27 LT PUSH9 0x834782FA3C4E0075B7 0xC0 0xA5 MSTORE8 0xDD 0xDC CALLCODE BLOCKHASH 0xED 0xA9 PUSH5 0x736F6C6343 STOP ADDMOD BYTE STOP CALLER "
				},
				"gasEstimates": {
					"creation": {
						"codeDepositCost": "468600",
						"executionCost": "503",
						"totalCost": "469103"
					},
					"external": {
						"emp(uint256)": "infinite",
						"getEmployee(uint256)": "infinite",
						"insert(uint256,uint256,string,uint256)": "infinite"
					}
				},
				"methodIdentifiers": {
					"emp(uint256)": "dbe7e257",
					"getEmployee(uint256)": "bca9a5c5",
					"insert(uint256,uint256,string,uint256)": "aaefce39"
				}
			},
			"storageLayout": {
				"storage": [
					{
						"astId": 12,
						"contract": "contracts/Struct/EmployeeRegistry.sol:employeeRegistry",
						"label": "emp",
						"offset": 0,
						"slot": "0",
						"type": "t_array(t_struct(Employee)8_storage)dyn_storage"
					}
				],
				"types": {
					"t_array(t_struct(Employee)8_storage)dyn_storage": {
						"base": "t_struct(Employee)8_storage",
						"encoding": "dynamic_array",
						"label": "struct employeeRegistry.Employee[]",
						"numberOfBytes": "32"
					},
					"t_string_storage": {
						"encoding": "bytes",
						"label": "string",
						"numberOfBytes": "32"
					},
					"t_struct(Employee)8_storage": {
						"encoding": "inplace",
						"label": "struct employeeRegistry.Employee",
						"members": [
							{
								"astId": 3,
								"contract": "contracts/Struct/EmployeeRegistry.sol:employeeRegistry",
								"label": "id",
								"offset": 0,
								"slot": "0",
								"type": "t_uint256"
							},
							{
								"astId": 5,
								"contract": "contracts/Struct/EmployeeRegistry.sol:employeeRegistry",
								"label": "name",
								"offset": 0,
								"slot": "1",
								"type": "t_string_storage"
							},
							{
								"astId": 7,
								"contract": "contracts/Struct/EmployeeRegistry.sol:employeeRegistry",
								"label": "salary",
								"offset": 0,
								"slot": "2",
								"type": "t_uint256"
							}
						],
						"numberOfBytes": "96"
					},
					"t_uint256": {
						"encoding": "inplace",
						"label": "uint256",
						"numberOfBytes": "32"
					}
				}
			},
			"userdoc": {
				"kind": "user",
				"methods": {},
				"version": 1
			}
		}
	}
}