{
	"contracts/Struct/struct.sol": {
		"Struct": {
			"abi": [
				{
					"inputs": [],
					"name": "getter",
					"outputs": [
						{
							"components": [
								{
									"internalType": "string",
									"name": "name",
									"type": "string"
								},
								{
									"internalType": "uint256",
									"name": "roll",
									"type": "uint256"
								},
								{
									"internalType": "bool",
									"name": "pass",
									"type": "bool"
								}
							],
							"internalType": "struct Struct.Student",
							"name": "",
							"type": "tuple"
						}
					],
					"stateMutability": "view",
					"type": "function"
				},
				{
					"inputs": [],
					"name": "getterName",
					"outputs": [
						{
							"internalType": "string",
							"name": "",
							"type": "string"
						}
					],
					"stateMutability": "view",
					"type": "function"
				},
				{
					"inputs": [],
					"name": "getterPass",
					"outputs": [
						{
							"internalType": "bool",
							"name": "",
							"type": "bool"
						}
					],
					"stateMutability": "view",
					"type": "function"
				},
				{
					"inputs": [],
					"name": "getterRoll",
					"outputs": [
						{
							"internalType": "uint256",
							"name": "",
							"type": "uint256"
						}
					],
					"stateMutability": "view",
					"type": "function"
				},
				{
					"inputs": [
						{
							"internalType": "string",
							"name": "_name",
							"type": "string"
						},
						{
							"internalType": "uint256",
							"name": "_roll",
							"type": "uint256"
						},
						{
							"internalType": "bool",
							"name": "_pass",
							"type": "bool"
						}
					],
					"name": "insert",
					"outputs": [],
					"stateMutability": "nonpayable",
					"type": "function"
				},
				{
					"inputs": [],
					"name": "s1",
					"outputs": [
						{
							"internalType": "string",
							"name": "name",
							"type": "string"
						},
						{
							"internalType": "uint256",
							"name": "roll",
							"type": "uint256"
						},
						{
							"internalType": "bool",
							"name": "pass",
							"type": "bool"
						}
					],
					"stateMutability": "view",
					"type": "function"
				}
			],
			"devdoc": {
				"kind": "dev",
				"methods": {},
				"version": 1
			},
			"evm": {
				"assembly": "    /* \"contracts/Struct/struct.sol\":72:763  contract Struct{... */\n  mstore(0x40, 0x80)\n  callvalue\n  dup1\n  iszero\n  tag_1\n  jumpi\n  0x00\n  dup1\n  revert\ntag_1:\n  pop\n  dataSize(sub_0)\n  dup1\n  dataOffset(sub_0)\n  0x00\n  codecopy\n  0x00\n  return\nstop\n\nsub_0: assembly {\n        /* \"contracts/Struct/struct.sol\":72:763  contract Struct{... */\n      mstore(0x40, 0x80)\n      callvalue\n      dup1\n      iszero\n      tag_1\n      jumpi\n      0x00\n      dup1\n      revert\n    tag_1:\n      pop\n      jumpi(tag_2, lt(calldatasize, 0x04))\n      shr(0xe0, calldataload(0x00))\n      dup1\n      0x32ef371a\n      eq\n      tag_3\n      jumpi\n      dup1\n      0x4f7dea2f\n      eq\n      tag_4\n      jumpi\n      dup1\n      0x6cc014de\n      eq\n      tag_5\n      jumpi\n      dup1\n      0x993a04b7\n      eq\n      tag_6\n      jumpi\n      dup1\n      0xb923a9fc\n      eq\n      tag_7\n      jumpi\n      dup1\n      0xc30655a2\n      eq\n      tag_8\n      jumpi\n    tag_2:\n      0x00\n      dup1\n      revert\n        /* \"contracts/Struct/struct.sol\":402:492  function getterName() public view returns(string memory){... */\n    tag_3:\n      tag_9\n      tag_10\n      jump\t// in\n    tag_9:\n      mload(0x40)\n      tag_11\n      swap2\n      swap1\n      tag_12\n      jump\t// in\n    tag_11:\n      mload(0x40)\n      dup1\n      swap2\n      sub\n      swap1\n      return\n        /* \"contracts/Struct/struct.sol\":589:670  function getterPass() public view returns(bool){... */\n    tag_4:\n      tag_13\n      tag_14\n      jump\t// in\n    tag_13:\n      mload(0x40)\n      tag_15\n      swap2\n      swap1\n      tag_16\n      jump\t// in\n    tag_15:\n      mload(0x40)\n      dup1\n      swap2\n      sub\n      swap1\n      return\n        /* \"contracts/Struct/struct.sol\":184:201  Student public s1 */\n    tag_5:\n      tag_17\n      tag_18\n      jump\t// in\n    tag_17:\n      mload(0x40)\n      tag_19\n      swap4\n      swap3\n      swap2\n      swap1\n      tag_20\n      jump\t// in\n    tag_19:\n      mload(0x40)\n      dup1\n      swap2\n      sub\n      swap1\n      return\n        /* \"contracts/Struct/struct.sol\":678:760  function getter() public view returns(Student memory){... */\n    tag_6:\n      tag_21\n      tag_22\n      jump\t// in\n    tag_21:\n      mload(0x40)\n      tag_23\n      swap2\n      swap1\n      tag_24\n      jump\t// in\n    tag_23:\n      mload(0x40)\n      dup1\n      swap2\n      sub\n      swap1\n      return\n        /* \"contracts/Struct/struct.sol\":500:581  function getterRoll() public view returns(uint){... */\n    tag_7:\n      tag_25\n      tag_26\n      jump\t// in\n    tag_25:\n      mload(0x40)\n      tag_27\n      swap2\n      swap1\n      tag_28\n      jump\t// in\n    tag_27:\n      mload(0x40)\n      dup1\n      swap2\n      sub\n      swap1\n      return\n        /* \"contracts/Struct/struct.sol\":238:394  function insert(string calldata _name, uint _roll, bool _pass) public{... */\n    tag_8:\n      tag_29\n      0x04\n      dup1\n      calldatasize\n      sub\n      dup2\n      add\n      swap1\n      tag_30\n      swap2\n      swap1\n      tag_31\n      jump\t// in\n    tag_30:\n      tag_32\n      jump\t// in\n    tag_29:\n      stop\n        /* \"contracts/Struct/struct.sol\":402:492  function getterName() public view returns(string memory){... */\n    tag_10:\n        /* \"contracts/Struct/struct.sol\":444:457  string memory */\n      0x60\n        /* \"contracts/Struct/struct.sol\":477:479  s1 */\n      0x00\n        /* \"contracts/Struct/struct.sol\":477:484  s1.name */\n      dup1\n      add\n        /* \"contracts/Struct/struct.sol\":469:484  return  s1.name */\n      dup1\n      sload\n      tag_34\n      swap1\n      tag_35\n      jump\t// in\n    tag_34:\n      dup1\n      0x1f\n      add\n      0x20\n      dup1\n      swap2\n      div\n      mul\n      0x20\n      add\n      mload(0x40)\n      swap1\n      dup2\n      add\n      0x40\n      mstore\n      dup1\n      swap3\n      swap2\n      swap1\n      dup2\n      dup2\n      mstore\n      0x20\n      add\n      dup3\n      dup1\n      sload\n      tag_36\n      swap1\n      tag_35\n      jump\t// in\n    tag_36:\n      dup1\n      iszero\n      tag_37\n      jumpi\n      dup1\n      0x1f\n      lt\n      tag_38\n      jumpi\n      0x0100\n      dup1\n      dup4\n      sload\n      div\n      mul\n      dup4\n      mstore\n      swap2\n      0x20\n      add\n      swap2\n      jump(tag_37)\n    tag_38:\n      dup3\n      add\n      swap2\n      swap1\n      0x00\n      mstore\n      keccak256(0x00, 0x20)\n      swap1\n    tag_39:\n      dup2\n      sload\n      dup2\n      mstore\n      swap1\n      0x01\n      add\n      swap1\n      0x20\n      add\n      dup1\n      dup4\n      gt\n      tag_39\n      jumpi\n      dup3\n      swap1\n      sub\n      0x1f\n      and\n      dup3\n      add\n      swap2\n    tag_37:\n      pop\n      pop\n      pop\n      pop\n      pop\n      swap1\n      pop\n        /* \"contracts/Struct/struct.sol\":402:492  function getterName() public view returns(string memory){... */\n      swap1\n      jump\t// out\n        /* \"contracts/Struct/struct.sol\":589:670  function getterPass() public view returns(bool){... */\n    tag_14:\n        /* \"contracts/Struct/struct.sol\":631:635  bool */\n      0x00\n        /* \"contracts/Struct/struct.sol\":655:657  s1 */\n      dup1\n        /* \"contracts/Struct/struct.sol\":655:662  s1.pass */\n      0x02\n      add\n      0x00\n      swap1\n      sload\n      swap1\n      0x0100\n      exp\n      swap1\n      div\n      0xff\n      and\n        /* \"contracts/Struct/struct.sol\":647:662  return  s1.pass */\n      swap1\n      pop\n        /* \"contracts/Struct/struct.sol\":589:670  function getterPass() public view returns(bool){... */\n      swap1\n      jump\t// out\n        /* \"contracts/Struct/struct.sol\":184:201  Student public s1 */\n    tag_18:\n      0x00\n      dup1\n      0x00\n      add\n      dup1\n      sload\n      tag_41\n      swap1\n      tag_35\n      jump\t// in\n    tag_41:\n      dup1\n      0x1f\n      add\n      0x20\n      dup1\n      swap2\n      div\n      mul\n      0x20\n      add\n      mload(0x40)\n      swap1\n      dup2\n      add\n      0x40\n      mstore\n      dup1\n      swap3\n      swap2\n      swap1\n      dup2\n      dup2\n      mstore\n      0x20\n      add\n      dup3\n      dup1\n      sload\n      tag_42\n      swap1\n      tag_35\n      jump\t// in\n    tag_42:\n      dup1\n      iszero\n      tag_43\n      jumpi\n      dup1\n      0x1f\n      lt\n      tag_44\n      jumpi\n      0x0100\n      dup1\n      dup4\n      sload\n      div\n      mul\n      dup4\n      mstore\n      swap2\n      0x20\n      add\n      swap2\n      jump(tag_43)\n    tag_44:\n      dup3\n      add\n      swap2\n      swap1\n      0x00\n      mstore\n      keccak256(0x00, 0x20)\n      swap1\n    tag_45:\n      dup2\n      sload\n      dup2\n      mstore\n      swap1\n      0x01\n      add\n      swap1\n      0x20\n      add\n      dup1\n      dup4\n      gt\n      tag_45\n      jumpi\n      dup3\n      swap1\n      sub\n      0x1f\n      and\n      dup3\n      add\n      swap2\n    tag_43:\n      pop\n      pop\n      pop\n      pop\n      pop\n      swap1\n      dup1\n      0x01\n      add\n      sload\n      swap1\n      dup1\n      0x02\n      add\n      0x00\n      swap1\n      sload\n      swap1\n      0x0100\n      exp\n      swap1\n      div\n      0xff\n      and\n      swap1\n      pop\n      dup4\n      jump\t// out\n        /* \"contracts/Struct/struct.sol\":678:760  function getter() public view returns(Student memory){... */\n    tag_22:\n        /* \"contracts/Struct/struct.sol\":716:730  Student memory */\n      tag_46\n      tag_47\n      jump\t// in\n    tag_46:\n        /* \"contracts/Struct/struct.sol\":750:752  s1 */\n      0x00\n        /* \"contracts/Struct/struct.sol\":742:752  return  s1 */\n      mload(0x40)\n      dup1\n      0x60\n      add\n      0x40\n      mstore\n      swap1\n      dup2\n      0x00\n      dup3\n      add\n      dup1\n      sload\n      tag_49\n      swap1\n      tag_35\n      jump\t// in\n    tag_49:\n      dup1\n      0x1f\n      add\n      0x20\n      dup1\n      swap2\n      div\n      mul\n      0x20\n      add\n      mload(0x40)\n      swap1\n      dup2\n      add\n      0x40\n      mstore\n      dup1\n      swap3\n      swap2\n      swap1\n      dup2\n      dup2\n      mstore\n      0x20\n      add\n      dup3\n      dup1\n      sload\n      tag_50\n      swap1\n      tag_35\n      jump\t// in\n    tag_50:\n      dup1\n      iszero\n      tag_51\n      jumpi\n      dup1\n      0x1f\n      lt\n      tag_52\n      jumpi\n      0x0100\n      dup1\n      dup4\n      sload\n      div\n      mul\n      dup4\n      mstore\n      swap2\n      0x20\n      add\n      swap2\n      jump(tag_51)\n    tag_52:\n      dup3\n      add\n      swap2\n      swap1\n      0x00\n      mstore\n      keccak256(0x00, 0x20)\n      swap1\n    tag_53:\n      dup2\n      sload\n      dup2\n      mstore\n      swap1\n      0x01\n      add\n      swap1\n      0x20\n      add\n      dup1\n      dup4\n      gt\n      tag_53\n      jumpi\n      dup3\n      swap1\n      sub\n      0x1f\n      and\n      dup3\n      add\n      swap2\n    tag_51:\n      pop\n      pop\n      pop\n      pop\n      pop\n      dup2\n      mstore\n      0x20\n      add\n      0x01\n      dup3\n      add\n      sload\n      dup2\n      mstore\n      0x20\n      add\n      0x02\n      dup3\n      add\n      0x00\n      swap1\n      sload\n      swap1\n      0x0100\n      exp\n      swap1\n      div\n      0xff\n      and\n      iszero\n      iszero\n      iszero\n      iszero\n      dup2\n      mstore\n      pop\n      pop\n      swap1\n      pop\n        /* \"contracts/Struct/struct.sol\":678:760  function getter() public view returns(Student memory){... */\n      swap1\n      jump\t// out\n        /* \"contracts/Struct/struct.sol\":500:581  function getterRoll() public view returns(uint){... */\n    tag_26:\n        /* \"contracts/Struct/struct.sol\":542:546  uint */\n      0x00\n        /* \"contracts/Struct/struct.sol\":566:568  s1 */\n      dup1\n        /* \"contracts/Struct/struct.sol\":566:573  s1.roll */\n      0x01\n      add\n      sload\n        /* \"contracts/Struct/struct.sol\":558:573  return  s1.roll */\n      swap1\n      pop\n        /* \"contracts/Struct/struct.sol\":500:581  function getterRoll() public view returns(uint){... */\n      swap1\n      jump\t// out\n        /* \"contracts/Struct/struct.sol\":238:394  function insert(string calldata _name, uint _roll, bool _pass) public{... */\n    tag_32:\n        /* \"contracts/Struct/struct.sol\":328:333  _name */\n      dup4\n      dup4\n        /* \"contracts/Struct/struct.sol\":318:320  s1 */\n      0x00\n        /* \"contracts/Struct/struct.sol\":318:325  s1.name */\n      dup1\n      add\n        /* \"contracts/Struct/struct.sol\":318:333  s1.name = _name */\n      swap2\n      dup3\n      tag_56\n      swap3\n      swap2\n      swap1\n      tag_57\n      jump\t// in\n    tag_56:\n      pop\n        /* \"contracts/Struct/struct.sol\":355:360  _roll */\n      dup2\n        /* \"contracts/Struct/struct.sol\":344:346  s1 */\n      0x00\n        /* \"contracts/Struct/struct.sol\":344:351  s1.roll */\n      0x01\n      add\n        /* \"contracts/Struct/struct.sol\":344:360  s1.roll =  _roll */\n      dup2\n      swap1\n      sstore\n      pop\n        /* \"contracts/Struct/struct.sol\":381:386  _pass */\n      dup1\n        /* \"contracts/Struct/struct.sol\":371:373  s1 */\n      0x00\n        /* \"contracts/Struct/struct.sol\":371:378  s1.pass */\n      0x02\n      add\n      0x00\n        /* \"contracts/Struct/struct.sol\":371:386  s1.pass = _pass */\n      0x0100\n      exp\n      dup2\n      sload\n      dup2\n      0xff\n      mul\n      not\n      and\n      swap1\n      dup4\n      iszero\n      iszero\n      mul\n      or\n      swap1\n      sstore\n      pop\n        /* \"contracts/Struct/struct.sol\":238:394  function insert(string calldata _name, uint _roll, bool _pass) public{... */\n      pop\n      pop\n      pop\n      pop\n      jump\t// out\n    tag_47:\n      mload(0x40)\n      dup1\n      0x60\n      add\n      0x40\n      mstore\n      dup1\n      0x60\n      dup2\n      mstore\n      0x20\n      add\n      0x00\n      dup2\n      mstore\n      0x20\n      add\n      iszero(iszero(0x00))\n      dup2\n      mstore\n      pop\n      swap1\n      jump\t// out\n        /* \"#utility.yul\":7:106   */\n    tag_58:\n        /* \"#utility.yul\":59:65   */\n      0x00\n        /* \"#utility.yul\":93:98   */\n      dup2\n        /* \"#utility.yul\":87:99   */\n      mload\n        /* \"#utility.yul\":77:99   */\n      swap1\n      pop\n        /* \"#utility.yul\":7:106   */\n      swap2\n      swap1\n      pop\n      jump\t// out\n        /* \"#utility.yul\":112:281   */\n    tag_59:\n        /* \"#utility.yul\":196:207   */\n      0x00\n        /* \"#utility.yul\":230:236   */\n      dup3\n        /* \"#utility.yul\":225:228   */\n      dup3\n        /* \"#utility.yul\":218:237   */\n      mstore\n        /* \"#utility.yul\":270:274   */\n      0x20\n        /* \"#utility.yul\":265:268   */\n      dup3\n        /* \"#utility.yul\":261:275   */\n      add\n        /* \"#utility.yul\":246:275   */\n      swap1\n      pop\n        /* \"#utility.yul\":112:281   */\n      swap3\n      swap2\n      pop\n      pop\n      jump\t// out\n        /* \"#utility.yul\":287:426   */\n    tag_60:\n        /* \"#utility.yul\":376:382   */\n      dup3\n        /* \"#utility.yul\":371:374   */\n      dup2\n        /* \"#utility.yul\":366:369   */\n      dup4\n        /* \"#utility.yul\":360:383   */\n      mcopy\n        /* \"#utility.yul\":417:418   */\n      0x00\n        /* \"#utility.yul\":408:414   */\n      dup4\n        /* \"#utility.yul\":403:406   */\n      dup4\n        /* \"#utility.yul\":399:415   */\n      add\n        /* \"#utility.yul\":392:419   */\n      mstore\n        /* \"#utility.yul\":287:426   */\n      pop\n      pop\n      pop\n      jump\t// out\n        /* \"#utility.yul\":432:534   */\n    tag_61:\n        /* \"#utility.yul\":473:479   */\n      0x00\n        /* \"#utility.yul\":524:526   */\n      0x1f\n        /* \"#utility.yul\":520:527   */\n      not\n        /* \"#utility.yul\":515:517   */\n      0x1f\n        /* \"#utility.yul\":508:513   */\n      dup4\n        /* \"#utility.yul\":504:518   */\n      add\n        /* \"#utility.yul\":500:528   */\n      and\n        /* \"#utility.yul\":490:528   */\n      swap1\n      pop\n        /* \"#utility.yul\":432:534   */\n      swap2\n      swap1\n      pop\n      jump\t// out\n        /* \"#utility.yul\":540:917   */\n    tag_62:\n        /* \"#utility.yul\":628:631   */\n      0x00\n        /* \"#utility.yul\":656:695   */\n      tag_107\n        /* \"#utility.yul\":689:694   */\n      dup3\n        /* \"#utility.yul\":656:695   */\n      tag_58\n      jump\t// in\n    tag_107:\n        /* \"#utility.yul\":711:782   */\n      tag_108\n        /* \"#utility.yul\":775:781   */\n      dup2\n        /* \"#utility.yul\":770:773   */\n      dup6\n        /* \"#utility.yul\":711:782   */\n      tag_59\n      jump\t// in\n    tag_108:\n        /* \"#utility.yul\":704:782   */\n      swap4\n      pop\n        /* \"#utility.yul\":791:856   */\n      tag_109\n        /* \"#utility.yul\":849:855   */\n      dup2\n        /* \"#utility.yul\":844:847   */\n      dup6\n        /* \"#utility.yul\":837:841   */\n      0x20\n        /* \"#utility.yul\":830:835   */\n      dup7\n        /* \"#utility.yul\":826:842   */\n      add\n        /* \"#utility.yul\":791:856   */\n      tag_60\n      jump\t// in\n    tag_109:\n        /* \"#utility.yul\":881:910   */\n      tag_110\n        /* \"#utility.yul\":903:909   */\n      dup2\n        /* \"#utility.yul\":881:910   */\n      tag_61\n      jump\t// in\n    tag_110:\n        /* \"#utility.yul\":876:879   */\n      dup5\n        /* \"#utility.yul\":872:911   */\n      add\n        /* \"#utility.yul\":865:911   */\n      swap2\n      pop\n        /* \"#utility.yul\":632:917   */\n      pop\n        /* \"#utility.yul\":540:917   */\n      swap3\n      swap2\n      pop\n      pop\n      jump\t// out\n        /* \"#utility.yul\":923:1236   */\n    tag_12:\n        /* \"#utility.yul\":1036:1040   */\n      0x00\n        /* \"#utility.yul\":1074:1076   */\n      0x20\n        /* \"#utility.yul\":1063:1072   */\n      dup3\n        /* \"#utility.yul\":1059:1077   */\n      add\n        /* \"#utility.yul\":1051:1077   */\n      swap1\n      pop\n        /* \"#utility.yul\":1123:1132   */\n      dup2\n        /* \"#utility.yul\":1117:1121   */\n      dup2\n        /* \"#utility.yul\":1113:1133   */\n      sub\n        /* \"#utility.yul\":1109:1110   */\n      0x00\n        /* \"#utility.yul\":1098:1107   */\n      dup4\n        /* \"#utility.yul\":1094:1111   */\n      add\n        /* \"#utility.yul\":1087:1134   */\n      mstore\n        /* \"#utility.yul\":1151:1229   */\n      tag_112\n        /* \"#utility.yul\":1224:1228   */\n      dup2\n        /* \"#utility.yul\":1215:1221   */\n      dup5\n        /* \"#utility.yul\":1151:1229   */\n      tag_62\n      jump\t// in\n    tag_112:\n        /* \"#utility.yul\":1143:1229   */\n      swap1\n      pop\n        /* \"#utility.yul\":923:1236   */\n      swap3\n      swap2\n      pop\n      pop\n      jump\t// out\n        /* \"#utility.yul\":1242:1332   */\n    tag_63:\n        /* \"#utility.yul\":1276:1283   */\n      0x00\n        /* \"#utility.yul\":1319:1324   */\n      dup2\n        /* \"#utility.yul\":1312:1325   */\n      iszero\n        /* \"#utility.yul\":1305:1326   */\n      iszero\n        /* \"#utility.yul\":1294:1326   */\n      swap1\n      pop\n        /* \"#utility.yul\":1242:1332   */\n      swap2\n      swap1\n      pop\n      jump\t// out\n        /* \"#utility.yul\":1338:1447   */\n    tag_64:\n        /* \"#utility.yul\":1419:1440   */\n      tag_115\n        /* \"#utility.yul\":1434:1439   */\n      dup2\n        /* \"#utility.yul\":1419:1440   */\n      tag_63\n      jump\t// in\n    tag_115:\n        /* \"#utility.yul\":1414:1417   */\n      dup3\n        /* \"#utility.yul\":1407:1441   */\n      mstore\n        /* \"#utility.yul\":1338:1447   */\n      pop\n      pop\n      jump\t// out\n        /* \"#utility.yul\":1453:1663   */\n    tag_16:\n        /* \"#utility.yul\":1540:1544   */\n      0x00\n        /* \"#utility.yul\":1578:1580   */\n      0x20\n        /* \"#utility.yul\":1567:1576   */\n      dup3\n        /* \"#utility.yul\":1563:1581   */\n      add\n        /* \"#utility.yul\":1555:1581   */\n      swap1\n      pop\n        /* \"#utility.yul\":1591:1656   */\n      tag_117\n        /* \"#utility.yul\":1653:1654   */\n      0x00\n        /* \"#utility.yul\":1642:1651   */\n      dup4\n        /* \"#utility.yul\":1638:1655   */\n      add\n        /* \"#utility.yul\":1629:1635   */\n      dup5\n        /* \"#utility.yul\":1591:1656   */\n      tag_64\n      jump\t// in\n    tag_117:\n        /* \"#utility.yul\":1453:1663   */\n      swap3\n      swap2\n      pop\n      pop\n      jump\t// out\n        /* \"#utility.yul\":1669:1746   */\n    tag_65:\n        /* \"#utility.yul\":1706:1713   */\n      0x00\n        /* \"#utility.yul\":1735:1740   */\n      dup2\n        /* \"#utility.yul\":1724:1740   */\n      swap1\n      pop\n        /* \"#utility.yul\":1669:1746   */\n      swap2\n      swap1\n      pop\n      jump\t// out\n        /* \"#utility.yul\":1752:1870   */\n    tag_66:\n        /* \"#utility.yul\":1839:1863   */\n      tag_120\n        /* \"#utility.yul\":1857:1862   */\n      dup2\n        /* \"#utility.yul\":1839:1863   */\n      tag_65\n      jump\t// in\n    tag_120:\n        /* \"#utility.yul\":1834:1837   */\n      dup3\n        /* \"#utility.yul\":1827:1864   */\n      mstore\n        /* \"#utility.yul\":1752:1870   */\n      pop\n      pop\n      jump\t// out\n        /* \"#utility.yul\":1876:2397   */\n    tag_20:\n        /* \"#utility.yul\":2039:2043   */\n      0x00\n        /* \"#utility.yul\":2077:2079   */\n      0x60\n        /* \"#utility.yul\":2066:2075   */\n      dup3\n        /* \"#utility.yul\":2062:2080   */\n      add\n        /* \"#utility.yul\":2054:2080   */\n      swap1\n      pop\n        /* \"#utility.yul\":2126:2135   */\n      dup2\n        /* \"#utility.yul\":2120:2124   */\n      dup2\n        /* \"#utility.yul\":2116:2136   */\n      sub\n        /* \"#utility.yul\":2112:2113   */\n      0x00\n        /* \"#utility.yul\":2101:2110   */\n      dup4\n        /* \"#utility.yul\":2097:2114   */\n      add\n        /* \"#utility.yul\":2090:2137   */\n      mstore\n        /* \"#utility.yul\":2154:2232   */\n      tag_122\n        /* \"#utility.yul\":2227:2231   */\n      dup2\n        /* \"#utility.yul\":2218:2224   */\n      dup7\n        /* \"#utility.yul\":2154:2232   */\n      tag_62\n      jump\t// in\n    tag_122:\n        /* \"#utility.yul\":2146:2232   */\n      swap1\n      pop\n        /* \"#utility.yul\":2242:2314   */\n      tag_123\n        /* \"#utility.yul\":2310:2312   */\n      0x20\n        /* \"#utility.yul\":2299:2308   */\n      dup4\n        /* \"#utility.yul\":2295:2313   */\n      add\n        /* \"#utility.yul\":2286:2292   */\n      dup6\n        /* \"#utility.yul\":2242:2314   */\n      tag_66\n      jump\t// in\n    tag_123:\n        /* \"#utility.yul\":2324:2390   */\n      tag_124\n        /* \"#utility.yul\":2386:2388   */\n      0x40\n        /* \"#utility.yul\":2375:2384   */\n      dup4\n        /* \"#utility.yul\":2371:2389   */\n      add\n        /* \"#utility.yul\":2362:2368   */\n      dup5\n        /* \"#utility.yul\":2324:2390   */\n      tag_64\n      jump\t// in\n    tag_124:\n        /* \"#utility.yul\":1876:2397   */\n      swap5\n      swap4\n      pop\n      pop\n      pop\n      pop\n      jump\t// out\n        /* \"#utility.yul\":2403:2562   */\n    tag_67:\n        /* \"#utility.yul\":2477:2488   */\n      0x00\n        /* \"#utility.yul\":2511:2517   */\n      dup3\n        /* \"#utility.yul\":2506:2509   */\n      dup3\n        /* \"#utility.yul\":2499:2518   */\n      mstore\n        /* \"#utility.yul\":2551:2555   */\n      0x20\n        /* \"#utility.yul\":2546:2549   */\n      dup3\n        /* \"#utility.yul\":2542:2556   */\n      add\n        /* \"#utility.yul\":2527:2556   */\n      swap1\n      pop\n        /* \"#utility.yul\":2403:2562   */\n      swap3\n      swap2\n      pop\n      pop\n      jump\t// out\n        /* \"#utility.yul\":2568:2925   */\n    tag_68:\n        /* \"#utility.yul\":2646:2649   */\n      0x00\n        /* \"#utility.yul\":2674:2713   */\n      tag_127\n        /* \"#utility.yul\":2707:2712   */\n      dup3\n        /* \"#utility.yul\":2674:2713   */\n      tag_58\n      jump\t// in\n    tag_127:\n        /* \"#utility.yul\":2729:2790   */\n      tag_128\n        /* \"#utility.yul\":2783:2789   */\n      dup2\n        /* \"#utility.yul\":2778:2781   */\n      dup6\n        /* \"#utility.yul\":2729:2790   */\n      tag_67\n      jump\t// in\n    tag_128:\n        /* \"#utility.yul\":2722:2790   */\n      swap4\n      pop\n        /* \"#utility.yul\":2799:2864   */\n      tag_129\n        /* \"#utility.yul\":2857:2863   */\n      dup2\n        /* \"#utility.yul\":2852:2855   */\n      dup6\n        /* \"#utility.yul\":2845:2849   */\n      0x20\n        /* \"#utility.yul\":2838:2843   */\n      dup7\n        /* \"#utility.yul\":2834:2850   */\n      add\n        /* \"#utility.yul\":2799:2864   */\n      tag_60\n      jump\t// in\n    tag_129:\n        /* \"#utility.yul\":2889:2918   */\n      tag_130\n        /* \"#utility.yul\":2911:2917   */\n      dup2\n        /* \"#utility.yul\":2889:2918   */\n      tag_61\n      jump\t// in\n    tag_130:\n        /* \"#utility.yul\":2884:2887   */\n      dup5\n        /* \"#utility.yul\":2880:2919   */\n      add\n        /* \"#utility.yul\":2873:2919   */\n      swap2\n      pop\n        /* \"#utility.yul\":2650:2925   */\n      pop\n        /* \"#utility.yul\":2568:2925   */\n      swap3\n      swap2\n      pop\n      pop\n      jump\t// out\n        /* \"#utility.yul\":2931:3039   */\n    tag_69:\n        /* \"#utility.yul\":3008:3032   */\n      tag_132\n        /* \"#utility.yul\":3026:3031   */\n      dup2\n        /* \"#utility.yul\":3008:3032   */\n      tag_65\n      jump\t// in\n    tag_132:\n        /* \"#utility.yul\":3003:3006   */\n      dup3\n        /* \"#utility.yul\":2996:3033   */\n      mstore\n        /* \"#utility.yul\":2931:3039   */\n      pop\n      pop\n      jump\t// out\n        /* \"#utility.yul\":3045:3144   */\n    tag_70:\n        /* \"#utility.yul\":3116:3137   */\n      tag_134\n        /* \"#utility.yul\":3131:3136   */\n      dup2\n        /* \"#utility.yul\":3116:3137   */\n      tag_63\n      jump\t// in\n    tag_134:\n        /* \"#utility.yul\":3111:3114   */\n      dup3\n        /* \"#utility.yul\":3104:3138   */\n      mstore\n        /* \"#utility.yul\":3045:3144   */\n      pop\n      pop\n      jump\t// out\n        /* \"#utility.yul\":3204:3972   */\n    tag_71:\n        /* \"#utility.yul\":3317:3320   */\n      0x00\n        /* \"#utility.yul\":3353:3357   */\n      0x60\n        /* \"#utility.yul\":3348:3351   */\n      dup4\n        /* \"#utility.yul\":3344:3358   */\n      add\n        /* \"#utility.yul\":3440:3444   */\n      0x00\n        /* \"#utility.yul\":3433:3438   */\n      dup4\n        /* \"#utility.yul\":3429:3445   */\n      add\n        /* \"#utility.yul\":3423:3446   */\n      mload\n        /* \"#utility.yul\":3493:3496   */\n      dup5\n        /* \"#utility.yul\":3487:3491   */\n      dup3\n        /* \"#utility.yul\":3483:3497   */\n      sub\n        /* \"#utility.yul\":3476:3480   */\n      0x00\n        /* \"#utility.yul\":3471:3474   */\n      dup7\n        /* \"#utility.yul\":3467:3481   */\n      add\n        /* \"#utility.yul\":3460:3498   */\n      mstore\n        /* \"#utility.yul\":3519:3592   */\n      tag_136\n        /* \"#utility.yul\":3587:3591   */\n      dup3\n        /* \"#utility.yul\":3573:3585   */\n      dup3\n        /* \"#utility.yul\":3519:3592   */\n      tag_68\n      jump\t// in\n    tag_136:\n        /* \"#utility.yul\":3511:3592   */\n      swap2\n      pop\n        /* \"#utility.yul\":3368:3603   */\n      pop\n        /* \"#utility.yul\":3685:3689   */\n      0x20\n        /* \"#utility.yul\":3678:3683   */\n      dup4\n        /* \"#utility.yul\":3674:3690   */\n      add\n        /* \"#utility.yul\":3668:3691   */\n      mload\n        /* \"#utility.yul\":3704:3767   */\n      tag_137\n        /* \"#utility.yul\":3761:3765   */\n      0x20\n        /* \"#utility.yul\":3756:3759   */\n      dup7\n        /* \"#utility.yul\":3752:3766   */\n      add\n        /* \"#utility.yul\":3738:3750   */\n      dup3\n        /* \"#utility.yul\":3704:3767   */\n      tag_69\n      jump\t// in\n    tag_137:\n        /* \"#utility.yul\":3613:3777   */\n      pop\n        /* \"#utility.yul\":3859:3863   */\n      0x40\n        /* \"#utility.yul\":3852:3857   */\n      dup4\n        /* \"#utility.yul\":3848:3864   */\n      add\n        /* \"#utility.yul\":3842:3865   */\n      mload\n        /* \"#utility.yul\":3878:3935   */\n      tag_138\n        /* \"#utility.yul\":3929:3933   */\n      0x40\n        /* \"#utility.yul\":3924:3927   */\n      dup7\n        /* \"#utility.yul\":3920:3934   */\n      add\n        /* \"#utility.yul\":3906:3918   */\n      dup3\n        /* \"#utility.yul\":3878:3935   */\n      tag_70\n      jump\t// in\n    tag_138:\n        /* \"#utility.yul\":3787:3945   */\n      pop\n        /* \"#utility.yul\":3962:3966   */\n      dup1\n        /* \"#utility.yul\":3955:3966   */\n      swap2\n      pop\n        /* \"#utility.yul\":3322:3972   */\n      pop\n        /* \"#utility.yul\":3204:3972   */\n      swap3\n      swap2\n      pop\n      pop\n      jump\t// out\n        /* \"#utility.yul\":3978:4339   */\n    tag_24:\n        /* \"#utility.yul\":4115:4119   */\n      0x00\n        /* \"#utility.yul\":4153:4155   */\n      0x20\n        /* \"#utility.yul\":4142:4151   */\n      dup3\n        /* \"#utility.yul\":4138:4156   */\n      add\n        /* \"#utility.yul\":4130:4156   */\n      swap1\n      pop\n        /* \"#utility.yul\":4202:4211   */\n      dup2\n        /* \"#utility.yul\":4196:4200   */\n      dup2\n        /* \"#utility.yul\":4192:4212   */\n      sub\n        /* \"#utility.yul\":4188:4189   */\n      0x00\n        /* \"#utility.yul\":4177:4186   */\n      dup4\n        /* \"#utility.yul\":4173:4190   */\n      add\n        /* \"#utility.yul\":4166:4213   */\n      mstore\n        /* \"#utility.yul\":4230:4332   */\n      tag_140\n        /* \"#utility.yul\":4327:4331   */\n      dup2\n        /* \"#utility.yul\":4318:4324   */\n      dup5\n        /* \"#utility.yul\":4230:4332   */\n      tag_71\n      jump\t// in\n    tag_140:\n        /* \"#utility.yul\":4222:4332   */\n      swap1\n      pop\n        /* \"#utility.yul\":3978:4339   */\n      swap3\n      swap2\n      pop\n      pop\n      jump\t// out\n        /* \"#utility.yul\":4345:4567   */\n    tag_28:\n        /* \"#utility.yul\":4438:4442   */\n      0x00\n        /* \"#utility.yul\":4476:4478   */\n      0x20\n        /* \"#utility.yul\":4465:4474   */\n      dup3\n        /* \"#utility.yul\":4461:4479   */\n      add\n        /* \"#utility.yul\":4453:4479   */\n      swap1\n      pop\n        /* \"#utility.yul\":4489:4560   */\n      tag_142\n        /* \"#utility.yul\":4557:4558   */\n      0x00\n        /* \"#utility.yul\":4546:4555   */\n      dup4\n        /* \"#utility.yul\":4542:4559   */\n      add\n        /* \"#utility.yul\":4533:4539   */\n      dup5\n        /* \"#utility.yul\":4489:4560   */\n      tag_66\n      jump\t// in\n    tag_142:\n        /* \"#utility.yul\":4345:4567   */\n      swap3\n      swap2\n      pop\n      pop\n      jump\t// out\n        /* \"#utility.yul\":4654:4771   */\n    tag_73:\n        /* \"#utility.yul\":4763:4764   */\n      0x00\n        /* \"#utility.yul\":4760:4761   */\n      dup1\n        /* \"#utility.yul\":4753:4765   */\n      revert\n        /* \"#utility.yul\":4777:4894   */\n    tag_74:\n        /* \"#utility.yul\":4886:4887   */\n      0x00\n        /* \"#utility.yul\":4883:4884   */\n      dup1\n        /* \"#utility.yul\":4876:4888   */\n      revert\n        /* \"#utility.yul\":4900:5017   */\n    tag_75:\n        /* \"#utility.yul\":5009:5010   */\n      0x00\n        /* \"#utility.yul\":5006:5007   */\n      dup1\n        /* \"#utility.yul\":4999:5011   */\n      revert\n        /* \"#utility.yul\":5023:5140   */\n    tag_76:\n        /* \"#utility.yul\":5132:5133   */\n      0x00\n        /* \"#utility.yul\":5129:5130   */\n      dup1\n        /* \"#utility.yul\":5122:5134   */\n      revert\n        /* \"#utility.yul\":5146:5263   */\n    tag_77:\n        /* \"#utility.yul\":5255:5256   */\n      0x00\n        /* \"#utility.yul\":5252:5253   */\n      dup1\n        /* \"#utility.yul\":5245:5257   */\n      revert\n        /* \"#utility.yul\":5283:5836   */\n    tag_78:\n        /* \"#utility.yul\":5341:5349   */\n      0x00\n        /* \"#utility.yul\":5351:5357   */\n      dup1\n        /* \"#utility.yul\":5401:5404   */\n      dup4\n        /* \"#utility.yul\":5394:5398   */\n      0x1f\n        /* \"#utility.yul\":5386:5392   */\n      dup5\n        /* \"#utility.yul\":5382:5399   */\n      add\n        /* \"#utility.yul\":5378:5405   */\n      slt\n        /* \"#utility.yul\":5368:5490   */\n      tag_150\n      jumpi\n        /* \"#utility.yul\":5409:5488   */\n      tag_151\n      tag_75\n      jump\t// in\n    tag_151:\n        /* \"#utility.yul\":5368:5490   */\n    tag_150:\n        /* \"#utility.yul\":5522:5528   */\n      dup3\n        /* \"#utility.yul\":5509:5529   */\n      calldataload\n        /* \"#utility.yul\":5499:5529   */\n      swap1\n      pop\n        /* \"#utility.yul\":5552:5570   */\n      0xffffffffffffffff\n        /* \"#utility.yul\":5544:5550   */\n      dup2\n        /* \"#utility.yul\":5541:5571   */\n      gt\n        /* \"#utility.yul\":5538:5655   */\n      iszero\n      tag_152\n      jumpi\n        /* \"#utility.yul\":5574:5653   */\n      tag_153\n      tag_76\n      jump\t// in\n    tag_153:\n        /* \"#utility.yul\":5538:5655   */\n    tag_152:\n        /* \"#utility.yul\":5688:5692   */\n      0x20\n        /* \"#utility.yul\":5680:5686   */\n      dup4\n        /* \"#utility.yul\":5676:5693   */\n      add\n        /* \"#utility.yul\":5664:5693   */\n      swap2\n      pop\n        /* \"#utility.yul\":5742:5745   */\n      dup4\n        /* \"#utility.yul\":5734:5738   */\n      0x01\n        /* \"#utility.yul\":5726:5732   */\n      dup3\n        /* \"#utility.yul\":5722:5739   */\n      mul\n        /* \"#utility.yul\":5712:5720   */\n      dup4\n        /* \"#utility.yul\":5708:5740   */\n      add\n        /* \"#utility.yul\":5705:5746   */\n      gt\n        /* \"#utility.yul\":5702:5830   */\n      iszero\n      tag_154\n      jumpi\n        /* \"#utility.yul\":5749:5828   */\n      tag_155\n      tag_77\n      jump\t// in\n    tag_155:\n        /* \"#utility.yul\":5702:5830   */\n    tag_154:\n        /* \"#utility.yul\":5283:5836   */\n      swap3\n      pop\n      swap3\n      swap1\n      pop\n      jump\t// out\n        /* \"#utility.yul\":5842:5964   */\n    tag_79:\n        /* \"#utility.yul\":5915:5939   */\n      tag_157\n        /* \"#utility.yul\":5933:5938   */\n      dup2\n        /* \"#utility.yul\":5915:5939   */\n      tag_65\n      jump\t// in\n    tag_157:\n        /* \"#utility.yul\":5908:5913   */\n      dup2\n        /* \"#utility.yul\":5905:5940   */\n      eq\n        /* \"#utility.yul\":5895:5958   */\n      tag_158\n      jumpi\n        /* \"#utility.yul\":5954:5955   */\n      0x00\n        /* \"#utility.yul\":5951:5952   */\n      dup1\n        /* \"#utility.yul\":5944:5956   */\n      revert\n        /* \"#utility.yul\":5895:5958   */\n    tag_158:\n        /* \"#utility.yul\":5842:5964   */\n      pop\n      jump\t// out\n        /* \"#utility.yul\":5970:6109   */\n    tag_80:\n        /* \"#utility.yul\":6016:6021   */\n      0x00\n        /* \"#utility.yul\":6054:6060   */\n      dup2\n        /* \"#utility.yul\":6041:6061   */\n      calldataload\n        /* \"#utility.yul\":6032:6061   */\n      swap1\n      pop\n        /* \"#utility.yul\":6070:6103   */\n      tag_160\n        /* \"#utility.yul\":6097:6102   */\n      dup2\n        /* \"#utility.yul\":6070:6103   */\n      tag_79\n      jump\t// in\n    tag_160:\n        /* \"#utility.yul\":5970:6109   */\n      swap3\n      swap2\n      pop\n      pop\n      jump\t// out\n        /* \"#utility.yul\":6115:6231   */\n    tag_81:\n        /* \"#utility.yul\":6185:6206   */\n      tag_162\n        /* \"#utility.yul\":6200:6205   */\n      dup2\n        /* \"#utility.yul\":6185:6206   */\n      tag_63\n      jump\t// in\n    tag_162:\n        /* \"#utility.yul\":6178:6183   */\n      dup2\n        /* \"#utility.yul\":6175:6207   */\n      eq\n        /* \"#utility.yul\":6165:6225   */\n      tag_163\n      jumpi\n        /* \"#utility.yul\":6221:6222   */\n      0x00\n        /* \"#utility.yul\":6218:6219   */\n      dup1\n        /* \"#utility.yul\":6211:6223   */\n      revert\n        /* \"#utility.yul\":6165:6225   */\n    tag_163:\n        /* \"#utility.yul\":6115:6231   */\n      pop\n      jump\t// out\n        /* \"#utility.yul\":6237:6370   */\n    tag_82:\n        /* \"#utility.yul\":6280:6285   */\n      0x00\n        /* \"#utility.yul\":6318:6324   */\n      dup2\n        /* \"#utility.yul\":6305:6325   */\n      calldataload\n        /* \"#utility.yul\":6296:6325   */\n      swap1\n      pop\n        /* \"#utility.yul\":6334:6364   */\n      tag_165\n        /* \"#utility.yul\":6358:6363   */\n      dup2\n        /* \"#utility.yul\":6334:6364   */\n      tag_81\n      jump\t// in\n    tag_165:\n        /* \"#utility.yul\":6237:6370   */\n      swap3\n      swap2\n      pop\n      pop\n      jump\t// out\n        /* \"#utility.yul\":6376:7189   */\n    tag_31:\n        /* \"#utility.yul\":6462:6468   */\n      0x00\n        /* \"#utility.yul\":6470:6476   */\n      dup1\n        /* \"#utility.yul\":6478:6484   */\n      0x00\n        /* \"#utility.yul\":6486:6492   */\n      dup1\n        /* \"#utility.yul\":6535:6537   */\n      0x60\n        /* \"#utility.yul\":6523:6532   */\n      dup6\n        /* \"#utility.yul\":6514:6521   */\n      dup8\n        /* \"#utility.yul\":6510:6533   */\n      sub\n        /* \"#utility.yul\":6506:6538   */\n      slt\n        /* \"#utility.yul\":6503:6622   */\n      iszero\n      tag_167\n      jumpi\n        /* \"#utility.yul\":6541:6620   */\n      tag_168\n      tag_73\n      jump\t// in\n    tag_168:\n        /* \"#utility.yul\":6503:6622   */\n    tag_167:\n        /* \"#utility.yul\":6689:6690   */\n      0x00\n        /* \"#utility.yul\":6678:6687   */\n      dup6\n        /* \"#utility.yul\":6674:6691   */\n      add\n        /* \"#utility.yul\":6661:6692   */\n      calldataload\n        /* \"#utility.yul\":6719:6737   */\n      0xffffffffffffffff\n        /* \"#utility.yul\":6711:6717   */\n      dup2\n        /* \"#utility.yul\":6708:6738   */\n      gt\n        /* \"#utility.yul\":6705:6822   */\n      iszero\n      tag_169\n      jumpi\n        /* \"#utility.yul\":6741:6820   */\n      tag_170\n      tag_74\n      jump\t// in\n    tag_170:\n        /* \"#utility.yul\":6705:6822   */\n    tag_169:\n        /* \"#utility.yul\":6854:6919   */\n      tag_171\n        /* \"#utility.yul\":6911:6918   */\n      dup8\n        /* \"#utility.yul\":6902:6908   */\n      dup3\n        /* \"#utility.yul\":6891:6900   */\n      dup9\n        /* \"#utility.yul\":6887:6909   */\n      add\n        /* \"#utility.yul\":6854:6919   */\n      tag_78\n      jump\t// in\n    tag_171:\n        /* \"#utility.yul\":6836:6919   */\n      swap5\n      pop\n      swap5\n      pop\n        /* \"#utility.yul\":6632:6929   */\n      pop\n        /* \"#utility.yul\":6968:6970   */\n      0x20\n        /* \"#utility.yul\":6994:7047   */\n      tag_172\n        /* \"#utility.yul\":7039:7046   */\n      dup8\n        /* \"#utility.yul\":7030:7036   */\n      dup3\n        /* \"#utility.yul\":7019:7028   */\n      dup9\n        /* \"#utility.yul\":7015:7037   */\n      add\n        /* \"#utility.yul\":6994:7047   */\n      tag_80\n      jump\t// in\n    tag_172:\n        /* \"#utility.yul\":6984:7047   */\n      swap3\n      pop\n        /* \"#utility.yul\":6939:7057   */\n      pop\n        /* \"#utility.yul\":7096:7098   */\n      0x40\n        /* \"#utility.yul\":7122:7172   */\n      tag_173\n        /* \"#utility.yul\":7164:7171   */\n      dup8\n        /* \"#utility.yul\":7155:7161   */\n      dup3\n        /* \"#utility.yul\":7144:7153   */\n      dup9\n        /* \"#utility.yul\":7140:7162   */\n      add\n        /* \"#utility.yul\":7122:7172   */\n      tag_82\n      jump\t// in\n    tag_173:\n        /* \"#utility.yul\":7112:7172   */\n      swap2\n      pop\n        /* \"#utility.yul\":7067:7182   */\n      pop\n        /* \"#utility.yul\":6376:7189   */\n      swap3\n      swap6\n      swap2\n      swap5\n      pop\n      swap3\n      pop\n      jump\t// out\n        /* \"#utility.yul\":7195:7375   */\n    tag_83:\n        /* \"#utility.yul\":7243:7320   */\n      0x4e487b7100000000000000000000000000000000000000000000000000000000\n        /* \"#utility.yul\":7240:7241   */\n      0x00\n        /* \"#utility.yul\":7233:7321   */\n      mstore\n        /* \"#utility.yul\":7340:7344   */\n      0x22\n        /* \"#utility.yul\":7337:7338   */\n      0x04\n        /* \"#utility.yul\":7330:7345   */\n      mstore\n        /* \"#utility.yul\":7364:7368   */\n      0x24\n        /* \"#utility.yul\":7361:7362   */\n      0x00\n        /* \"#utility.yul\":7354:7369   */\n      revert\n        /* \"#utility.yul\":7381:7701   */\n    tag_35:\n        /* \"#utility.yul\":7425:7431   */\n      0x00\n        /* \"#utility.yul\":7462:7463   */\n      0x02\n        /* \"#utility.yul\":7456:7460   */\n      dup3\n        /* \"#utility.yul\":7452:7464   */\n      div\n        /* \"#utility.yul\":7442:7464   */\n      swap1\n      pop\n        /* \"#utility.yul\":7509:7510   */\n      0x01\n        /* \"#utility.yul\":7503:7507   */\n      dup3\n        /* \"#utility.yul\":7499:7511   */\n      and\n        /* \"#utility.yul\":7530:7548   */\n      dup1\n        /* \"#utility.yul\":7520:7601   */\n      tag_176\n      jumpi\n        /* \"#utility.yul\":7586:7590   */\n      0x7f\n        /* \"#utility.yul\":7578:7584   */\n      dup3\n        /* \"#utility.yul\":7574:7591   */\n      and\n        /* \"#utility.yul\":7564:7591   */\n      swap2\n      pop\n        /* \"#utility.yul\":7520:7601   */\n    tag_176:\n        /* \"#utility.yul\":7648:7650   */\n      0x20\n        /* \"#utility.yul\":7640:7646   */\n      dup3\n        /* \"#utility.yul\":7637:7651   */\n      lt\n        /* \"#utility.yul\":7617:7635   */\n      dup2\n        /* \"#utility.yul\":7614:7652   */\n      sub\n        /* \"#utility.yul\":7611:7695   */\n      tag_177\n      jumpi\n        /* \"#utility.yul\":7667:7685   */\n      tag_178\n      tag_83\n      jump\t// in\n    tag_178:\n        /* \"#utility.yul\":7611:7695   */\n    tag_177:\n        /* \"#utility.yul\":7432:7701   */\n      pop\n        /* \"#utility.yul\":7381:7701   */\n      swap2\n      swap1\n      pop\n      jump\t// out\n        /* \"#utility.yul\":7707:7804   */\n    tag_84:\n        /* \"#utility.yul\":7766:7772   */\n      0x00\n        /* \"#utility.yul\":7794:7797   */\n      dup3\n        /* \"#utility.yul\":7784:7797   */\n      swap1\n      pop\n        /* \"#utility.yul\":7707:7804   */\n      swap3\n      swap2\n      pop\n      pop\n      jump\t// out\n        /* \"#utility.yul\":7810:7990   */\n    tag_85:\n        /* \"#utility.yul\":7858:7935   */\n      0x4e487b7100000000000000000000000000000000000000000000000000000000\n        /* \"#utility.yul\":7855:7856   */\n      0x00\n        /* \"#utility.yul\":7848:7936   */\n      mstore\n        /* \"#utility.yul\":7955:7959   */\n      0x41\n        /* \"#utility.yul\":7952:7953   */\n      0x04\n        /* \"#utility.yul\":7945:7960   */\n      mstore\n        /* \"#utility.yul\":7979:7983   */\n      0x24\n        /* \"#utility.yul\":7976:7977   */\n      0x00\n        /* \"#utility.yul\":7969:7984   */\n      revert\n        /* \"#utility.yul\":7996:8137   */\n    tag_86:\n        /* \"#utility.yul\":8045:8049   */\n      0x00\n        /* \"#utility.yul\":8068:8071   */\n      dup2\n        /* \"#utility.yul\":8060:8071   */\n      swap1\n      pop\n        /* \"#utility.yul\":8091:8094   */\n      dup2\n        /* \"#utility.yul\":8088:8089   */\n      0x00\n        /* \"#utility.yul\":8081:8095   */\n      mstore\n        /* \"#utility.yul\":8125:8129   */\n      0x20\n        /* \"#utility.yul\":8122:8123   */\n      0x00\n        /* \"#utility.yul\":8112:8130   */\n      keccak256\n        /* \"#utility.yul\":8104:8130   */\n      swap1\n      pop\n        /* \"#utility.yul\":7996:8137   */\n      swap2\n      swap1\n      pop\n      jump\t// out\n        /* \"#utility.yul\":8143:8236   */\n    tag_87:\n        /* \"#utility.yul\":8180:8186   */\n      0x00\n        /* \"#utility.yul\":8227:8229   */\n      0x20\n        /* \"#utility.yul\":8222:8224   */\n      0x1f\n        /* \"#utility.yul\":8215:8220   */\n      dup4\n        /* \"#utility.yul\":8211:8225   */\n      add\n        /* \"#utility.yul\":8207:8230   */\n      div\n        /* \"#utility.yul\":8197:8230   */\n      swap1\n      pop\n        /* \"#utility.yul\":8143:8236   */\n      swap2\n      swap1\n      pop\n      jump\t// out\n        /* \"#utility.yul\":8242:8349   */\n    tag_88:\n        /* \"#utility.yul\":8286:8294   */\n      0x00\n        /* \"#utility.yul\":8336:8341   */\n      dup3\n        /* \"#utility.yul\":8330:8334   */\n      dup3\n        /* \"#utility.yul\":8326:8342   */\n      shl\n        /* \"#utility.yul\":8305:8342   */\n      swap1\n      pop\n        /* \"#utility.yul\":8242:8349   */\n      swap3\n      swap2\n      pop\n      pop\n      jump\t// out\n        /* \"#utility.yul\":8355:8748   */\n    tag_89:\n        /* \"#utility.yul\":8424:8430   */\n      0x00\n        /* \"#utility.yul\":8474:8475   */\n      0x08\n        /* \"#utility.yul\":8462:8472   */\n      dup4\n        /* \"#utility.yul\":8458:8476   */\n      mul\n        /* \"#utility.yul\":8497:8594   */\n      tag_185\n        /* \"#utility.yul\":8527:8593   */\n      0xffffffffffffffffffffffffffffffffffffffffffffffffffffffffffffffff\n        /* \"#utility.yul\":8516:8525   */\n      dup3\n        /* \"#utility.yul\":8497:8594   */\n      tag_88\n      jump\t// in\n    tag_185:\n        /* \"#utility.yul\":8615:8654   */\n      tag_186\n        /* \"#utility.yul\":8645:8653   */\n      dup7\n        /* \"#utility.yul\":8634:8643   */\n      dup4\n        /* \"#utility.yul\":8615:8654   */\n      tag_88\n      jump\t// in\n    tag_186:\n        /* \"#utility.yul\":8603:8654   */\n      swap6\n      pop\n        /* \"#utility.yul\":8687:8691   */\n      dup1\n        /* \"#utility.yul\":8683:8692   */\n      not\n        /* \"#utility.yul\":8676:8681   */\n      dup5\n        /* \"#utility.yul\":8672:8693   */\n      and\n        /* \"#utility.yul\":8663:8693   */\n      swap4\n      pop\n        /* \"#utility.yul\":8736:8740   */\n      dup1\n        /* \"#utility.yul\":8726:8734   */\n      dup7\n        /* \"#utility.yul\":8722:8741   */\n      and\n        /* \"#utility.yul\":8715:8720   */\n      dup5\n        /* \"#utility.yul\":8712:8742   */\n      or\n        /* \"#utility.yul\":8702:8742   */\n      swap3\n      pop\n        /* \"#utility.yul\":8431:8748   */\n      pop\n      pop\n        /* \"#utility.yul\":8355:8748   */\n      swap4\n      swap3\n      pop\n      pop\n      pop\n      jump\t// out\n        /* \"#utility.yul\":8754:8814   */\n    tag_90:\n        /* \"#utility.yul\":8782:8785   */\n      0x00\n        /* \"#utility.yul\":8803:8808   */\n      dup2\n        /* \"#utility.yul\":8796:8808   */\n      swap1\n      pop\n        /* \"#utility.yul\":8754:8814   */\n      swap2\n      swap1\n      pop\n      jump\t// out\n        /* \"#utility.yul\":8820:8962   */\n    tag_91:\n        /* \"#utility.yul\":8870:8879   */\n      0x00\n        /* \"#utility.yul\":8903:8956   */\n      tag_189\n        /* \"#utility.yul\":8921:8955   */\n      tag_190\n        /* \"#utility.yul\":8930:8954   */\n      tag_191\n        /* \"#utility.yul\":8948:8953   */\n      dup5\n        /* \"#utility.yul\":8930:8954   */\n      tag_65\n      jump\t// in\n    tag_191:\n        /* \"#utility.yul\":8921:8955   */\n      tag_90\n      jump\t// in\n    tag_190:\n        /* \"#utility.yul\":8903:8956   */\n      tag_65\n      jump\t// in\n    tag_189:\n        /* \"#utility.yul\":8890:8956   */\n      swap1\n      pop\n        /* \"#utility.yul\":8820:8962   */\n      swap2\n      swap1\n      pop\n      jump\t// out\n        /* \"#utility.yul\":8968:9043   */\n    tag_92:\n        /* \"#utility.yul\":9011:9014   */\n      0x00\n        /* \"#utility.yul\":9032:9037   */\n      dup2\n        /* \"#utility.yul\":9025:9037   */\n      swap1\n      pop\n        /* \"#utility.yul\":8968:9043   */\n      swap2\n      swap1\n      pop\n      jump\t// out\n        /* \"#utility.yul\":9049:9318   */\n    tag_93:\n        /* \"#utility.yul\":9159:9198   */\n      tag_194\n        /* \"#utility.yul\":9190:9197   */\n      dup4\n        /* \"#utility.yul\":9159:9198   */\n      tag_91\n      jump\t// in\n    tag_194:\n        /* \"#utility.yul\":9220:9311   */\n      tag_195\n        /* \"#utility.yul\":9269:9310   */\n      tag_196\n        /* \"#utility.yul\":9293:9309   */\n      dup3\n        /* \"#utility.yul\":9269:9310   */\n      tag_92\n      jump\t// in\n    tag_196:\n        /* \"#utility.yul\":9261:9267   */\n      dup5\n        /* \"#utility.yul\":9254:9258   */\n      dup5\n        /* \"#utility.yul\":9248:9259   */\n      sload\n        /* \"#utility.yul\":9220:9311   */\n      tag_89\n      jump\t// in\n    tag_195:\n        /* \"#utility.yul\":9214:9218   */\n      dup3\n        /* \"#utility.yul\":9207:9312   */\n      sstore\n        /* \"#utility.yul\":9125:9318   */\n      pop\n        /* \"#utility.yul\":9049:9318   */\n      pop\n      pop\n      pop\n      jump\t// out\n        /* \"#utility.yul\":9324:9397   */\n    tag_94:\n        /* \"#utility.yul\":9369:9372   */\n      0x00\n        /* \"#utility.yul\":9324:9397   */\n      swap1\n      jump\t// out\n        /* \"#utility.yul\":9403:9592   */\n    tag_95:\n        /* \"#utility.yul\":9480:9512   */\n      tag_199\n      tag_94\n      jump\t// in\n    tag_199:\n        /* \"#utility.yul\":9521:9586   */\n      tag_200\n        /* \"#utility.yul\":9579:9585   */\n      dup2\n        /* \"#utility.yul\":9571:9577   */\n      dup5\n        /* \"#utility.yul\":9565:9569   */\n      dup5\n        /* \"#utility.yul\":9521:9586   */\n      tag_93\n      jump\t// in\n    tag_200:\n        /* \"#utility.yul\":9456:9592   */\n      pop\n        /* \"#utility.yul\":9403:9592   */\n      pop\n      pop\n      jump\t// out\n        /* \"#utility.yul\":9598:9784   */\n    tag_96:\n        /* \"#utility.yul\":9658:9778   */\n    tag_202:\n        /* \"#utility.yul\":9675:9678   */\n      dup2\n        /* \"#utility.yul\":9668:9673   */\n      dup2\n        /* \"#utility.yul\":9665:9679   */\n      lt\n        /* \"#utility.yul\":9658:9778   */\n      iszero\n      tag_204\n      jumpi\n        /* \"#utility.yul\":9729:9768   */\n      tag_205\n        /* \"#utility.yul\":9766:9767   */\n      0x00\n        /* \"#utility.yul\":9759:9764   */\n      dup3\n        /* \"#utility.yul\":9729:9768   */\n      tag_95\n      jump\t// in\n    tag_205:\n        /* \"#utility.yul\":9702:9703   */\n      0x01\n        /* \"#utility.yul\":9695:9700   */\n      dup2\n        /* \"#utility.yul\":9691:9704   */\n      add\n        /* \"#utility.yul\":9682:9704   */\n      swap1\n      pop\n        /* \"#utility.yul\":9658:9778   */\n      jump(tag_202)\n    tag_204:\n        /* \"#utility.yul\":9598:9784   */\n      pop\n      pop\n      jump\t// out\n        /* \"#utility.yul\":9790:10333   */\n    tag_97:\n        /* \"#utility.yul\":9891:9893   */\n      0x1f\n        /* \"#utility.yul\":9886:9889   */\n      dup3\n        /* \"#utility.yul\":9883:9894   */\n      gt\n        /* \"#utility.yul\":9880:10326   */\n      iszero\n      tag_207\n      jumpi\n        /* \"#utility.yul\":9925:9963   */\n      tag_208\n        /* \"#utility.yul\":9957:9962   */\n      dup2\n        /* \"#utility.yul\":9925:9963   */\n      tag_86\n      jump\t// in\n    tag_208:\n        /* \"#utility.yul\":10009:10038   */\n      tag_209\n        /* \"#utility.yul\":10027:10037   */\n      dup5\n        /* \"#utility.yul\":10009:10038   */\n      tag_87\n      jump\t// in\n    tag_209:\n        /* \"#utility.yul\":9999:10007   */\n      dup2\n        /* \"#utility.yul\":9995:10039   */\n      add\n        /* \"#utility.yul\":10192:10194   */\n      0x20\n        /* \"#utility.yul\":10180:10190   */\n      dup6\n        /* \"#utility.yul\":10177:10195   */\n      lt\n        /* \"#utility.yul\":10174:10223   */\n      iszero\n      tag_210\n      jumpi\n        /* \"#utility.yul\":10213:10221   */\n      dup2\n        /* \"#utility.yul\":10198:10221   */\n      swap1\n      pop\n        /* \"#utility.yul\":10174:10223   */\n    tag_210:\n        /* \"#utility.yul\":10236:10316   */\n      tag_211\n        /* \"#utility.yul\":10292:10314   */\n      tag_212\n        /* \"#utility.yul\":10310:10313   */\n      dup6\n        /* \"#utility.yul\":10292:10314   */\n      tag_87\n      jump\t// in\n    tag_212:\n        /* \"#utility.yul\":10282:10290   */\n      dup4\n        /* \"#utility.yul\":10278:10315   */\n      add\n        /* \"#utility.yul\":10265:10276   */\n      dup3\n        /* \"#utility.yul\":10236:10316   */\n      tag_96\n      jump\t// in\n    tag_211:\n        /* \"#utility.yul\":9895:10326   */\n      pop\n      pop\n        /* \"#utility.yul\":9880:10326   */\n    tag_207:\n        /* \"#utility.yul\":9790:10333   */\n      pop\n      pop\n      pop\n      jump\t// out\n        /* \"#utility.yul\":10339:10456   */\n    tag_98:\n        /* \"#utility.yul\":10393:10401   */\n      0x00\n        /* \"#utility.yul\":10443:10448   */\n      dup3\n        /* \"#utility.yul\":10437:10441   */\n      dup3\n        /* \"#utility.yul\":10433:10449   */\n      shr\n        /* \"#utility.yul\":10412:10449   */\n      swap1\n      pop\n        /* \"#utility.yul\":10339:10456   */\n      swap3\n      swap2\n      pop\n      pop\n      jump\t// out\n        /* \"#utility.yul\":10462:10631   */\n    tag_99:\n        /* \"#utility.yul\":10506:10512   */\n      0x00\n        /* \"#utility.yul\":10539:10590   */\n      tag_215\n        /* \"#utility.yul\":10587:10588   */\n      0x00\n        /* \"#utility.yul\":10583:10589   */\n      not\n        /* \"#utility.yul\":10575:10580   */\n      dup5\n        /* \"#utility.yul\":10572:10573   */\n      0x08\n        /* \"#utility.yul\":10568:10581   */\n      mul\n        /* \"#utility.yul\":10539:10590   */\n      tag_98\n      jump\t// in\n    tag_215:\n        /* \"#utility.yul\":10535:10591   */\n      not\n        /* \"#utility.yul\":10620:10624   */\n      dup1\n        /* \"#utility.yul\":10614:10618   */\n      dup4\n        /* \"#utility.yul\":10610:10625   */\n      and\n        /* \"#utility.yul\":10600:10625   */\n      swap2\n      pop\n        /* \"#utility.yul\":10513:10631   */\n      pop\n        /* \"#utility.yul\":10462:10631   */\n      swap3\n      swap2\n      pop\n      pop\n      jump\t// out\n        /* \"#utility.yul\":10636:10931   */\n    tag_100:\n        /* \"#utility.yul\":10712:10716   */\n      0x00\n        /* \"#utility.yul\":10858:10887   */\n      tag_217\n        /* \"#utility.yul\":10883:10886   */\n      dup4\n        /* \"#utility.yul\":10877:10881   */\n      dup4\n        /* \"#utility.yul\":10858:10887   */\n      tag_99\n      jump\t// in\n    tag_217:\n        /* \"#utility.yul\":10850:10887   */\n      swap2\n      pop\n        /* \"#utility.yul\":10920:10923   */\n      dup3\n        /* \"#utility.yul\":10917:10918   */\n      0x02\n        /* \"#utility.yul\":10913:10924   */\n      mul\n        /* \"#utility.yul\":10907:10911   */\n      dup3\n        /* \"#utility.yul\":10904:10925   */\n      or\n        /* \"#utility.yul\":10896:10925   */\n      swap1\n      pop\n        /* \"#utility.yul\":10636:10931   */\n      swap3\n      swap2\n      pop\n      pop\n      jump\t// out\n        /* \"#utility.yul\":10936:12339   */\n    tag_57:\n        /* \"#utility.yul\":11060:11104   */\n      tag_219\n        /* \"#utility.yul\":11100:11103   */\n      dup4\n        /* \"#utility.yul\":11095:11098   */\n      dup4\n        /* \"#utility.yul\":11060:11104   */\n      tag_84\n      jump\t// in\n    tag_219:\n        /* \"#utility.yul\":11169:11187   */\n      0xffffffffffffffff\n        /* \"#utility.yul\":11161:11167   */\n      dup2\n        /* \"#utility.yul\":11158:11188   */\n      gt\n        /* \"#utility.yul\":11155:11211   */\n      iszero\n      tag_220\n      jumpi\n        /* \"#utility.yul\":11191:11209   */\n      tag_221\n      tag_85\n      jump\t// in\n    tag_221:\n        /* \"#utility.yul\":11155:11211   */\n    tag_220:\n        /* \"#utility.yul\":11235:11273   */\n      tag_222\n        /* \"#utility.yul\":11267:11271   */\n      dup3\n        /* \"#utility.yul\":11261:11272   */\n      sload\n        /* \"#utility.yul\":11235:11273   */\n      tag_35\n      jump\t// in\n    tag_222:\n        /* \"#utility.yul\":11320:11387   */\n      tag_223\n        /* \"#utility.yul\":11380:11386   */\n      dup3\n        /* \"#utility.yul\":11372:11378   */\n      dup3\n        /* \"#utility.yul\":11366:11370   */\n      dup6\n        /* \"#utility.yul\":11320:11387   */\n      tag_97\n      jump\t// in\n    tag_223:\n        /* \"#utility.yul\":11414:11415   */\n      0x00\n        /* \"#utility.yul\":11443:11445   */\n      0x1f\n        /* \"#utility.yul\":11435:11441   */\n      dup4\n        /* \"#utility.yul\":11432:11446   */\n      gt\n        /* \"#utility.yul\":11460:11461   */\n      0x01\n        /* \"#utility.yul\":11455:12087   */\n      dup2\n      eq\n      tag_225\n      jumpi\n        /* \"#utility.yul\":12131:12132   */\n      0x00\n        /* \"#utility.yul\":12148:12154   */\n      dup5\n        /* \"#utility.yul\":12145:12229   */\n      iszero\n      tag_226\n      jumpi\n        /* \"#utility.yul\":12204:12213   */\n      dup3\n        /* \"#utility.yul\":12199:12202   */\n      dup8\n        /* \"#utility.yul\":12195:12214   */\n      add\n        /* \"#utility.yul\":12182:12215   */\n      calldataload\n        /* \"#utility.yul\":12173:12215   */\n      swap1\n      pop\n        /* \"#utility.yul\":12145:12229   */\n    tag_226:\n        /* \"#utility.yul\":12255:12322   */\n      tag_227\n        /* \"#utility.yul\":12315:12321   */\n      dup6\n        /* \"#utility.yul\":12308:12313   */\n      dup3\n        /* \"#utility.yul\":12255:12322   */\n      tag_100\n      jump\t// in\n    tag_227:\n        /* \"#utility.yul\":12249:12253   */\n      dup7\n        /* \"#utility.yul\":12242:12323   */\n      sstore\n        /* \"#utility.yul\":12104:12333   */\n      pop\n        /* \"#utility.yul\":11425:12333   */\n      jump(tag_224)\n        /* \"#utility.yul\":11455:12087   */\n    tag_225:\n        /* \"#utility.yul\":11507:11511   */\n      0x1f\n        /* \"#utility.yul\":11503:11512   */\n      not\n        /* \"#utility.yul\":11495:11501   */\n      dup5\n        /* \"#utility.yul\":11491:11513   */\n      and\n        /* \"#utility.yul\":11541:11578   */\n      tag_228\n        /* \"#utility.yul\":11573:11577   */\n      dup7\n        /* \"#utility.yul\":11541:11578   */\n      tag_86\n      jump\t// in\n    tag_228:\n        /* \"#utility.yul\":11600:11601   */\n      0x00\n        /* \"#utility.yul\":11614:11829   */\n    tag_229:\n        /* \"#utility.yul\":11628:11635   */\n      dup3\n        /* \"#utility.yul\":11625:11626   */\n      dup2\n        /* \"#utility.yul\":11622:11636   */\n      lt\n        /* \"#utility.yul\":11614:11829   */\n      iszero\n      tag_231\n      jumpi\n        /* \"#utility.yul\":11714:11723   */\n      dup5\n        /* \"#utility.yul\":11709:11712   */\n      dup10\n        /* \"#utility.yul\":11705:11724   */\n      add\n        /* \"#utility.yul\":11692:11725   */\n      calldataload\n        /* \"#utility.yul\":11684:11690   */\n      dup3\n        /* \"#utility.yul\":11677:11726   */\n      sstore\n        /* \"#utility.yul\":11765:11766   */\n      0x01\n        /* \"#utility.yul\":11757:11763   */\n      dup3\n        /* \"#utility.yul\":11753:11767   */\n      add\n        /* \"#utility.yul\":11743:11767   */\n      swap2\n      pop\n        /* \"#utility.yul\":11812:11814   */\n      0x20\n        /* \"#utility.yul\":11801:11810   */\n      dup6\n        /* \"#utility.yul\":11797:11815   */\n      add\n        /* \"#utility.yul\":11784:11815   */\n      swap5\n      pop\n        /* \"#utility.yul\":11651:11655   */\n      0x20\n        /* \"#utility.yul\":11648:11649   */\n      dup2\n        /* \"#utility.yul\":11644:11656   */\n      add\n        /* \"#utility.yul\":11639:11656   */\n      swap1\n      pop\n        /* \"#utility.yul\":11614:11829   */\n      jump(tag_229)\n    tag_231:\n        /* \"#utility.yul\":11857:11863   */\n      dup7\n        /* \"#utility.yul\":11848:11855   */\n      dup4\n        /* \"#utility.yul\":11845:11864   */\n      lt\n        /* \"#utility.yul\":11842:12028   */\n      iszero\n      tag_232\n      jumpi\n        /* \"#utility.yul\":11922:11931   */\n      dup5\n        /* \"#utility.yul\":11917:11920   */\n      dup10\n        /* \"#utility.yul\":11913:11932   */\n      add\n        /* \"#utility.yul\":11900:11933   */\n      calldataload\n        /* \"#utility.yul\":11965:12013   */\n      tag_233\n        /* \"#utility.yul\":12007:12011   */\n      0x1f\n        /* \"#utility.yul\":11999:12005   */\n      dup10\n        /* \"#utility.yul\":11995:12012   */\n      and\n        /* \"#utility.yul\":11984:11993   */\n      dup3\n        /* \"#utility.yul\":11965:12013   */\n      tag_99\n      jump\t// in\n    tag_233:\n        /* \"#utility.yul\":11957:11963   */\n      dup4\n        /* \"#utility.yul\":11950:12014   */\n      sstore\n        /* \"#utility.yul\":11865:12028   */\n      pop\n        /* \"#utility.yul\":11842:12028   */\n    tag_232:\n        /* \"#utility.yul\":12074:12075   */\n      0x01\n        /* \"#utility.yul\":12070:12071   */\n      0x02\n        /* \"#utility.yul\":12062:12068   */\n      dup9\n        /* \"#utility.yul\":12058:12072   */\n      mul\n        /* \"#utility.yul\":12054:12076   */\n      add\n        /* \"#utility.yul\":12048:12052   */\n      dup9\n        /* \"#utility.yul\":12041:12077   */\n      sstore\n        /* \"#utility.yul\":11462:12087   */\n      pop\n      pop\n      pop\n        /* \"#utility.yul\":11425:12333   */\n    tag_224:\n      pop\n        /* \"#utility.yul\":11035:12339   */\n      pop\n      pop\n      pop\n        /* \"#utility.yul\":10936:12339   */\n      pop\n      pop\n      pop\n      jump\t// out\n\n    auxdata: 0xa264697066735822122033b6bd0cb5019c68c0e4a3a5f325d2c95a497f97dd8e816d636f76d4dc1ace4e64736f6c634300081a0033\n}\n",
				"bytecode": {
					"linkReferences": {},
					"object": "6080604052348015600e575f80fd5b50610a028061001c5f395ff3fe608060405234801561000f575f80fd5b5060043610610060575f3560e01c806332ef371a146100645780634f7dea2f146100825780636cc014de146100a0578063993a04b7146100c0578063b923a9fc146100de578063c30655a2146100fc575b5f80fd5b61006c610118565b604051610079919061040d565b60405180910390f35b61008a6101a9565b6040516100979190610447565b60405180910390f35b6100a86101c0565b6040516100b793929190610478565b60405180910390f35b6100c8610268565b6040516100d59190610567565b60405180910390f35b6100e6610334565b6040516100f39190610587565b60405180910390f35b6101166004803603810190610111919061065d565b61033f565b005b60605f80018054610128906106fb565b80601f0160208091040260200160405190810160405280929190818152602001828054610154906106fb565b801561019f5780601f106101765761010080835404028352916020019161019f565b820191905f5260205f20905b81548152906001019060200180831161018257829003601f168201915b5050505050905090565b5f806002015f9054906101000a900460ff16905090565b5f805f0180546101cf906106fb565b80601f01602080910402602001604051908101604052809291908181526020018280546101fb906106fb565b80156102465780601f1061021d57610100808354040283529160200191610246565b820191905f5260205f20905b81548152906001019060200180831161022957829003601f168201915b505050505090806001015490806002015f9054906101000a900460ff16905083565b61027061037c565b5f6040518060600160405290815f8201805461028b906106fb565b80601f01602080910402602001604051908101604052809291908181526020018280546102b7906106fb565b80156103025780601f106102d957610100808354040283529160200191610302565b820191905f5260205f20905b8154815290600101906020018083116102e557829003601f168201915b5050505050815260200160018201548152602001600282015f9054906101000a900460ff161515151581525050905090565b5f8060010154905090565b83835f800191826103519291906108ff565b50815f60010181905550805f6002015f6101000a81548160ff02191690831515021790555050505050565b6040518060600160405280606081526020015f81526020015f151581525090565b5f81519050919050565b5f82825260208201905092915050565b8281835e5f83830152505050565b5f601f19601f8301169050919050565b5f6103df8261039d565b6103e981856103a7565b93506103f98185602086016103b7565b610402816103c5565b840191505092915050565b5f6020820190508181035f83015261042581846103d5565b905092915050565b5f8115159050919050565b6104418161042d565b82525050565b5f60208201905061045a5f830184610438565b92915050565b5f819050919050565b61047281610460565b82525050565b5f6060820190508181035f83015261049081866103d5565b905061049f6020830185610469565b6104ac6040830184610438565b949350505050565b5f82825260208201905092915050565b5f6104ce8261039d565b6104d881856104b4565b93506104e88185602086016103b7565b6104f1816103c5565b840191505092915050565b61050581610460565b82525050565b6105148161042d565b82525050565b5f606083015f8301518482035f86015261053482826104c4565b915050602083015161054960208601826104fc565b50604083015161055c604086018261050b565b508091505092915050565b5f6020820190508181035f83015261057f818461051a565b905092915050565b5f60208201905061059a5f830184610469565b92915050565b5f80fd5b5f80fd5b5f80fd5b5f80fd5b5f80fd5b5f8083601f8401126105c9576105c86105a8565b5b8235905067ffffffffffffffff8111156105e6576105e56105ac565b5b602083019150836001820283011115610602576106016105b0565b5b9250929050565b61061281610460565b811461061c575f80fd5b50565b5f8135905061062d81610609565b92915050565b61063c8161042d565b8114610646575f80fd5b50565b5f8135905061065781610633565b92915050565b5f805f8060608587031215610675576106746105a0565b5b5f85013567ffffffffffffffff811115610692576106916105a4565b5b61069e878288016105b4565b945094505060206106b18782880161061f565b92505060406106c287828801610649565b91505092959194509250565b7f4e487b71000000000000000000000000000000000000000000000000000000005f52602260045260245ffd5b5f600282049050600182168061071257607f821691505b602082108103610725576107246106ce565b5b50919050565b5f82905092915050565b7f4e487b71000000000000000000000000000000000000000000000000000000005f52604160045260245ffd5b5f819050815f5260205f209050919050565b5f6020601f8301049050919050565b5f82821b905092915050565b5f600883026107be7fffffffffffffffffffffffffffffffffffffffffffffffffffffffffffffffff82610783565b6107c88683610783565b95508019841693508086168417925050509392505050565b5f819050919050565b5f6108036107fe6107f984610460565b6107e0565b610460565b9050919050565b5f819050919050565b61081c836107e9565b6108306108288261080a565b84845461078f565b825550505050565b5f90565b610844610838565b61084f818484610813565b505050565b5b81811015610872576108675f8261083c565b600181019050610855565b5050565b601f8211156108b75761088881610762565b61089184610774565b810160208510156108a0578190505b6108b46108ac85610774565b830182610854565b50505b505050565b5f82821c905092915050565b5f6108d75f19846008026108bc565b1980831691505092915050565b5f6108ef83836108c8565b9150826002028217905092915050565b610909838361072b565b67ffffffffffffffff81111561092257610921610735565b5b61092c82546106fb565b610937828285610876565b5f601f831160018114610964575f8415610952578287013590505b61095c85826108e4565b8655506109c3565b601f19841661097286610762565b5f5b8281101561099957848901358255600182019150602085019450602081019050610974565b868310156109b657848901356109b2601f8916826108c8565b8355505b6001600288020188555050505b5050505050505056fea264697066735822122033b6bd0cb5019c68c0e4a3a5f325d2c95a497f97dd8e816d636f76d4dc1ace4e64736f6c634300081a0033",
					"opcodes": "PUSH1 0x80 PUSH1 0x40 MSTORE CALLVALUE DUP1 ISZERO PUSH1 0xE JUMPI PUSH0 DUP1 REVERT JUMPDEST POP PUSH2 0xA02 DUP1 PUSH2 0x1C PUSH0 CODECOPY PUSH0 RETURN INVALID PUSH1 0x80 PUSH1 0x40 MSTORE CALLVALUE DUP1 ISZERO PUSH2 0xF JUMPI PUSH0 DUP1 REVERT JUMPDEST POP PUSH1 0x4 CALLDATASIZE LT PUSH2 0x60 JUMPI PUSH0 CALLDATALOAD PUSH1 0xE0 SHR DUP1 PUSH4 0x32EF371A EQ PUSH2 0x64 JUMPI DUP1 PUSH4 0x4F7DEA2F EQ PUSH2 0x82 JUMPI DUP1 PUSH4 0x6CC014DE EQ PUSH2 0xA0 JUMPI DUP1 PUSH4 0x993A04B7 EQ PUSH2 0xC0 JUMPI DUP1 PUSH4 0xB923A9FC EQ PUSH2 0xDE JUMPI DUP1 PUSH4 0xC30655A2 EQ PUSH2 0xFC JUMPI JUMPDEST PUSH0 DUP1 REVERT JUMPDEST PUSH2 0x6C PUSH2 0x118 JUMP JUMPDEST PUSH1 0x40 MLOAD PUSH2 0x79 SWAP2 SWAP1 PUSH2 0x40D JUMP JUMPDEST PUSH1 0x40 MLOAD DUP1 SWAP2 SUB SWAP1 RETURN JUMPDEST PUSH2 0x8A PUSH2 0x1A9 JUMP JUMPDEST PUSH1 0x40 MLOAD PUSH2 0x97 SWAP2 SWAP1 PUSH2 0x447 JUMP JUMPDEST PUSH1 0x40 MLOAD DUP1 SWAP2 SUB SWAP1 RETURN JUMPDEST PUSH2 0xA8 PUSH2 0x1C0 JUMP JUMPDEST PUSH1 0x40 MLOAD PUSH2 0xB7 SWAP4 SWAP3 SWAP2 SWAP1 PUSH2 0x478 JUMP JUMPDEST PUSH1 0x40 MLOAD DUP1 SWAP2 SUB SWAP1 RETURN JUMPDEST PUSH2 0xC8 PUSH2 0x268 JUMP JUMPDEST PUSH1 0x40 MLOAD PUSH2 0xD5 SWAP2 SWAP1 PUSH2 0x567 JUMP JUMPDEST PUSH1 0x40 MLOAD DUP1 SWAP2 SUB SWAP1 RETURN JUMPDEST PUSH2 0xE6 PUSH2 0x334 JUMP JUMPDEST PUSH1 0x40 MLOAD PUSH2 0xF3 SWAP2 SWAP1 PUSH2 0x587 JUMP JUMPDEST PUSH1 0x40 MLOAD DUP1 SWAP2 SUB SWAP1 RETURN JUMPDEST PUSH2 0x116 PUSH1 0x4 DUP1 CALLDATASIZE SUB DUP2 ADD SWAP1 PUSH2 0x111 SWAP2 SWAP1 PUSH2 0x65D JUMP JUMPDEST PUSH2 0x33F JUMP JUMPDEST STOP JUMPDEST PUSH1 0x60 PUSH0 DUP1 ADD DUP1 SLOAD PUSH2 0x128 SWAP1 PUSH2 0x6FB JUMP JUMPDEST DUP1 PUSH1 0x1F ADD PUSH1 0x20 DUP1 SWAP2 DIV MUL PUSH1 0x20 ADD PUSH1 0x40 MLOAD SWAP1 DUP2 ADD PUSH1 0x40 MSTORE DUP1 SWAP3 SWAP2 SWAP1 DUP2 DUP2 MSTORE PUSH1 0x20 ADD DUP3 DUP1 SLOAD PUSH2 0x154 SWAP1 PUSH2 0x6FB JUMP JUMPDEST DUP1 ISZERO PUSH2 0x19F JUMPI DUP1 PUSH1 0x1F LT PUSH2 0x176 JUMPI PUSH2 0x100 DUP1 DUP4 SLOAD DIV MUL DUP4 MSTORE SWAP2 PUSH1 0x20 ADD SWAP2 PUSH2 0x19F JUMP JUMPDEST DUP3 ADD SWAP2 SWAP1 PUSH0 MSTORE PUSH1 0x20 PUSH0 KECCAK256 SWAP1 JUMPDEST DUP2 SLOAD DUP2 MSTORE SWAP1 PUSH1 0x1 ADD SWAP1 PUSH1 0x20 ADD DUP1 DUP4 GT PUSH2 0x182 JUMPI DUP3 SWAP1 SUB PUSH1 0x1F AND DUP3 ADD SWAP2 JUMPDEST POP POP POP POP POP SWAP1 POP SWAP1 JUMP JUMPDEST PUSH0 DUP1 PUSH1 0x2 ADD PUSH0 SWAP1 SLOAD SWAP1 PUSH2 0x100 EXP SWAP1 DIV PUSH1 0xFF AND SWAP1 POP SWAP1 JUMP JUMPDEST PUSH0 DUP1 PUSH0 ADD DUP1 SLOAD PUSH2 0x1CF SWAP1 PUSH2 0x6FB JUMP JUMPDEST DUP1 PUSH1 0x1F ADD PUSH1 0x20 DUP1 SWAP2 DIV MUL PUSH1 0x20 ADD PUSH1 0x40 MLOAD SWAP1 DUP2 ADD PUSH1 0x40 MSTORE DUP1 SWAP3 SWAP2 SWAP1 DUP2 DUP2 MSTORE PUSH1 0x20 ADD DUP3 DUP1 SLOAD PUSH2 0x1FB SWAP1 PUSH2 0x6FB JUMP JUMPDEST DUP1 ISZERO PUSH2 0x246 JUMPI DUP1 PUSH1 0x1F LT PUSH2 0x21D JUMPI PUSH2 0x100 DUP1 DUP4 SLOAD DIV MUL DUP4 MSTORE SWAP2 PUSH1 0x20 ADD SWAP2 PUSH2 0x246 JUMP JUMPDEST DUP3 ADD SWAP2 SWAP1 PUSH0 MSTORE PUSH1 0x20 PUSH0 KECCAK256 SWAP1 JUMPDEST DUP2 SLOAD DUP2 MSTORE SWAP1 PUSH1 0x1 ADD SWAP1 PUSH1 0x20 ADD DUP1 DUP4 GT PUSH2 0x229 JUMPI DUP3 SWAP1 SUB PUSH1 0x1F AND DUP3 ADD SWAP2 JUMPDEST POP POP POP POP POP SWAP1 DUP1 PUSH1 0x1 ADD SLOAD SWAP1 DUP1 PUSH1 0x2 ADD PUSH0 SWAP1 SLOAD SWAP1 PUSH2 0x100 EXP SWAP1 DIV PUSH1 0xFF AND SWAP1 POP DUP4 JUMP JUMPDEST PUSH2 0x270 PUSH2 0x37C JUMP JUMPDEST PUSH0 PUSH1 0x40 MLOAD DUP1 PUSH1 0x60 ADD PUSH1 0x40 MSTORE SWAP1 DUP2 PUSH0 DUP3 ADD DUP1 SLOAD PUSH2 0x28B SWAP1 PUSH2 0x6FB JUMP JUMPDEST DUP1 PUSH1 0x1F ADD PUSH1 0x20 DUP1 SWAP2 DIV MUL PUSH1 0x20 ADD PUSH1 0x40 MLOAD SWAP1 DUP2 ADD PUSH1 0x40 MSTORE DUP1 SWAP3 SWAP2 SWAP1 DUP2 DUP2 MSTORE PUSH1 0x20 ADD DUP3 DUP1 SLOAD PUSH2 0x2B7 SWAP1 PUSH2 0x6FB JUMP JUMPDEST DUP1 ISZERO PUSH2 0x302 JUMPI DUP1 PUSH1 0x1F LT PUSH2 0x2D9 JUMPI PUSH2 0x100 DUP1 DUP4 SLOAD DIV MUL DUP4 MSTORE SWAP2 PUSH1 0x20 ADD SWAP2 PUSH2 0x302 JUMP JUMPDEST DUP3 ADD SWAP2 SWAP1 PUSH0 MSTORE PUSH1 0x20 PUSH0 KECCAK256 SWAP1 JUMPDEST DUP2 SLOAD DUP2 MSTORE SWAP1 PUSH1 0x1 ADD SWAP1 PUSH1 0x20 ADD DUP1 DUP4 GT PUSH2 0x2E5 JUMPI DUP3 SWAP1 SUB PUSH1 0x1F AND DUP3 ADD SWAP2 JUMPDEST POP POP POP POP POP DUP2 MSTORE PUSH1 0x20 ADD PUSH1 0x1 DUP3 ADD SLOAD DUP2 MSTORE PUSH1 0x20 ADD PUSH1 0x2 DUP3 ADD PUSH0 SWAP1 SLOAD SWAP1 PUSH2 0x100 EXP SWAP1 DIV PUSH1 0xFF AND ISZERO ISZERO ISZERO ISZERO DUP2 MSTORE POP POP SWAP1 POP SWAP1 JUMP JUMPDEST PUSH0 DUP1 PUSH1 0x1 ADD SLOAD SWAP1 POP SWAP1 JUMP JUMPDEST DUP4 DUP4 PUSH0 DUP1 ADD SWAP2 DUP3 PUSH2 0x351 SWAP3 SWAP2 SWAP1 PUSH2 0x8FF JUMP JUMPDEST POP DUP2 PUSH0 PUSH1 0x1 ADD DUP2 SWAP1 SSTORE POP DUP1 PUSH0 PUSH1 0x2 ADD PUSH0 PUSH2 0x100 EXP DUP2 SLOAD DUP2 PUSH1 0xFF MUL NOT AND SWAP1 DUP4 ISZERO ISZERO MUL OR SWAP1 SSTORE POP POP POP POP POP JUMP JUMPDEST PUSH1 0x40 MLOAD DUP1 PUSH1 0x60 ADD PUSH1 0x40 MSTORE DUP1 PUSH1 0x60 DUP2 MSTORE PUSH1 0x20 ADD PUSH0 DUP2 MSTORE PUSH1 0x20 ADD PUSH0 ISZERO ISZERO DUP2 MSTORE POP SWAP1 JUMP JUMPDEST PUSH0 DUP2 MLOAD SWAP1 POP SWAP2 SWAP1 POP JUMP JUMPDEST PUSH0 DUP3 DUP3 MSTORE PUSH1 0x20 DUP3 ADD SWAP1 POP SWAP3 SWAP2 POP POP JUMP JUMPDEST DUP3 DUP2 DUP4 MCOPY PUSH0 DUP4 DUP4 ADD MSTORE POP POP POP JUMP JUMPDEST PUSH0 PUSH1 0x1F NOT PUSH1 0x1F DUP4 ADD AND SWAP1 POP SWAP2 SWAP1 POP JUMP JUMPDEST PUSH0 PUSH2 0x3DF DUP3 PUSH2 0x39D JUMP JUMPDEST PUSH2 0x3E9 DUP2 DUP6 PUSH2 0x3A7 JUMP JUMPDEST SWAP4 POP PUSH2 0x3F9 DUP2 DUP6 PUSH1 0x20 DUP7 ADD PUSH2 0x3B7 JUMP JUMPDEST PUSH2 0x402 DUP2 PUSH2 0x3C5 JUMP JUMPDEST DUP5 ADD SWAP2 POP POP SWAP3 SWAP2 POP POP JUMP JUMPDEST PUSH0 PUSH1 0x20 DUP3 ADD SWAP1 POP DUP2 DUP2 SUB PUSH0 DUP4 ADD MSTORE PUSH2 0x425 DUP2 DUP5 PUSH2 0x3D5 JUMP JUMPDEST SWAP1 POP SWAP3 SWAP2 POP POP JUMP JUMPDEST PUSH0 DUP2 ISZERO ISZERO SWAP1 POP SWAP2 SWAP1 POP JUMP JUMPDEST PUSH2 0x441 DUP2 PUSH2 0x42D JUMP JUMPDEST DUP3 MSTORE POP POP JUMP JUMPDEST PUSH0 PUSH1 0x20 DUP3 ADD SWAP1 POP PUSH2 0x45A PUSH0 DUP4 ADD DUP5 PUSH2 0x438 JUMP JUMPDEST SWAP3 SWAP2 POP POP JUMP JUMPDEST PUSH0 DUP2 SWAP1 POP SWAP2 SWAP1 POP JUMP JUMPDEST PUSH2 0x472 DUP2 PUSH2 0x460 JUMP JUMPDEST DUP3 MSTORE POP POP JUMP JUMPDEST PUSH0 PUSH1 0x60 DUP3 ADD SWAP1 POP DUP2 DUP2 SUB PUSH0 DUP4 ADD MSTORE PUSH2 0x490 DUP2 DUP7 PUSH2 0x3D5 JUMP JUMPDEST SWAP1 POP PUSH2 0x49F PUSH1 0x20 DUP4 ADD DUP6 PUSH2 0x469 JUMP JUMPDEST PUSH2 0x4AC PUSH1 0x40 DUP4 ADD DUP5 PUSH2 0x438 JUMP JUMPDEST SWAP5 SWAP4 POP POP POP POP JUMP JUMPDEST PUSH0 DUP3 DUP3 MSTORE PUSH1 0x20 DUP3 ADD SWAP1 POP SWAP3 SWAP2 POP POP JUMP JUMPDEST PUSH0 PUSH2 0x4CE DUP3 PUSH2 0x39D JUMP JUMPDEST PUSH2 0x4D8 DUP2 DUP6 PUSH2 0x4B4 JUMP JUMPDEST SWAP4 POP PUSH2 0x4E8 DUP2 DUP6 PUSH1 0x20 DUP7 ADD PUSH2 0x3B7 JUMP JUMPDEST PUSH2 0x4F1 DUP2 PUSH2 0x3C5 JUMP JUMPDEST DUP5 ADD SWAP2 POP POP SWAP3 SWAP2 POP POP JUMP JUMPDEST PUSH2 0x505 DUP2 PUSH2 0x460 JUMP JUMPDEST DUP3 MSTORE POP POP JUMP JUMPDEST PUSH2 0x514 DUP2 PUSH2 0x42D JUMP JUMPDEST DUP3 MSTORE POP POP JUMP JUMPDEST PUSH0 PUSH1 0x60 DUP4 ADD PUSH0 DUP4 ADD MLOAD DUP5 DUP3 SUB PUSH0 DUP7 ADD MSTORE PUSH2 0x534 DUP3 DUP3 PUSH2 0x4C4 JUMP JUMPDEST SWAP2 POP POP PUSH1 0x20 DUP4 ADD MLOAD PUSH2 0x549 PUSH1 0x20 DUP7 ADD DUP3 PUSH2 0x4FC JUMP JUMPDEST POP PUSH1 0x40 DUP4 ADD MLOAD PUSH2 0x55C PUSH1 0x40 DUP7 ADD DUP3 PUSH2 0x50B JUMP JUMPDEST POP DUP1 SWAP2 POP POP SWAP3 SWAP2 POP POP JUMP JUMPDEST PUSH0 PUSH1 0x20 DUP3 ADD SWAP1 POP DUP2 DUP2 SUB PUSH0 DUP4 ADD MSTORE PUSH2 0x57F DUP2 DUP5 PUSH2 0x51A JUMP JUMPDEST SWAP1 POP SWAP3 SWAP2 POP POP JUMP JUMPDEST PUSH0 PUSH1 0x20 DUP3 ADD SWAP1 POP PUSH2 0x59A PUSH0 DUP4 ADD DUP5 PUSH2 0x469 JUMP JUMPDEST SWAP3 SWAP2 POP POP JUMP JUMPDEST PUSH0 DUP1 REVERT JUMPDEST PUSH0 DUP1 REVERT JUMPDEST PUSH0 DUP1 REVERT JUMPDEST PUSH0 DUP1 REVERT JUMPDEST PUSH0 DUP1 REVERT JUMPDEST PUSH0 DUP1 DUP4 PUSH1 0x1F DUP5 ADD SLT PUSH2 0x5C9 JUMPI PUSH2 0x5C8 PUSH2 0x5A8 JUMP JUMPDEST JUMPDEST DUP3 CALLDATALOAD SWAP1 POP PUSH8 0xFFFFFFFFFFFFFFFF DUP2 GT ISZERO PUSH2 0x5E6 JUMPI PUSH2 0x5E5 PUSH2 0x5AC JUMP JUMPDEST JUMPDEST PUSH1 0x20 DUP4 ADD SWAP2 POP DUP4 PUSH1 0x1 DUP3 MUL DUP4 ADD GT ISZERO PUSH2 0x602 JUMPI PUSH2 0x601 PUSH2 0x5B0 JUMP JUMPDEST JUMPDEST SWAP3 POP SWAP3 SWAP1 POP JUMP JUMPDEST PUSH2 0x612 DUP2 PUSH2 0x460 JUMP JUMPDEST DUP2 EQ PUSH2 0x61C JUMPI PUSH0 DUP1 REVERT JUMPDEST POP JUMP JUMPDEST PUSH0 DUP2 CALLDATALOAD SWAP1 POP PUSH2 0x62D DUP2 PUSH2 0x609 JUMP JUMPDEST SWAP3 SWAP2 POP POP JUMP JUMPDEST PUSH2 0x63C DUP2 PUSH2 0x42D JUMP JUMPDEST DUP2 EQ PUSH2 0x646 JUMPI PUSH0 DUP1 REVERT JUMPDEST POP JUMP JUMPDEST PUSH0 DUP2 CALLDATALOAD SWAP1 POP PUSH2 0x657 DUP2 PUSH2 0x633 JUMP JUMPDEST SWAP3 SWAP2 POP POP JUMP JUMPDEST PUSH0 DUP1 PUSH0 DUP1 PUSH1 0x60 DUP6 DUP8 SUB SLT ISZERO PUSH2 0x675 JUMPI PUSH2 0x674 PUSH2 0x5A0 JUMP JUMPDEST JUMPDEST PUSH0 DUP6 ADD CALLDATALOAD PUSH8 0xFFFFFFFFFFFFFFFF DUP2 GT ISZERO PUSH2 0x692 JUMPI PUSH2 0x691 PUSH2 0x5A4 JUMP JUMPDEST JUMPDEST PUSH2 0x69E DUP8 DUP3 DUP9 ADD PUSH2 0x5B4 JUMP JUMPDEST SWAP5 POP SWAP5 POP POP PUSH1 0x20 PUSH2 0x6B1 DUP8 DUP3 DUP9 ADD PUSH2 0x61F JUMP JUMPDEST SWAP3 POP POP PUSH1 0x40 PUSH2 0x6C2 DUP8 DUP3 DUP9 ADD PUSH2 0x649 JUMP JUMPDEST SWAP2 POP POP SWAP3 SWAP6 SWAP2 SWAP5 POP SWAP3 POP JUMP JUMPDEST PUSH32 0x4E487B7100000000000000000000000000000000000000000000000000000000 PUSH0 MSTORE PUSH1 0x22 PUSH1 0x4 MSTORE PUSH1 0x24 PUSH0 REVERT JUMPDEST PUSH0 PUSH1 0x2 DUP3 DIV SWAP1 POP PUSH1 0x1 DUP3 AND DUP1 PUSH2 0x712 JUMPI PUSH1 0x7F DUP3 AND SWAP2 POP JUMPDEST PUSH1 0x20 DUP3 LT DUP2 SUB PUSH2 0x725 JUMPI PUSH2 0x724 PUSH2 0x6CE JUMP JUMPDEST JUMPDEST POP SWAP2 SWAP1 POP JUMP JUMPDEST PUSH0 DUP3 SWAP1 POP SWAP3 SWAP2 POP POP JUMP JUMPDEST PUSH32 0x4E487B7100000000000000000000000000000000000000000000000000000000 PUSH0 MSTORE PUSH1 0x41 PUSH1 0x4 MSTORE PUSH1 0x24 PUSH0 REVERT JUMPDEST PUSH0 DUP2 SWAP1 POP DUP2 PUSH0 MSTORE PUSH1 0x20 PUSH0 KECCAK256 SWAP1 POP SWAP2 SWAP1 POP JUMP JUMPDEST PUSH0 PUSH1 0x20 PUSH1 0x1F DUP4 ADD DIV SWAP1 POP SWAP2 SWAP1 POP JUMP JUMPDEST PUSH0 DUP3 DUP3 SHL SWAP1 POP SWAP3 SWAP2 POP POP JUMP JUMPDEST PUSH0 PUSH1 0x8 DUP4 MUL PUSH2 0x7BE PUSH32 0xFFFFFFFFFFFFFFFFFFFFFFFFFFFFFFFFFFFFFFFFFFFFFFFFFFFFFFFFFFFFFFFF DUP3 PUSH2 0x783 JUMP JUMPDEST PUSH2 0x7C8 DUP7 DUP4 PUSH2 0x783 JUMP JUMPDEST SWAP6 POP DUP1 NOT DUP5 AND SWAP4 POP DUP1 DUP7 AND DUP5 OR SWAP3 POP POP POP SWAP4 SWAP3 POP POP POP JUMP JUMPDEST PUSH0 DUP2 SWAP1 POP SWAP2 SWAP1 POP JUMP JUMPDEST PUSH0 PUSH2 0x803 PUSH2 0x7FE PUSH2 0x7F9 DUP5 PUSH2 0x460 JUMP JUMPDEST PUSH2 0x7E0 JUMP JUMPDEST PUSH2 0x460 JUMP JUMPDEST SWAP1 POP SWAP2 SWAP1 POP JUMP JUMPDEST PUSH0 DUP2 SWAP1 POP SWAP2 SWAP1 POP JUMP JUMPDEST PUSH2 0x81C DUP4 PUSH2 0x7E9 JUMP JUMPDEST PUSH2 0x830 PUSH2 0x828 DUP3 PUSH2 0x80A JUMP JUMPDEST DUP5 DUP5 SLOAD PUSH2 0x78F JUMP JUMPDEST DUP3 SSTORE POP POP POP POP JUMP JUMPDEST PUSH0 SWAP1 JUMP JUMPDEST PUSH2 0x844 PUSH2 0x838 JUMP JUMPDEST PUSH2 0x84F DUP2 DUP5 DUP5 PUSH2 0x813 JUMP JUMPDEST POP POP POP JUMP JUMPDEST JUMPDEST DUP2 DUP2 LT ISZERO PUSH2 0x872 JUMPI PUSH2 0x867 PUSH0 DUP3 PUSH2 0x83C JUMP JUMPDEST PUSH1 0x1 DUP2 ADD SWAP1 POP PUSH2 0x855 JUMP JUMPDEST POP POP JUMP JUMPDEST PUSH1 0x1F DUP3 GT ISZERO PUSH2 0x8B7 JUMPI PUSH2 0x888 DUP2 PUSH2 0x762 JUMP JUMPDEST PUSH2 0x891 DUP5 PUSH2 0x774 JUMP JUMPDEST DUP2 ADD PUSH1 0x20 DUP6 LT ISZERO PUSH2 0x8A0 JUMPI DUP2 SWAP1 POP JUMPDEST PUSH2 0x8B4 PUSH2 0x8AC DUP6 PUSH2 0x774 JUMP JUMPDEST DUP4 ADD DUP3 PUSH2 0x854 JUMP JUMPDEST POP POP JUMPDEST POP POP POP JUMP JUMPDEST PUSH0 DUP3 DUP3 SHR SWAP1 POP SWAP3 SWAP2 POP POP JUMP JUMPDEST PUSH0 PUSH2 0x8D7 PUSH0 NOT DUP5 PUSH1 0x8 MUL PUSH2 0x8BC JUMP JUMPDEST NOT DUP1 DUP4 AND SWAP2 POP POP SWAP3 SWAP2 POP POP JUMP JUMPDEST PUSH0 PUSH2 0x8EF DUP4 DUP4 PUSH2 0x8C8 JUMP JUMPDEST SWAP2 POP DUP3 PUSH1 0x2 MUL DUP3 OR SWAP1 POP SWAP3 SWAP2 POP POP JUMP JUMPDEST PUSH2 0x909 DUP4 DUP4 PUSH2 0x72B JUMP JUMPDEST PUSH8 0xFFFFFFFFFFFFFFFF DUP2 GT ISZERO PUSH2 0x922 JUMPI PUSH2 0x921 PUSH2 0x735 JUMP JUMPDEST JUMPDEST PUSH2 0x92C DUP3 SLOAD PUSH2 0x6FB JUMP JUMPDEST PUSH2 0x937 DUP3 DUP3 DUP6 PUSH2 0x876 JUMP JUMPDEST PUSH0 PUSH1 0x1F DUP4 GT PUSH1 0x1 DUP2 EQ PUSH2 0x964 JUMPI PUSH0 DUP5 ISZERO PUSH2 0x952 JUMPI DUP3 DUP8 ADD CALLDATALOAD SWAP1 POP JUMPDEST PUSH2 0x95C DUP6 DUP3 PUSH2 0x8E4 JUMP JUMPDEST DUP7 SSTORE POP PUSH2 0x9C3 JUMP JUMPDEST PUSH1 0x1F NOT DUP5 AND PUSH2 0x972 DUP7 PUSH2 0x762 JUMP JUMPDEST PUSH0 JUMPDEST DUP3 DUP2 LT ISZERO PUSH2 0x999 JUMPI DUP5 DUP10 ADD CALLDATALOAD DUP3 SSTORE PUSH1 0x1 DUP3 ADD SWAP2 POP PUSH1 0x20 DUP6 ADD SWAP5 POP PUSH1 0x20 DUP2 ADD SWAP1 POP PUSH2 0x974 JUMP JUMPDEST DUP7 DUP4 LT ISZERO PUSH2 0x9B6 JUMPI DUP5 DUP10 ADD CALLDATALOAD PUSH2 0x9B2 PUSH1 0x1F DUP10 AND DUP3 PUSH2 0x8C8 JUMP JUMPDEST DUP4 SSTORE POP JUMPDEST PUSH1 0x1 PUSH1 0x2 DUP9 MUL ADD DUP9 SSTORE POP POP POP JUMPDEST POP POP POP POP POP POP POP JUMP INVALID LOG2 PUSH5 0x6970667358 0x22 SLT KECCAK256 CALLER 0xB6 0xBD 0xC 0xB5 ADD SWAP13 PUSH9 0xC0E4A3A5F325D2C95A BLOBHASH PUSH32 0x97DD8E816D636F76D4DC1ACE4E64736F6C634300081A00330000000000000000 "
				},
				"gasEstimates": {
					"creation": {
						"codeDepositCost": "512400",
						"executionCost": "547",
						"totalCost": "512947"
					},
					"external": {
						"getter()": "infinite",
						"getterName()": "infinite",
						"getterPass()": "2479",
						"getterRoll()": "2504",
						"insert(string,uint256,bool)": "infinite",
						"s1()": "infinite"
					}
				},
				"methodIdentifiers": {
					"getter()": "993a04b7",
					"getterName()": "32ef371a",
					"getterPass()": "4f7dea2f",
					"getterRoll()": "b923a9fc",
					"insert(string,uint256,bool)": "c30655a2",
					"s1()": "6cc014de"
				}
			},
			"storageLayout": {
				"storage": [
					{
						"astId": 11,
						"contract": "contracts/Struct/struct.sol:Struct",
						"label": "s1",
						"offset": 0,
						"slot": "0",
						"type": "t_struct(Student)8_storage"
					}
				],
				"types": {
					"t_bool": {
						"encoding": "inplace",
						"label": "bool",
						"numberOfBytes": "1"
					},
					"t_string_storage": {
						"encoding": "bytes",
						"label": "string",
						"numberOfBytes": "32"
					},
					"t_struct(Student)8_storage": {
						"encoding": "inplace",
						"label": "struct Struct.Student",
						"members": [
							{
								"astId": 3,
								"contract": "contracts/Struct/struct.sol:Struct",
								"label": "name",
								"offset": 0,
								"slot": "0",
								"type": "t_string_storage"
							},
							{
								"astId": 5,
								"contract": "contracts/Struct/struct.sol:Struct",
								"label": "roll",
								"offset": 0,
								"slot": "1",
								"type": "t_uint256"
							},
							{
								"astId": 7,
								"contract": "contracts/Struct/struct.sol:Struct",
								"label": "pass",
								"offset": 0,
								"slot": "2",
								"type": "t_bool"
							}
						],
						"numberOfBytes": "96"
					},
					"t_uint256": {
						"encoding": "inplace",
						"label": "uint256",
						"numberOfBytes": "32"
					}
				}
			},
			"userdoc": {
				"kind": "user",
				"methods": {},
				"version": 1
			}
		}
	}
}