{
	"contracts/require.sol": {
		"requireStatement": {
			"abi": [
				{
					"inputs": [
						{
							"internalType": "uint256",
							"name": "a",
							"type": "uint256"
						}
					],
					"name": "isEven",
					"outputs": [],
					"stateMutability": "nonpayable",
					"type": "function"
				},
				{
					"inputs": [],
					"name": "valid",
					"outputs": [
						{
							"internalType": "bool",
							"name": "",
							"type": "bool"
						}
					],
					"stateMutability": "view",
					"type": "function"
				}
			],
			"devdoc": {
				"kind": "dev",
				"methods": {},
				"version": 1
			},
			"evm": {
				"assembly": "    /* \"contracts/require.sol\":70:238  contract requireStatement{... */\n  mstore(0x40, 0x80)\n  callvalue\n  dup1\n  iszero\n  tag_1\n  jumpi\n  0x00\n  dup1\n  revert\ntag_1:\n  pop\n  dataSize(sub_0)\n  dup1\n  dataOffset(sub_0)\n  0x00\n  codecopy\n  0x00\n  return\nstop\n\nsub_0: assembly {\n        /* \"contracts/require.sol\":70:238  contract requireStatement{... */\n      mstore(0x40, 0x80)\n      callvalue\n      dup1\n      iszero\n      tag_1\n      jumpi\n      0x00\n      dup1\n      revert\n    tag_1:\n      pop\n      jumpi(tag_2, lt(calldatasize, 0x04))\n      shr(0xe0, calldataload(0x00))\n      dup1\n      0x2a2e1320\n      eq\n      tag_3\n      jumpi\n      dup1\n      0xc1991219\n      eq\n      tag_4\n      jumpi\n    tag_2:\n      0x00\n      dup1\n      revert\n        /* \"contracts/require.sol\":126:235  function isEven(uint a) public{... */\n    tag_3:\n      tag_5\n      0x04\n      dup1\n      calldatasize\n      sub\n      dup2\n      add\n      swap1\n      tag_6\n      swap2\n      swap1\n      tag_7\n      jump\t// in\n    tag_6:\n      tag_8\n      jump\t// in\n    tag_5:\n      stop\n        /* \"contracts/require.sol\":102:119  bool public valid */\n    tag_4:\n      tag_9\n      tag_10\n      jump\t// in\n    tag_9:\n      mload(0x40)\n      tag_11\n      swap2\n      swap1\n      tag_12\n      jump\t// in\n    tag_11:\n      mload(0x40)\n      dup1\n      swap2\n      sub\n      swap1\n      return\n        /* \"contracts/require.sol\":126:235  function isEven(uint a) public{... */\n    tag_8:\n        /* \"contracts/require.sol\":175:179  true */\n      0x01\n        /* \"contracts/require.sol\":167:172  valid */\n      0x00\n      dup1\n        /* \"contracts/require.sol\":167:179  valid = true */\n      0x0100\n      exp\n      dup2\n      sload\n      dup2\n      0xff\n      mul\n      not\n      and\n      swap1\n      dup4\n      iszero\n      iszero\n      mul\n      or\n      swap1\n      sstore\n      pop\n        /* \"contracts/require.sol\":203:204  0 */\n      0x00\n        /* \"contracts/require.sol\":200:201  2 */\n      0x02\n        /* \"contracts/require.sol\":198:199  a */\n      dup3\n        /* \"contracts/require.sol\":198:201  a%2 */\n      tag_14\n      swap2\n      swap1\n      tag_15\n      jump\t// in\n    tag_14:\n        /* \"contracts/require.sol\":198:204  a%2==0 */\n      eq\n        /* \"contracts/require.sol\":190:227  require(a%2==0 , \"Its an odd number\") */\n      tag_16\n      jumpi\n      mload(0x40)\n      0x08c379a000000000000000000000000000000000000000000000000000000000\n      dup2\n      mstore\n      0x04\n      add\n      tag_17\n      swap1\n      tag_18\n      jump\t// in\n    tag_17:\n      mload(0x40)\n      dup1\n      swap2\n      sub\n      swap1\n      revert\n    tag_16:\n        /* \"contracts/require.sol\":126:235  function isEven(uint a) public{... */\n      pop\n      jump\t// out\n        /* \"contracts/require.sol\":102:119  bool public valid */\n    tag_10:\n      0x00\n      dup1\n      sload\n      swap1\n      0x0100\n      exp\n      swap1\n      div\n      0xff\n      and\n      dup2\n      jump\t// out\n        /* \"#utility.yul\":88:205   */\n    tag_20:\n        /* \"#utility.yul\":197:198   */\n      0x00\n        /* \"#utility.yul\":194:195   */\n      dup1\n        /* \"#utility.yul\":187:199   */\n      revert\n        /* \"#utility.yul\":334:411   */\n    tag_22:\n        /* \"#utility.yul\":371:378   */\n      0x00\n        /* \"#utility.yul\":400:405   */\n      dup2\n        /* \"#utility.yul\":389:405   */\n      swap1\n      pop\n        /* \"#utility.yul\":334:411   */\n      swap2\n      swap1\n      pop\n      jump\t// out\n        /* \"#utility.yul\":417:539   */\n    tag_23:\n        /* \"#utility.yul\":490:514   */\n      tag_37\n        /* \"#utility.yul\":508:513   */\n      dup2\n        /* \"#utility.yul\":490:514   */\n      tag_22\n      jump\t// in\n    tag_37:\n        /* \"#utility.yul\":483:488   */\n      dup2\n        /* \"#utility.yul\":480:515   */\n      eq\n        /* \"#utility.yul\":470:533   */\n      tag_38\n      jumpi\n        /* \"#utility.yul\":529:530   */\n      0x00\n        /* \"#utility.yul\":526:527   */\n      dup1\n        /* \"#utility.yul\":519:531   */\n      revert\n        /* \"#utility.yul\":470:533   */\n    tag_38:\n        /* \"#utility.yul\":417:539   */\n      pop\n      jump\t// out\n        /* \"#utility.yul\":545:684   */\n    tag_24:\n        /* \"#utility.yul\":591:596   */\n      0x00\n        /* \"#utility.yul\":629:635   */\n      dup2\n        /* \"#utility.yul\":616:636   */\n      calldataload\n        /* \"#utility.yul\":607:636   */\n      swap1\n      pop\n        /* \"#utility.yul\":645:678   */\n      tag_40\n        /* \"#utility.yul\":672:677   */\n      dup2\n        /* \"#utility.yul\":645:678   */\n      tag_23\n      jump\t// in\n    tag_40:\n        /* \"#utility.yul\":545:684   */\n      swap3\n      swap2\n      pop\n      pop\n      jump\t// out\n        /* \"#utility.yul\":690:1019   */\n    tag_7:\n        /* \"#utility.yul\":749:755   */\n      0x00\n        /* \"#utility.yul\":798:800   */\n      0x20\n        /* \"#utility.yul\":786:795   */\n      dup3\n        /* \"#utility.yul\":777:784   */\n      dup5\n        /* \"#utility.yul\":773:796   */\n      sub\n        /* \"#utility.yul\":769:801   */\n      slt\n        /* \"#utility.yul\":766:885   */\n      iszero\n      tag_42\n      jumpi\n        /* \"#utility.yul\":804:883   */\n      tag_43\n      tag_20\n      jump\t// in\n    tag_43:\n        /* \"#utility.yul\":766:885   */\n    tag_42:\n        /* \"#utility.yul\":924:925   */\n      0x00\n        /* \"#utility.yul\":949:1002   */\n      tag_44\n        /* \"#utility.yul\":994:1001   */\n      dup5\n        /* \"#utility.yul\":985:991   */\n      dup3\n        /* \"#utility.yul\":974:983   */\n      dup6\n        /* \"#utility.yul\":970:992   */\n      add\n        /* \"#utility.yul\":949:1002   */\n      tag_24\n      jump\t// in\n    tag_44:\n        /* \"#utility.yul\":939:1002   */\n      swap2\n      pop\n        /* \"#utility.yul\":895:1012   */\n      pop\n        /* \"#utility.yul\":690:1019   */\n      swap3\n      swap2\n      pop\n      pop\n      jump\t// out\n        /* \"#utility.yul\":1025:1115   */\n    tag_25:\n        /* \"#utility.yul\":1059:1066   */\n      0x00\n        /* \"#utility.yul\":1102:1107   */\n      dup2\n        /* \"#utility.yul\":1095:1108   */\n      iszero\n        /* \"#utility.yul\":1088:1109   */\n      iszero\n        /* \"#utility.yul\":1077:1109   */\n      swap1\n      pop\n        /* \"#utility.yul\":1025:1115   */\n      swap2\n      swap1\n      pop\n      jump\t// out\n        /* \"#utility.yul\":1121:1230   */\n    tag_26:\n        /* \"#utility.yul\":1202:1223   */\n      tag_47\n        /* \"#utility.yul\":1217:1222   */\n      dup2\n        /* \"#utility.yul\":1202:1223   */\n      tag_25\n      jump\t// in\n    tag_47:\n        /* \"#utility.yul\":1197:1200   */\n      dup3\n        /* \"#utility.yul\":1190:1224   */\n      mstore\n        /* \"#utility.yul\":1121:1230   */\n      pop\n      pop\n      jump\t// out\n        /* \"#utility.yul\":1236:1446   */\n    tag_12:\n        /* \"#utility.yul\":1323:1327   */\n      0x00\n        /* \"#utility.yul\":1361:1363   */\n      0x20\n        /* \"#utility.yul\":1350:1359   */\n      dup3\n        /* \"#utility.yul\":1346:1364   */\n      add\n        /* \"#utility.yul\":1338:1364   */\n      swap1\n      pop\n        /* \"#utility.yul\":1374:1439   */\n      tag_49\n        /* \"#utility.yul\":1436:1437   */\n      0x00\n        /* \"#utility.yul\":1425:1434   */\n      dup4\n        /* \"#utility.yul\":1421:1438   */\n      add\n        /* \"#utility.yul\":1412:1418   */\n      dup5\n        /* \"#utility.yul\":1374:1439   */\n      tag_26\n      jump\t// in\n    tag_49:\n        /* \"#utility.yul\":1236:1446   */\n      swap3\n      swap2\n      pop\n      pop\n      jump\t// out\n        /* \"#utility.yul\":1452:1632   */\n    tag_27:\n        /* \"#utility.yul\":1500:1577   */\n      0x4e487b7100000000000000000000000000000000000000000000000000000000\n        /* \"#utility.yul\":1497:1498   */\n      0x00\n        /* \"#utility.yul\":1490:1578   */\n      mstore\n        /* \"#utility.yul\":1597:1601   */\n      0x12\n        /* \"#utility.yul\":1594:1595   */\n      0x04\n        /* \"#utility.yul\":1587:1602   */\n      mstore\n        /* \"#utility.yul\":1621:1625   */\n      0x24\n        /* \"#utility.yul\":1618:1619   */\n      0x00\n        /* \"#utility.yul\":1611:1626   */\n      revert\n        /* \"#utility.yul\":1638:1814   */\n    tag_15:\n        /* \"#utility.yul\":1670:1671   */\n      0x00\n        /* \"#utility.yul\":1687:1707   */\n      tag_52\n        /* \"#utility.yul\":1705:1706   */\n      dup3\n        /* \"#utility.yul\":1687:1707   */\n      tag_22\n      jump\t// in\n    tag_52:\n        /* \"#utility.yul\":1682:1707   */\n      swap2\n      pop\n        /* \"#utility.yul\":1721:1741   */\n      tag_53\n        /* \"#utility.yul\":1739:1740   */\n      dup4\n        /* \"#utility.yul\":1721:1741   */\n      tag_22\n      jump\t// in\n    tag_53:\n        /* \"#utility.yul\":1716:1741   */\n      swap3\n      pop\n        /* \"#utility.yul\":1760:1761   */\n      dup3\n        /* \"#utility.yul\":1750:1785   */\n      tag_54\n      jumpi\n        /* \"#utility.yul\":1765:1783   */\n      tag_55\n      tag_27\n      jump\t// in\n    tag_55:\n        /* \"#utility.yul\":1750:1785   */\n    tag_54:\n        /* \"#utility.yul\":1806:1807   */\n      dup3\n        /* \"#utility.yul\":1803:1804   */\n      dup3\n        /* \"#utility.yul\":1799:1808   */\n      mod\n        /* \"#utility.yul\":1794:1808   */\n      swap1\n      pop\n        /* \"#utility.yul\":1638:1814   */\n      swap3\n      swap2\n      pop\n      pop\n      jump\t// out\n        /* \"#utility.yul\":1820:1989   */\n    tag_28:\n        /* \"#utility.yul\":1904:1915   */\n      0x00\n        /* \"#utility.yul\":1938:1944   */\n      dup3\n        /* \"#utility.yul\":1933:1936   */\n      dup3\n        /* \"#utility.yul\":1926:1945   */\n      mstore\n        /* \"#utility.yul\":1978:1982   */\n      0x20\n        /* \"#utility.yul\":1973:1976   */\n      dup3\n        /* \"#utility.yul\":1969:1983   */\n      add\n        /* \"#utility.yul\":1954:1983   */\n      swap1\n      pop\n        /* \"#utility.yul\":1820:1989   */\n      swap3\n      swap2\n      pop\n      pop\n      jump\t// out\n        /* \"#utility.yul\":1995:2162   */\n    tag_29:\n        /* \"#utility.yul\":2135:2154   */\n      0x49747320616e206f6464206e756d626572000000000000000000000000000000\n        /* \"#utility.yul\":2131:2132   */\n      0x00\n        /* \"#utility.yul\":2123:2129   */\n      dup3\n        /* \"#utility.yul\":2119:2133   */\n      add\n        /* \"#utility.yul\":2112:2155   */\n      mstore\n        /* \"#utility.yul\":1995:2162   */\n      pop\n      jump\t// out\n        /* \"#utility.yul\":2168:2534   */\n    tag_30:\n        /* \"#utility.yul\":2310:2313   */\n      0x00\n        /* \"#utility.yul\":2331:2398   */\n      tag_59\n        /* \"#utility.yul\":2395:2397   */\n      0x11\n        /* \"#utility.yul\":2390:2393   */\n      dup4\n        /* \"#utility.yul\":2331:2398   */\n      tag_28\n      jump\t// in\n    tag_59:\n        /* \"#utility.yul\":2324:2398   */\n      swap2\n      pop\n        /* \"#utility.yul\":2407:2500   */\n      tag_60\n        /* \"#utility.yul\":2496:2499   */\n      dup3\n        /* \"#utility.yul\":2407:2500   */\n      tag_29\n      jump\t// in\n    tag_60:\n        /* \"#utility.yul\":2525:2527   */\n      0x20\n        /* \"#utility.yul\":2520:2523   */\n      dup3\n        /* \"#utility.yul\":2516:2528   */\n      add\n        /* \"#utility.yul\":2509:2528   */\n      swap1\n      pop\n        /* \"#utility.yul\":2168:2534   */\n      swap2\n      swap1\n      pop\n      jump\t// out\n        /* \"#utility.yul\":2540:2959   */\n    tag_18:\n        /* \"#utility.yul\":2706:2710   */\n      0x00\n        /* \"#utility.yul\":2744:2746   */\n      0x20\n        /* \"#utility.yul\":2733:2742   */\n      dup3\n        /* \"#utility.yul\":2729:2747   */\n      add\n        /* \"#utility.yul\":2721:2747   */\n      swap1\n      pop\n        /* \"#utility.yul\":2793:2802   */\n      dup2\n        /* \"#utility.yul\":2787:2791   */\n      dup2\n        /* \"#utility.yul\":2783:2803   */\n      sub\n        /* \"#utility.yul\":2779:2780   */\n      0x00\n        /* \"#utility.yul\":2768:2777   */\n      dup4\n        /* \"#utility.yul\":2764:2781   */\n      add\n        /* \"#utility.yul\":2757:2804   */\n      mstore\n        /* \"#utility.yul\":2821:2952   */\n      tag_62\n        /* \"#utility.yul\":2947:2951   */\n      dup2\n        /* \"#utility.yul\":2821:2952   */\n      tag_30\n      jump\t// in\n    tag_62:\n        /* \"#utility.yul\":2813:2952   */\n      swap1\n      pop\n        /* \"#utility.yul\":2540:2959   */\n      swap2\n      swap1\n      pop\n      jump\t// out\n\n    auxdata: 0xa2646970667358221220b8dceb330991a52419f8f555ac6c2b88d789ba5e9c951f41a55ffc49339115c764736f6c634300081a0033\n}\n",
				"bytecode": {
					"linkReferences": {},
					"object": "6080604052348015600e575f80fd5b5061028c8061001c5f395ff3fe608060405234801561000f575f80fd5b5060043610610034575f3560e01c80632a2e132014610038578063c199121914610054575b5f80fd5b610052600480360381019061004d9190610123565b610072565b005b61005c6100dc565b6040516100699190610168565b60405180910390f35b60015f806101000a81548160ff0219169083151502179055505f60028261009991906101ae565b146100d9576040517f08c379a00000000000000000000000000000000000000000000000000000000081526004016100d090610238565b60405180910390fd5b50565b5f8054906101000a900460ff1681565b5f80fd5b5f819050919050565b610102816100f0565b811461010c575f80fd5b50565b5f8135905061011d816100f9565b92915050565b5f60208284031215610138576101376100ec565b5b5f6101458482850161010f565b91505092915050565b5f8115159050919050565b6101628161014e565b82525050565b5f60208201905061017b5f830184610159565b92915050565b7f4e487b71000000000000000000000000000000000000000000000000000000005f52601260045260245ffd5b5f6101b8826100f0565b91506101c3836100f0565b9250826101d3576101d2610181565b5b828206905092915050565b5f82825260208201905092915050565b7f49747320616e206f6464206e756d6265720000000000000000000000000000005f82015250565b5f6102226011836101de565b915061022d826101ee565b602082019050919050565b5f6020820190508181035f83015261024f81610216565b905091905056fea2646970667358221220b8dceb330991a52419f8f555ac6c2b88d789ba5e9c951f41a55ffc49339115c764736f6c634300081a0033",
					"opcodes": "PUSH1 0x80 PUSH1 0x40 MSTORE CALLVALUE DUP1 ISZERO PUSH1 0xE JUMPI PUSH0 DUP1 REVERT JUMPDEST POP PUSH2 0x28C DUP1 PUSH2 0x1C PUSH0 CODECOPY PUSH0 RETURN INVALID PUSH1 0x80 PUSH1 0x40 MSTORE CALLVALUE DUP1 ISZERO PUSH2 0xF JUMPI PUSH0 DUP1 REVERT JUMPDEST POP PUSH1 0x4 CALLDATASIZE LT PUSH2 0x34 JUMPI PUSH0 CALLDATALOAD PUSH1 0xE0 SHR DUP1 PUSH4 0x2A2E1320 EQ PUSH2 0x38 JUMPI DUP1 PUSH4 0xC1991219 EQ PUSH2 0x54 JUMPI JUMPDEST PUSH0 DUP1 REVERT JUMPDEST PUSH2 0x52 PUSH1 0x4 DUP1 CALLDATASIZE SUB DUP2 ADD SWAP1 PUSH2 0x4D SWAP2 SWAP1 PUSH2 0x123 JUMP JUMPDEST PUSH2 0x72 JUMP JUMPDEST STOP JUMPDEST PUSH2 0x5C PUSH2 0xDC JUMP JUMPDEST PUSH1 0x40 MLOAD PUSH2 0x69 SWAP2 SWAP1 PUSH2 0x168 JUMP JUMPDEST PUSH1 0x40 MLOAD DUP1 SWAP2 SUB SWAP1 RETURN JUMPDEST PUSH1 0x1 PUSH0 DUP1 PUSH2 0x100 EXP DUP2 SLOAD DUP2 PUSH1 0xFF MUL NOT AND SWAP1 DUP4 ISZERO ISZERO MUL OR SWAP1 SSTORE POP PUSH0 PUSH1 0x2 DUP3 PUSH2 0x99 SWAP2 SWAP1 PUSH2 0x1AE JUMP JUMPDEST EQ PUSH2 0xD9 JUMPI PUSH1 0x40 MLOAD PUSH32 0x8C379A000000000000000000000000000000000000000000000000000000000 DUP2 MSTORE PUSH1 0x4 ADD PUSH2 0xD0 SWAP1 PUSH2 0x238 JUMP JUMPDEST PUSH1 0x40 MLOAD DUP1 SWAP2 SUB SWAP1 REVERT JUMPDEST POP JUMP JUMPDEST PUSH0 DUP1 SLOAD SWAP1 PUSH2 0x100 EXP SWAP1 DIV PUSH1 0xFF AND DUP2 JUMP JUMPDEST PUSH0 DUP1 REVERT JUMPDEST PUSH0 DUP2 SWAP1 POP SWAP2 SWAP1 POP JUMP JUMPDEST PUSH2 0x102 DUP2 PUSH2 0xF0 JUMP JUMPDEST DUP2 EQ PUSH2 0x10C JUMPI PUSH0 DUP1 REVERT JUMPDEST POP JUMP JUMPDEST PUSH0 DUP2 CALLDATALOAD SWAP1 POP PUSH2 0x11D DUP2 PUSH2 0xF9 JUMP JUMPDEST SWAP3 SWAP2 POP POP JUMP JUMPDEST PUSH0 PUSH1 0x20 DUP3 DUP5 SUB SLT ISZERO PUSH2 0x138 JUMPI PUSH2 0x137 PUSH2 0xEC JUMP JUMPDEST JUMPDEST PUSH0 PUSH2 0x145 DUP5 DUP3 DUP6 ADD PUSH2 0x10F JUMP JUMPDEST SWAP2 POP POP SWAP3 SWAP2 POP POP JUMP JUMPDEST PUSH0 DUP2 ISZERO ISZERO SWAP1 POP SWAP2 SWAP1 POP JUMP JUMPDEST PUSH2 0x162 DUP2 PUSH2 0x14E JUMP JUMPDEST DUP3 MSTORE POP POP JUMP JUMPDEST PUSH0 PUSH1 0x20 DUP3 ADD SWAP1 POP PUSH2 0x17B PUSH0 DUP4 ADD DUP5 PUSH2 0x159 JUMP JUMPDEST SWAP3 SWAP2 POP POP JUMP JUMPDEST PUSH32 0x4E487B7100000000000000000000000000000000000000000000000000000000 PUSH0 MSTORE PUSH1 0x12 PUSH1 0x4 MSTORE PUSH1 0x24 PUSH0 REVERT JUMPDEST PUSH0 PUSH2 0x1B8 DUP3 PUSH2 0xF0 JUMP JUMPDEST SWAP2 POP PUSH2 0x1C3 DUP4 PUSH2 0xF0 JUMP JUMPDEST SWAP3 POP DUP3 PUSH2 0x1D3 JUMPI PUSH2 0x1D2 PUSH2 0x181 JUMP JUMPDEST JUMPDEST DUP3 DUP3 MOD SWAP1 POP SWAP3 SWAP2 POP POP JUMP JUMPDEST PUSH0 DUP3 DUP3 MSTORE PUSH1 0x20 DUP3 ADD SWAP1 POP SWAP3 SWAP2 POP POP JUMP JUMPDEST PUSH32 0x49747320616E206F6464206E756D626572000000000000000000000000000000 PUSH0 DUP3 ADD MSTORE POP JUMP JUMPDEST PUSH0 PUSH2 0x222 PUSH1 0x11 DUP4 PUSH2 0x1DE JUMP JUMPDEST SWAP2 POP PUSH2 0x22D DUP3 PUSH2 0x1EE JUMP JUMPDEST PUSH1 0x20 DUP3 ADD SWAP1 POP SWAP2 SWAP1 POP JUMP JUMPDEST PUSH0 PUSH1 0x20 DUP3 ADD SWAP1 POP DUP2 DUP2 SUB PUSH0 DUP4 ADD MSTORE PUSH2 0x24F DUP2 PUSH2 0x216 JUMP JUMPDEST SWAP1 POP SWAP2 SWAP1 POP JUMP INVALID LOG2 PUSH5 0x6970667358 0x22 SLT KECCAK256 0xB8 0xDC 0xEB CALLER MULMOD SWAP2 0xA5 0x24 NOT 0xF8 CREATE2 SSTORE 0xAC PUSH13 0x2B88D789BA5E9C951F41A55FFC BLOBHASH CALLER SWAP2 ISZERO 0xC7 PUSH5 0x736F6C6343 STOP ADDMOD BYTE STOP CALLER "
				},
				"gasEstimates": {
					"creation": {
						"codeDepositCost": "130400",
						"executionCost": "175",
						"totalCost": "130575"
					},
					"external": {
						"isEven(uint256)": "infinite",
						"valid()": "2463"
					}
				},
				"methodIdentifiers": {
					"isEven(uint256)": "2a2e1320",
					"valid()": "c1991219"
				}
			},
			"storageLayout": {
				"storage": [
					{
						"astId": 3,
						"contract": "contracts/require.sol:requireStatement",
						"label": "valid",
						"offset": 0,
						"slot": "0",
						"type": "t_bool"
					}
				],
				"types": {
					"t_bool": {
						"encoding": "inplace",
						"label": "bool",
						"numberOfBytes": "1"
					}
				}
			},
			"userdoc": {
				"kind": "user",
				"methods": {},
				"version": 1
			}
		}
	}
}