{
	"contracts/BytesAssignment.sol": {
		"BYtesass": {
			"abi": [
				{
					"inputs": [],
					"stateMutability": "nonpayable",
					"type": "constructor"
				},
				{
					"inputs": [],
					"name": "singleByte",
					"outputs": [
						{
							"internalType": "bytes1",
							"name": "",
							"type": "bytes1"
						}
					],
					"stateMutability": "view",
					"type": "function"
				},
				{
					"inputs": [],
					"name": "twoBytes",
					"outputs": [
						{
							"internalType": "bytes2",
							"name": "",
							"type": "bytes2"
						}
					],
					"stateMutability": "view",
					"type": "function"
				},
				{
					"inputs": [
						{
							"internalType": "bytes1",
							"name": "newByte",
							"type": "bytes1"
						}
					],
					"name": "updateSingleByte",
					"outputs": [],
					"stateMutability": "nonpayable",
					"type": "function"
				},
				{
					"inputs": [
						{
							"internalType": "bytes2",
							"name": "newBytes",
							"type": "bytes2"
						}
					],
					"name": "updateTwoByte",
					"outputs": [],
					"stateMutability": "nonpayable",
					"type": "function"
				}
			],
			"devdoc": {
				"kind": "dev",
				"methods": {},
				"version": 1
			},
			"evm": {
				"assembly": "    /* \"contracts/BytesAssignment.sol\":70:685  contract BYtesass{... */\n  mstore(0x40, 0x80)\n    /* \"contracts/BytesAssignment.sol\":156:363  constructor() {... */\n  callvalue\n  dup1\n  iszero\n  tag_1\n  jumpi\n  0x00\n  dup1\n  revert\ntag_1:\n  pop\n    /* \"contracts/BytesAssignment.sol\":243:259  singleByte = 'A' */\n  0x4100000000000000000000000000000000000000000000000000000000000000\n    /* \"contracts/BytesAssignment.sol\":243:253  singleByte */\n  0x00\n  dup1\n    /* \"contracts/BytesAssignment.sol\":243:259  singleByte = 'A' */\n  0x0100\n  exp\n  dup2\n  sload\n  dup2\n  0xff\n  mul\n  not\n  and\n  swap1\n  dup4\n  0xf8\n  shr\n  mul\n  or\n  swap1\n  sstore\n  pop\n    /* \"contracts/BytesAssignment.sol\":341:355  twoBytes= 'BC' */\n  0x4243000000000000000000000000000000000000000000000000000000000000\n    /* \"contracts/BytesAssignment.sol\":341:349  twoBytes */\n  0x00\n  0x01\n    /* \"contracts/BytesAssignment.sol\":341:355  twoBytes= 'BC' */\n  0x0100\n  exp\n  dup2\n  sload\n  dup2\n  0xffff\n  mul\n  not\n  and\n  swap1\n  dup4\n  0xf0\n  shr\n  mul\n  or\n  swap1\n  sstore\n  pop\n    /* \"contracts/BytesAssignment.sol\":70:685  contract BYtesass{... */\n  dataSize(sub_0)\n  dup1\n  dataOffset(sub_0)\n  0x00\n  codecopy\n  0x00\n  return\nstop\n\nsub_0: assembly {\n        /* \"contracts/BytesAssignment.sol\":70:685  contract BYtesass{... */\n      mstore(0x40, 0x80)\n      callvalue\n      dup1\n      iszero\n      tag_1\n      jumpi\n      0x00\n      dup1\n      revert\n    tag_1:\n      pop\n      jumpi(tag_2, lt(calldatasize, 0x04))\n      shr(0xe0, calldataload(0x00))\n      dup1\n      0x0de296ed\n      eq\n      tag_3\n      jumpi\n      dup1\n      0x3228fb0e\n      eq\n      tag_4\n      jumpi\n      dup1\n      0x47ece8a6\n      eq\n      tag_5\n      jumpi\n      dup1\n      0xd52b99ca\n      eq\n      tag_6\n      jumpi\n    tag_2:\n      0x00\n      dup1\n      revert\n        /* \"contracts/BytesAssignment.sol\":94:118  bytes1 public singleByte */\n    tag_3:\n      tag_7\n      tag_8\n      jump\t// in\n    tag_7:\n      mload(0x40)\n      tag_9\n      swap2\n      swap1\n      tag_10\n      jump\t// in\n    tag_9:\n      mload(0x40)\n      dup1\n      swap2\n      sub\n      swap1\n      return\n        /* \"contracts/BytesAssignment.sol\":371:524  function updateSingleByte(bytes1 newByte) public {... */\n    tag_4:\n      tag_11\n      0x04\n      dup1\n      calldatasize\n      sub\n      dup2\n      add\n      swap1\n      tag_12\n      swap2\n      swap1\n      tag_13\n      jump\t// in\n    tag_12:\n      tag_14\n      jump\t// in\n    tag_11:\n      stop\n        /* \"contracts/BytesAssignment.sol\":532:682  function updateTwoByte(bytes2 newBytes) public {... */\n    tag_5:\n      tag_15\n      0x04\n      dup1\n      calldatasize\n      sub\n      dup2\n      add\n      swap1\n      tag_16\n      swap2\n      swap1\n      tag_17\n      jump\t// in\n    tag_16:\n      tag_18\n      jump\t// in\n    tag_15:\n      stop\n        /* \"contracts/BytesAssignment.sol\":125:147  bytes2 public twoBytes */\n    tag_6:\n      tag_19\n      tag_20\n      jump\t// in\n    tag_19:\n      mload(0x40)\n      tag_21\n      swap2\n      swap1\n      tag_22\n      jump\t// in\n    tag_21:\n      mload(0x40)\n      dup1\n      swap2\n      sub\n      swap1\n      return\n        /* \"contracts/BytesAssignment.sol\":94:118  bytes1 public singleByte */\n    tag_8:\n      0x00\n      dup1\n      sload\n      swap1\n      0x0100\n      exp\n      swap1\n      div\n      0xf8\n      shl\n      dup2\n      jump\t// out\n        /* \"contracts/BytesAssignment.sol\":371:524  function updateSingleByte(bytes1 newByte) public {... */\n    tag_14:\n        /* \"contracts/BytesAssignment.sol\":509:516  newByte */\n      dup1\n        /* \"contracts/BytesAssignment.sol\":496:506  singleByte */\n      0x00\n      dup1\n        /* \"contracts/BytesAssignment.sol\":496:516  singleByte = newByte */\n      0x0100\n      exp\n      dup2\n      sload\n      dup2\n      0xff\n      mul\n      not\n      and\n      swap1\n      dup4\n      0xf8\n      shr\n      mul\n      or\n      swap1\n      sstore\n      pop\n        /* \"contracts/BytesAssignment.sol\":371:524  function updateSingleByte(bytes1 newByte) public {... */\n      pop\n      jump\t// out\n        /* \"contracts/BytesAssignment.sol\":532:682  function updateTwoByte(bytes2 newBytes) public {... */\n    tag_18:\n        /* \"contracts/BytesAssignment.sol\":664:672  newBytes */\n      dup1\n        /* \"contracts/BytesAssignment.sol\":653:661  twoBytes */\n      0x00\n      0x01\n        /* \"contracts/BytesAssignment.sol\":653:672  twoBytes = newBytes */\n      0x0100\n      exp\n      dup2\n      sload\n      dup2\n      0xffff\n      mul\n      not\n      and\n      swap1\n      dup4\n      0xf0\n      shr\n      mul\n      or\n      swap1\n      sstore\n      pop\n        /* \"contracts/BytesAssignment.sol\":532:682  function updateTwoByte(bytes2 newBytes) public {... */\n      pop\n      jump\t// out\n        /* \"contracts/BytesAssignment.sol\":125:147  bytes2 public twoBytes */\n    tag_20:\n      0x00\n      0x01\n      swap1\n      sload\n      swap1\n      0x0100\n      exp\n      swap1\n      div\n      0xf0\n      shl\n      dup2\n      jump\t// out\n        /* \"#utility.yul\":7:156   */\n    tag_25:\n        /* \"#utility.yul\":43:50   */\n      0x00\n        /* \"#utility.yul\":83:149   */\n      0xff00000000000000000000000000000000000000000000000000000000000000\n        /* \"#utility.yul\":76:81   */\n      dup3\n        /* \"#utility.yul\":72:150   */\n      and\n        /* \"#utility.yul\":61:150   */\n      swap1\n      pop\n        /* \"#utility.yul\":7:156   */\n      swap2\n      swap1\n      pop\n      jump\t// out\n        /* \"#utility.yul\":162:277   */\n    tag_26:\n        /* \"#utility.yul\":247:270   */\n      tag_39\n        /* \"#utility.yul\":264:269   */\n      dup2\n        /* \"#utility.yul\":247:270   */\n      tag_25\n      jump\t// in\n    tag_39:\n        /* \"#utility.yul\":242:245   */\n      dup3\n        /* \"#utility.yul\":235:271   */\n      mstore\n        /* \"#utility.yul\":162:277   */\n      pop\n      pop\n      jump\t// out\n        /* \"#utility.yul\":283:501   */\n    tag_10:\n        /* \"#utility.yul\":374:378   */\n      0x00\n        /* \"#utility.yul\":412:414   */\n      0x20\n        /* \"#utility.yul\":401:410   */\n      dup3\n        /* \"#utility.yul\":397:415   */\n      add\n        /* \"#utility.yul\":389:415   */\n      swap1\n      pop\n        /* \"#utility.yul\":425:494   */\n      tag_41\n        /* \"#utility.yul\":491:492   */\n      0x00\n        /* \"#utility.yul\":480:489   */\n      dup4\n        /* \"#utility.yul\":476:493   */\n      add\n        /* \"#utility.yul\":467:473   */\n      dup5\n        /* \"#utility.yul\":425:494   */\n      tag_26\n      jump\t// in\n    tag_41:\n        /* \"#utility.yul\":283:501   */\n      swap3\n      swap2\n      pop\n      pop\n      jump\t// out\n        /* \"#utility.yul\":588:705   */\n    tag_28:\n        /* \"#utility.yul\":697:698   */\n      0x00\n        /* \"#utility.yul\":694:695   */\n      dup1\n        /* \"#utility.yul\":687:699   */\n      revert\n        /* \"#utility.yul\":834:954   */\n    tag_30:\n        /* \"#utility.yul\":906:929   */\n      tag_46\n        /* \"#utility.yul\":923:928   */\n      dup2\n        /* \"#utility.yul\":906:929   */\n      tag_25\n      jump\t// in\n    tag_46:\n        /* \"#utility.yul\":899:904   */\n      dup2\n        /* \"#utility.yul\":896:930   */\n      eq\n        /* \"#utility.yul\":886:948   */\n      tag_47\n      jumpi\n        /* \"#utility.yul\":944:945   */\n      0x00\n        /* \"#utility.yul\":941:942   */\n      dup1\n        /* \"#utility.yul\":934:946   */\n      revert\n        /* \"#utility.yul\":886:948   */\n    tag_47:\n        /* \"#utility.yul\":834:954   */\n      pop\n      jump\t// out\n        /* \"#utility.yul\":960:1097   */\n    tag_31:\n        /* \"#utility.yul\":1005:1010   */\n      0x00\n        /* \"#utility.yul\":1043:1049   */\n      dup2\n        /* \"#utility.yul\":1030:1050   */\n      calldataload\n        /* \"#utility.yul\":1021:1050   */\n      swap1\n      pop\n        /* \"#utility.yul\":1059:1091   */\n      tag_49\n        /* \"#utility.yul\":1085:1090   */\n      dup2\n        /* \"#utility.yul\":1059:1091   */\n      tag_30\n      jump\t// in\n    tag_49:\n        /* \"#utility.yul\":960:1097   */\n      swap3\n      swap2\n      pop\n      pop\n      jump\t// out\n        /* \"#utility.yul\":1103:1430   */\n    tag_13:\n        /* \"#utility.yul\":1161:1167   */\n      0x00\n        /* \"#utility.yul\":1210:1212   */\n      0x20\n        /* \"#utility.yul\":1198:1207   */\n      dup3\n        /* \"#utility.yul\":1189:1196   */\n      dup5\n        /* \"#utility.yul\":1185:1208   */\n      sub\n        /* \"#utility.yul\":1181:1213   */\n      slt\n        /* \"#utility.yul\":1178:1297   */\n      iszero\n      tag_51\n      jumpi\n        /* \"#utility.yul\":1216:1295   */\n      tag_52\n      tag_28\n      jump\t// in\n    tag_52:\n        /* \"#utility.yul\":1178:1297   */\n    tag_51:\n        /* \"#utility.yul\":1336:1337   */\n      0x00\n        /* \"#utility.yul\":1361:1413   */\n      tag_53\n        /* \"#utility.yul\":1405:1412   */\n      dup5\n        /* \"#utility.yul\":1396:1402   */\n      dup3\n        /* \"#utility.yul\":1385:1394   */\n      dup6\n        /* \"#utility.yul\":1381:1403   */\n      add\n        /* \"#utility.yul\":1361:1413   */\n      tag_31\n      jump\t// in\n    tag_53:\n        /* \"#utility.yul\":1351:1413   */\n      swap2\n      pop\n        /* \"#utility.yul\":1307:1423   */\n      pop\n        /* \"#utility.yul\":1103:1430   */\n      swap3\n      swap2\n      pop\n      pop\n      jump\t// out\n        /* \"#utility.yul\":1436:1585   */\n    tag_32:\n        /* \"#utility.yul\":1472:1479   */\n      0x00\n        /* \"#utility.yul\":1512:1578   */\n      0xffff000000000000000000000000000000000000000000000000000000000000\n        /* \"#utility.yul\":1505:1510   */\n      dup3\n        /* \"#utility.yul\":1501:1579   */\n      and\n        /* \"#utility.yul\":1490:1579   */\n      swap1\n      pop\n        /* \"#utility.yul\":1436:1585   */\n      swap2\n      swap1\n      pop\n      jump\t// out\n        /* \"#utility.yul\":1591:1711   */\n    tag_33:\n        /* \"#utility.yul\":1663:1686   */\n      tag_56\n        /* \"#utility.yul\":1680:1685   */\n      dup2\n        /* \"#utility.yul\":1663:1686   */\n      tag_32\n      jump\t// in\n    tag_56:\n        /* \"#utility.yul\":1656:1661   */\n      dup2\n        /* \"#utility.yul\":1653:1687   */\n      eq\n        /* \"#utility.yul\":1643:1705   */\n      tag_57\n      jumpi\n        /* \"#utility.yul\":1701:1702   */\n      0x00\n        /* \"#utility.yul\":1698:1699   */\n      dup1\n        /* \"#utility.yul\":1691:1703   */\n      revert\n        /* \"#utility.yul\":1643:1705   */\n    tag_57:\n        /* \"#utility.yul\":1591:1711   */\n      pop\n      jump\t// out\n        /* \"#utility.yul\":1717:1854   */\n    tag_34:\n        /* \"#utility.yul\":1762:1767   */\n      0x00\n        /* \"#utility.yul\":1800:1806   */\n      dup2\n        /* \"#utility.yul\":1787:1807   */\n      calldataload\n        /* \"#utility.yul\":1778:1807   */\n      swap1\n      pop\n        /* \"#utility.yul\":1816:1848   */\n      tag_59\n        /* \"#utility.yul\":1842:1847   */\n      dup2\n        /* \"#utility.yul\":1816:1848   */\n      tag_33\n      jump\t// in\n    tag_59:\n        /* \"#utility.yul\":1717:1854   */\n      swap3\n      swap2\n      pop\n      pop\n      jump\t// out\n        /* \"#utility.yul\":1860:2187   */\n    tag_17:\n        /* \"#utility.yul\":1918:1924   */\n      0x00\n        /* \"#utility.yul\":1967:1969   */\n      0x20\n        /* \"#utility.yul\":1955:1964   */\n      dup3\n        /* \"#utility.yul\":1946:1953   */\n      dup5\n        /* \"#utility.yul\":1942:1965   */\n      sub\n        /* \"#utility.yul\":1938:1970   */\n      slt\n        /* \"#utility.yul\":1935:2054   */\n      iszero\n      tag_61\n      jumpi\n        /* \"#utility.yul\":1973:2052   */\n      tag_62\n      tag_28\n      jump\t// in\n    tag_62:\n        /* \"#utility.yul\":1935:2054   */\n    tag_61:\n        /* \"#utility.yul\":2093:2094   */\n      0x00\n        /* \"#utility.yul\":2118:2170   */\n      tag_63\n        /* \"#utility.yul\":2162:2169   */\n      dup5\n        /* \"#utility.yul\":2153:2159   */\n      dup3\n        /* \"#utility.yul\":2142:2151   */\n      dup6\n        /* \"#utility.yul\":2138:2160   */\n      add\n        /* \"#utility.yul\":2118:2170   */\n      tag_34\n      jump\t// in\n    tag_63:\n        /* \"#utility.yul\":2108:2170   */\n      swap2\n      pop\n        /* \"#utility.yul\":2064:2180   */\n      pop\n        /* \"#utility.yul\":1860:2187   */\n      swap3\n      swap2\n      pop\n      pop\n      jump\t// out\n        /* \"#utility.yul\":2193:2308   */\n    tag_35:\n        /* \"#utility.yul\":2278:2301   */\n      tag_65\n        /* \"#utility.yul\":2295:2300   */\n      dup2\n        /* \"#utility.yul\":2278:2301   */\n      tag_32\n      jump\t// in\n    tag_65:\n        /* \"#utility.yul\":2273:2276   */\n      dup3\n        /* \"#utility.yul\":2266:2302   */\n      mstore\n        /* \"#utility.yul\":2193:2308   */\n      pop\n      pop\n      jump\t// out\n        /* \"#utility.yul\":2314:2532   */\n    tag_22:\n        /* \"#utility.yul\":2405:2409   */\n      0x00\n        /* \"#utility.yul\":2443:2445   */\n      0x20\n        /* \"#utility.yul\":2432:2441   */\n      dup3\n        /* \"#utility.yul\":2428:2446   */\n      add\n        /* \"#utility.yul\":2420:2446   */\n      swap1\n      pop\n        /* \"#utility.yul\":2456:2525   */\n      tag_67\n        /* \"#utility.yul\":2522:2523   */\n      0x00\n        /* \"#utility.yul\":2511:2520   */\n      dup4\n        /* \"#utility.yul\":2507:2524   */\n      add\n        /* \"#utility.yul\":2498:2504   */\n      dup5\n        /* \"#utility.yul\":2456:2525   */\n      tag_35\n      jump\t// in\n    tag_67:\n        /* \"#utility.yul\":2314:2532   */\n      swap3\n      swap2\n      pop\n      pop\n      jump\t// out\n\n    auxdata: 0xa2646970667358221220735279d4c751e2588342257fc27bd008fc9a8a71b0c0924b7ea7c13a8d8df8ee64736f6c634300081a0033\n}\n",
				"bytecode": {
					"linkReferences": {},
					"object": "6080604052348015600e575f80fd5b507f41000000000000000000000000000000000000000000000000000000000000005f806101000a81548160ff021916908360f81c02179055507f42430000000000000000000000000000000000000000000000000000000000005f60016101000a81548161ffff021916908360f01c02179055506102a8806100905f395ff3fe608060405234801561000f575f80fd5b506004361061004a575f3560e01c80630de296ed1461004e5780633228fb0e1461006c57806347ece8a614610088578063d52b99ca146100a4575b5f80fd5b6100566100c2565b6040516100639190610158565b60405180910390f35b6100866004803603810190610081919061019f565b6100d2565b005b6100a2600480360381019061009d919061021f565b6100ee565b005b6100ac61010c565b6040516100b99190610259565b60405180910390f35b5f8054906101000a900460f81b81565b805f806101000a81548160ff021916908360f81c021790555050565b805f60016101000a81548161ffff021916908360f01c021790555050565b5f60019054906101000a900460f01b81565b5f7fff0000000000000000000000000000000000000000000000000000000000000082169050919050565b6101528161011e565b82525050565b5f60208201905061016b5f830184610149565b92915050565b5f80fd5b61017e8161011e565b8114610188575f80fd5b50565b5f8135905061019981610175565b92915050565b5f602082840312156101b4576101b3610171565b5b5f6101c18482850161018b565b91505092915050565b5f7fffff00000000000000000000000000000000000000000000000000000000000082169050919050565b6101fe816101ca565b8114610208575f80fd5b50565b5f81359050610219816101f5565b92915050565b5f6020828403121561023457610233610171565b5b5f6102418482850161020b565b91505092915050565b610253816101ca565b82525050565b5f60208201905061026c5f83018461024a565b9291505056fea2646970667358221220735279d4c751e2588342257fc27bd008fc9a8a71b0c0924b7ea7c13a8d8df8ee64736f6c634300081a0033",
					"opcodes": "PUSH1 0x80 PUSH1 0x40 MSTORE CALLVALUE DUP1 ISZERO PUSH1 0xE JUMPI PUSH0 DUP1 REVERT JUMPDEST POP PUSH32 0x4100000000000000000000000000000000000000000000000000000000000000 PUSH0 DUP1 PUSH2 0x100 EXP DUP2 SLOAD DUP2 PUSH1 0xFF MUL NOT AND SWAP1 DUP4 PUSH1 0xF8 SHR MUL OR SWAP1 SSTORE POP PUSH32 0x4243000000000000000000000000000000000000000000000000000000000000 PUSH0 PUSH1 0x1 PUSH2 0x100 EXP DUP2 SLOAD DUP2 PUSH2 0xFFFF MUL NOT AND SWAP1 DUP4 PUSH1 0xF0 SHR MUL OR SWAP1 SSTORE POP PUSH2 0x2A8 DUP1 PUSH2 0x90 PUSH0 CODECOPY PUSH0 RETURN INVALID PUSH1 0x80 PUSH1 0x40 MSTORE CALLVALUE DUP1 ISZERO PUSH2 0xF JUMPI PUSH0 DUP1 REVERT JUMPDEST POP PUSH1 0x4 CALLDATASIZE LT PUSH2 0x4A JUMPI PUSH0 CALLDATALOAD PUSH1 0xE0 SHR DUP1 PUSH4 0xDE296ED EQ PUSH2 0x4E JUMPI DUP1 PUSH4 0x3228FB0E EQ PUSH2 0x6C JUMPI DUP1 PUSH4 0x47ECE8A6 EQ PUSH2 0x88 JUMPI DUP1 PUSH4 0xD52B99CA EQ PUSH2 0xA4 JUMPI JUMPDEST PUSH0 DUP1 REVERT JUMPDEST PUSH2 0x56 PUSH2 0xC2 JUMP JUMPDEST PUSH1 0x40 MLOAD PUSH2 0x63 SWAP2 SWAP1 PUSH2 0x158 JUMP JUMPDEST PUSH1 0x40 MLOAD DUP1 SWAP2 SUB SWAP1 RETURN JUMPDEST PUSH2 0x86 PUSH1 0x4 DUP1 CALLDATASIZE SUB DUP2 ADD SWAP1 PUSH2 0x81 SWAP2 SWAP1 PUSH2 0x19F JUMP JUMPDEST PUSH2 0xD2 JUMP JUMPDEST STOP JUMPDEST PUSH2 0xA2 PUSH1 0x4 DUP1 CALLDATASIZE SUB DUP2 ADD SWAP1 PUSH2 0x9D SWAP2 SWAP1 PUSH2 0x21F JUMP JUMPDEST PUSH2 0xEE JUMP JUMPDEST STOP JUMPDEST PUSH2 0xAC PUSH2 0x10C JUMP JUMPDEST PUSH1 0x40 MLOAD PUSH2 0xB9 SWAP2 SWAP1 PUSH2 0x259 JUMP JUMPDEST PUSH1 0x40 MLOAD DUP1 SWAP2 SUB SWAP1 RETURN JUMPDEST PUSH0 DUP1 SLOAD SWAP1 PUSH2 0x100 EXP SWAP1 DIV PUSH1 0xF8 SHL DUP2 JUMP JUMPDEST DUP1 PUSH0 DUP1 PUSH2 0x100 EXP DUP2 SLOAD DUP2 PUSH1 0xFF MUL NOT AND SWAP1 DUP4 PUSH1 0xF8 SHR MUL OR SWAP1 SSTORE POP POP JUMP JUMPDEST DUP1 PUSH0 PUSH1 0x1 PUSH2 0x100 EXP DUP2 SLOAD DUP2 PUSH2 0xFFFF MUL NOT AND SWAP1 DUP4 PUSH1 0xF0 SHR MUL OR SWAP1 SSTORE POP POP JUMP JUMPDEST PUSH0 PUSH1 0x1 SWAP1 SLOAD SWAP1 PUSH2 0x100 EXP SWAP1 DIV PUSH1 0xF0 SHL DUP2 JUMP JUMPDEST PUSH0 PUSH32 0xFF00000000000000000000000000000000000000000000000000000000000000 DUP3 AND SWAP1 POP SWAP2 SWAP1 POP JUMP JUMPDEST PUSH2 0x152 DUP2 PUSH2 0x11E JUMP JUMPDEST DUP3 MSTORE POP POP JUMP JUMPDEST PUSH0 PUSH1 0x20 DUP3 ADD SWAP1 POP PUSH2 0x16B PUSH0 DUP4 ADD DUP5 PUSH2 0x149 JUMP JUMPDEST SWAP3 SWAP2 POP POP JUMP JUMPDEST PUSH0 DUP1 REVERT JUMPDEST PUSH2 0x17E DUP2 PUSH2 0x11E JUMP JUMPDEST DUP2 EQ PUSH2 0x188 JUMPI PUSH0 DUP1 REVERT JUMPDEST POP JUMP JUMPDEST PUSH0 DUP2 CALLDATALOAD SWAP1 POP PUSH2 0x199 DUP2 PUSH2 0x175 JUMP JUMPDEST SWAP3 SWAP2 POP POP JUMP JUMPDEST PUSH0 PUSH1 0x20 DUP3 DUP5 SUB SLT ISZERO PUSH2 0x1B4 JUMPI PUSH2 0x1B3 PUSH2 0x171 JUMP JUMPDEST JUMPDEST PUSH0 PUSH2 0x1C1 DUP5 DUP3 DUP6 ADD PUSH2 0x18B JUMP JUMPDEST SWAP2 POP POP SWAP3 SWAP2 POP POP JUMP JUMPDEST PUSH0 PUSH32 0xFFFF000000000000000000000000000000000000000000000000000000000000 DUP3 AND SWAP1 POP SWAP2 SWAP1 POP JUMP JUMPDEST PUSH2 0x1FE DUP2 PUSH2 0x1CA JUMP JUMPDEST DUP2 EQ PUSH2 0x208 JUMPI PUSH0 DUP1 REVERT JUMPDEST POP JUMP JUMPDEST PUSH0 DUP2 CALLDATALOAD SWAP1 POP PUSH2 0x219 DUP2 PUSH2 0x1F5 JUMP JUMPDEST SWAP3 SWAP2 POP POP JUMP JUMPDEST PUSH0 PUSH1 0x20 DUP3 DUP5 SUB SLT ISZERO PUSH2 0x234 JUMPI PUSH2 0x233 PUSH2 0x171 JUMP JUMPDEST JUMPDEST PUSH0 PUSH2 0x241 DUP5 DUP3 DUP6 ADD PUSH2 0x20B JUMP JUMPDEST SWAP2 POP POP SWAP3 SWAP2 POP POP JUMP JUMPDEST PUSH2 0x253 DUP2 PUSH2 0x1CA JUMP JUMPDEST DUP3 MSTORE POP POP JUMP JUMPDEST PUSH0 PUSH1 0x20 DUP3 ADD SWAP1 POP PUSH2 0x26C PUSH0 DUP4 ADD DUP5 PUSH2 0x24A JUMP JUMPDEST SWAP3 SWAP2 POP POP JUMP INVALID LOG2 PUSH5 0x6970667358 0x22 SLT KECCAK256 PUSH20 0x5279D4C751E2588342257FC27BD008FC9A8A71B0 0xC0 SWAP3 0x4B PUSH31 0xA7C13A8D8DF8EE64736F6C634300081A003300000000000000000000000000 "
				},
				"gasEstimates": {
					"creation": {
						"codeDepositCost": "136000",
						"executionCost": "48763",
						"totalCost": "184763"
					},
					"external": {
						"singleByte()": "2441",
						"twoBytes()": "2560",
						"updateSingleByte(bytes1)": "24673",
						"updateTwoByte(bytes2)": "24745"
					}
				},
				"methodIdentifiers": {
					"singleByte()": "0de296ed",
					"twoBytes()": "d52b99ca",
					"updateSingleByte(bytes1)": "3228fb0e",
					"updateTwoByte(bytes2)": "47ece8a6"
				}
			},
			"storageLayout": {
				"storage": [
					{
						"astId": 3,
						"contract": "contracts/BytesAssignment.sol:BYtesass",
						"label": "singleByte",
						"offset": 0,
						"slot": "0",
						"type": "t_bytes1"
					},
					{
						"astId": 5,
						"contract": "contracts/BytesAssignment.sol:BYtesass",
						"label": "twoBytes",
						"offset": 1,
						"slot": "0",
						"type": "t_bytes2"
					}
				],
				"types": {
					"t_bytes1": {
						"encoding": "inplace",
						"label": "bytes1",
						"numberOfBytes": "1"
					},
					"t_bytes2": {
						"encoding": "inplace",
						"label": "bytes2",
						"numberOfBytes": "2"
					}
				}
			},
			"userdoc": {
				"kind": "user",
				"methods": {},
				"version": 1
			}
		}
	}
}