{
	"contracts/visibility.sol": {
		"Child": {
			"abi": [
				{
					"inputs": [],
					"name": "f1",
					"outputs": [
						{
							"internalType": "uint256",
							"name": "",
							"type": "uint256"
						}
					],
					"stateMutability": "pure",
					"type": "function"
				},
				{
					"inputs": [],
					"name": "f3",
					"outputs": [
						{
							"internalType": "uint256",
							"name": "",
							"type": "uint256"
						}
					],
					"stateMutability": "pure",
					"type": "function"
				},
				{
					"inputs": [],
					"name": "returnValue",
					"outputs": [
						{
							"internalType": "uint256",
							"name": "",
							"type": "uint256"
						}
					],
					"stateMutability": "pure",
					"type": "function"
				}
			],
			"devdoc": {
				"kind": "dev",
				"methods": {},
				"version": 1
			},
			"evm": {
				"assembly": "    /* \"contracts/visibility.sol\":413:580  contract Child is demo{... */\n  mstore(0x40, 0x80)\n  callvalue\n  dup1\n  iszero\n  tag_1\n  jumpi\n  0x00\n  dup1\n  revert\ntag_1:\n  pop\n  dataSize(sub_0)\n  dup1\n  dataOffset(sub_0)\n  0x00\n  codecopy\n  0x00\n  return\nstop\n\nsub_0: assembly {\n        /* \"contracts/visibility.sol\":413:580  contract Child is demo{... */\n      mstore(0x40, 0x80)\n      callvalue\n      dup1\n      iszero\n      tag_1\n      jumpi\n      0x00\n      dup1\n      revert\n    tag_1:\n      pop\n      jumpi(tag_2, lt(calldatasize, 0x04))\n      shr(0xe0, calldataload(0x00))\n      dup1\n      0x990c8f79\n      eq\n      tag_3\n      jumpi\n      dup1\n      0xaaf05f3d\n      eq\n      tag_4\n      jumpi\n      dup1\n      0xc27fc305\n      eq\n      tag_5\n      jumpi\n    tag_2:\n      0x00\n      dup1\n      revert\n        /* \"contracts/visibility.sol\":442:577  function returnValue() public pure returns (uint){... */\n    tag_3:\n      tag_6\n      tag_7\n      jump\t// in\n    tag_6:\n      mload(0x40)\n      tag_8\n      swap2\n      swap1\n      tag_9\n      jump\t// in\n    tag_8:\n      mload(0x40)\n      dup1\n      swap2\n      sub\n      swap1\n      return\n        /* \"contracts/visibility.sol\":240:309  function f3() external  pure returns(uint){... */\n    tag_4:\n      tag_10\n      tag_11\n      jump\t// in\n    tag_10:\n      mload(0x40)\n      tag_12\n      swap2\n      swap1\n      tag_9\n      jump\t// in\n    tag_12:\n      mload(0x40)\n      dup1\n      swap2\n      sub\n      swap1\n      return\n        /* \"contracts/visibility.sol\":90:156  function f1() public pure returns(uint){... */\n    tag_5:\n      tag_13\n      tag_14\n      jump\t// in\n    tag_13:\n      mload(0x40)\n      tag_15\n      swap2\n      swap1\n      tag_9\n      jump\t// in\n    tag_15:\n      mload(0x40)\n      dup1\n      swap2\n      sub\n      swap1\n      return\n        /* \"contracts/visibility.sol\":442:577  function returnValue() public pure returns (uint){... */\n    tag_7:\n        /* \"contracts/visibility.sol\":486:490  uint */\n      0x00\n        /* \"contracts/visibility.sol\":509:513  f4() */\n      tag_17\n        /* \"contracts/visibility.sol\":509:511  f4 */\n      tag_18\n        /* \"contracts/visibility.sol\":509:513  f4() */\n      jump\t// in\n    tag_17:\n        /* \"contracts/visibility.sol\":502:513  return f4() */\n      swap1\n      pop\n        /* \"contracts/visibility.sol\":442:577  function returnValue() public pure returns (uint){... */\n      swap1\n      jump\t// out\n        /* \"contracts/visibility.sol\":240:309  function f3() external  pure returns(uint){... */\n    tag_11:\n        /* \"contracts/visibility.sol\":277:281  uint */\n      0x00\n        /* \"contracts/visibility.sol\":300:301  3 */\n      0x03\n        /* \"contracts/visibility.sol\":293:301  return 3 */\n      swap1\n      pop\n        /* \"contracts/visibility.sol\":240:309  function f3() external  pure returns(uint){... */\n      swap1\n      jump\t// out\n        /* \"contracts/visibility.sol\":90:156  function f1() public pure returns(uint){... */\n    tag_14:\n        /* \"contracts/visibility.sol\":124:128  uint */\n      0x00\n        /* \"contracts/visibility.sol\":147:148  1 */\n      0x01\n        /* \"contracts/visibility.sol\":140:148  return 1 */\n      swap1\n      pop\n        /* \"contracts/visibility.sol\":90:156  function f1() public pure returns(uint){... */\n      swap1\n      jump\t// out\n        /* \"contracts/visibility.sol\":317:385  function f4() internal pure returns(uint){... */\n    tag_18:\n        /* \"contracts/visibility.sol\":353:357  uint */\n      0x00\n        /* \"contracts/visibility.sol\":376:377  4 */\n      0x04\n        /* \"contracts/visibility.sol\":369:377  return 4 */\n      swap1\n      pop\n        /* \"contracts/visibility.sol\":317:385  function f4() internal pure returns(uint){... */\n      swap1\n      jump\t// out\n        /* \"#utility.yul\":7:84   */\n    tag_22:\n        /* \"#utility.yul\":44:51   */\n      0x00\n        /* \"#utility.yul\":73:78   */\n      dup2\n        /* \"#utility.yul\":62:78   */\n      swap1\n      pop\n        /* \"#utility.yul\":7:84   */\n      swap2\n      swap1\n      pop\n      jump\t// out\n        /* \"#utility.yul\":90:208   */\n    tag_23:\n        /* \"#utility.yul\":177:201   */\n      tag_27\n        /* \"#utility.yul\":195:200   */\n      dup2\n        /* \"#utility.yul\":177:201   */\n      tag_22\n      jump\t// in\n    tag_27:\n        /* \"#utility.yul\":172:175   */\n      dup3\n        /* \"#utility.yul\":165:202   */\n      mstore\n        /* \"#utility.yul\":90:208   */\n      pop\n      pop\n      jump\t// out\n        /* \"#utility.yul\":214:436   */\n    tag_9:\n        /* \"#utility.yul\":307:311   */\n      0x00\n        /* \"#utility.yul\":345:347   */\n      0x20\n        /* \"#utility.yul\":334:343   */\n      dup3\n        /* \"#utility.yul\":330:348   */\n      add\n        /* \"#utility.yul\":322:348   */\n      swap1\n      pop\n        /* \"#utility.yul\":358:429   */\n      tag_29\n        /* \"#utility.yul\":426:427   */\n      0x00\n        /* \"#utility.yul\":415:424   */\n      dup4\n        /* \"#utility.yul\":411:428   */\n      add\n        /* \"#utility.yul\":402:408   */\n      dup5\n        /* \"#utility.yul\":358:429   */\n      tag_23\n      jump\t// in\n    tag_29:\n        /* \"#utility.yul\":214:436   */\n      swap3\n      swap2\n      pop\n      pop\n      jump\t// out\n\n    auxdata: 0xa26469706673582212202da7c6c13c4fd12cd713577d2acd49dccf1aa5bd5200bad062623b10d214ef7064736f6c634300081a0033\n}\n",
				"bytecode": {
					"linkReferences": {},
					"object": "6080604052348015600e575f80fd5b506101138061001c5f395ff3fe6080604052348015600e575f80fd5b5060043610603a575f3560e01c8063990c8f7914603e578063aaf05f3d146058578063c27fc305146072575b5f80fd5b6044608c565b604051604f919060c6565b60405180910390f35b605e6098565b6040516069919060c6565b60405180910390f35b607860a0565b6040516083919060c6565b60405180910390f35b5f609360a8565b905090565b5f6003905090565b5f6001905090565b5f6004905090565b5f819050919050565b60c08160b0565b82525050565b5f60208201905060d75f83018460b9565b9291505056fea26469706673582212202da7c6c13c4fd12cd713577d2acd49dccf1aa5bd5200bad062623b10d214ef7064736f6c634300081a0033",
					"opcodes": "PUSH1 0x80 PUSH1 0x40 MSTORE CALLVALUE DUP1 ISZERO PUSH1 0xE JUMPI PUSH0 DUP1 REVERT JUMPDEST POP PUSH2 0x113 DUP1 PUSH2 0x1C PUSH0 CODECOPY PUSH0 RETURN INVALID PUSH1 0x80 PUSH1 0x40 MSTORE CALLVALUE DUP1 ISZERO PUSH1 0xE JUMPI PUSH0 DUP1 REVERT JUMPDEST POP PUSH1 0x4 CALLDATASIZE LT PUSH1 0x3A JUMPI PUSH0 CALLDATALOAD PUSH1 0xE0 SHR DUP1 PUSH4 0x990C8F79 EQ PUSH1 0x3E JUMPI DUP1 PUSH4 0xAAF05F3D EQ PUSH1 0x58 JUMPI DUP1 PUSH4 0xC27FC305 EQ PUSH1 0x72 JUMPI JUMPDEST PUSH0 DUP1 REVERT JUMPDEST PUSH1 0x44 PUSH1 0x8C JUMP JUMPDEST PUSH1 0x40 MLOAD PUSH1 0x4F SWAP2 SWAP1 PUSH1 0xC6 JUMP JUMPDEST PUSH1 0x40 MLOAD DUP1 SWAP2 SUB SWAP1 RETURN JUMPDEST PUSH1 0x5E PUSH1 0x98 JUMP JUMPDEST PUSH1 0x40 MLOAD PUSH1 0x69 SWAP2 SWAP1 PUSH1 0xC6 JUMP JUMPDEST PUSH1 0x40 MLOAD DUP1 SWAP2 SUB SWAP1 RETURN JUMPDEST PUSH1 0x78 PUSH1 0xA0 JUMP JUMPDEST PUSH1 0x40 MLOAD PUSH1 0x83 SWAP2 SWAP1 PUSH1 0xC6 JUMP JUMPDEST PUSH1 0x40 MLOAD DUP1 SWAP2 SUB SWAP1 RETURN JUMPDEST PUSH0 PUSH1 0x93 PUSH1 0xA8 JUMP JUMPDEST SWAP1 POP SWAP1 JUMP JUMPDEST PUSH0 PUSH1 0x3 SWAP1 POP SWAP1 JUMP JUMPDEST PUSH0 PUSH1 0x1 SWAP1 POP SWAP1 JUMP JUMPDEST PUSH0 PUSH1 0x4 SWAP1 POP SWAP1 JUMP JUMPDEST PUSH0 DUP2 SWAP1 POP SWAP2 SWAP1 POP JUMP JUMPDEST PUSH1 0xC0 DUP2 PUSH1 0xB0 JUMP JUMPDEST DUP3 MSTORE POP POP JUMP JUMPDEST PUSH0 PUSH1 0x20 DUP3 ADD SWAP1 POP PUSH1 0xD7 PUSH0 DUP4 ADD DUP5 PUSH1 0xB9 JUMP JUMPDEST SWAP3 SWAP2 POP POP JUMP INVALID LOG2 PUSH5 0x6970667358 0x22 SLT KECCAK256 0x2D 0xA7 0xC6 0xC1 EXTCODECOPY 0x4F 0xD1 0x2C 0xD7 SGT JUMPI PUSH30 0x2ACD49DCCF1AA5BD5200BAD062623B10D214EF7064736F6C634300081A00 CALLER "
				},
				"gasEstimates": {
					"creation": {
						"codeDepositCost": "55000",
						"executionCost": "103",
						"totalCost": "55103"
					},
					"external": {
						"f1()": "354",
						"f3()": "332",
						"returnValue()": "344"
					}
				},
				"methodIdentifiers": {
					"f1()": "c27fc305",
					"f3()": "aaf05f3d",
					"returnValue()": "990c8f79"
				}
			},
			"storageLayout": {
				"storage": [],
				"types": null
			},
			"userdoc": {
				"kind": "user",
				"methods": {},
				"version": 1
			}
		}
	}
}