{
	"contracts/ByteData.sol": {
		"ByteData": {
			"abi": [
				{
					"inputs": [],
					"name": "getter",
					"outputs": [
						{
							"internalType": "bytes1",
							"name": "",
							"type": "bytes1"
						}
					],
					"stateMutability": "view",
					"type": "function"
				},
				{
					"inputs": [
						{
							"internalType": "uint256",
							"name": "index",
							"type": "uint256"
						}
					],
					"name": "getterIndex",
					"outputs": [
						{
							"internalType": "bytes1",
							"name": "",
							"type": "bytes1"
						}
					],
					"stateMutability": "view",
					"type": "function"
				},
				{
					"inputs": [],
					"name": "n1",
					"outputs": [
						{
							"internalType": "bytes1",
							"name": "",
							"type": "bytes1"
						}
					],
					"stateMutability": "view",
					"type": "function"
				},
				{
					"inputs": [],
					"name": "n2",
					"outputs": [
						{
							"internalType": "bytes2",
							"name": "",
							"type": "bytes2"
						}
					],
					"stateMutability": "view",
					"type": "function"
				},
				{
					"inputs": [],
					"name": "n3",
					"outputs": [
						{
							"internalType": "bytes3",
							"name": "",
							"type": "bytes3"
						}
					],
					"stateMutability": "view",
					"type": "function"
				}
			],
			"devdoc": {
				"kind": "dev",
				"methods": {},
				"version": 1
			},
			"evm": {
				"assembly": "    /* \"contracts/ByteData.sol\":72:369  contract ByteData{... */\n  mstore(0x40, 0x80)\n    /* \"contracts/ByteData.sol\":96:119  bytes1 public  n1 = \"a\" */\n  0x6100000000000000000000000000000000000000000000000000000000000000\n  0x00\n  dup1\n  0x0100\n  exp\n  dup2\n  sload\n  dup2\n  0xff\n  mul\n  not\n  and\n  swap1\n  dup4\n  0xf8\n  shr\n  mul\n  or\n  swap1\n  sstore\n  pop\n    /* \"contracts/ByteData.sol\":126:149  bytes2 public n2 = \"ab\" */\n  0x6162000000000000000000000000000000000000000000000000000000000000\n  0x00\n  exp(0x0100, 0x01)\n  dup2\n  sload\n  dup2\n  0xffff\n  mul\n  not\n  and\n  swap1\n  dup4\n  0xf0\n  shr\n  mul\n  or\n  swap1\n  sstore\n  pop\n    /* \"contracts/ByteData.sol\":156:181  bytes3 public n3 =  \"abc\" */\n  0x6162630000000000000000000000000000000000000000000000000000000000\n  0x00\n  exp(0x0100, 0x03)\n  dup2\n  sload\n  dup2\n  0xffffff\n  mul\n  not\n  and\n  swap1\n  dup4\n  0xe8\n  shr\n  mul\n  or\n  swap1\n  sstore\n  pop\n    /* \"contracts/ByteData.sol\":72:369  contract ByteData{... */\n  callvalue\n  dup1\n  iszero\n  tag_1\n  jumpi\n  0x00\n  dup1\n  revert\ntag_1:\n  pop\n  dataSize(sub_0)\n  dup1\n  dataOffset(sub_0)\n  0x00\n  codecopy\n  0x00\n  return\nstop\n\nsub_0: assembly {\n        /* \"contracts/ByteData.sol\":72:369  contract ByteData{... */\n      mstore(0x40, 0x80)\n      callvalue\n      dup1\n      iszero\n      tag_1\n      jumpi\n      0x00\n      dup1\n      revert\n    tag_1:\n      pop\n      jumpi(tag_2, lt(calldatasize, 0x04))\n      shr(0xe0, calldataload(0x00))\n      dup1\n      0x36fe1f25\n      eq\n      tag_3\n      jumpi\n      dup1\n      0x4aaa831d\n      eq\n      tag_4\n      jumpi\n      dup1\n      0x562f5764\n      eq\n      tag_5\n      jumpi\n      dup1\n      0x993a04b7\n      eq\n      tag_6\n      jumpi\n      dup1\n      0xb95df403\n      eq\n      tag_7\n      jumpi\n    tag_2:\n      0x00\n      dup1\n      revert\n        /* \"contracts/ByteData.sol\":96:119  bytes1 public  n1 = \"a\" */\n    tag_3:\n      tag_8\n      tag_9\n      jump\t// in\n    tag_8:\n      mload(0x40)\n      tag_10\n      swap2\n      swap1\n      tag_11\n      jump\t// in\n    tag_10:\n      mload(0x40)\n      dup1\n      swap2\n      sub\n      swap1\n      return\n        /* \"contracts/ByteData.sol\":126:149  bytes2 public n2 = \"ab\" */\n    tag_4:\n      tag_12\n      tag_13\n      jump\t// in\n    tag_12:\n      mload(0x40)\n      tag_14\n      swap2\n      swap1\n      tag_15\n      jump\t// in\n    tag_14:\n      mload(0x40)\n      dup1\n      swap2\n      sub\n      swap1\n      return\n        /* \"contracts/ByteData.sol\":271:366  function getterIndex(uint index) public view returns(bytes1){... */\n    tag_5:\n      tag_16\n      0x04\n      dup1\n      calldatasize\n      sub\n      dup2\n      add\n      swap1\n      tag_17\n      swap2\n      swap1\n      tag_18\n      jump\t// in\n    tag_17:\n      tag_19\n      jump\t// in\n    tag_16:\n      mload(0x40)\n      tag_20\n      swap2\n      swap1\n      tag_11\n      jump\t// in\n    tag_20:\n      mload(0x40)\n      dup1\n      swap2\n      sub\n      swap1\n      return\n        /* \"contracts/ByteData.sol\":190:263  function getter() public view returns(bytes1){... */\n    tag_6:\n      tag_21\n      tag_22\n      jump\t// in\n    tag_21:\n      mload(0x40)\n      tag_23\n      swap2\n      swap1\n      tag_11\n      jump\t// in\n    tag_23:\n      mload(0x40)\n      dup1\n      swap2\n      sub\n      swap1\n      return\n        /* \"contracts/ByteData.sol\":156:181  bytes3 public n3 =  \"abc\" */\n    tag_7:\n      tag_24\n      tag_25\n      jump\t// in\n    tag_24:\n      mload(0x40)\n      tag_26\n      swap2\n      swap1\n      tag_27\n      jump\t// in\n    tag_26:\n      mload(0x40)\n      dup1\n      swap2\n      sub\n      swap1\n      return\n        /* \"contracts/ByteData.sol\":96:119  bytes1 public  n1 = \"a\" */\n    tag_9:\n      0x00\n      dup1\n      sload\n      swap1\n      0x0100\n      exp\n      swap1\n      div\n      0xf8\n      shl\n      dup2\n      jump\t// out\n        /* \"contracts/ByteData.sol\":126:149  bytes2 public n2 = \"ab\" */\n    tag_13:\n      0x00\n      0x01\n      swap1\n      sload\n      swap1\n      0x0100\n      exp\n      swap1\n      div\n      0xf0\n      shl\n      dup2\n      jump\t// out\n        /* \"contracts/ByteData.sol\":271:366  function getterIndex(uint index) public view returns(bytes1){... */\n    tag_19:\n        /* \"contracts/ByteData.sol\":324:330  bytes1 */\n      0x00\n        /* \"contracts/ByteData.sol\":349:351  n3 */\n      dup1\n      0x03\n      swap1\n      sload\n      swap1\n      0x0100\n      exp\n      swap1\n      div\n      0xe8\n      shl\n        /* \"contracts/ByteData.sol\":352:357  index */\n      dup3\n        /* \"contracts/ByteData.sol\":349:358  n3[index] */\n      0x03\n      dup2\n      lt\n      tag_29\n      jumpi\n      tag_30\n      tag_31\n      jump\t// in\n    tag_30:\n    tag_29:\n      byte\n      0xf8\n      shl\n        /* \"contracts/ByteData.sol\":342:358  return n3[index] */\n      swap1\n      pop\n        /* \"contracts/ByteData.sol\":271:366  function getterIndex(uint index) public view returns(bytes1){... */\n      swap2\n      swap1\n      pop\n      jump\t// out\n        /* \"contracts/ByteData.sol\":190:263  function getter() public view returns(bytes1){... */\n    tag_22:\n        /* \"contracts/ByteData.sol\":228:234  bytes1 */\n      0x00\n        /* \"contracts/ByteData.sol\":253:255  n1 */\n      dup1\n      0x00\n      swap1\n      sload\n      swap1\n      0x0100\n      exp\n      swap1\n      div\n      0xf8\n      shl\n        /* \"contracts/ByteData.sol\":246:255  return n1 */\n      swap1\n      pop\n        /* \"contracts/ByteData.sol\":190:263  function getter() public view returns(bytes1){... */\n      swap1\n      jump\t// out\n        /* \"contracts/ByteData.sol\":156:181  bytes3 public n3 =  \"abc\" */\n    tag_25:\n      0x00\n      0x03\n      swap1\n      sload\n      swap1\n      0x0100\n      exp\n      swap1\n      div\n      0xe8\n      shl\n      dup2\n      jump\t// out\n        /* \"#utility.yul\":7:156   */\n    tag_33:\n        /* \"#utility.yul\":43:50   */\n      0x00\n        /* \"#utility.yul\":83:149   */\n      0xff00000000000000000000000000000000000000000000000000000000000000\n        /* \"#utility.yul\":76:81   */\n      dup3\n        /* \"#utility.yul\":72:150   */\n      and\n        /* \"#utility.yul\":61:150   */\n      swap1\n      pop\n        /* \"#utility.yul\":7:156   */\n      swap2\n      swap1\n      pop\n      jump\t// out\n        /* \"#utility.yul\":162:277   */\n    tag_34:\n        /* \"#utility.yul\":247:270   */\n      tag_48\n        /* \"#utility.yul\":264:269   */\n      dup2\n        /* \"#utility.yul\":247:270   */\n      tag_33\n      jump\t// in\n    tag_48:\n        /* \"#utility.yul\":242:245   */\n      dup3\n        /* \"#utility.yul\":235:271   */\n      mstore\n        /* \"#utility.yul\":162:277   */\n      pop\n      pop\n      jump\t// out\n        /* \"#utility.yul\":283:501   */\n    tag_11:\n        /* \"#utility.yul\":374:378   */\n      0x00\n        /* \"#utility.yul\":412:414   */\n      0x20\n        /* \"#utility.yul\":401:410   */\n      dup3\n        /* \"#utility.yul\":397:415   */\n      add\n        /* \"#utility.yul\":389:415   */\n      swap1\n      pop\n        /* \"#utility.yul\":425:494   */\n      tag_50\n        /* \"#utility.yul\":491:492   */\n      0x00\n        /* \"#utility.yul\":480:489   */\n      dup4\n        /* \"#utility.yul\":476:493   */\n      add\n        /* \"#utility.yul\":467:473   */\n      dup5\n        /* \"#utility.yul\":425:494   */\n      tag_34\n      jump\t// in\n    tag_50:\n        /* \"#utility.yul\":283:501   */\n      swap3\n      swap2\n      pop\n      pop\n      jump\t// out\n        /* \"#utility.yul\":507:656   */\n    tag_35:\n        /* \"#utility.yul\":543:550   */\n      0x00\n        /* \"#utility.yul\":583:649   */\n      0xffff000000000000000000000000000000000000000000000000000000000000\n        /* \"#utility.yul\":576:581   */\n      dup3\n        /* \"#utility.yul\":572:650   */\n      and\n        /* \"#utility.yul\":561:650   */\n      swap1\n      pop\n        /* \"#utility.yul\":507:656   */\n      swap2\n      swap1\n      pop\n      jump\t// out\n        /* \"#utility.yul\":662:777   */\n    tag_36:\n        /* \"#utility.yul\":747:770   */\n      tag_53\n        /* \"#utility.yul\":764:769   */\n      dup2\n        /* \"#utility.yul\":747:770   */\n      tag_35\n      jump\t// in\n    tag_53:\n        /* \"#utility.yul\":742:745   */\n      dup3\n        /* \"#utility.yul\":735:771   */\n      mstore\n        /* \"#utility.yul\":662:777   */\n      pop\n      pop\n      jump\t// out\n        /* \"#utility.yul\":783:1001   */\n    tag_15:\n        /* \"#utility.yul\":874:878   */\n      0x00\n        /* \"#utility.yul\":912:914   */\n      0x20\n        /* \"#utility.yul\":901:910   */\n      dup3\n        /* \"#utility.yul\":897:915   */\n      add\n        /* \"#utility.yul\":889:915   */\n      swap1\n      pop\n        /* \"#utility.yul\":925:994   */\n      tag_55\n        /* \"#utility.yul\":991:992   */\n      0x00\n        /* \"#utility.yul\":980:989   */\n      dup4\n        /* \"#utility.yul\":976:993   */\n      add\n        /* \"#utility.yul\":967:973   */\n      dup5\n        /* \"#utility.yul\":925:994   */\n      tag_36\n      jump\t// in\n    tag_55:\n        /* \"#utility.yul\":783:1001   */\n      swap3\n      swap2\n      pop\n      pop\n      jump\t// out\n        /* \"#utility.yul\":1088:1205   */\n    tag_38:\n        /* \"#utility.yul\":1197:1198   */\n      0x00\n        /* \"#utility.yul\":1194:1195   */\n      dup1\n        /* \"#utility.yul\":1187:1199   */\n      revert\n        /* \"#utility.yul\":1334:1411   */\n    tag_40:\n        /* \"#utility.yul\":1371:1378   */\n      0x00\n        /* \"#utility.yul\":1400:1405   */\n      dup2\n        /* \"#utility.yul\":1389:1405   */\n      swap1\n      pop\n        /* \"#utility.yul\":1334:1411   */\n      swap2\n      swap1\n      pop\n      jump\t// out\n        /* \"#utility.yul\":1417:1539   */\n    tag_41:\n        /* \"#utility.yul\":1490:1514   */\n      tag_61\n        /* \"#utility.yul\":1508:1513   */\n      dup2\n        /* \"#utility.yul\":1490:1514   */\n      tag_40\n      jump\t// in\n    tag_61:\n        /* \"#utility.yul\":1483:1488   */\n      dup2\n        /* \"#utility.yul\":1480:1515   */\n      eq\n        /* \"#utility.yul\":1470:1533   */\n      tag_62\n      jumpi\n        /* \"#utility.yul\":1529:1530   */\n      0x00\n        /* \"#utility.yul\":1526:1527   */\n      dup1\n        /* \"#utility.yul\":1519:1531   */\n      revert\n        /* \"#utility.yul\":1470:1533   */\n    tag_62:\n        /* \"#utility.yul\":1417:1539   */\n      pop\n      jump\t// out\n        /* \"#utility.yul\":1545:1684   */\n    tag_42:\n        /* \"#utility.yul\":1591:1596   */\n      0x00\n        /* \"#utility.yul\":1629:1635   */\n      dup2\n        /* \"#utility.yul\":1616:1636   */\n      calldataload\n        /* \"#utility.yul\":1607:1636   */\n      swap1\n      pop\n        /* \"#utility.yul\":1645:1678   */\n      tag_64\n        /* \"#utility.yul\":1672:1677   */\n      dup2\n        /* \"#utility.yul\":1645:1678   */\n      tag_41\n      jump\t// in\n    tag_64:\n        /* \"#utility.yul\":1545:1684   */\n      swap3\n      swap2\n      pop\n      pop\n      jump\t// out\n        /* \"#utility.yul\":1690:2019   */\n    tag_18:\n        /* \"#utility.yul\":1749:1755   */\n      0x00\n        /* \"#utility.yul\":1798:1800   */\n      0x20\n        /* \"#utility.yul\":1786:1795   */\n      dup3\n        /* \"#utility.yul\":1777:1784   */\n      dup5\n        /* \"#utility.yul\":1773:1796   */\n      sub\n        /* \"#utility.yul\":1769:1801   */\n      slt\n        /* \"#utility.yul\":1766:1885   */\n      iszero\n      tag_66\n      jumpi\n        /* \"#utility.yul\":1804:1883   */\n      tag_67\n      tag_38\n      jump\t// in\n    tag_67:\n        /* \"#utility.yul\":1766:1885   */\n    tag_66:\n        /* \"#utility.yul\":1924:1925   */\n      0x00\n        /* \"#utility.yul\":1949:2002   */\n      tag_68\n        /* \"#utility.yul\":1994:2001   */\n      dup5\n        /* \"#utility.yul\":1985:1991   */\n      dup3\n        /* \"#utility.yul\":1974:1983   */\n      dup6\n        /* \"#utility.yul\":1970:1992   */\n      add\n        /* \"#utility.yul\":1949:2002   */\n      tag_42\n      jump\t// in\n    tag_68:\n        /* \"#utility.yul\":1939:2002   */\n      swap2\n      pop\n        /* \"#utility.yul\":1895:2012   */\n      pop\n        /* \"#utility.yul\":1690:2019   */\n      swap3\n      swap2\n      pop\n      pop\n      jump\t// out\n        /* \"#utility.yul\":2025:2174   */\n    tag_43:\n        /* \"#utility.yul\":2061:2068   */\n      0x00\n        /* \"#utility.yul\":2101:2167   */\n      0xffffff0000000000000000000000000000000000000000000000000000000000\n        /* \"#utility.yul\":2094:2099   */\n      dup3\n        /* \"#utility.yul\":2090:2168   */\n      and\n        /* \"#utility.yul\":2079:2168   */\n      swap1\n      pop\n        /* \"#utility.yul\":2025:2174   */\n      swap2\n      swap1\n      pop\n      jump\t// out\n        /* \"#utility.yul\":2180:2295   */\n    tag_44:\n        /* \"#utility.yul\":2265:2288   */\n      tag_71\n        /* \"#utility.yul\":2282:2287   */\n      dup2\n        /* \"#utility.yul\":2265:2288   */\n      tag_43\n      jump\t// in\n    tag_71:\n        /* \"#utility.yul\":2260:2263   */\n      dup3\n        /* \"#utility.yul\":2253:2289   */\n      mstore\n        /* \"#utility.yul\":2180:2295   */\n      pop\n      pop\n      jump\t// out\n        /* \"#utility.yul\":2301:2519   */\n    tag_27:\n        /* \"#utility.yul\":2392:2396   */\n      0x00\n        /* \"#utility.yul\":2430:2432   */\n      0x20\n        /* \"#utility.yul\":2419:2428   */\n      dup3\n        /* \"#utility.yul\":2415:2433   */\n      add\n        /* \"#utility.yul\":2407:2433   */\n      swap1\n      pop\n        /* \"#utility.yul\":2443:2512   */\n      tag_73\n        /* \"#utility.yul\":2509:2510   */\n      0x00\n        /* \"#utility.yul\":2498:2507   */\n      dup4\n        /* \"#utility.yul\":2494:2511   */\n      add\n        /* \"#utility.yul\":2485:2491   */\n      dup5\n        /* \"#utility.yul\":2443:2512   */\n      tag_44\n      jump\t// in\n    tag_73:\n        /* \"#utility.yul\":2301:2519   */\n      swap3\n      swap2\n      pop\n      pop\n      jump\t// out\n        /* \"#utility.yul\":2525:2705   */\n    tag_31:\n        /* \"#utility.yul\":2573:2650   */\n      0x4e487b7100000000000000000000000000000000000000000000000000000000\n        /* \"#utility.yul\":2570:2571   */\n      0x00\n        /* \"#utility.yul\":2563:2651   */\n      mstore\n        /* \"#utility.yul\":2670:2674   */\n      0x32\n        /* \"#utility.yul\":2667:2668   */\n      0x04\n        /* \"#utility.yul\":2660:2675   */\n      mstore\n        /* \"#utility.yul\":2694:2698   */\n      0x24\n        /* \"#utility.yul\":2691:2692   */\n      0x00\n        /* \"#utility.yul\":2684:2699   */\n      revert\n\n    auxdata: 0xa264697066735822122067b93b2c1c8e9700853c9ec6c9933eaf93441c25d7f88bf24af2386a441b623564736f6c634300081a0033\n}\n",
				"bytecode": {
					"linkReferences": {},
					"object": "60806040527f61000000000000000000000000000000000000000000000000000000000000005f806101000a81548160ff021916908360f81c02179055507f61620000000000000000000000000000000000000000000000000000000000005f60016101000a81548161ffff021916908360f01c02179055507f61626300000000000000000000000000000000000000000000000000000000005f60036101000a81548162ffffff021916908360e81c021790555034801560be575f80fd5b50610334806100cc5f395ff3fe608060405234801561000f575f80fd5b5060043610610055575f3560e01c806336fe1f25146100595780634aaa831d14610077578063562f576414610095578063993a04b7146100c5578063b95df403146100e3575b5f80fd5b610061610101565b60405161006e91906101b0565b60405180910390f35b61007f610111565b60405161008c9190610203565b60405180910390f35b6100af60048036038101906100aa9190610253565b610123565b6040516100bc91906101b0565b60405180910390f35b6100cd610150565b6040516100da91906101b0565b60405180910390f35b6100eb610164565b6040516100f891906102b8565b60405180910390f35b5f8054906101000a900460f81b81565b5f60019054906101000a900460f01b81565b5f8060039054906101000a900460e81b8260038110610145576101446102d1565b5b1a60f81b9050919050565b5f805f9054906101000a900460f81b905090565b5f60039054906101000a900460e81b81565b5f7fff0000000000000000000000000000000000000000000000000000000000000082169050919050565b6101aa81610176565b82525050565b5f6020820190506101c35f8301846101a1565b92915050565b5f7fffff00000000000000000000000000000000000000000000000000000000000082169050919050565b6101fd816101c9565b82525050565b5f6020820190506102165f8301846101f4565b92915050565b5f80fd5b5f819050919050565b61023281610220565b811461023c575f80fd5b50565b5f8135905061024d81610229565b92915050565b5f602082840312156102685761026761021c565b5b5f6102758482850161023f565b91505092915050565b5f7fffffff000000000000000000000000000000000000000000000000000000000082169050919050565b6102b28161027e565b82525050565b5f6020820190506102cb5f8301846102a9565b92915050565b7f4e487b71000000000000000000000000000000000000000000000000000000005f52603260045260245ffdfea264697066735822122067b93b2c1c8e9700853c9ec6c9933eaf93441c25d7f88bf24af2386a441b623564736f6c634300081a0033",
					"opcodes": "PUSH1 0x80 PUSH1 0x40 MSTORE PUSH32 0x6100000000000000000000000000000000000000000000000000000000000000 PUSH0 DUP1 PUSH2 0x100 EXP DUP2 SLOAD DUP2 PUSH1 0xFF MUL NOT AND SWAP1 DUP4 PUSH1 0xF8 SHR MUL OR SWAP1 SSTORE POP PUSH32 0x6162000000000000000000000000000000000000000000000000000000000000 PUSH0 PUSH1 0x1 PUSH2 0x100 EXP DUP2 SLOAD DUP2 PUSH2 0xFFFF MUL NOT AND SWAP1 DUP4 PUSH1 0xF0 SHR MUL OR SWAP1 SSTORE POP PUSH32 0x6162630000000000000000000000000000000000000000000000000000000000 PUSH0 PUSH1 0x3 PUSH2 0x100 EXP DUP2 SLOAD DUP2 PUSH3 0xFFFFFF MUL NOT AND SWAP1 DUP4 PUSH1 0xE8 SHR MUL OR SWAP1 SSTORE POP CALLVALUE DUP1 ISZERO PUSH1 0xBE JUMPI PUSH0 DUP1 REVERT JUMPDEST POP PUSH2 0x334 DUP1 PUSH2 0xCC PUSH0 CODECOPY PUSH0 RETURN INVALID PUSH1 0x80 PUSH1 0x40 MSTORE CALLVALUE DUP1 ISZERO PUSH2 0xF JUMPI PUSH0 DUP1 REVERT JUMPDEST POP PUSH1 0x4 CALLDATASIZE LT PUSH2 0x55 JUMPI PUSH0 CALLDATALOAD PUSH1 0xE0 SHR DUP1 PUSH4 0x36FE1F25 EQ PUSH2 0x59 JUMPI DUP1 PUSH4 0x4AAA831D EQ PUSH2 0x77 JUMPI DUP1 PUSH4 0x562F5764 EQ PUSH2 0x95 JUMPI DUP1 PUSH4 0x993A04B7 EQ PUSH2 0xC5 JUMPI DUP1 PUSH4 0xB95DF403 EQ PUSH2 0xE3 JUMPI JUMPDEST PUSH0 DUP1 REVERT JUMPDEST PUSH2 0x61 PUSH2 0x101 JUMP JUMPDEST PUSH1 0x40 MLOAD PUSH2 0x6E SWAP2 SWAP1 PUSH2 0x1B0 JUMP JUMPDEST PUSH1 0x40 MLOAD DUP1 SWAP2 SUB SWAP1 RETURN JUMPDEST PUSH2 0x7F PUSH2 0x111 JUMP JUMPDEST PUSH1 0x40 MLOAD PUSH2 0x8C SWAP2 SWAP1 PUSH2 0x203 JUMP JUMPDEST PUSH1 0x40 MLOAD DUP1 SWAP2 SUB SWAP1 RETURN JUMPDEST PUSH2 0xAF PUSH1 0x4 DUP1 CALLDATASIZE SUB DUP2 ADD SWAP1 PUSH2 0xAA SWAP2 SWAP1 PUSH2 0x253 JUMP JUMPDEST PUSH2 0x123 JUMP JUMPDEST PUSH1 0x40 MLOAD PUSH2 0xBC SWAP2 SWAP1 PUSH2 0x1B0 JUMP JUMPDEST PUSH1 0x40 MLOAD DUP1 SWAP2 SUB SWAP1 RETURN JUMPDEST PUSH2 0xCD PUSH2 0x150 JUMP JUMPDEST PUSH1 0x40 MLOAD PUSH2 0xDA SWAP2 SWAP1 PUSH2 0x1B0 JUMP JUMPDEST PUSH1 0x40 MLOAD DUP1 SWAP2 SUB SWAP1 RETURN JUMPDEST PUSH2 0xEB PUSH2 0x164 JUMP JUMPDEST PUSH1 0x40 MLOAD PUSH2 0xF8 SWAP2 SWAP1 PUSH2 0x2B8 JUMP JUMPDEST PUSH1 0x40 MLOAD DUP1 SWAP2 SUB SWAP1 RETURN JUMPDEST PUSH0 DUP1 SLOAD SWAP1 PUSH2 0x100 EXP SWAP1 DIV PUSH1 0xF8 SHL DUP2 JUMP JUMPDEST PUSH0 PUSH1 0x1 SWAP1 SLOAD SWAP1 PUSH2 0x100 EXP SWAP1 DIV PUSH1 0xF0 SHL DUP2 JUMP JUMPDEST PUSH0 DUP1 PUSH1 0x3 SWAP1 SLOAD SWAP1 PUSH2 0x100 EXP SWAP1 DIV PUSH1 0xE8 SHL DUP3 PUSH1 0x3 DUP2 LT PUSH2 0x145 JUMPI PUSH2 0x144 PUSH2 0x2D1 JUMP JUMPDEST JUMPDEST BYTE PUSH1 0xF8 SHL SWAP1 POP SWAP2 SWAP1 POP JUMP JUMPDEST PUSH0 DUP1 PUSH0 SWAP1 SLOAD SWAP1 PUSH2 0x100 EXP SWAP1 DIV PUSH1 0xF8 SHL SWAP1 POP SWAP1 JUMP JUMPDEST PUSH0 PUSH1 0x3 SWAP1 SLOAD SWAP1 PUSH2 0x100 EXP SWAP1 DIV PUSH1 0xE8 SHL DUP2 JUMP JUMPDEST PUSH0 PUSH32 0xFF00000000000000000000000000000000000000000000000000000000000000 DUP3 AND SWAP1 POP SWAP2 SWAP1 POP JUMP JUMPDEST PUSH2 0x1AA DUP2 PUSH2 0x176 JUMP JUMPDEST DUP3 MSTORE POP POP JUMP JUMPDEST PUSH0 PUSH1 0x20 DUP3 ADD SWAP1 POP PUSH2 0x1C3 PUSH0 DUP4 ADD DUP5 PUSH2 0x1A1 JUMP JUMPDEST SWAP3 SWAP2 POP POP JUMP JUMPDEST PUSH0 PUSH32 0xFFFF000000000000000000000000000000000000000000000000000000000000 DUP3 AND SWAP1 POP SWAP2 SWAP1 POP JUMP JUMPDEST PUSH2 0x1FD DUP2 PUSH2 0x1C9 JUMP JUMPDEST DUP3 MSTORE POP POP JUMP JUMPDEST PUSH0 PUSH1 0x20 DUP3 ADD SWAP1 POP PUSH2 0x216 PUSH0 DUP4 ADD DUP5 PUSH2 0x1F4 JUMP JUMPDEST SWAP3 SWAP2 POP POP JUMP JUMPDEST PUSH0 DUP1 REVERT JUMPDEST PUSH0 DUP2 SWAP1 POP SWAP2 SWAP1 POP JUMP JUMPDEST PUSH2 0x232 DUP2 PUSH2 0x220 JUMP JUMPDEST DUP2 EQ PUSH2 0x23C JUMPI PUSH0 DUP1 REVERT JUMPDEST POP JUMP JUMPDEST PUSH0 DUP2 CALLDATALOAD SWAP1 POP PUSH2 0x24D DUP2 PUSH2 0x229 JUMP JUMPDEST SWAP3 SWAP2 POP POP JUMP JUMPDEST PUSH0 PUSH1 0x20 DUP3 DUP5 SUB SLT ISZERO PUSH2 0x268 JUMPI PUSH2 0x267 PUSH2 0x21C JUMP JUMPDEST JUMPDEST PUSH0 PUSH2 0x275 DUP5 DUP3 DUP6 ADD PUSH2 0x23F JUMP JUMPDEST SWAP2 POP POP SWAP3 SWAP2 POP POP JUMP JUMPDEST PUSH0 PUSH32 0xFFFFFF0000000000000000000000000000000000000000000000000000000000 DUP3 AND SWAP1 POP SWAP2 SWAP1 POP JUMP JUMPDEST PUSH2 0x2B2 DUP2 PUSH2 0x27E JUMP JUMPDEST DUP3 MSTORE POP POP JUMP JUMPDEST PUSH0 PUSH1 0x20 DUP3 ADD SWAP1 POP PUSH2 0x2CB PUSH0 DUP4 ADD DUP5 PUSH2 0x2A9 JUMP JUMPDEST SWAP3 SWAP2 POP POP JUMP JUMPDEST PUSH32 0x4E487B7100000000000000000000000000000000000000000000000000000000 PUSH0 MSTORE PUSH1 0x32 PUSH1 0x4 MSTORE PUSH1 0x24 PUSH0 REVERT INVALID LOG2 PUSH5 0x6970667358 0x22 SLT KECCAK256 PUSH8 0xB93B2C1C8E970085 EXTCODECOPY SWAP15 0xC6 0xC9 SWAP4 RETURNDATACOPY 0xAF SWAP4 PREVRANDAO SHR 0x25 0xD7 0xF8 DUP12 CALLCODE BLOBBASEFEE CALLCODE CODESIZE PUSH11 0x441B623564736F6C634300 ADDMOD BYTE STOP CALLER "
				},
				"gasEstimates": {
					"creation": {
						"codeDepositCost": "164000",
						"executionCost": "73104",
						"totalCost": "237104"
					},
					"external": {
						"getter()": "2517",
						"getterIndex(uint256)": "2842",
						"n1()": "2441",
						"n2()": "2516",
						"n3()": "2582"
					}
				},
				"methodIdentifiers": {
					"getter()": "993a04b7",
					"getterIndex(uint256)": "562f5764",
					"n1()": "36fe1f25",
					"n2()": "4aaa831d",
					"n3()": "b95df403"
				}
			},
			"storageLayout": {
				"storage": [
					{
						"astId": 4,
						"contract": "contracts/ByteData.sol:ByteData",
						"label": "n1",
						"offset": 0,
						"slot": "0",
						"type": "t_bytes1"
					},
					{
						"astId": 7,
						"contract": "contracts/ByteData.sol:ByteData",
						"label": "n2",
						"offset": 1,
						"slot": "0",
						"type": "t_bytes2"
					},
					{
						"astId": 10,
						"contract": "contracts/ByteData.sol:ByteData",
						"label": "n3",
						"offset": 3,
						"slot": "0",
						"type": "t_bytes3"
					}
				],
				"types": {
					"t_bytes1": {
						"encoding": "inplace",
						"label": "bytes1",
						"numberOfBytes": "1"
					},
					"t_bytes2": {
						"encoding": "inplace",
						"label": "bytes2",
						"numberOfBytes": "2"
					},
					"t_bytes3": {
						"encoding": "inplace",
						"label": "bytes3",
						"numberOfBytes": "3"
					}
				}
			},
			"userdoc": {
				"kind": "user",
				"methods": {},
				"version": 1
			}
		}
	}
}