{
	"contracts/Array/memoryvsCallData.sol": {
		"MomeryVsCalldata": {
			"abi": [
				{
					"inputs": [
						{
							"internalType": "uint256",
							"name": "",
							"type": "uint256"
						}
					],
					"name": "arr",
					"outputs": [
						{
							"internalType": "uint256",
							"name": "",
							"type": "uint256"
						}
					],
					"stateMutability": "view",
					"type": "function"
				},
				{
					"inputs": [
						{
							"internalType": "uint256",
							"name": "index",
							"type": "uint256"
						},
						{
							"internalType": "uint256",
							"name": "element",
							"type": "uint256"
						}
					],
					"name": "insertElement",
					"outputs": [],
					"stateMutability": "nonpayable",
					"type": "function"
				},
				{
					"inputs": [
						{
							"internalType": "uint256[3]",
							"name": "num",
							"type": "uint256[3]"
						}
					],
					"name": "multiplyBy2Index0",
					"outputs": [
						{
							"internalType": "uint256[3]",
							"name": "",
							"type": "uint256[3]"
						}
					],
					"stateMutability": "pure",
					"type": "function"
				},
				{
					"inputs": [
						{
							"internalType": "uint256[3]",
							"name": "num",
							"type": "uint256[3]"
						}
					],
					"name": "passingArray",
					"outputs": [
						{
							"internalType": "uint256",
							"name": "",
							"type": "uint256"
						}
					],
					"stateMutability": "pure",
					"type": "function"
				},
				{
					"inputs": [],
					"name": "returnAllElemenst",
					"outputs": [
						{
							"internalType": "uint256[5]",
							"name": "",
							"type": "uint256[5]"
						}
					],
					"stateMutability": "view",
					"type": "function"
				},
				{
					"inputs": [
						{
							"internalType": "uint256",
							"name": "index",
							"type": "uint256"
						}
					],
					"name": "returnElement",
					"outputs": [
						{
							"internalType": "uint256",
							"name": "",
							"type": "uint256"
						}
					],
					"stateMutability": "view",
					"type": "function"
				}
			],
			"devdoc": {
				"kind": "dev",
				"methods": {},
				"version": 1
			},
			"evm": {
				"assembly": "    /* \"contracts/Array/memoryvsCallData.sol\":69:973  contract MomeryVsCalldata{... */\n  mstore(0x40, 0x80)\n    /* \"contracts/Array/memoryvsCallData.sol\":101:130  uint[5] public arr = [ 2,2,3] */\n  mload(0x40)\n  dup1\n  0x60\n  add\n  0x40\n  mstore\n  dup1\n    /* \"contracts/Array/memoryvsCallData.sol\":124:125  2 */\n  0x02\n    /* \"contracts/Array/memoryvsCallData.sol\":101:130  uint[5] public arr = [ 2,2,3] */\n  0xff\n  and\n  dup2\n  mstore\n  0x20\n  add\n    /* \"contracts/Array/memoryvsCallData.sol\":126:127  2 */\n  0x02\n    /* \"contracts/Array/memoryvsCallData.sol\":101:130  uint[5] public arr = [ 2,2,3] */\n  0xff\n  and\n  dup2\n  mstore\n  0x20\n  add\n    /* \"contracts/Array/memoryvsCallData.sol\":128:129  3 */\n  0x03\n    /* \"contracts/Array/memoryvsCallData.sol\":101:130  uint[5] public arr = [ 2,2,3] */\n  0xff\n  and\n  dup2\n  mstore\n  pop\n  0x00\n  swap1\n  0x03\n  tag_1\n  swap3\n  swap2\n  swap1\n  tag_2\n  jump\t// in\ntag_1:\n  pop\n    /* \"contracts/Array/memoryvsCallData.sol\":69:973  contract MomeryVsCalldata{... */\n  callvalue\n  dup1\n  iszero\n  tag_3\n  jumpi\n  0x00\n  dup1\n  revert\ntag_3:\n  pop\n  jump(tag_4)\ntag_2:\n  dup3\n  0x05\n  dup2\n  add\n  swap3\n  dup3\n  iszero\n  tag_5\n  jumpi\n  swap2\n  0x20\n  mul\n  dup3\n  add\ntag_6:\n  dup3\n  dup2\n  gt\n  iszero\n  tag_7\n  jumpi\n  dup3\n  mload\n  dup3\n  swap1\n  0xff\n  and\n  swap1\n  sstore\n  swap2\n  0x20\n  add\n  swap2\n  swap1\n  0x01\n  add\n  swap1\n  jump(tag_6)\ntag_7:\ntag_5:\n  pop\n  swap1\n  pop\n  tag_8\n  swap2\n  swap1\n  tag_9\n  jump\t// in\ntag_8:\n  pop\n  swap1\n  jump\t// out\ntag_9:\ntag_10:\n  dup1\n  dup3\n  gt\n  iszero\n  tag_11\n  jumpi\n  0x00\n  dup2\n  0x00\n  swap1\n  sstore\n  pop\n  0x01\n  add\n  jump(tag_10)\ntag_11:\n  pop\n  swap1\n  jump\t// out\ntag_4:\n  dataSize(sub_0)\n  dup1\n  dataOffset(sub_0)\n  0x00\n  codecopy\n  0x00\n  return\nstop\n\nsub_0: assembly {\n        /* \"contracts/Array/memoryvsCallData.sol\":69:973  contract MomeryVsCalldata{... */\n      mstore(0x40, 0x80)\n      callvalue\n      dup1\n      iszero\n      tag_1\n      jumpi\n      0x00\n      dup1\n      revert\n    tag_1:\n      pop\n      jumpi(tag_2, lt(calldatasize, 0x04))\n      shr(0xe0, calldataload(0x00))\n      dup1\n      0x10db3c9f\n      eq\n      tag_3\n      jumpi\n      dup1\n      0x5c269bcc\n      eq\n      tag_4\n      jumpi\n      dup1\n      0x687b31c6\n      eq\n      tag_5\n      jumpi\n      dup1\n      0x71e5ee5f\n      eq\n      tag_6\n      jumpi\n      dup1\n      0x98b0dee9\n      eq\n      tag_7\n      jumpi\n      dup1\n      0x9a288ce0\n      eq\n      tag_8\n      jumpi\n    tag_2:\n      0x00\n      dup1\n      revert\n        /* \"contracts/Array/memoryvsCallData.sol\":669:763  function insertElement(uint index, uint element) public{... */\n    tag_3:\n      tag_9\n      0x04\n      dup1\n      calldatasize\n      sub\n      dup2\n      add\n      swap1\n      tag_10\n      swap2\n      swap1\n      tag_11\n      jump\t// in\n    tag_10:\n      tag_12\n      jump\t// in\n    tag_9:\n      stop\n        /* \"contracts/Array/memoryvsCallData.sol\":771:867  function returnElement(uint index) public view returns(uint){... */\n    tag_4:\n      tag_13\n      0x04\n      dup1\n      calldatasize\n      sub\n      dup2\n      add\n      swap1\n      tag_14\n      swap2\n      swap1\n      tag_15\n      jump\t// in\n    tag_14:\n      tag_16\n      jump\t// in\n    tag_13:\n      mload(0x40)\n      tag_17\n      swap2\n      swap1\n      tag_18\n      jump\t// in\n    tag_17:\n      mload(0x40)\n      dup1\n      swap2\n      sub\n      swap1\n      return\n        /* \"contracts/Array/memoryvsCallData.sol\":875:968  function returnAllElemenst() public view returns(uint[5] memory){... */\n    tag_5:\n      tag_19\n      tag_20\n      jump\t// in\n    tag_19:\n      mload(0x40)\n      tag_21\n      swap2\n      swap1\n      tag_22\n      jump\t// in\n    tag_21:\n      mload(0x40)\n      dup1\n      swap2\n      sub\n      swap1\n      return\n        /* \"contracts/Array/memoryvsCallData.sol\":101:130  uint[5] public arr = [ 2,2,3] */\n    tag_6:\n      tag_23\n      0x04\n      dup1\n      calldatasize\n      sub\n      dup2\n      add\n      swap1\n      tag_24\n      swap2\n      swap1\n      tag_15\n      jump\t// in\n    tag_24:\n      tag_25\n      jump\t// in\n    tag_23:\n      mload(0x40)\n      tag_26\n      swap2\n      swap1\n      tag_18\n      jump\t// in\n    tag_26:\n      mload(0x40)\n      dup1\n      swap2\n      sub\n      swap1\n      return\n        /* \"contracts/Array/memoryvsCallData.sol\":183:331  function multiplyBy2Index0(uint[3] memory num) public pure returns(uint[3] memory){... */\n    tag_7:\n      tag_27\n      0x04\n      dup1\n      calldatasize\n      sub\n      dup2\n      add\n      swap1\n      tag_28\n      swap2\n      swap1\n      tag_29\n      jump\t// in\n    tag_28:\n      tag_30\n      jump\t// in\n    tag_27:\n      mload(0x40)\n      tag_31\n      swap2\n      swap1\n      tag_32\n      jump\t// in\n    tag_31:\n      mload(0x40)\n      dup1\n      swap2\n      sub\n      swap1\n      return\n        /* \"contracts/Array/memoryvsCallData.sol\":518:657  function passingArray(uint[3] calldata num) public pure returns(uint){... */\n    tag_8:\n      tag_33\n      0x04\n      dup1\n      calldatasize\n      sub\n      dup2\n      add\n      swap1\n      tag_34\n      swap2\n      swap1\n      tag_35\n      jump\t// in\n    tag_34:\n      tag_36\n      jump\t// in\n    tag_33:\n      mload(0x40)\n      tag_37\n      swap2\n      swap1\n      tag_18\n      jump\t// in\n    tag_37:\n      mload(0x40)\n      dup1\n      swap2\n      sub\n      swap1\n      return\n        /* \"contracts/Array/memoryvsCallData.sol\":669:763  function insertElement(uint index, uint element) public{... */\n    tag_12:\n        /* \"contracts/Array/memoryvsCallData.sol\":748:755  element */\n      dup1\n        /* \"contracts/Array/memoryvsCallData.sol\":735:738  arr */\n      0x00\n        /* \"contracts/Array/memoryvsCallData.sol\":739:744  index */\n      dup4\n        /* \"contracts/Array/memoryvsCallData.sol\":735:745  arr[index] */\n      0x05\n      dup2\n      lt\n      tag_39\n      jumpi\n      tag_40\n      tag_41\n      jump\t// in\n    tag_40:\n    tag_39:\n      add\n        /* \"contracts/Array/memoryvsCallData.sol\":735:755  arr[index] = element */\n      dup2\n      swap1\n      sstore\n      pop\n        /* \"contracts/Array/memoryvsCallData.sol\":669:763  function insertElement(uint index, uint element) public{... */\n      pop\n      pop\n      jump\t// out\n        /* \"contracts/Array/memoryvsCallData.sol\":771:867  function returnElement(uint index) public view returns(uint){... */\n    tag_16:\n        /* \"contracts/Array/memoryvsCallData.sol\":826:830  uint */\n      0x00\n        /* \"contracts/Array/memoryvsCallData.sol\":849:852  arr */\n      dup1\n        /* \"contracts/Array/memoryvsCallData.sol\":853:858  index */\n      dup3\n        /* \"contracts/Array/memoryvsCallData.sol\":849:859  arr[index] */\n      0x05\n      dup2\n      lt\n      tag_44\n      jumpi\n      tag_45\n      tag_41\n      jump\t// in\n    tag_45:\n    tag_44:\n      add\n      sload\n        /* \"contracts/Array/memoryvsCallData.sol\":842:859  return arr[index] */\n      swap1\n      pop\n        /* \"contracts/Array/memoryvsCallData.sol\":771:867  function returnElement(uint index) public view returns(uint){... */\n      swap2\n      swap1\n      pop\n      jump\t// out\n        /* \"contracts/Array/memoryvsCallData.sol\":875:968  function returnAllElemenst() public view returns(uint[5] memory){... */\n    tag_20:\n        /* \"contracts/Array/memoryvsCallData.sol\":924:938  uint[5] memory */\n      tag_47\n      tag_48\n      jump\t// in\n    tag_47:\n        /* \"contracts/Array/memoryvsCallData.sol\":957:960  arr */\n      0x00\n        /* \"contracts/Array/memoryvsCallData.sol\":950:960  return arr */\n      0x05\n      dup1\n      0x20\n      mul\n      mload(0x40)\n      swap1\n      dup2\n      add\n      0x40\n      mstore\n      dup1\n      swap3\n      swap2\n      swap1\n      dup3\n      0x05\n      dup1\n      iszero\n      tag_50\n      jumpi\n      0x20\n      mul\n      dup3\n      add\n      swap2\n    tag_51:\n      dup2\n      sload\n      dup2\n      mstore\n      0x20\n      add\n      swap1\n      0x01\n      add\n      swap1\n      dup1\n      dup4\n      gt\n      tag_51\n      jumpi\n    tag_50:\n      pop\n      pop\n      pop\n      pop\n      pop\n      swap1\n      pop\n        /* \"contracts/Array/memoryvsCallData.sol\":875:968  function returnAllElemenst() public view returns(uint[5] memory){... */\n      swap1\n      jump\t// out\n        /* \"contracts/Array/memoryvsCallData.sol\":101:130  uint[5] public arr = [ 2,2,3] */\n    tag_25:\n      0x00\n      dup2\n      0x05\n      dup2\n      lt\n      tag_52\n      jumpi\n      0x00\n      dup1\n      revert\n    tag_52:\n      add\n      0x00\n      swap2\n      pop\n      swap1\n      pop\n      sload\n      dup2\n      jump\t// out\n        /* \"contracts/Array/memoryvsCallData.sol\":183:331  function multiplyBy2Index0(uint[3] memory num) public pure returns(uint[3] memory){... */\n    tag_30:\n        /* \"contracts/Array/memoryvsCallData.sol\":250:264  uint[3] memory */\n      tag_54\n      tag_55\n      jump\t// in\n    tag_54:\n        /* \"contracts/Array/memoryvsCallData.sol\":287:290  num */\n      dup2\n        /* \"contracts/Array/memoryvsCallData.sol\":291:292  0 */\n      0x00\n        /* \"contracts/Array/memoryvsCallData.sol\":287:293  num[0] */\n      0x03\n      dup2\n      lt\n      tag_57\n      jumpi\n      tag_58\n      tag_41\n      jump\t// in\n    tag_58:\n    tag_57:\n      0x20\n      mul\n      add\n      mload\n        /* \"contracts/Array/memoryvsCallData.sol\":285:286  2 */\n      0x02\n        /* \"contracts/Array/memoryvsCallData.sol\":285:293  2*num[0] */\n      tag_59\n      swap2\n      swap1\n      tag_60\n      jump\t// in\n    tag_59:\n        /* \"contracts/Array/memoryvsCallData.sol\":276:279  num */\n      dup3\n        /* \"contracts/Array/memoryvsCallData.sol\":280:281  0 */\n      0x00\n        /* \"contracts/Array/memoryvsCallData.sol\":276:282  num[0] */\n      0x03\n      dup2\n      lt\n      tag_61\n      jumpi\n      tag_62\n      tag_41\n      jump\t// in\n    tag_62:\n    tag_61:\n      0x20\n      mul\n      add\n        /* \"contracts/Array/memoryvsCallData.sol\":276:293  num[0] = 2*num[0] */\n      dup2\n      dup2\n      mstore\n      pop\n      pop\n        /* \"contracts/Array/memoryvsCallData.sol\":320:323  num */\n      dup2\n        /* \"contracts/Array/memoryvsCallData.sol\":313:323  return num */\n      swap1\n      pop\n        /* \"contracts/Array/memoryvsCallData.sol\":183:331  function multiplyBy2Index0(uint[3] memory num) public pure returns(uint[3] memory){... */\n      swap2\n      swap1\n      pop\n      jump\t// out\n        /* \"contracts/Array/memoryvsCallData.sol\":518:657  function passingArray(uint[3] calldata num) public pure returns(uint){... */\n    tag_36:\n        /* \"contracts/Array/memoryvsCallData.sol\":582:586  uint */\n      0x00\n        /* \"contracts/Array/memoryvsCallData.sol\":598:604  uint a */\n      dup1\n        /* \"contracts/Array/memoryvsCallData.sol\":607:610  num */\n      dup3\n        /* \"contracts/Array/memoryvsCallData.sol\":611:612  0 */\n      0x00\n        /* \"contracts/Array/memoryvsCallData.sol\":607:613  num[0] */\n      0x03\n      dup2\n      lt\n      tag_64\n      jumpi\n      tag_65\n      tag_41\n      jump\t// in\n    tag_65:\n    tag_64:\n      0x20\n      mul\n      add\n      calldataload\n        /* \"contracts/Array/memoryvsCallData.sol\":598:613  uint a = num[0] */\n      swap1\n      pop\n        /* \"contracts/Array/memoryvsCallData.sol\":629:630  2 */\n      0x02\n        /* \"contracts/Array/memoryvsCallData.sol\":627:628  a */\n      dup2\n        /* \"contracts/Array/memoryvsCallData.sol\":627:630  a*2 */\n      tag_66\n      swap2\n      swap1\n      tag_60\n      jump\t// in\n    tag_66:\n        /* \"contracts/Array/memoryvsCallData.sol\":624:630  a= a*2 */\n      swap1\n      pop\n        /* \"contracts/Array/memoryvsCallData.sol\":648:649  a */\n      dup1\n        /* \"contracts/Array/memoryvsCallData.sol\":641:649  return a */\n      swap2\n      pop\n      pop\n        /* \"contracts/Array/memoryvsCallData.sol\":518:657  function passingArray(uint[3] calldata num) public pure returns(uint){... */\n      swap2\n      swap1\n      pop\n      jump\t// out\n    tag_48:\n      mload(0x40)\n      dup1\n      0xa0\n      add\n      0x40\n      mstore\n      dup1\n      0x05\n      swap1\n      0x20\n      dup3\n      mul\n      dup1\n      calldatasize\n      dup4\n      calldatacopy\n      dup1\n      dup3\n      add\n      swap2\n      pop\n      pop\n      swap1\n      pop\n      pop\n      swap1\n      jump\t// out\n    tag_55:\n      mload(0x40)\n      dup1\n      0x60\n      add\n      0x40\n      mstore\n      dup1\n      0x03\n      swap1\n      0x20\n      dup3\n      mul\n      dup1\n      calldatasize\n      dup4\n      calldatacopy\n      dup1\n      dup3\n      add\n      swap2\n      pop\n      pop\n      swap1\n      pop\n      pop\n      swap1\n      jump\t// out\n        /* \"#utility.yul\":7:82   */\n    tag_67:\n        /* \"#utility.yul\":40:46   */\n      0x00\n        /* \"#utility.yul\":73:75   */\n      0x40\n        /* \"#utility.yul\":67:76   */\n      mload\n        /* \"#utility.yul\":57:76   */\n      swap1\n      pop\n        /* \"#utility.yul\":7:82   */\n      swap1\n      jump\t// out\n        /* \"#utility.yul\":88:205   */\n    tag_68:\n        /* \"#utility.yul\":197:198   */\n      0x00\n        /* \"#utility.yul\":194:195   */\n      dup1\n        /* \"#utility.yul\":187:199   */\n      revert\n        /* \"#utility.yul\":334:411   */\n    tag_70:\n        /* \"#utility.yul\":371:378   */\n      0x00\n        /* \"#utility.yul\":400:405   */\n      dup2\n        /* \"#utility.yul\":389:405   */\n      swap1\n      pop\n        /* \"#utility.yul\":334:411   */\n      swap2\n      swap1\n      pop\n      jump\t// out\n        /* \"#utility.yul\":417:539   */\n    tag_71:\n        /* \"#utility.yul\":490:514   */\n      tag_103\n        /* \"#utility.yul\":508:513   */\n      dup2\n        /* \"#utility.yul\":490:514   */\n      tag_70\n      jump\t// in\n    tag_103:\n        /* \"#utility.yul\":483:488   */\n      dup2\n        /* \"#utility.yul\":480:515   */\n      eq\n        /* \"#utility.yul\":470:533   */\n      tag_104\n      jumpi\n        /* \"#utility.yul\":529:530   */\n      0x00\n        /* \"#utility.yul\":526:527   */\n      dup1\n        /* \"#utility.yul\":519:531   */\n      revert\n        /* \"#utility.yul\":470:533   */\n    tag_104:\n        /* \"#utility.yul\":417:539   */\n      pop\n      jump\t// out\n        /* \"#utility.yul\":545:684   */\n    tag_72:\n        /* \"#utility.yul\":591:596   */\n      0x00\n        /* \"#utility.yul\":629:635   */\n      dup2\n        /* \"#utility.yul\":616:636   */\n      calldataload\n        /* \"#utility.yul\":607:636   */\n      swap1\n      pop\n        /* \"#utility.yul\":645:678   */\n      tag_106\n        /* \"#utility.yul\":672:677   */\n      dup2\n        /* \"#utility.yul\":645:678   */\n      tag_71\n      jump\t// in\n    tag_106:\n        /* \"#utility.yul\":545:684   */\n      swap3\n      swap2\n      pop\n      pop\n      jump\t// out\n        /* \"#utility.yul\":690:1164   */\n    tag_11:\n        /* \"#utility.yul\":758:764   */\n      0x00\n        /* \"#utility.yul\":766:772   */\n      dup1\n        /* \"#utility.yul\":815:817   */\n      0x40\n        /* \"#utility.yul\":803:812   */\n      dup4\n        /* \"#utility.yul\":794:801   */\n      dup6\n        /* \"#utility.yul\":790:813   */\n      sub\n        /* \"#utility.yul\":786:818   */\n      slt\n        /* \"#utility.yul\":783:902   */\n      iszero\n      tag_108\n      jumpi\n        /* \"#utility.yul\":821:900   */\n      tag_109\n      tag_68\n      jump\t// in\n    tag_109:\n        /* \"#utility.yul\":783:902   */\n    tag_108:\n        /* \"#utility.yul\":941:942   */\n      0x00\n        /* \"#utility.yul\":966:1019   */\n      tag_110\n        /* \"#utility.yul\":1011:1018   */\n      dup6\n        /* \"#utility.yul\":1002:1008   */\n      dup3\n        /* \"#utility.yul\":991:1000   */\n      dup7\n        /* \"#utility.yul\":987:1009   */\n      add\n        /* \"#utility.yul\":966:1019   */\n      tag_72\n      jump\t// in\n    tag_110:\n        /* \"#utility.yul\":956:1019   */\n      swap3\n      pop\n        /* \"#utility.yul\":912:1029   */\n      pop\n        /* \"#utility.yul\":1068:1070   */\n      0x20\n        /* \"#utility.yul\":1094:1147   */\n      tag_111\n        /* \"#utility.yul\":1139:1146   */\n      dup6\n        /* \"#utility.yul\":1130:1136   */\n      dup3\n        /* \"#utility.yul\":1119:1128   */\n      dup7\n        /* \"#utility.yul\":1115:1137   */\n      add\n        /* \"#utility.yul\":1094:1147   */\n      tag_72\n      jump\t// in\n    tag_111:\n        /* \"#utility.yul\":1084:1147   */\n      swap2\n      pop\n        /* \"#utility.yul\":1039:1157   */\n      pop\n        /* \"#utility.yul\":690:1164   */\n      swap3\n      pop\n      swap3\n      swap1\n      pop\n      jump\t// out\n        /* \"#utility.yul\":1170:1499   */\n    tag_15:\n        /* \"#utility.yul\":1229:1235   */\n      0x00\n        /* \"#utility.yul\":1278:1280   */\n      0x20\n        /* \"#utility.yul\":1266:1275   */\n      dup3\n        /* \"#utility.yul\":1257:1264   */\n      dup5\n        /* \"#utility.yul\":1253:1276   */\n      sub\n        /* \"#utility.yul\":1249:1281   */\n      slt\n        /* \"#utility.yul\":1246:1365   */\n      iszero\n      tag_113\n      jumpi\n        /* \"#utility.yul\":1284:1363   */\n      tag_114\n      tag_68\n      jump\t// in\n    tag_114:\n        /* \"#utility.yul\":1246:1365   */\n    tag_113:\n        /* \"#utility.yul\":1404:1405   */\n      0x00\n        /* \"#utility.yul\":1429:1482   */\n      tag_115\n        /* \"#utility.yul\":1474:1481   */\n      dup5\n        /* \"#utility.yul\":1465:1471   */\n      dup3\n        /* \"#utility.yul\":1454:1463   */\n      dup6\n        /* \"#utility.yul\":1450:1472   */\n      add\n        /* \"#utility.yul\":1429:1482   */\n      tag_72\n      jump\t// in\n    tag_115:\n        /* \"#utility.yul\":1419:1482   */\n      swap2\n      pop\n        /* \"#utility.yul\":1375:1492   */\n      pop\n        /* \"#utility.yul\":1170:1499   */\n      swap3\n      swap2\n      pop\n      pop\n      jump\t// out\n        /* \"#utility.yul\":1505:1623   */\n    tag_73:\n        /* \"#utility.yul\":1592:1616   */\n      tag_117\n        /* \"#utility.yul\":1610:1615   */\n      dup2\n        /* \"#utility.yul\":1592:1616   */\n      tag_70\n      jump\t// in\n    tag_117:\n        /* \"#utility.yul\":1587:1590   */\n      dup3\n        /* \"#utility.yul\":1580:1617   */\n      mstore\n        /* \"#utility.yul\":1505:1623   */\n      pop\n      pop\n      jump\t// out\n        /* \"#utility.yul\":1629:1851   */\n    tag_18:\n        /* \"#utility.yul\":1722:1726   */\n      0x00\n        /* \"#utility.yul\":1760:1762   */\n      0x20\n        /* \"#utility.yul\":1749:1758   */\n      dup3\n        /* \"#utility.yul\":1745:1763   */\n      add\n        /* \"#utility.yul\":1737:1763   */\n      swap1\n      pop\n        /* \"#utility.yul\":1773:1844   */\n      tag_119\n        /* \"#utility.yul\":1841:1842   */\n      0x00\n        /* \"#utility.yul\":1830:1839   */\n      dup4\n        /* \"#utility.yul\":1826:1843   */\n      add\n        /* \"#utility.yul\":1817:1823   */\n      dup5\n        /* \"#utility.yul\":1773:1844   */\n      tag_73\n      jump\t// in\n    tag_119:\n        /* \"#utility.yul\":1629:1851   */\n      swap3\n      swap2\n      pop\n      pop\n      jump\t// out\n        /* \"#utility.yul\":1857:1961   */\n    tag_74:\n        /* \"#utility.yul\":1922:1928   */\n      0x00\n        /* \"#utility.yul\":1950:1954   */\n      0x05\n        /* \"#utility.yul\":1940:1954   */\n      swap1\n      pop\n        /* \"#utility.yul\":1857:1961   */\n      swap2\n      swap1\n      pop\n      jump\t// out\n        /* \"#utility.yul\":1967:2110   */\n    tag_75:\n        /* \"#utility.yul\":2064:2075   */\n      0x00\n        /* \"#utility.yul\":2101:2104   */\n      dup2\n        /* \"#utility.yul\":2086:2104   */\n      swap1\n      pop\n        /* \"#utility.yul\":1967:2110   */\n      swap3\n      swap2\n      pop\n      pop\n      jump\t// out\n        /* \"#utility.yul\":2116:2214   */\n    tag_76:\n        /* \"#utility.yul\":2181:2185   */\n      0x00\n        /* \"#utility.yul\":2204:2207   */\n      dup2\n        /* \"#utility.yul\":2196:2207   */\n      swap1\n      pop\n        /* \"#utility.yul\":2116:2214   */\n      swap2\n      swap1\n      pop\n      jump\t// out\n        /* \"#utility.yul\":2220:2328   */\n    tag_77:\n        /* \"#utility.yul\":2297:2321   */\n      tag_124\n        /* \"#utility.yul\":2315:2320   */\n      dup2\n        /* \"#utility.yul\":2297:2321   */\n      tag_70\n      jump\t// in\n    tag_124:\n        /* \"#utility.yul\":2292:2295   */\n      dup3\n        /* \"#utility.yul\":2285:2322   */\n      mstore\n        /* \"#utility.yul\":2220:2328   */\n      pop\n      pop\n      jump\t// out\n        /* \"#utility.yul\":2334:2513   */\n    tag_78:\n        /* \"#utility.yul\":2403:2413   */\n      0x00\n        /* \"#utility.yul\":2424:2470   */\n      tag_126\n        /* \"#utility.yul\":2466:2469   */\n      dup4\n        /* \"#utility.yul\":2458:2464   */\n      dup4\n        /* \"#utility.yul\":2424:2470   */\n      tag_77\n      jump\t// in\n    tag_126:\n        /* \"#utility.yul\":2502:2506   */\n      0x20\n        /* \"#utility.yul\":2497:2500   */\n      dup4\n        /* \"#utility.yul\":2493:2507   */\n      add\n        /* \"#utility.yul\":2479:2507   */\n      swap1\n      pop\n        /* \"#utility.yul\":2334:2513   */\n      swap3\n      swap2\n      pop\n      pop\n      jump\t// out\n        /* \"#utility.yul\":2519:2630   */\n    tag_79:\n        /* \"#utility.yul\":2587:2591   */\n      0x00\n        /* \"#utility.yul\":2619:2623   */\n      0x20\n        /* \"#utility.yul\":2614:2617   */\n      dup3\n        /* \"#utility.yul\":2610:2624   */\n      add\n        /* \"#utility.yul\":2602:2624   */\n      swap1\n      pop\n        /* \"#utility.yul\":2519:2630   */\n      swap2\n      swap1\n      pop\n      jump\t// out\n        /* \"#utility.yul\":2668:3362   */\n    tag_80:\n        /* \"#utility.yul\":2804:2856   */\n      tag_129\n        /* \"#utility.yul\":2850:2855   */\n      dup2\n        /* \"#utility.yul\":2804:2856   */\n      tag_74\n      jump\t// in\n    tag_129:\n        /* \"#utility.yul\":2872:2956   */\n      tag_130\n        /* \"#utility.yul\":2949:2955   */\n      dup2\n        /* \"#utility.yul\":2944:2947   */\n      dup5\n        /* \"#utility.yul\":2872:2956   */\n      tag_75\n      jump\t// in\n    tag_130:\n        /* \"#utility.yul\":2865:2956   */\n      swap3\n      pop\n        /* \"#utility.yul\":2980:3034   */\n      tag_131\n        /* \"#utility.yul\":3028:3033   */\n      dup3\n        /* \"#utility.yul\":2980:3034   */\n      tag_76\n      jump\t// in\n    tag_131:\n        /* \"#utility.yul\":3057:3064   */\n      dup1\n        /* \"#utility.yul\":3088:3089   */\n      0x00\n        /* \"#utility.yul\":3073:3355   */\n    tag_132:\n        /* \"#utility.yul\":3098:3104   */\n      dup4\n        /* \"#utility.yul\":3095:3096   */\n      dup2\n        /* \"#utility.yul\":3092:3105   */\n      lt\n        /* \"#utility.yul\":3073:3355   */\n      iszero\n      tag_134\n      jumpi\n        /* \"#utility.yul\":3174:3180   */\n      dup2\n        /* \"#utility.yul\":3168:3181   */\n      mload\n        /* \"#utility.yul\":3201:3264   */\n      tag_135\n        /* \"#utility.yul\":3260:3263   */\n      dup8\n        /* \"#utility.yul\":3245:3258   */\n      dup3\n        /* \"#utility.yul\":3201:3264   */\n      tag_78\n      jump\t// in\n    tag_135:\n        /* \"#utility.yul\":3194:3264   */\n      swap7\n      pop\n        /* \"#utility.yul\":3287:3345   */\n      tag_136\n        /* \"#utility.yul\":3338:3344   */\n      dup4\n        /* \"#utility.yul\":3287:3345   */\n      tag_79\n      jump\t// in\n    tag_136:\n        /* \"#utility.yul\":3277:3345   */\n      swap3\n      pop\n        /* \"#utility.yul\":3133:3355   */\n      pop\n        /* \"#utility.yul\":3120:3121   */\n      0x01\n        /* \"#utility.yul\":3117:3118   */\n      dup2\n        /* \"#utility.yul\":3113:3122   */\n      add\n        /* \"#utility.yul\":3108:3122   */\n      swap1\n      pop\n        /* \"#utility.yul\":3073:3355   */\n      jump(tag_132)\n    tag_134:\n        /* \"#utility.yul\":3077:3091   */\n      pop\n        /* \"#utility.yul\":2780:3362   */\n      pop\n      pop\n      pop\n        /* \"#utility.yul\":2668:3362   */\n      pop\n      pop\n      jump\t// out\n        /* \"#utility.yul\":3368:3683   */\n    tag_22:\n        /* \"#utility.yul\":3507:3511   */\n      0x00\n        /* \"#utility.yul\":3545:3548   */\n      0xa0\n        /* \"#utility.yul\":3534:3543   */\n      dup3\n        /* \"#utility.yul\":3530:3549   */\n      add\n        /* \"#utility.yul\":3522:3549   */\n      swap1\n      pop\n        /* \"#utility.yul\":3559:3676   */\n      tag_138\n        /* \"#utility.yul\":3673:3674   */\n      0x00\n        /* \"#utility.yul\":3662:3671   */\n      dup4\n        /* \"#utility.yul\":3658:3675   */\n      add\n        /* \"#utility.yul\":3649:3655   */\n      dup5\n        /* \"#utility.yul\":3559:3676   */\n      tag_80\n      jump\t// in\n    tag_138:\n        /* \"#utility.yul\":3368:3683   */\n      swap3\n      swap2\n      pop\n      pop\n      jump\t// out\n        /* \"#utility.yul\":3689:3806   */\n    tag_81:\n        /* \"#utility.yul\":3798:3799   */\n      0x00\n        /* \"#utility.yul\":3795:3796   */\n      dup1\n        /* \"#utility.yul\":3788:3800   */\n      revert\n        /* \"#utility.yul\":3812:3914   */\n    tag_82:\n        /* \"#utility.yul\":3853:3859   */\n      0x00\n        /* \"#utility.yul\":3904:3906   */\n      0x1f\n        /* \"#utility.yul\":3900:3907   */\n      not\n        /* \"#utility.yul\":3895:3897   */\n      0x1f\n        /* \"#utility.yul\":3888:3893   */\n      dup4\n        /* \"#utility.yul\":3884:3898   */\n      add\n        /* \"#utility.yul\":3880:3908   */\n      and\n        /* \"#utility.yul\":3870:3908   */\n      swap1\n      pop\n        /* \"#utility.yul\":3812:3914   */\n      swap2\n      swap1\n      pop\n      jump\t// out\n        /* \"#utility.yul\":3920:4100   */\n    tag_83:\n        /* \"#utility.yul\":3968:4045   */\n      0x4e487b7100000000000000000000000000000000000000000000000000000000\n        /* \"#utility.yul\":3965:3966   */\n      0x00\n        /* \"#utility.yul\":3958:4046   */\n      mstore\n        /* \"#utility.yul\":4065:4069   */\n      0x41\n        /* \"#utility.yul\":4062:4063   */\n      0x04\n        /* \"#utility.yul\":4055:4070   */\n      mstore\n        /* \"#utility.yul\":4089:4093   */\n      0x24\n        /* \"#utility.yul\":4086:4087   */\n      0x00\n        /* \"#utility.yul\":4079:4094   */\n      revert\n        /* \"#utility.yul\":4106:4387   */\n    tag_84:\n        /* \"#utility.yul\":4189:4216   */\n      tag_143\n        /* \"#utility.yul\":4211:4215   */\n      dup3\n        /* \"#utility.yul\":4189:4216   */\n      tag_82\n      jump\t// in\n    tag_143:\n        /* \"#utility.yul\":4181:4187   */\n      dup2\n        /* \"#utility.yul\":4177:4217   */\n      add\n        /* \"#utility.yul\":4319:4325   */\n      dup2\n        /* \"#utility.yul\":4307:4317   */\n      dup2\n        /* \"#utility.yul\":4304:4326   */\n      lt\n        /* \"#utility.yul\":4283:4301   */\n      0xffffffffffffffff\n        /* \"#utility.yul\":4271:4281   */\n      dup3\n        /* \"#utility.yul\":4268:4302   */\n      gt\n        /* \"#utility.yul\":4265:4327   */\n      or\n        /* \"#utility.yul\":4262:4350   */\n      iszero\n      tag_144\n      jumpi\n        /* \"#utility.yul\":4330:4348   */\n      tag_145\n      tag_83\n      jump\t// in\n    tag_145:\n        /* \"#utility.yul\":4262:4350   */\n    tag_144:\n        /* \"#utility.yul\":4370:4380   */\n      dup1\n        /* \"#utility.yul\":4366:4368   */\n      0x40\n        /* \"#utility.yul\":4359:4381   */\n      mstore\n        /* \"#utility.yul\":4149:4387   */\n      pop\n        /* \"#utility.yul\":4106:4387   */\n      pop\n      pop\n      jump\t// out\n        /* \"#utility.yul\":4393:4522   */\n    tag_85:\n        /* \"#utility.yul\":4427:4433   */\n      0x00\n        /* \"#utility.yul\":4454:4474   */\n      tag_147\n      tag_67\n      jump\t// in\n    tag_147:\n        /* \"#utility.yul\":4444:4474   */\n      swap1\n      pop\n        /* \"#utility.yul\":4483:4516   */\n      tag_148\n        /* \"#utility.yul\":4511:4515   */\n      dup3\n        /* \"#utility.yul\":4503:4509   */\n      dup3\n        /* \"#utility.yul\":4483:4516   */\n      tag_84\n      jump\t// in\n    tag_148:\n        /* \"#utility.yul\":4393:4522   */\n      swap2\n      swap1\n      pop\n      jump\t// out\n        /* \"#utility.yul\":4528:4777   */\n    tag_86:\n        /* \"#utility.yul\":4603:4607   */\n      0x00\n        /* \"#utility.yul\":4693:4711   */\n      0xffffffffffffffff\n        /* \"#utility.yul\":4685:4691   */\n      dup3\n        /* \"#utility.yul\":4682:4712   */\n      gt\n        /* \"#utility.yul\":4679:4735   */\n      iszero\n      tag_150\n      jumpi\n        /* \"#utility.yul\":4715:4733   */\n      tag_151\n      tag_83\n      jump\t// in\n    tag_151:\n        /* \"#utility.yul\":4679:4735   */\n    tag_150:\n        /* \"#utility.yul\":4765:4769   */\n      0x20\n        /* \"#utility.yul\":4757:4763   */\n      dup3\n        /* \"#utility.yul\":4753:4770   */\n      mul\n        /* \"#utility.yul\":4745:4770   */\n      swap1\n      pop\n        /* \"#utility.yul\":4528:4777   */\n      swap2\n      swap1\n      pop\n      jump\t// out\n        /* \"#utility.yul\":4783:4900   */\n    tag_87:\n        /* \"#utility.yul\":4892:4893   */\n      0x00\n        /* \"#utility.yul\":4889:4890   */\n      dup1\n        /* \"#utility.yul\":4882:4894   */\n      revert\n        /* \"#utility.yul\":4924:5567   */\n    tag_88:\n        /* \"#utility.yul\":5018:5023   */\n      0x00\n        /* \"#utility.yul\":5043:5122   */\n      tag_154\n        /* \"#utility.yul\":5059:5121   */\n      tag_155\n        /* \"#utility.yul\":5114:5120   */\n      dup5\n        /* \"#utility.yul\":5059:5121   */\n      tag_86\n      jump\t// in\n    tag_155:\n        /* \"#utility.yul\":5043:5122   */\n      tag_85\n      jump\t// in\n    tag_154:\n        /* \"#utility.yul\":5034:5122   */\n      swap1\n      pop\n        /* \"#utility.yul\":5142:5147   */\n      dup1\n        /* \"#utility.yul\":5195:5199   */\n      0x20\n        /* \"#utility.yul\":5187:5193   */\n      dup5\n        /* \"#utility.yul\":5183:5200   */\n      mul\n        /* \"#utility.yul\":5175:5181   */\n      dup4\n        /* \"#utility.yul\":5171:5201   */\n      add\n        /* \"#utility.yul\":5224:5227   */\n      dup6\n        /* \"#utility.yul\":5216:5222   */\n      dup2\n        /* \"#utility.yul\":5213:5228   */\n      gt\n        /* \"#utility.yul\":5210:5332   */\n      iszero\n      tag_156\n      jumpi\n        /* \"#utility.yul\":5243:5322   */\n      tag_157\n      tag_87\n      jump\t// in\n    tag_157:\n        /* \"#utility.yul\":5210:5332   */\n    tag_156:\n        /* \"#utility.yul\":5358:5364   */\n      dup4\n        /* \"#utility.yul\":5341:5561   */\n    tag_158:\n        /* \"#utility.yul\":5375:5381   */\n      dup2\n        /* \"#utility.yul\":5370:5373   */\n      dup2\n        /* \"#utility.yul\":5367:5382   */\n      lt\n        /* \"#utility.yul\":5341:5561   */\n      iszero\n      tag_160\n      jumpi\n        /* \"#utility.yul\":5450:5453   */\n      dup1\n        /* \"#utility.yul\":5479:5516   */\n      tag_161\n        /* \"#utility.yul\":5512:5515   */\n      dup9\n        /* \"#utility.yul\":5500:5510   */\n      dup3\n        /* \"#utility.yul\":5479:5516   */\n      tag_72\n      jump\t// in\n    tag_161:\n        /* \"#utility.yul\":5474:5477   */\n      dup5\n        /* \"#utility.yul\":5467:5517   */\n      mstore\n        /* \"#utility.yul\":5546:5550   */\n      0x20\n        /* \"#utility.yul\":5541:5544   */\n      dup5\n        /* \"#utility.yul\":5537:5551   */\n      add\n        /* \"#utility.yul\":5530:5551   */\n      swap4\n      pop\n        /* \"#utility.yul\":5417:5561   */\n      pop\n        /* \"#utility.yul\":5401:5405   */\n      0x20\n        /* \"#utility.yul\":5396:5399   */\n      dup2\n        /* \"#utility.yul\":5392:5406   */\n      add\n        /* \"#utility.yul\":5385:5406   */\n      swap1\n      pop\n        /* \"#utility.yul\":5341:5561   */\n      jump(tag_158)\n    tag_160:\n        /* \"#utility.yul\":5345:5366   */\n      pop\n        /* \"#utility.yul\":5024:5567   */\n      pop\n      pop\n        /* \"#utility.yul\":4924:5567   */\n      swap4\n      swap3\n      pop\n      pop\n      pop\n      jump\t// out\n        /* \"#utility.yul\":5591:5930   */\n    tag_89:\n        /* \"#utility.yul\":5660:5665   */\n      0x00\n        /* \"#utility.yul\":5709:5712   */\n      dup3\n        /* \"#utility.yul\":5702:5706   */\n      0x1f\n        /* \"#utility.yul\":5694:5700   */\n      dup4\n        /* \"#utility.yul\":5690:5707   */\n      add\n        /* \"#utility.yul\":5686:5713   */\n      slt\n        /* \"#utility.yul\":5676:5798   */\n      tag_163\n      jumpi\n        /* \"#utility.yul\":5717:5796   */\n      tag_164\n      tag_81\n      jump\t// in\n    tag_164:\n        /* \"#utility.yul\":5676:5798   */\n    tag_163:\n        /* \"#utility.yul\":5821:5825   */\n      0x03\n        /* \"#utility.yul\":5843:5924   */\n      tag_165\n        /* \"#utility.yul\":5920:5923   */\n      dup5\n        /* \"#utility.yul\":5912:5918   */\n      dup3\n        /* \"#utility.yul\":5904:5910   */\n      dup6\n        /* \"#utility.yul\":5843:5924   */\n      tag_88\n      jump\t// in\n    tag_165:\n        /* \"#utility.yul\":5834:5924   */\n      swap2\n      pop\n        /* \"#utility.yul\":5666:5930   */\n      pop\n        /* \"#utility.yul\":5591:5930   */\n      swap3\n      swap2\n      pop\n      pop\n      jump\t// out\n        /* \"#utility.yul\":5936:6311   */\n    tag_29:\n        /* \"#utility.yul\":6018:6024   */\n      0x00\n        /* \"#utility.yul\":6067:6069   */\n      0x60\n        /* \"#utility.yul\":6055:6064   */\n      dup3\n        /* \"#utility.yul\":6046:6053   */\n      dup5\n        /* \"#utility.yul\":6042:6065   */\n      sub\n        /* \"#utility.yul\":6038:6070   */\n      slt\n        /* \"#utility.yul\":6035:6154   */\n      iszero\n      tag_167\n      jumpi\n        /* \"#utility.yul\":6073:6152   */\n      tag_168\n      tag_68\n      jump\t// in\n    tag_168:\n        /* \"#utility.yul\":6035:6154   */\n    tag_167:\n        /* \"#utility.yul\":6193:6194   */\n      0x00\n        /* \"#utility.yul\":6218:6294   */\n      tag_169\n        /* \"#utility.yul\":6286:6293   */\n      dup5\n        /* \"#utility.yul\":6277:6283   */\n      dup3\n        /* \"#utility.yul\":6266:6275   */\n      dup6\n        /* \"#utility.yul\":6262:6284   */\n      add\n        /* \"#utility.yul\":6218:6294   */\n      tag_89\n      jump\t// in\n    tag_169:\n        /* \"#utility.yul\":6208:6294   */\n      swap2\n      pop\n        /* \"#utility.yul\":6164:6304   */\n      pop\n        /* \"#utility.yul\":5936:6311   */\n      swap3\n      swap2\n      pop\n      pop\n      jump\t// out\n        /* \"#utility.yul\":6317:6421   */\n    tag_90:\n        /* \"#utility.yul\":6382:6388   */\n      0x00\n        /* \"#utility.yul\":6410:6414   */\n      0x03\n        /* \"#utility.yul\":6400:6414   */\n      swap1\n      pop\n        /* \"#utility.yul\":6317:6421   */\n      swap2\n      swap1\n      pop\n      jump\t// out\n        /* \"#utility.yul\":6427:6570   */\n    tag_91:\n        /* \"#utility.yul\":6524:6535   */\n      0x00\n        /* \"#utility.yul\":6561:6564   */\n      dup2\n        /* \"#utility.yul\":6546:6564   */\n      swap1\n      pop\n        /* \"#utility.yul\":6427:6570   */\n      swap3\n      swap2\n      pop\n      pop\n      jump\t// out\n        /* \"#utility.yul\":6576:6674   */\n    tag_92:\n        /* \"#utility.yul\":6641:6645   */\n      0x00\n        /* \"#utility.yul\":6664:6667   */\n      dup2\n        /* \"#utility.yul\":6656:6667   */\n      swap1\n      pop\n        /* \"#utility.yul\":6576:6674   */\n      swap2\n      swap1\n      pop\n      jump\t// out\n        /* \"#utility.yul\":6680:6791   */\n    tag_93:\n        /* \"#utility.yul\":6748:6752   */\n      0x00\n        /* \"#utility.yul\":6780:6784   */\n      0x20\n        /* \"#utility.yul\":6775:6778   */\n      dup3\n        /* \"#utility.yul\":6771:6785   */\n      add\n        /* \"#utility.yul\":6763:6785   */\n      swap1\n      pop\n        /* \"#utility.yul\":6680:6791   */\n      swap2\n      swap1\n      pop\n      jump\t// out\n        /* \"#utility.yul\":6829:7523   */\n    tag_94:\n        /* \"#utility.yul\":6965:7017   */\n      tag_175\n        /* \"#utility.yul\":7011:7016   */\n      dup2\n        /* \"#utility.yul\":6965:7017   */\n      tag_90\n      jump\t// in\n    tag_175:\n        /* \"#utility.yul\":7033:7117   */\n      tag_176\n        /* \"#utility.yul\":7110:7116   */\n      dup2\n        /* \"#utility.yul\":7105:7108   */\n      dup5\n        /* \"#utility.yul\":7033:7117   */\n      tag_91\n      jump\t// in\n    tag_176:\n        /* \"#utility.yul\":7026:7117   */\n      swap3\n      pop\n        /* \"#utility.yul\":7141:7195   */\n      tag_177\n        /* \"#utility.yul\":7189:7194   */\n      dup3\n        /* \"#utility.yul\":7141:7195   */\n      tag_92\n      jump\t// in\n    tag_177:\n        /* \"#utility.yul\":7218:7225   */\n      dup1\n        /* \"#utility.yul\":7249:7250   */\n      0x00\n        /* \"#utility.yul\":7234:7516   */\n    tag_178:\n        /* \"#utility.yul\":7259:7265   */\n      dup4\n        /* \"#utility.yul\":7256:7257   */\n      dup2\n        /* \"#utility.yul\":7253:7266   */\n      lt\n        /* \"#utility.yul\":7234:7516   */\n      iszero\n      tag_180\n      jumpi\n        /* \"#utility.yul\":7335:7341   */\n      dup2\n        /* \"#utility.yul\":7329:7342   */\n      mload\n        /* \"#utility.yul\":7362:7425   */\n      tag_181\n        /* \"#utility.yul\":7421:7424   */\n      dup8\n        /* \"#utility.yul\":7406:7419   */\n      dup3\n        /* \"#utility.yul\":7362:7425   */\n      tag_78\n      jump\t// in\n    tag_181:\n        /* \"#utility.yul\":7355:7425   */\n      swap7\n      pop\n        /* \"#utility.yul\":7448:7506   */\n      tag_182\n        /* \"#utility.yul\":7499:7505   */\n      dup4\n        /* \"#utility.yul\":7448:7506   */\n      tag_93\n      jump\t// in\n    tag_182:\n        /* \"#utility.yul\":7438:7506   */\n      swap3\n      pop\n        /* \"#utility.yul\":7294:7516   */\n      pop\n        /* \"#utility.yul\":7281:7282   */\n      0x01\n        /* \"#utility.yul\":7278:7279   */\n      dup2\n        /* \"#utility.yul\":7274:7283   */\n      add\n        /* \"#utility.yul\":7269:7283   */\n      swap1\n      pop\n        /* \"#utility.yul\":7234:7516   */\n      jump(tag_178)\n    tag_180:\n        /* \"#utility.yul\":7238:7252   */\n      pop\n        /* \"#utility.yul\":6941:7523   */\n      pop\n      pop\n      pop\n        /* \"#utility.yul\":6829:7523   */\n      pop\n      pop\n      jump\t// out\n        /* \"#utility.yul\":7529:7843   */\n    tag_32:\n        /* \"#utility.yul\":7668:7672   */\n      0x00\n        /* \"#utility.yul\":7706:7708   */\n      0x60\n        /* \"#utility.yul\":7695:7704   */\n      dup3\n        /* \"#utility.yul\":7691:7709   */\n      add\n        /* \"#utility.yul\":7683:7709   */\n      swap1\n      pop\n        /* \"#utility.yul\":7719:7836   */\n      tag_184\n        /* \"#utility.yul\":7833:7834   */\n      0x00\n        /* \"#utility.yul\":7822:7831   */\n      dup4\n        /* \"#utility.yul\":7818:7835   */\n      add\n        /* \"#utility.yul\":7809:7815   */\n      dup5\n        /* \"#utility.yul\":7719:7836   */\n      tag_94\n      jump\t// in\n    tag_184:\n        /* \"#utility.yul\":7529:7843   */\n      swap3\n      swap2\n      pop\n      pop\n      jump\t// out\n        /* \"#utility.yul\":7867:8116   */\n    tag_95:\n        /* \"#utility.yul\":7938:7946   */\n      0x00\n        /* \"#utility.yul\":7969:7975   */\n      dup2\n        /* \"#utility.yul\":7957:7975   */\n      swap1\n      pop\n        /* \"#utility.yul\":8022:8025   */\n      dup3\n        /* \"#utility.yul\":8014:8018   */\n      0x20\n        /* \"#utility.yul\":8008:8012   */\n      0x03\n        /* \"#utility.yul\":8004:8019   */\n      mul\n        /* \"#utility.yul\":7994:8002   */\n      dup3\n        /* \"#utility.yul\":7990:8020   */\n      add\n        /* \"#utility.yul\":7987:8026   */\n      gt\n        /* \"#utility.yul\":7984:8110   */\n      iszero\n      tag_186\n      jumpi\n        /* \"#utility.yul\":8029:8108   */\n      tag_187\n      tag_87\n      jump\t// in\n    tag_187:\n        /* \"#utility.yul\":7984:8110   */\n    tag_186:\n        /* \"#utility.yul\":7867:8116   */\n      swap3\n      swap2\n      pop\n      pop\n      jump\t// out\n        /* \"#utility.yul\":8122:8501   */\n    tag_35:\n        /* \"#utility.yul\":8206:8212   */\n      0x00\n        /* \"#utility.yul\":8255:8257   */\n      0x60\n        /* \"#utility.yul\":8243:8252   */\n      dup3\n        /* \"#utility.yul\":8234:8241   */\n      dup5\n        /* \"#utility.yul\":8230:8253   */\n      sub\n        /* \"#utility.yul\":8226:8258   */\n      slt\n        /* \"#utility.yul\":8223:8342   */\n      iszero\n      tag_189\n      jumpi\n        /* \"#utility.yul\":8261:8340   */\n      tag_190\n      tag_68\n      jump\t// in\n    tag_190:\n        /* \"#utility.yul\":8223:8342   */\n    tag_189:\n        /* \"#utility.yul\":8381:8382   */\n      0x00\n        /* \"#utility.yul\":8406:8484   */\n      tag_191\n        /* \"#utility.yul\":8476:8483   */\n      dup5\n        /* \"#utility.yul\":8467:8473   */\n      dup3\n        /* \"#utility.yul\":8456:8465   */\n      dup6\n        /* \"#utility.yul\":8452:8474   */\n      add\n        /* \"#utility.yul\":8406:8484   */\n      tag_95\n      jump\t// in\n    tag_191:\n        /* \"#utility.yul\":8396:8484   */\n      swap2\n      pop\n        /* \"#utility.yul\":8352:8494   */\n      pop\n        /* \"#utility.yul\":8122:8501   */\n      swap3\n      swap2\n      pop\n      pop\n      jump\t// out\n        /* \"#utility.yul\":8507:8687   */\n    tag_41:\n        /* \"#utility.yul\":8555:8632   */\n      0x4e487b7100000000000000000000000000000000000000000000000000000000\n        /* \"#utility.yul\":8552:8553   */\n      0x00\n        /* \"#utility.yul\":8545:8633   */\n      mstore\n        /* \"#utility.yul\":8652:8656   */\n      0x32\n        /* \"#utility.yul\":8649:8650   */\n      0x04\n        /* \"#utility.yul\":8642:8657   */\n      mstore\n        /* \"#utility.yul\":8676:8680   */\n      0x24\n        /* \"#utility.yul\":8673:8674   */\n      0x00\n        /* \"#utility.yul\":8666:8681   */\n      revert\n        /* \"#utility.yul\":8693:8873   */\n    tag_96:\n        /* \"#utility.yul\":8741:8818   */\n      0x4e487b7100000000000000000000000000000000000000000000000000000000\n        /* \"#utility.yul\":8738:8739   */\n      0x00\n        /* \"#utility.yul\":8731:8819   */\n      mstore\n        /* \"#utility.yul\":8838:8842   */\n      0x11\n        /* \"#utility.yul\":8835:8836   */\n      0x04\n        /* \"#utility.yul\":8828:8843   */\n      mstore\n        /* \"#utility.yul\":8862:8866   */\n      0x24\n        /* \"#utility.yul\":8859:8860   */\n      0x00\n        /* \"#utility.yul\":8852:8867   */\n      revert\n        /* \"#utility.yul\":8879:9289   */\n    tag_60:\n        /* \"#utility.yul\":8919:8926   */\n      0x00\n        /* \"#utility.yul\":8942:8962   */\n      tag_195\n        /* \"#utility.yul\":8960:8961   */\n      dup3\n        /* \"#utility.yul\":8942:8962   */\n      tag_70\n      jump\t// in\n    tag_195:\n        /* \"#utility.yul\":8937:8962   */\n      swap2\n      pop\n        /* \"#utility.yul\":8976:8996   */\n      tag_196\n        /* \"#utility.yul\":8994:8995   */\n      dup4\n        /* \"#utility.yul\":8976:8996   */\n      tag_70\n      jump\t// in\n    tag_196:\n        /* \"#utility.yul\":8971:8996   */\n      swap3\n      pop\n        /* \"#utility.yul\":9031:9032   */\n      dup3\n        /* \"#utility.yul\":9028:9029   */\n      dup3\n        /* \"#utility.yul\":9024:9033   */\n      mul\n        /* \"#utility.yul\":9053:9083   */\n      tag_197\n        /* \"#utility.yul\":9071:9082   */\n      dup2\n        /* \"#utility.yul\":9053:9083   */\n      tag_70\n      jump\t// in\n    tag_197:\n        /* \"#utility.yul\":9042:9083   */\n      swap2\n      pop\n        /* \"#utility.yul\":9232:9233   */\n      dup3\n        /* \"#utility.yul\":9223:9230   */\n      dup3\n        /* \"#utility.yul\":9219:9234   */\n      div\n        /* \"#utility.yul\":9216:9217   */\n      dup5\n        /* \"#utility.yul\":9213:9235   */\n      eq\n        /* \"#utility.yul\":9193:9194   */\n      dup4\n        /* \"#utility.yul\":9186:9195   */\n      iszero\n        /* \"#utility.yul\":9166:9249   */\n      or\n        /* \"#utility.yul\":9143:9282   */\n      tag_198\n      jumpi\n        /* \"#utility.yul\":9262:9280   */\n      tag_199\n      tag_96\n      jump\t// in\n    tag_199:\n        /* \"#utility.yul\":9143:9282   */\n    tag_198:\n        /* \"#utility.yul\":8927:9289   */\n      pop\n        /* \"#utility.yul\":8879:9289   */\n      swap3\n      swap2\n      pop\n      pop\n      jump\t// out\n\n    auxdata: 0xa264697066735822122056b54d5690b877d22ec89716d314d4742b0fef45660a0e950690d072448af6a964736f6c634300081a0033\n}\n",
				"bytecode": {
					"linkReferences": {},
					"object": "60806040526040518060600160405280600260ff168152602001600260ff168152602001600360ff168152505f90600360389291906048565b503480156043575f80fd5b5060a1565b82600581019282156079579160200282015b828111156078578251829060ff16905591602001919060010190605a565b5b509050608491906088565b5090565b5b80821115609d575f815f9055506001016089565b5090565b61076f806100ae5f395ff3fe608060405234801561000f575f80fd5b5060043610610060575f3560e01c806310db3c9f146100645780635c269bcc14610080578063687b31c6146100b057806371e5ee5f146100ce57806398b0dee9146100fe5780639a288ce01461012e575b5f80fd5b61007e60048036038101906100799190610302565b61015e565b005b61009a60048036038101906100959190610340565b61017b565b6040516100a7919061037a565b60405180910390f35b6100b8610198565b6040516100c59190610438565b60405180910390f35b6100e860048036038101906100e39190610340565b6101e2565b6040516100f5919061037a565b60405180910390f35b6101186004803603810190610113919061058f565b6101fa565b6040516101259190610639565b60405180910390f35b61014860048036038101906101439190610673565b61024a565b604051610155919061037a565b60405180910390f35b805f83600581106101725761017161069e565b5b01819055505050565b5f80826005811061018f5761018e61069e565b5b01549050919050565b6101a061027e565b5f6005806020026040519081016040528092919082600580156101d8576020028201915b8154815260200190600101908083116101c4575b5050505050905090565b5f81600581106101f0575f80fd5b015f915090505481565b6102026102a0565b815f600381106102155761021461069e565b5b6020020151600261022691906106f8565b825f600381106102395761023861069e565b5b602002018181525050819050919050565b5f80825f6003811061025f5761025e61069e565b5b6020020135905060028161027391906106f8565b905080915050919050565b6040518060a00160405280600590602082028036833780820191505090505090565b6040518060600160405280600390602082028036833780820191505090505090565b5f604051905090565b5f80fd5b5f819050919050565b6102e1816102cf565b81146102eb575f80fd5b50565b5f813590506102fc816102d8565b92915050565b5f8060408385031215610318576103176102cb565b5b5f610325858286016102ee565b9250506020610336858286016102ee565b9150509250929050565b5f60208284031215610355576103546102cb565b5b5f610362848285016102ee565b91505092915050565b610374816102cf565b82525050565b5f60208201905061038d5f83018461036b565b92915050565b5f60059050919050565b5f81905092915050565b5f819050919050565b6103b9816102cf565b82525050565b5f6103ca83836103b0565b60208301905092915050565b5f602082019050919050565b6103eb81610393565b6103f5818461039d565b9250610400826103a7565b805f5b8381101561043057815161041787826103bf565b9650610422836103d6565b925050600181019050610403565b505050505050565b5f60a08201905061044b5f8301846103e2565b92915050565b5f80fd5b5f601f19601f8301169050919050565b7f4e487b71000000000000000000000000000000000000000000000000000000005f52604160045260245ffd5b61049b82610455565b810181811067ffffffffffffffff821117156104ba576104b9610465565b5b80604052505050565b5f6104cc6102c2565b90506104d88282610492565b919050565b5f67ffffffffffffffff8211156104f7576104f6610465565b5b602082029050919050565b5f80fd5b5f610518610513846104dd565b6104c3565b9050806020840283018581111561053257610531610502565b5b835b8181101561055b578061054788826102ee565b845260208401935050602081019050610534565b5050509392505050565b5f82601f83011261057957610578610451565b5b6003610586848285610506565b91505092915050565b5f606082840312156105a4576105a36102cb565b5b5f6105b184828501610565565b91505092915050565b5f60039050919050565b5f81905092915050565b5f819050919050565b5f602082019050919050565b6105ec816105ba565b6105f681846105c4565b9250610601826105ce565b805f5b8381101561063157815161061887826103bf565b9650610623836105d7565b925050600181019050610604565b505050505050565b5f60608201905061064c5f8301846105e3565b92915050565b5f8190508260206003028201111561066d5761066c610502565b5b92915050565b5f60608284031215610688576106876102cb565b5b5f61069584828501610652565b91505092915050565b7f4e487b71000000000000000000000000000000000000000000000000000000005f52603260045260245ffd5b7f4e487b71000000000000000000000000000000000000000000000000000000005f52601160045260245ffd5b5f610702826102cf565b915061070d836102cf565b925082820261071b816102cf565b91508282048414831517610732576107316106cb565b5b509291505056fea264697066735822122056b54d5690b877d22ec89716d314d4742b0fef45660a0e950690d072448af6a964736f6c634300081a0033",
					"opcodes": "PUSH1 0x80 PUSH1 0x40 MSTORE PUSH1 0x40 MLOAD DUP1 PUSH1 0x60 ADD PUSH1 0x40 MSTORE DUP1 PUSH1 0x2 PUSH1 0xFF AND DUP2 MSTORE PUSH1 0x20 ADD PUSH1 0x2 PUSH1 0xFF AND DUP2 MSTORE PUSH1 0x20 ADD PUSH1 0x3 PUSH1 0xFF AND DUP2 MSTORE POP PUSH0 SWAP1 PUSH1 0x3 PUSH1 0x38 SWAP3 SWAP2 SWAP1 PUSH1 0x48 JUMP JUMPDEST POP CALLVALUE DUP1 ISZERO PUSH1 0x43 JUMPI PUSH0 DUP1 REVERT JUMPDEST POP PUSH1 0xA1 JUMP JUMPDEST DUP3 PUSH1 0x5 DUP2 ADD SWAP3 DUP3 ISZERO PUSH1 0x79 JUMPI SWAP2 PUSH1 0x20 MUL DUP3 ADD JUMPDEST DUP3 DUP2 GT ISZERO PUSH1 0x78 JUMPI DUP3 MLOAD DUP3 SWAP1 PUSH1 0xFF AND SWAP1 SSTORE SWAP2 PUSH1 0x20 ADD SWAP2 SWAP1 PUSH1 0x1 ADD SWAP1 PUSH1 0x5A JUMP JUMPDEST JUMPDEST POP SWAP1 POP PUSH1 0x84 SWAP2 SWAP1 PUSH1 0x88 JUMP JUMPDEST POP SWAP1 JUMP JUMPDEST JUMPDEST DUP1 DUP3 GT ISZERO PUSH1 0x9D JUMPI PUSH0 DUP2 PUSH0 SWAP1 SSTORE POP PUSH1 0x1 ADD PUSH1 0x89 JUMP JUMPDEST POP SWAP1 JUMP JUMPDEST PUSH2 0x76F DUP1 PUSH2 0xAE PUSH0 CODECOPY PUSH0 RETURN INVALID PUSH1 0x80 PUSH1 0x40 MSTORE CALLVALUE DUP1 ISZERO PUSH2 0xF JUMPI PUSH0 DUP1 REVERT JUMPDEST POP PUSH1 0x4 CALLDATASIZE LT PUSH2 0x60 JUMPI PUSH0 CALLDATALOAD PUSH1 0xE0 SHR DUP1 PUSH4 0x10DB3C9F EQ PUSH2 0x64 JUMPI DUP1 PUSH4 0x5C269BCC EQ PUSH2 0x80 JUMPI DUP1 PUSH4 0x687B31C6 EQ PUSH2 0xB0 JUMPI DUP1 PUSH4 0x71E5EE5F EQ PUSH2 0xCE JUMPI DUP1 PUSH4 0x98B0DEE9 EQ PUSH2 0xFE JUMPI DUP1 PUSH4 0x9A288CE0 EQ PUSH2 0x12E JUMPI JUMPDEST PUSH0 DUP1 REVERT JUMPDEST PUSH2 0x7E PUSH1 0x4 DUP1 CALLDATASIZE SUB DUP2 ADD SWAP1 PUSH2 0x79 SWAP2 SWAP1 PUSH2 0x302 JUMP JUMPDEST PUSH2 0x15E JUMP JUMPDEST STOP JUMPDEST PUSH2 0x9A PUSH1 0x4 DUP1 CALLDATASIZE SUB DUP2 ADD SWAP1 PUSH2 0x95 SWAP2 SWAP1 PUSH2 0x340 JUMP JUMPDEST PUSH2 0x17B JUMP JUMPDEST PUSH1 0x40 MLOAD PUSH2 0xA7 SWAP2 SWAP1 PUSH2 0x37A JUMP JUMPDEST PUSH1 0x40 MLOAD DUP1 SWAP2 SUB SWAP1 RETURN JUMPDEST PUSH2 0xB8 PUSH2 0x198 JUMP JUMPDEST PUSH1 0x40 MLOAD PUSH2 0xC5 SWAP2 SWAP1 PUSH2 0x438 JUMP JUMPDEST PUSH1 0x40 MLOAD DUP1 SWAP2 SUB SWAP1 RETURN JUMPDEST PUSH2 0xE8 PUSH1 0x4 DUP1 CALLDATASIZE SUB DUP2 ADD SWAP1 PUSH2 0xE3 SWAP2 SWAP1 PUSH2 0x340 JUMP JUMPDEST PUSH2 0x1E2 JUMP JUMPDEST PUSH1 0x40 MLOAD PUSH2 0xF5 SWAP2 SWAP1 PUSH2 0x37A JUMP JUMPDEST PUSH1 0x40 MLOAD DUP1 SWAP2 SUB SWAP1 RETURN JUMPDEST PUSH2 0x118 PUSH1 0x4 DUP1 CALLDATASIZE SUB DUP2 ADD SWAP1 PUSH2 0x113 SWAP2 SWAP1 PUSH2 0x58F JUMP JUMPDEST PUSH2 0x1FA JUMP JUMPDEST PUSH1 0x40 MLOAD PUSH2 0x125 SWAP2 SWAP1 PUSH2 0x639 JUMP JUMPDEST PUSH1 0x40 MLOAD DUP1 SWAP2 SUB SWAP1 RETURN JUMPDEST PUSH2 0x148 PUSH1 0x4 DUP1 CALLDATASIZE SUB DUP2 ADD SWAP1 PUSH2 0x143 SWAP2 SWAP1 PUSH2 0x673 JUMP JUMPDEST PUSH2 0x24A JUMP JUMPDEST PUSH1 0x40 MLOAD PUSH2 0x155 SWAP2 SWAP1 PUSH2 0x37A JUMP JUMPDEST PUSH1 0x40 MLOAD DUP1 SWAP2 SUB SWAP1 RETURN JUMPDEST DUP1 PUSH0 DUP4 PUSH1 0x5 DUP2 LT PUSH2 0x172 JUMPI PUSH2 0x171 PUSH2 0x69E JUMP JUMPDEST JUMPDEST ADD DUP2 SWAP1 SSTORE POP POP POP JUMP JUMPDEST PUSH0 DUP1 DUP3 PUSH1 0x5 DUP2 LT PUSH2 0x18F JUMPI PUSH2 0x18E PUSH2 0x69E JUMP JUMPDEST JUMPDEST ADD SLOAD SWAP1 POP SWAP2 SWAP1 POP JUMP JUMPDEST PUSH2 0x1A0 PUSH2 0x27E JUMP JUMPDEST PUSH0 PUSH1 0x5 DUP1 PUSH1 0x20 MUL PUSH1 0x40 MLOAD SWAP1 DUP2 ADD PUSH1 0x40 MSTORE DUP1 SWAP3 SWAP2 SWAP1 DUP3 PUSH1 0x5 DUP1 ISZERO PUSH2 0x1D8 JUMPI PUSH1 0x20 MUL DUP3 ADD SWAP2 JUMPDEST DUP2 SLOAD DUP2 MSTORE PUSH1 0x20 ADD SWAP1 PUSH1 0x1 ADD SWAP1 DUP1 DUP4 GT PUSH2 0x1C4 JUMPI JUMPDEST POP POP POP POP POP SWAP1 POP SWAP1 JUMP JUMPDEST PUSH0 DUP2 PUSH1 0x5 DUP2 LT PUSH2 0x1F0 JUMPI PUSH0 DUP1 REVERT JUMPDEST ADD PUSH0 SWAP2 POP SWAP1 POP SLOAD DUP2 JUMP JUMPDEST PUSH2 0x202 PUSH2 0x2A0 JUMP JUMPDEST DUP2 PUSH0 PUSH1 0x3 DUP2 LT PUSH2 0x215 JUMPI PUSH2 0x214 PUSH2 0x69E JUMP JUMPDEST JUMPDEST PUSH1 0x20 MUL ADD MLOAD PUSH1 0x2 PUSH2 0x226 SWAP2 SWAP1 PUSH2 0x6F8 JUMP JUMPDEST DUP3 PUSH0 PUSH1 0x3 DUP2 LT PUSH2 0x239 JUMPI PUSH2 0x238 PUSH2 0x69E JUMP JUMPDEST JUMPDEST PUSH1 0x20 MUL ADD DUP2 DUP2 MSTORE POP POP DUP2 SWAP1 POP SWAP2 SWAP1 POP JUMP JUMPDEST PUSH0 DUP1 DUP3 PUSH0 PUSH1 0x3 DUP2 LT PUSH2 0x25F JUMPI PUSH2 0x25E PUSH2 0x69E JUMP JUMPDEST JUMPDEST PUSH1 0x20 MUL ADD CALLDATALOAD SWAP1 POP PUSH1 0x2 DUP2 PUSH2 0x273 SWAP2 SWAP1 PUSH2 0x6F8 JUMP JUMPDEST SWAP1 POP DUP1 SWAP2 POP POP SWAP2 SWAP1 POP JUMP JUMPDEST PUSH1 0x40 MLOAD DUP1 PUSH1 0xA0 ADD PUSH1 0x40 MSTORE DUP1 PUSH1 0x5 SWAP1 PUSH1 0x20 DUP3 MUL DUP1 CALLDATASIZE DUP4 CALLDATACOPY DUP1 DUP3 ADD SWAP2 POP POP SWAP1 POP POP SWAP1 JUMP JUMPDEST PUSH1 0x40 MLOAD DUP1 PUSH1 0x60 ADD PUSH1 0x40 MSTORE DUP1 PUSH1 0x3 SWAP1 PUSH1 0x20 DUP3 MUL DUP1 CALLDATASIZE DUP4 CALLDATACOPY DUP1 DUP3 ADD SWAP2 POP POP SWAP1 POP POP SWAP1 JUMP JUMPDEST PUSH0 PUSH1 0x40 MLOAD SWAP1 POP SWAP1 JUMP JUMPDEST PUSH0 DUP1 REVERT JUMPDEST PUSH0 DUP2 SWAP1 POP SWAP2 SWAP1 POP JUMP JUMPDEST PUSH2 0x2E1 DUP2 PUSH2 0x2CF JUMP JUMPDEST DUP2 EQ PUSH2 0x2EB JUMPI PUSH0 DUP1 REVERT JUMPDEST POP JUMP JUMPDEST PUSH0 DUP2 CALLDATALOAD SWAP1 POP PUSH2 0x2FC DUP2 PUSH2 0x2D8 JUMP JUMPDEST SWAP3 SWAP2 POP POP JUMP JUMPDEST PUSH0 DUP1 PUSH1 0x40 DUP4 DUP6 SUB SLT ISZERO PUSH2 0x318 JUMPI PUSH2 0x317 PUSH2 0x2CB JUMP JUMPDEST JUMPDEST PUSH0 PUSH2 0x325 DUP6 DUP3 DUP7 ADD PUSH2 0x2EE JUMP JUMPDEST SWAP3 POP POP PUSH1 0x20 PUSH2 0x336 DUP6 DUP3 DUP7 ADD PUSH2 0x2EE JUMP JUMPDEST SWAP2 POP POP SWAP3 POP SWAP3 SWAP1 POP JUMP JUMPDEST PUSH0 PUSH1 0x20 DUP3 DUP5 SUB SLT ISZERO PUSH2 0x355 JUMPI PUSH2 0x354 PUSH2 0x2CB JUMP JUMPDEST JUMPDEST PUSH0 PUSH2 0x362 DUP5 DUP3 DUP6 ADD PUSH2 0x2EE JUMP JUMPDEST SWAP2 POP POP SWAP3 SWAP2 POP POP JUMP JUMPDEST PUSH2 0x374 DUP2 PUSH2 0x2CF JUMP JUMPDEST DUP3 MSTORE POP POP JUMP JUMPDEST PUSH0 PUSH1 0x20 DUP3 ADD SWAP1 POP PUSH2 0x38D PUSH0 DUP4 ADD DUP5 PUSH2 0x36B JUMP JUMPDEST SWAP3 SWAP2 POP POP JUMP JUMPDEST PUSH0 PUSH1 0x5 SWAP1 POP SWAP2 SWAP1 POP JUMP JUMPDEST PUSH0 DUP2 SWAP1 POP SWAP3 SWAP2 POP POP JUMP JUMPDEST PUSH0 DUP2 SWAP1 POP SWAP2 SWAP1 POP JUMP JUMPDEST PUSH2 0x3B9 DUP2 PUSH2 0x2CF JUMP JUMPDEST DUP3 MSTORE POP POP JUMP JUMPDEST PUSH0 PUSH2 0x3CA DUP4 DUP4 PUSH2 0x3B0 JUMP JUMPDEST PUSH1 0x20 DUP4 ADD SWAP1 POP SWAP3 SWAP2 POP POP JUMP JUMPDEST PUSH0 PUSH1 0x20 DUP3 ADD SWAP1 POP SWAP2 SWAP1 POP JUMP JUMPDEST PUSH2 0x3EB DUP2 PUSH2 0x393 JUMP JUMPDEST PUSH2 0x3F5 DUP2 DUP5 PUSH2 0x39D JUMP JUMPDEST SWAP3 POP PUSH2 0x400 DUP3 PUSH2 0x3A7 JUMP JUMPDEST DUP1 PUSH0 JUMPDEST DUP4 DUP2 LT ISZERO PUSH2 0x430 JUMPI DUP2 MLOAD PUSH2 0x417 DUP8 DUP3 PUSH2 0x3BF JUMP JUMPDEST SWAP7 POP PUSH2 0x422 DUP4 PUSH2 0x3D6 JUMP JUMPDEST SWAP3 POP POP PUSH1 0x1 DUP2 ADD SWAP1 POP PUSH2 0x403 JUMP JUMPDEST POP POP POP POP POP POP JUMP JUMPDEST PUSH0 PUSH1 0xA0 DUP3 ADD SWAP1 POP PUSH2 0x44B PUSH0 DUP4 ADD DUP5 PUSH2 0x3E2 JUMP JUMPDEST SWAP3 SWAP2 POP POP JUMP JUMPDEST PUSH0 DUP1 REVERT JUMPDEST PUSH0 PUSH1 0x1F NOT PUSH1 0x1F DUP4 ADD AND SWAP1 POP SWAP2 SWAP1 POP JUMP JUMPDEST PUSH32 0x4E487B7100000000000000000000000000000000000000000000000000000000 PUSH0 MSTORE PUSH1 0x41 PUSH1 0x4 MSTORE PUSH1 0x24 PUSH0 REVERT JUMPDEST PUSH2 0x49B DUP3 PUSH2 0x455 JUMP JUMPDEST DUP2 ADD DUP2 DUP2 LT PUSH8 0xFFFFFFFFFFFFFFFF DUP3 GT OR ISZERO PUSH2 0x4BA JUMPI PUSH2 0x4B9 PUSH2 0x465 JUMP JUMPDEST JUMPDEST DUP1 PUSH1 0x40 MSTORE POP POP POP JUMP JUMPDEST PUSH0 PUSH2 0x4CC PUSH2 0x2C2 JUMP JUMPDEST SWAP1 POP PUSH2 0x4D8 DUP3 DUP3 PUSH2 0x492 JUMP JUMPDEST SWAP2 SWAP1 POP JUMP JUMPDEST PUSH0 PUSH8 0xFFFFFFFFFFFFFFFF DUP3 GT ISZERO PUSH2 0x4F7 JUMPI PUSH2 0x4F6 PUSH2 0x465 JUMP JUMPDEST JUMPDEST PUSH1 0x20 DUP3 MUL SWAP1 POP SWAP2 SWAP1 POP JUMP JUMPDEST PUSH0 DUP1 REVERT JUMPDEST PUSH0 PUSH2 0x518 PUSH2 0x513 DUP5 PUSH2 0x4DD JUMP JUMPDEST PUSH2 0x4C3 JUMP JUMPDEST SWAP1 POP DUP1 PUSH1 0x20 DUP5 MUL DUP4 ADD DUP6 DUP2 GT ISZERO PUSH2 0x532 JUMPI PUSH2 0x531 PUSH2 0x502 JUMP JUMPDEST JUMPDEST DUP4 JUMPDEST DUP2 DUP2 LT ISZERO PUSH2 0x55B JUMPI DUP1 PUSH2 0x547 DUP9 DUP3 PUSH2 0x2EE JUMP JUMPDEST DUP5 MSTORE PUSH1 0x20 DUP5 ADD SWAP4 POP POP PUSH1 0x20 DUP2 ADD SWAP1 POP PUSH2 0x534 JUMP JUMPDEST POP POP POP SWAP4 SWAP3 POP POP POP JUMP JUMPDEST PUSH0 DUP3 PUSH1 0x1F DUP4 ADD SLT PUSH2 0x579 JUMPI PUSH2 0x578 PUSH2 0x451 JUMP JUMPDEST JUMPDEST PUSH1 0x3 PUSH2 0x586 DUP5 DUP3 DUP6 PUSH2 0x506 JUMP JUMPDEST SWAP2 POP POP SWAP3 SWAP2 POP POP JUMP JUMPDEST PUSH0 PUSH1 0x60 DUP3 DUP5 SUB SLT ISZERO PUSH2 0x5A4 JUMPI PUSH2 0x5A3 PUSH2 0x2CB JUMP JUMPDEST JUMPDEST PUSH0 PUSH2 0x5B1 DUP5 DUP3 DUP6 ADD PUSH2 0x565 JUMP JUMPDEST SWAP2 POP POP SWAP3 SWAP2 POP POP JUMP JUMPDEST PUSH0 PUSH1 0x3 SWAP1 POP SWAP2 SWAP1 POP JUMP JUMPDEST PUSH0 DUP2 SWAP1 POP SWAP3 SWAP2 POP POP JUMP JUMPDEST PUSH0 DUP2 SWAP1 POP SWAP2 SWAP1 POP JUMP JUMPDEST PUSH0 PUSH1 0x20 DUP3 ADD SWAP1 POP SWAP2 SWAP1 POP JUMP JUMPDEST PUSH2 0x5EC DUP2 PUSH2 0x5BA JUMP JUMPDEST PUSH2 0x5F6 DUP2 DUP5 PUSH2 0x5C4 JUMP JUMPDEST SWAP3 POP PUSH2 0x601 DUP3 PUSH2 0x5CE JUMP JUMPDEST DUP1 PUSH0 JUMPDEST DUP4 DUP2 LT ISZERO PUSH2 0x631 JUMPI DUP2 MLOAD PUSH2 0x618 DUP8 DUP3 PUSH2 0x3BF JUMP JUMPDEST SWAP7 POP PUSH2 0x623 DUP4 PUSH2 0x5D7 JUMP JUMPDEST SWAP3 POP POP PUSH1 0x1 DUP2 ADD SWAP1 POP PUSH2 0x604 JUMP JUMPDEST POP POP POP POP POP POP JUMP JUMPDEST PUSH0 PUSH1 0x60 DUP3 ADD SWAP1 POP PUSH2 0x64C PUSH0 DUP4 ADD DUP5 PUSH2 0x5E3 JUMP JUMPDEST SWAP3 SWAP2 POP POP JUMP JUMPDEST PUSH0 DUP2 SWAP1 POP DUP3 PUSH1 0x20 PUSH1 0x3 MUL DUP3 ADD GT ISZERO PUSH2 0x66D JUMPI PUSH2 0x66C PUSH2 0x502 JUMP JUMPDEST JUMPDEST SWAP3 SWAP2 POP POP JUMP JUMPDEST PUSH0 PUSH1 0x60 DUP3 DUP5 SUB SLT ISZERO PUSH2 0x688 JUMPI PUSH2 0x687 PUSH2 0x2CB JUMP JUMPDEST JUMPDEST PUSH0 PUSH2 0x695 DUP5 DUP3 DUP6 ADD PUSH2 0x652 JUMP JUMPDEST SWAP2 POP POP SWAP3 SWAP2 POP POP JUMP JUMPDEST PUSH32 0x4E487B7100000000000000000000000000000000000000000000000000000000 PUSH0 MSTORE PUSH1 0x32 PUSH1 0x4 MSTORE PUSH1 0x24 PUSH0 REVERT JUMPDEST PUSH32 0x4E487B7100000000000000000000000000000000000000000000000000000000 PUSH0 MSTORE PUSH1 0x11 PUSH1 0x4 MSTORE PUSH1 0x24 PUSH0 REVERT JUMPDEST PUSH0 PUSH2 0x702 DUP3 PUSH2 0x2CF JUMP JUMPDEST SWAP2 POP PUSH2 0x70D DUP4 PUSH2 0x2CF JUMP JUMPDEST SWAP3 POP DUP3 DUP3 MUL PUSH2 0x71B DUP2 PUSH2 0x2CF JUMP JUMPDEST SWAP2 POP DUP3 DUP3 DIV DUP5 EQ DUP4 ISZERO OR PUSH2 0x732 JUMPI PUSH2 0x731 PUSH2 0x6CB JUMP JUMPDEST JUMPDEST POP SWAP3 SWAP2 POP POP JUMP INVALID LOG2 PUSH5 0x6970667358 0x22 SLT KECCAK256 JUMP 0xB5 0x4D JUMP SWAP1 0xB8 PUSH24 0xD22EC89716D314D4742B0FEF45660A0E950690D072448AF6 0xA9 PUSH5 0x736F6C6343 STOP ADDMOD BYTE STOP CALLER "
				},
				"gasEstimates": {
					"creation": {
						"codeDepositCost": "380600",
						"executionCost": "infinite",
						"totalCost": "infinite"
					},
					"external": {
						"arr(uint256)": "infinite",
						"insertElement(uint256,uint256)": "infinite",
						"multiplyBy2Index0(uint256[3])": "infinite",
						"passingArray(uint256[3])": "infinite",
						"returnAllElemenst()": "infinite",
						"returnElement(uint256)": "infinite"
					}
				},
				"methodIdentifiers": {
					"arr(uint256)": "71e5ee5f",
					"insertElement(uint256,uint256)": "10db3c9f",
					"multiplyBy2Index0(uint256[3])": "98b0dee9",
					"passingArray(uint256[3])": "9a288ce0",
					"returnAllElemenst()": "687b31c6",
					"returnElement(uint256)": "5c269bcc"
				}
			},
			"storageLayout": {
				"storage": [
					{
						"astId": 9,
						"contract": "contracts/Array/memoryvsCallData.sol:MomeryVsCalldata",
						"label": "arr",
						"offset": 0,
						"slot": "0",
						"type": "t_array(t_uint256)5_storage"
					}
				],
				"types": {
					"t_array(t_uint256)5_storage": {
						"base": "t_uint256",
						"encoding": "inplace",
						"label": "uint256[5]",
						"numberOfBytes": "160"
					},
					"t_uint256": {
						"encoding": "inplace",
						"label": "uint256",
						"numberOfBytes": "32"
					}
				}
			},
			"userdoc": {
				"kind": "user",
				"methods": {},
				"version": 1
			}
		}
	}
}