{
	"data": {
		"bytecode": {
			"linkReferences": {},
			"object": "6080604052348015600e575f80fd5b50610a6b8061001c5f395ff3fe608060405234801561000f575f80fd5b506004361061003f575f3560e01c8063448a8e1e14610043578063993a04b714610075578063e0258db714610093575b5f80fd5b61005d60048036038101906100589190610379565b6100af565b60405161006c9392919061043d565b60405180910390f35b61007d61016d565b60405161008a91906105db565b60405180910390f35b6100ad60048036038101906100a89190610686565b610270565b005b5f81600481106100bd575f80fd5b600302015f91509050805f0180546100d490610737565b80601f016020809104026020016040519081016040528092919081815260200182805461010090610737565b801561014b5780601f106101225761010080835404028352916020019161014b565b820191905f5260205f20905b81548152906001019060200180831161012e57829003601f168201915b505050505090806001015490806002015f9054906101000a900460ff16905083565b6101756102f0565b5f600480602002604051908101604052809291905f905b82821015610267578382600302016040518060600160405290815f820180546101b490610737565b80601f01602080910402602001604051908101604052809291908181526020018280546101e090610737565b801561022b5780601f106102025761010080835404028352916020019161022b565b820191905f5260205f20905b81548152906001019060200180831161020e57829003601f168201915b5050505050815260200160018201548152602001600282015f9054906101000a900460ff1615151515815250508152602001906001019061018c565b50505050905090565b83835f876004811061028557610284610767565b5b600302015f019182610298929190610968565b50815f86600481106102ad576102ac610767565b5b6003020160010181905550805f86600481106102cc576102cb610767565b5b600302016002015f6101000a81548160ff0219169083151502179055505050505050565b60405180608001604052806004905b61030761031d565b8152602001906001900390816102ff5790505090565b6040518060600160405280606081526020015f81526020015f151581525090565b5f80fd5b5f80fd5b5f819050919050565b61035881610346565b8114610362575f80fd5b50565b5f813590506103738161034f565b92915050565b5f6020828403121561038e5761038d61033e565b5b5f61039b84828501610365565b91505092915050565b5f81519050919050565b5f82825260208201905092915050565b8281835e5f83830152505050565b5f601f19601f8301169050919050565b5f6103e6826103a4565b6103f081856103ae565b93506104008185602086016103be565b610409816103cc565b840191505092915050565b61041d81610346565b82525050565b5f8115159050919050565b61043781610423565b82525050565b5f6060820190508181035f83015261045581866103dc565b90506104646020830185610414565b610471604083018461042e565b949350505050565b5f60049050919050565b5f81905092915050565b5f819050919050565b5f82825260208201905092915050565b5f6104b0826103a4565b6104ba8185610496565b93506104ca8185602086016103be565b6104d3816103cc565b840191505092915050565b6104e781610346565b82525050565b6104f681610423565b82525050565b5f606083015f8301518482035f86015261051682826104a6565b915050602083015161052b60208601826104de565b50604083015161053e60408601826104ed565b508091505092915050565b5f61055483836104fc565b905092915050565b5f602082019050919050565b5f61057282610479565b61057c8185610483565b93508360208202850161058e8561048d565b805f5b858110156105c957848403895281516105aa8582610549565b94506105b58361055c565b925060208a01995050600181019050610591565b50829750879550505050505092915050565b5f6020820190508181035f8301526105f38184610568565b905092915050565b5f80fd5b5f80fd5b5f80fd5b5f8083601f84011261061c5761061b6105fb565b5b8235905067ffffffffffffffff811115610639576106386105ff565b5b60208301915083600182028301111561065557610654610603565b5b9250929050565b61066581610423565b811461066f575f80fd5b50565b5f813590506106808161065c565b92915050565b5f805f805f6080868803121561069f5761069e61033e565b5b5f6106ac88828901610365565b955050602086013567ffffffffffffffff8111156106cd576106cc610342565b5b6106d988828901610607565b945094505060406106ec88828901610365565b92505060606106fd88828901610672565b9150509295509295909350565b7f4e487b71000000000000000000000000000000000000000000000000000000005f52602260045260245ffd5b5f600282049050600182168061074e57607f821691505b6020821081036107615761076061070a565b5b50919050565b7f4e487b71000000000000000000000000000000000000000000000000000000005f52603260045260245ffd5b5f82905092915050565b7f4e487b71000000000000000000000000000000000000000000000000000000005f52604160045260245ffd5b5f819050815f5260205f209050919050565b5f6020601f8301049050919050565b5f82821b905092915050565b5f600883026108277fffffffffffffffffffffffffffffffffffffffffffffffffffffffffffffffff826107ec565b61083186836107ec565b95508019841693508086168417925050509392505050565b5f819050919050565b5f61086c61086761086284610346565b610849565b610346565b9050919050565b5f819050919050565b61088583610852565b61089961089182610873565b8484546107f8565b825550505050565b5f90565b6108ad6108a1565b6108b881848461087c565b505050565b5b818110156108db576108d05f826108a5565b6001810190506108be565b5050565b601f821115610920576108f1816107cb565b6108fa846107dd565b81016020851015610909578190505b61091d610915856107dd565b8301826108bd565b50505b505050565b5f82821c905092915050565b5f6109405f1984600802610925565b1980831691505092915050565b5f6109588383610931565b9150826002028217905092915050565b6109728383610794565b67ffffffffffffffff81111561098b5761098a61079e565b5b6109958254610737565b6109a08282856108df565b5f601f8311600181146109cd575f84156109bb578287013590505b6109c5858261094d565b865550610a2c565b601f1984166109db866107cb565b5f5b82811015610a02578489013582556001820191506020850194506020810190506109dd565b86831015610a1f5784890135610a1b601f891682610931565b8355505b6001600288020188555050505b5050505050505056fea264697066735822122011b890606563ddb80425ea232edcd38faa8d25918996a667876f890806fc74b264736f6c634300081a0033",
			"opcodes": "PUSH1 0x80 PUSH1 0x40 MSTORE CALLVALUE DUP1 ISZERO PUSH1 0xE JUMPI PUSH0 DUP1 REVERT JUMPDEST POP PUSH2 0xA6B DUP1 PUSH2 0x1C PUSH0 CODECOPY PUSH0 RETURN INVALID PUSH1 0x80 PUSH1 0x40 MSTORE CALLVALUE DUP1 ISZERO PUSH2 0xF JUMPI PUSH0 DUP1 REVERT JUMPDEST POP PUSH1 0x4 CALLDATASIZE LT PUSH2 0x3F JUMPI PUSH0 CALLDATALOAD PUSH1 0xE0 SHR DUP1 PUSH4 0x448A8E1E EQ PUSH2 0x43 JUMPI DUP1 PUSH4 0x993A04B7 EQ PUSH2 0x75 JUMPI DUP1 PUSH4 0xE0258DB7 EQ PUSH2 0x93 JUMPI JUMPDEST PUSH0 DUP1 REVERT JUMPDEST PUSH2 0x5D PUSH1 0x4 DUP1 CALLDATASIZE SUB DUP2 ADD SWAP1 PUSH2 0x58 SWAP2 SWAP1 PUSH2 0x379 JUMP JUMPDEST PUSH2 0xAF JUMP JUMPDEST PUSH1 0x40 MLOAD PUSH2 0x6C SWAP4 SWAP3 SWAP2 SWAP1 PUSH2 0x43D JUMP JUMPDEST PUSH1 0x40 MLOAD DUP1 SWAP2 SUB SWAP1 RETURN JUMPDEST PUSH2 0x7D PUSH2 0x16D JUMP JUMPDEST PUSH1 0x40 MLOAD PUSH2 0x8A SWAP2 SWAP1 PUSH2 0x5DB JUMP JUMPDEST PUSH1 0x40 MLOAD DUP1 SWAP2 SUB SWAP1 RETURN JUMPDEST PUSH2 0xAD PUSH1 0x4 DUP1 CALLDATASIZE SUB DUP2 ADD SWAP1 PUSH2 0xA8 SWAP2 SWAP1 PUSH2 0x686 JUMP JUMPDEST PUSH2 0x270 JUMP JUMPDEST STOP JUMPDEST PUSH0 DUP2 PUSH1 0x4 DUP2 LT PUSH2 0xBD JUMPI PUSH0 DUP1 REVERT JUMPDEST PUSH1 0x3 MUL ADD PUSH0 SWAP2 POP SWAP1 POP DUP1 PUSH0 ADD DUP1 SLOAD PUSH2 0xD4 SWAP1 PUSH2 0x737 JUMP JUMPDEST DUP1 PUSH1 0x1F ADD PUSH1 0x20 DUP1 SWAP2 DIV MUL PUSH1 0x20 ADD PUSH1 0x40 MLOAD SWAP1 DUP2 ADD PUSH1 0x40 MSTORE DUP1 SWAP3 SWAP2 SWAP1 DUP2 DUP2 MSTORE PUSH1 0x20 ADD DUP3 DUP1 SLOAD PUSH2 0x100 SWAP1 PUSH2 0x737 JUMP JUMPDEST DUP1 ISZERO PUSH2 0x14B JUMPI DUP1 PUSH1 0x1F LT PUSH2 0x122 JUMPI PUSH2 0x100 DUP1 DUP4 SLOAD DIV MUL DUP4 MSTORE SWAP2 PUSH1 0x20 ADD SWAP2 PUSH2 0x14B JUMP JUMPDEST DUP3 ADD SWAP2 SWAP1 PUSH0 MSTORE PUSH1 0x20 PUSH0 KECCAK256 SWAP1 JUMPDEST DUP2 SLOAD DUP2 MSTORE SWAP1 PUSH1 0x1 ADD SWAP1 PUSH1 0x20 ADD DUP1 DUP4 GT PUSH2 0x12E JUMPI DUP3 SWAP1 SUB PUSH1 0x1F AND DUP3 ADD SWAP2 JUMPDEST POP POP POP POP POP SWAP1 DUP1 PUSH1 0x1 ADD SLOAD SWAP1 DUP1 PUSH1 0x2 ADD PUSH0 SWAP1 SLOAD SWAP1 PUSH2 0x100 EXP SWAP1 DIV PUSH1 0xFF AND SWAP1 POP DUP4 JUMP JUMPDEST PUSH2 0x175 PUSH2 0x2F0 JUMP JUMPDEST PUSH0 PUSH1 0x4 DUP1 PUSH1 0x20 MUL PUSH1 0x40 MLOAD SWAP1 DUP2 ADD PUSH1 0x40 MSTORE DUP1 SWAP3 SWAP2 SWAP1 PUSH0 SWAP1 JUMPDEST DUP3 DUP3 LT ISZERO PUSH2 0x267 JUMPI DUP4 DUP3 PUSH1 0x3 MUL ADD PUSH1 0x40 MLOAD DUP1 PUSH1 0x60 ADD PUSH1 0x40 MSTORE SWAP1 DUP2 PUSH0 DUP3 ADD DUP1 SLOAD PUSH2 0x1B4 SWAP1 PUSH2 0x737 JUMP JUMPDEST DUP1 PUSH1 0x1F ADD PUSH1 0x20 DUP1 SWAP2 DIV MUL PUSH1 0x20 ADD PUSH1 0x40 MLOAD SWAP1 DUP2 ADD PUSH1 0x40 MSTORE DUP1 SWAP3 SWAP2 SWAP1 DUP2 DUP2 MSTORE PUSH1 0x20 ADD DUP3 DUP1 SLOAD PUSH2 0x1E0 SWAP1 PUSH2 0x737 JUMP JUMPDEST DUP1 ISZERO PUSH2 0x22B JUMPI DUP1 PUSH1 0x1F LT PUSH2 0x202 JUMPI PUSH2 0x100 DUP1 DUP4 SLOAD DIV MUL DUP4 MSTORE SWAP2 PUSH1 0x20 ADD SWAP2 PUSH2 0x22B JUMP JUMPDEST DUP3 ADD SWAP2 SWAP1 PUSH0 MSTORE PUSH1 0x20 PUSH0 KECCAK256 SWAP1 JUMPDEST DUP2 SLOAD DUP2 MSTORE SWAP1 PUSH1 0x1 ADD SWAP1 PUSH1 0x20 ADD DUP1 DUP4 GT PUSH2 0x20E JUMPI DUP3 SWAP1 SUB PUSH1 0x1F AND DUP3 ADD SWAP2 JUMPDEST POP POP POP POP POP DUP2 MSTORE PUSH1 0x20 ADD PUSH1 0x1 DUP3 ADD SLOAD DUP2 MSTORE PUSH1 0x20 ADD PUSH1 0x2 DUP3 ADD PUSH0 SWAP1 SLOAD SWAP1 PUSH2 0x100 EXP SWAP1 DIV PUSH1 0xFF AND ISZERO ISZERO ISZERO ISZERO DUP2 MSTORE POP POP DUP2 MSTORE PUSH1 0x20 ADD SWAP1 PUSH1 0x1 ADD SWAP1 PUSH2 0x18C JUMP JUMPDEST POP POP POP POP SWAP1 POP SWAP1 JUMP JUMPDEST DUP4 DUP4 PUSH0 DUP8 PUSH1 0x4 DUP2 LT PUSH2 0x285 JUMPI PUSH2 0x284 PUSH2 0x767 JUMP JUMPDEST JUMPDEST PUSH1 0x3 MUL ADD PUSH0 ADD SWAP2 DUP3 PUSH2 0x298 SWAP3 SWAP2 SWAP1 PUSH2 0x968 JUMP JUMPDEST POP DUP2 PUSH0 DUP7 PUSH1 0x4 DUP2 LT PUSH2 0x2AD JUMPI PUSH2 0x2AC PUSH2 0x767 JUMP JUMPDEST JUMPDEST PUSH1 0x3 MUL ADD PUSH1 0x1 ADD DUP2 SWAP1 SSTORE POP DUP1 PUSH0 DUP7 PUSH1 0x4 DUP2 LT PUSH2 0x2CC JUMPI PUSH2 0x2CB PUSH2 0x767 JUMP JUMPDEST JUMPDEST PUSH1 0x3 MUL ADD PUSH1 0x2 ADD PUSH0 PUSH2 0x100 EXP DUP2 SLOAD DUP2 PUSH1 0xFF MUL NOT AND SWAP1 DUP4 ISZERO ISZERO MUL OR SWAP1 SSTORE POP POP POP POP POP POP JUMP JUMPDEST PUSH1 0x40 MLOAD DUP1 PUSH1 0x80 ADD PUSH1 0x40 MSTORE DUP1 PUSH1 0x4 SWAP1 JUMPDEST PUSH2 0x307 PUSH2 0x31D JUMP JUMPDEST DUP2 MSTORE PUSH1 0x20 ADD SWAP1 PUSH1 0x1 SWAP1 SUB SWAP1 DUP2 PUSH2 0x2FF JUMPI SWAP1 POP POP SWAP1 JUMP JUMPDEST PUSH1 0x40 MLOAD DUP1 PUSH1 0x60 ADD PUSH1 0x40 MSTORE DUP1 PUSH1 0x60 DUP2 MSTORE PUSH1 0x20 ADD PUSH0 DUP2 MSTORE PUSH1 0x20 ADD PUSH0 ISZERO ISZERO DUP2 MSTORE POP SWAP1 JUMP JUMPDEST PUSH0 DUP1 REVERT JUMPDEST PUSH0 DUP1 REVERT JUMPDEST PUSH0 DUP2 SWAP1 POP SWAP2 SWAP1 POP JUMP JUMPDEST PUSH2 0x358 DUP2 PUSH2 0x346 JUMP JUMPDEST DUP2 EQ PUSH2 0x362 JUMPI PUSH0 DUP1 REVERT JUMPDEST POP JUMP JUMPDEST PUSH0 DUP2 CALLDATALOAD SWAP1 POP PUSH2 0x373 DUP2 PUSH2 0x34F JUMP JUMPDEST SWAP3 SWAP2 POP POP JUMP JUMPDEST PUSH0 PUSH1 0x20 DUP3 DUP5 SUB SLT ISZERO PUSH2 0x38E JUMPI PUSH2 0x38D PUSH2 0x33E JUMP JUMPDEST JUMPDEST PUSH0 PUSH2 0x39B DUP5 DUP3 DUP6 ADD PUSH2 0x365 JUMP JUMPDEST SWAP2 POP POP SWAP3 SWAP2 POP POP JUMP JUMPDEST PUSH0 DUP2 MLOAD SWAP1 POP SWAP2 SWAP1 POP JUMP JUMPDEST PUSH0 DUP3 DUP3 MSTORE PUSH1 0x20 DUP3 ADD SWAP1 POP SWAP3 SWAP2 POP POP JUMP JUMPDEST DUP3 DUP2 DUP4 MCOPY PUSH0 DUP4 DUP4 ADD MSTORE POP POP POP JUMP JUMPDEST PUSH0 PUSH1 0x1F NOT PUSH1 0x1F DUP4 ADD AND SWAP1 POP SWAP2 SWAP1 POP JUMP JUMPDEST PUSH0 PUSH2 0x3E6 DUP3 PUSH2 0x3A4 JUMP JUMPDEST PUSH2 0x3F0 DUP2 DUP6 PUSH2 0x3AE JUMP JUMPDEST SWAP4 POP PUSH2 0x400 DUP2 DUP6 PUSH1 0x20 DUP7 ADD PUSH2 0x3BE JUMP JUMPDEST PUSH2 0x409 DUP2 PUSH2 0x3CC JUMP JUMPDEST DUP5 ADD SWAP2 POP POP SWAP3 SWAP2 POP POP JUMP JUMPDEST PUSH2 0x41D DUP2 PUSH2 0x346 JUMP JUMPDEST DUP3 MSTORE POP POP JUMP JUMPDEST PUSH0 DUP2 ISZERO ISZERO SWAP1 POP SWAP2 SWAP1 POP JUMP JUMPDEST PUSH2 0x437 DUP2 PUSH2 0x423 JUMP JUMPDEST DUP3 MSTORE POP POP JUMP JUMPDEST PUSH0 PUSH1 0x60 DUP3 ADD SWAP1 POP DUP2 DUP2 SUB PUSH0 DUP4 ADD MSTORE PUSH2 0x455 DUP2 DUP7 PUSH2 0x3DC JUMP JUMPDEST SWAP1 POP PUSH2 0x464 PUSH1 0x20 DUP4 ADD DUP6 PUSH2 0x414 JUMP JUMPDEST PUSH2 0x471 PUSH1 0x40 DUP4 ADD DUP5 PUSH2 0x42E JUMP JUMPDEST SWAP5 SWAP4 POP POP POP POP JUMP JUMPDEST PUSH0 PUSH1 0x4 SWAP1 POP SWAP2 SWAP1 POP JUMP JUMPDEST PUSH0 DUP2 SWAP1 POP SWAP3 SWAP2 POP POP JUMP JUMPDEST PUSH0 DUP2 SWAP1 POP SWAP2 SWAP1 POP JUMP JUMPDEST PUSH0 DUP3 DUP3 MSTORE PUSH1 0x20 DUP3 ADD SWAP1 POP SWAP3 SWAP2 POP POP JUMP JUMPDEST PUSH0 PUSH2 0x4B0 DUP3 PUSH2 0x3A4 JUMP JUMPDEST PUSH2 0x4BA DUP2 DUP6 PUSH2 0x496 JUMP JUMPDEST SWAP4 POP PUSH2 0x4CA DUP2 DUP6 PUSH1 0x20 DUP7 ADD PUSH2 0x3BE JUMP JUMPDEST PUSH2 0x4D3 DUP2 PUSH2 0x3CC JUMP JUMPDEST DUP5 ADD SWAP2 POP POP SWAP3 SWAP2 POP POP JUMP JUMPDEST PUSH2 0x4E7 DUP2 PUSH2 0x346 JUMP JUMPDEST DUP3 MSTORE POP POP JUMP JUMPDEST PUSH2 0x4F6 DUP2 PUSH2 0x423 JUMP JUMPDEST DUP3 MSTORE POP POP JUMP JUMPDEST PUSH0 PUSH1 0x60 DUP4 ADD PUSH0 DUP4 ADD MLOAD DUP5 DUP3 SUB PUSH0 DUP7 ADD MSTORE PUSH2 0x516 DUP3 DUP3 PUSH2 0x4A6 JUMP JUMPDEST SWAP2 POP POP PUSH1 0x20 DUP4 ADD MLOAD PUSH2 0x52B PUSH1 0x20 DUP7 ADD DUP3 PUSH2 0x4DE JUMP JUMPDEST POP PUSH1 0x40 DUP4 ADD MLOAD PUSH2 0x53E PUSH1 0x40 DUP7 ADD DUP3 PUSH2 0x4ED JUMP JUMPDEST POP DUP1 SWAP2 POP POP SWAP3 SWAP2 POP POP JUMP JUMPDEST PUSH0 PUSH2 0x554 DUP4 DUP4 PUSH2 0x4FC JUMP JUMPDEST SWAP1 POP SWAP3 SWAP2 POP POP JUMP JUMPDEST PUSH0 PUSH1 0x20 DUP3 ADD SWAP1 POP SWAP2 SWAP1 POP JUMP JUMPDEST PUSH0 PUSH2 0x572 DUP3 PUSH2 0x479 JUMP JUMPDEST PUSH2 0x57C DUP2 DUP6 PUSH2 0x483 JUMP JUMPDEST SWAP4 POP DUP4 PUSH1 0x20 DUP3 MUL DUP6 ADD PUSH2 0x58E DUP6 PUSH2 0x48D JUMP JUMPDEST DUP1 PUSH0 JUMPDEST DUP6 DUP2 LT ISZERO PUSH2 0x5C9 JUMPI DUP5 DUP5 SUB DUP10 MSTORE DUP2 MLOAD PUSH2 0x5AA DUP6 DUP3 PUSH2 0x549 JUMP JUMPDEST SWAP5 POP PUSH2 0x5B5 DUP4 PUSH2 0x55C JUMP JUMPDEST SWAP3 POP PUSH1 0x20 DUP11 ADD SWAP10 POP POP PUSH1 0x1 DUP2 ADD SWAP1 POP PUSH2 0x591 JUMP JUMPDEST POP DUP3 SWAP8 POP DUP8 SWAP6 POP POP POP POP POP POP SWAP3 SWAP2 POP POP JUMP JUMPDEST PUSH0 PUSH1 0x20 DUP3 ADD SWAP1 POP DUP2 DUP2 SUB PUSH0 DUP4 ADD MSTORE PUSH2 0x5F3 DUP2 DUP5 PUSH2 0x568 JUMP JUMPDEST SWAP1 POP SWAP3 SWAP2 POP POP JUMP JUMPDEST PUSH0 DUP1 REVERT JUMPDEST PUSH0 DUP1 REVERT JUMPDEST PUSH0 DUP1 REVERT JUMPDEST PUSH0 DUP1 DUP4 PUSH1 0x1F DUP5 ADD SLT PUSH2 0x61C JUMPI PUSH2 0x61B PUSH2 0x5FB JUMP JUMPDEST JUMPDEST DUP3 CALLDATALOAD SWAP1 POP PUSH8 0xFFFFFFFFFFFFFFFF DUP2 GT ISZERO PUSH2 0x639 JUMPI PUSH2 0x638 PUSH2 0x5FF JUMP JUMPDEST JUMPDEST PUSH1 0x20 DUP4 ADD SWAP2 POP DUP4 PUSH1 0x1 DUP3 MUL DUP4 ADD GT ISZERO PUSH2 0x655 JUMPI PUSH2 0x654 PUSH2 0x603 JUMP JUMPDEST JUMPDEST SWAP3 POP SWAP3 SWAP1 POP JUMP JUMPDEST PUSH2 0x665 DUP2 PUSH2 0x423 JUMP JUMPDEST DUP2 EQ PUSH2 0x66F JUMPI PUSH0 DUP1 REVERT JUMPDEST POP JUMP JUMPDEST PUSH0 DUP2 CALLDATALOAD SWAP1 POP PUSH2 0x680 DUP2 PUSH2 0x65C JUMP JUMPDEST SWAP3 SWAP2 POP POP JUMP JUMPDEST PUSH0 DUP1 PUSH0 DUP1 PUSH0 PUSH1 0x80 DUP7 DUP9 SUB SLT ISZERO PUSH2 0x69F JUMPI PUSH2 0x69E PUSH2 0x33E JUMP JUMPDEST JUMPDEST PUSH0 PUSH2 0x6AC DUP9 DUP3 DUP10 ADD PUSH2 0x365 JUMP JUMPDEST SWAP6 POP POP PUSH1 0x20 DUP7 ADD CALLDATALOAD PUSH8 0xFFFFFFFFFFFFFFFF DUP2 GT ISZERO PUSH2 0x6CD JUMPI PUSH2 0x6CC PUSH2 0x342 JUMP JUMPDEST JUMPDEST PUSH2 0x6D9 DUP9 DUP3 DUP10 ADD PUSH2 0x607 JUMP JUMPDEST SWAP5 POP SWAP5 POP POP PUSH1 0x40 PUSH2 0x6EC DUP9 DUP3 DUP10 ADD PUSH2 0x365 JUMP JUMPDEST SWAP3 POP POP PUSH1 0x60 PUSH2 0x6FD DUP9 DUP3 DUP10 ADD PUSH2 0x672 JUMP JUMPDEST SWAP2 POP POP SWAP3 SWAP6 POP SWAP3 SWAP6 SWAP1 SWAP4 POP JUMP JUMPDEST PUSH32 0x4E487B7100000000000000000000000000000000000000000000000000000000 PUSH0 MSTORE PUSH1 0x22 PUSH1 0x4 MSTORE PUSH1 0x24 PUSH0 REVERT JUMPDEST PUSH0 PUSH1 0x2 DUP3 DIV SWAP1 POP PUSH1 0x1 DUP3 AND DUP1 PUSH2 0x74E JUMPI PUSH1 0x7F DUP3 AND SWAP2 POP JUMPDEST PUSH1 0x20 DUP3 LT DUP2 SUB PUSH2 0x761 JUMPI PUSH2 0x760 PUSH2 0x70A JUMP JUMPDEST JUMPDEST POP SWAP2 SWAP1 POP JUMP JUMPDEST PUSH32 0x4E487B7100000000000000000000000000000000000000000000000000000000 PUSH0 MSTORE PUSH1 0x32 PUSH1 0x4 MSTORE PUSH1 0x24 PUSH0 REVERT JUMPDEST PUSH0 DUP3 SWAP1 POP SWAP3 SWAP2 POP POP JUMP JUMPDEST PUSH32 0x4E487B7100000000000000000000000000000000000000000000000000000000 PUSH0 MSTORE PUSH1 0x41 PUSH1 0x4 MSTORE PUSH1 0x24 PUSH0 REVERT JUMPDEST PUSH0 DUP2 SWAP1 POP DUP2 PUSH0 MSTORE PUSH1 0x20 PUSH0 KECCAK256 SWAP1 POP SWAP2 SWAP1 POP JUMP JUMPDEST PUSH0 PUSH1 0x20 PUSH1 0x1F DUP4 ADD DIV SWAP1 POP SWAP2 SWAP1 POP JUMP JUMPDEST PUSH0 DUP3 DUP3 SHL SWAP1 POP SWAP3 SWAP2 POP POP JUMP JUMPDEST PUSH0 PUSH1 0x8 DUP4 MUL PUSH2 0x827 PUSH32 0xFFFFFFFFFFFFFFFFFFFFFFFFFFFFFFFFFFFFFFFFFFFFFFFFFFFFFFFFFFFFFFFF DUP3 PUSH2 0x7EC JUMP JUMPDEST PUSH2 0x831 DUP7 DUP4 PUSH2 0x7EC JUMP JUMPDEST SWAP6 POP DUP1 NOT DUP5 AND SWAP4 POP DUP1 DUP7 AND DUP5 OR SWAP3 POP POP POP SWAP4 SWAP3 POP POP POP JUMP JUMPDEST PUSH0 DUP2 SWAP1 POP SWAP2 SWAP1 POP JUMP JUMPDEST PUSH0 PUSH2 0x86C PUSH2 0x867 PUSH2 0x862 DUP5 PUSH2 0x346 JUMP JUMPDEST PUSH2 0x849 JUMP JUMPDEST PUSH2 0x346 JUMP JUMPDEST SWAP1 POP SWAP2 SWAP1 POP JUMP JUMPDEST PUSH0 DUP2 SWAP1 POP SWAP2 SWAP1 POP JUMP JUMPDEST PUSH2 0x885 DUP4 PUSH2 0x852 JUMP JUMPDEST PUSH2 0x899 PUSH2 0x891 DUP3 PUSH2 0x873 JUMP JUMPDEST DUP5 DUP5 SLOAD PUSH2 0x7F8 JUMP JUMPDEST DUP3 SSTORE POP POP POP POP JUMP JUMPDEST PUSH0 SWAP1 JUMP JUMPDEST PUSH2 0x8AD PUSH2 0x8A1 JUMP JUMPDEST PUSH2 0x8B8 DUP2 DUP5 DUP5 PUSH2 0x87C JUMP JUMPDEST POP POP POP JUMP JUMPDEST JUMPDEST DUP2 DUP2 LT ISZERO PUSH2 0x8DB JUMPI PUSH2 0x8D0 PUSH0 DUP3 PUSH2 0x8A5 JUMP JUMPDEST PUSH1 0x1 DUP2 ADD SWAP1 POP PUSH2 0x8BE JUMP JUMPDEST POP POP JUMP JUMPDEST PUSH1 0x1F DUP3 GT ISZERO PUSH2 0x920 JUMPI PUSH2 0x8F1 DUP2 PUSH2 0x7CB JUMP JUMPDEST PUSH2 0x8FA DUP5 PUSH2 0x7DD JUMP JUMPDEST DUP2 ADD PUSH1 0x20 DUP6 LT ISZERO PUSH2 0x909 JUMPI DUP2 SWAP1 POP JUMPDEST PUSH2 0x91D PUSH2 0x915 DUP6 PUSH2 0x7DD JUMP JUMPDEST DUP4 ADD DUP3 PUSH2 0x8BD JUMP JUMPDEST POP POP JUMPDEST POP POP POP JUMP JUMPDEST PUSH0 DUP3 DUP3 SHR SWAP1 POP SWAP3 SWAP2 POP POP JUMP JUMPDEST PUSH0 PUSH2 0x940 PUSH0 NOT DUP5 PUSH1 0x8 MUL PUSH2 0x925 JUMP JUMPDEST NOT DUP1 DUP4 AND SWAP2 POP POP SWAP3 SWAP2 POP POP JUMP JUMPDEST PUSH0 PUSH2 0x958 DUP4 DUP4 PUSH2 0x931 JUMP JUMPDEST SWAP2 POP DUP3 PUSH1 0x2 MUL DUP3 OR SWAP1 POP SWAP3 SWAP2 POP POP JUMP JUMPDEST PUSH2 0x972 DUP4 DUP4 PUSH2 0x794 JUMP JUMPDEST PUSH8 0xFFFFFFFFFFFFFFFF DUP2 GT ISZERO PUSH2 0x98B JUMPI PUSH2 0x98A PUSH2 0x79E JUMP JUMPDEST JUMPDEST PUSH2 0x995 DUP3 SLOAD PUSH2 0x737 JUMP JUMPDEST PUSH2 0x9A0 DUP3 DUP3 DUP6 PUSH2 0x8DF JUMP JUMPDEST PUSH0 PUSH1 0x1F DUP4 GT PUSH1 0x1 DUP2 EQ PUSH2 0x9CD JUMPI PUSH0 DUP5 ISZERO PUSH2 0x9BB JUMPI DUP3 DUP8 ADD CALLDATALOAD SWAP1 POP JUMPDEST PUSH2 0x9C5 DUP6 DUP3 PUSH2 0x94D JUMP JUMPDEST DUP7 SSTORE POP PUSH2 0xA2C JUMP JUMPDEST PUSH1 0x1F NOT DUP5 AND PUSH2 0x9DB DUP7 PUSH2 0x7CB JUMP JUMPDEST PUSH0 JUMPDEST DUP3 DUP2 LT ISZERO PUSH2 0xA02 JUMPI DUP5 DUP10 ADD CALLDATALOAD DUP3 SSTORE PUSH1 0x1 DUP3 ADD SWAP2 POP PUSH1 0x20 DUP6 ADD SWAP5 POP PUSH1 0x20 DUP2 ADD SWAP1 POP PUSH2 0x9DD JUMP JUMPDEST DUP7 DUP4 LT ISZERO PUSH2 0xA1F JUMPI DUP5 DUP10 ADD CALLDATALOAD PUSH2 0xA1B PUSH1 0x1F DUP10 AND DUP3 PUSH2 0x931 JUMP JUMPDEST DUP4 SSTORE POP JUMPDEST PUSH1 0x1 PUSH1 0x2 DUP9 MUL ADD DUP9 SSTORE POP POP POP JUMPDEST POP POP POP POP POP POP POP JUMP INVALID LOG2 PUSH5 0x6970667358 0x22 SLT KECCAK256 GT 0xB8 SWAP1 PUSH1 0x65 PUSH4 0xDDB80425 0xEA 0x23 0x2E 0xDC 0xD3 DUP16 0xAA DUP14 0x25 SWAP2 DUP10 SWAP7 0xA6 PUSH8 0x876F890806FC74B2 PUSH5 0x736F6C6343 STOP ADDMOD BYTE STOP CALLER "
		},
		"gasEstimates": {
			"creation": {
				"codeDepositCost": "533400",
				"executionCost": "566",
				"totalCost": "533966"
			},
			"external": {
				"getter()": "infinite",
				"insert(uint256,string,uint256,bool)": "infinite",
				"s1(uint256)": "infinite"
			}
		},
		"methodIdentifiers": {
			"getter()": "993a04b7",
			"insert(uint256,string,uint256,bool)": "e0258db7",
			"s1(uint256)": "448a8e1e"
		}
	},
	"abi": [
		{
			"inputs": [],
			"name": "getter",
			"outputs": [
				{
					"components": [
						{
							"internalType": "string",
							"name": "name",
							"type": "string"
						},
						{
							"internalType": "uint256",
							"name": "roll",
							"type": "uint256"
						},
						{
							"internalType": "bool",
							"name": "pass",
							"type": "bool"
						}
					],
					"internalType": "struct employee.Student[4]",
					"name": "",
					"type": "tuple[4]"
				}
			],
			"stateMutability": "view",
			"type": "function"
		},
		{
			"inputs": [
				{
					"internalType": "uint256",
					"name": "index",
					"type": "uint256"
				},
				{
					"internalType": "string",
					"name": "_name",
					"type": "string"
				},
				{
					"internalType": "uint256",
					"name": "_roll",
					"type": "uint256"
				},
				{
					"internalType": "bool",
					"name": "_pass",
					"type": "bool"
				}
			],
			"name": "insert",
			"outputs": [],
			"stateMutability": "nonpayable",
			"type": "function"
		},
		{
			"inputs": [
				{
					"internalType": "uint256",
					"name": "",
					"type": "uint256"
				}
			],
			"name": "s1",
			"outputs": [
				{
					"internalType": "string",
					"name": "name",
					"type": "string"
				},
				{
					"internalType": "uint256",
					"name": "roll",
					"type": "uint256"
				},
				{
					"internalType": "bool",
					"name": "pass",
					"type": "bool"
				}
			],
			"stateMutability": "view",
			"type": "function"
		}
	]
}